{
	"contracts/LaunchSettings.sol": {
		"LaunchSettings": {
			"abi": [
				{
					"inputs": [],
					"stateMutability": "nonpayable",
					"type": "constructor"
				},
				{
					"anonymous": false,
					"inputs": [
						{
							"indexed": true,
							"internalType": "address",
							"name": "previousOwner",
							"type": "address"
						},
						{
							"indexed": true,
							"internalType": "address",
							"name": "newOwner",
							"type": "address"
						}
					],
					"name": "OwnershipTransferred",
					"type": "event"
				},
				{
					"anonymous": false,
					"inputs": [
						{
							"indexed": false,
							"internalType": "uint256",
							"name": "_old",
							"type": "uint256"
						},
						{
							"indexed": false,
							"internalType": "uint256",
							"name": "_new",
							"type": "uint256"
						}
					],
					"name": "UpdateCuratorFee",
					"type": "event"
				},
				{
					"anonymous": false,
					"inputs": [
						{
							"indexed": false,
							"internalType": "address",
							"name": "_old",
							"type": "address"
						},
						{
							"indexed": false,
							"internalType": "address",
							"name": "_new",
							"type": "address"
						}
					],
					"name": "UpdateFeeReceiver",
					"type": "event"
				},
				{
					"anonymous": false,
					"inputs": [
						{
							"indexed": false,
							"internalType": "uint256",
							"name": "_old",
							"type": "uint256"
						},
						{
							"indexed": false,
							"internalType": "uint256",
							"name": "_new",
							"type": "uint256"
						}
					],
					"name": "UpdateGovernanceFee",
					"type": "event"
				},
				{
					"anonymous": false,
					"inputs": [
						{
							"indexed": false,
							"internalType": "uint256",
							"name": "_old",
							"type": "uint256"
						},
						{
							"indexed": false,
							"internalType": "uint256",
							"name": "_new",
							"type": "uint256"
						}
					],
					"name": "UpdateMaxAuctionLength",
					"type": "event"
				},
				{
					"anonymous": false,
					"inputs": [
						{
							"indexed": false,
							"internalType": "uint256",
							"name": "_old",
							"type": "uint256"
						},
						{
							"indexed": false,
							"internalType": "uint256",
							"name": "_new",
							"type": "uint256"
						}
					],
					"name": "UpdateMaxReserveFactor",
					"type": "event"
				},
				{
					"anonymous": false,
					"inputs": [
						{
							"indexed": false,
							"internalType": "uint256",
							"name": "_old",
							"type": "uint256"
						},
						{
							"indexed": false,
							"internalType": "uint256",
							"name": "_new",
							"type": "uint256"
						}
					],
					"name": "UpdateMinAuctionLength",
					"type": "event"
				},
				{
					"anonymous": false,
					"inputs": [
						{
							"indexed": false,
							"internalType": "uint256",
							"name": "_old",
							"type": "uint256"
						},
						{
							"indexed": false,
							"internalType": "uint256",
							"name": "_new",
							"type": "uint256"
						}
					],
					"name": "UpdateMinBidIncrease",
					"type": "event"
				},
				{
					"anonymous": false,
					"inputs": [
						{
							"indexed": false,
							"internalType": "uint256",
							"name": "_old",
							"type": "uint256"
						},
						{
							"indexed": false,
							"internalType": "uint256",
							"name": "_new",
							"type": "uint256"
						}
					],
					"name": "UpdateMinReserveFactor",
					"type": "event"
				},
				{
					"anonymous": false,
					"inputs": [
						{
							"indexed": false,
							"internalType": "uint256",
							"name": "_old",
							"type": "uint256"
						},
						{
							"indexed": false,
							"internalType": "uint256",
							"name": "_new",
							"type": "uint256"
						}
					],
					"name": "UpdateMinVotePercentage",
					"type": "event"
				},
				{
					"inputs": [],
					"name": "feeReceiver",
					"outputs": [
						{
							"internalType": "address payable",
							"name": "",
							"type": "address"
						}
					],
					"stateMutability": "view",
					"type": "function"
				},
				{
					"inputs": [],
					"name": "governanceFee",
					"outputs": [
						{
							"internalType": "uint256",
							"name": "",
							"type": "uint256"
						}
					],
					"stateMutability": "view",
					"type": "function"
				},
				{
					"inputs": [],
					"name": "maxAuctionLength",
					"outputs": [
						{
							"internalType": "uint256",
							"name": "",
							"type": "uint256"
						}
					],
					"stateMutability": "view",
					"type": "function"
				},
				{
					"inputs": [],
					"name": "maxCuratorFee",
					"outputs": [
						{
							"internalType": "uint256",
							"name": "",
							"type": "uint256"
						}
					],
					"stateMutability": "view",
					"type": "function"
				},
				{
					"inputs": [],
					"name": "maxGovFee",
					"outputs": [
						{
							"internalType": "uint256",
							"name": "",
							"type": "uint256"
						}
					],
					"stateMutability": "view",
					"type": "function"
				},
				{
					"inputs": [],
					"name": "maxMaxAuctionLength",
					"outputs": [
						{
							"internalType": "uint256",
							"name": "",
							"type": "uint256"
						}
					],
					"stateMutability": "view",
					"type": "function"
				},
				{
					"inputs": [],
					"name": "maxMinBidIncrease",
					"outputs": [
						{
							"internalType": "uint256",
							"name": "",
							"type": "uint256"
						}
					],
					"stateMutability": "view",
					"type": "function"
				},
				{
					"inputs": [],
					"name": "maxReserveFactor",
					"outputs": [
						{
							"internalType": "uint256",
							"name": "",
							"type": "uint256"
						}
					],
					"stateMutability": "view",
					"type": "function"
				},
				{
					"inputs": [],
					"name": "minAuctionLength",
					"outputs": [
						{
							"internalType": "uint256",
							"name": "",
							"type": "uint256"
						}
					],
					"stateMutability": "view",
					"type": "function"
				},
				{
					"inputs": [],
					"name": "minBidIncrease",
					"outputs": [
						{
							"internalType": "uint256",
							"name": "",
							"type": "uint256"
						}
					],
					"stateMutability": "view",
					"type": "function"
				},
				{
					"inputs": [],
					"name": "minMinAuctionLength",
					"outputs": [
						{
							"internalType": "uint256",
							"name": "",
							"type": "uint256"
						}
					],
					"stateMutability": "view",
					"type": "function"
				},
				{
					"inputs": [],
					"name": "minMinBidIncrease",
					"outputs": [
						{
							"internalType": "uint256",
							"name": "",
							"type": "uint256"
						}
					],
					"stateMutability": "view",
					"type": "function"
				},
				{
					"inputs": [],
					"name": "minReserveFactor",
					"outputs": [
						{
							"internalType": "uint256",
							"name": "",
							"type": "uint256"
						}
					],
					"stateMutability": "view",
					"type": "function"
				},
				{
					"inputs": [],
					"name": "minVotePercentage",
					"outputs": [
						{
							"internalType": "uint256",
							"name": "",
							"type": "uint256"
						}
					],
					"stateMutability": "view",
					"type": "function"
				},
				{
					"inputs": [],
					"name": "owner",
					"outputs": [
						{
							"internalType": "address",
							"name": "",
							"type": "address"
						}
					],
					"stateMutability": "view",
					"type": "function"
				},
				{
					"inputs": [],
					"name": "renounceOwnership",
					"outputs": [],
					"stateMutability": "nonpayable",
					"type": "function"
				},
				{
					"inputs": [
						{
							"internalType": "address payable",
							"name": "_receiver",
							"type": "address"
						}
					],
					"name": "setFeeReceiver",
					"outputs": [],
					"stateMutability": "nonpayable",
					"type": "function"
				},
				{
					"inputs": [
						{
							"internalType": "uint256",
							"name": "_fee",
							"type": "uint256"
						}
					],
					"name": "setGovernanceFee",
					"outputs": [],
					"stateMutability": "nonpayable",
					"type": "function"
				},
				{
					"inputs": [
						{
							"internalType": "uint256",
							"name": "_length",
							"type": "uint256"
						}
					],
					"name": "setMaxAuctionLength",
					"outputs": [],
					"stateMutability": "nonpayable",
					"type": "function"
				},
				{
					"inputs": [
						{
							"internalType": "uint256",
							"name": "_fee",
							"type": "uint256"
						}
					],
					"name": "setMaxCuratorFee",
					"outputs": [],
					"stateMutability": "nonpayable",
					"type": "function"
				},
				{
					"inputs": [
						{
							"internalType": "uint256",
							"name": "_factor",
							"type": "uint256"
						}
					],
					"name": "setMaxReserveFactor",
					"outputs": [],
					"stateMutability": "nonpayable",
					"type": "function"
				},
				{
					"inputs": [
						{
							"internalType": "uint256",
							"name": "_length",
							"type": "uint256"
						}
					],
					"name": "setMinAuctionLength",
					"outputs": [],
					"stateMutability": "nonpayable",
					"type": "function"
				},
				{
					"inputs": [
						{
							"internalType": "uint256",
							"name": "_min",
							"type": "uint256"
						}
					],
					"name": "setMinBidIncrease",
					"outputs": [],
					"stateMutability": "nonpayable",
					"type": "function"
				},
				{
					"inputs": [
						{
							"internalType": "uint256",
							"name": "_factor",
							"type": "uint256"
						}
					],
					"name": "setMinReserveFactor",
					"outputs": [],
					"stateMutability": "nonpayable",
					"type": "function"
				},
				{
					"inputs": [
						{
							"internalType": "uint256",
							"name": "_min",
							"type": "uint256"
						}
					],
					"name": "setMinVotePercentage",
					"outputs": [],
					"stateMutability": "nonpayable",
					"type": "function"
				},
				{
					"inputs": [
						{
							"internalType": "address",
							"name": "newOwner",
							"type": "address"
						}
					],
					"name": "transferOwnership",
					"outputs": [],
					"stateMutability": "nonpayable",
					"type": "function"
				}
			],
			"devdoc": {
				"kind": "dev",
				"methods": {
					"owner()": {
						"details": "Returns the address of the current owner."
					},
					"renounceOwnership()": {
						"details": "Leaves the contract without owner. It will not be possible to call `onlyOwner` functions anymore. Can only be called by the current owner. NOTE: Renouncing ownership will leave the contract without an owner, thereby removing any functionality that is only available to the owner."
					},
					"transferOwnership(address)": {
						"details": "Transfers ownership of the contract to a new account (`newOwner`). Can only be called by the current owner."
					}
				},
				"version": 1
			},
			"evm": {
				"assembly": "    /* \"contracts/LaunchSettings.sol\":154:4264  contract LaunchSettings is ILaunchSettings, Ownable {\r... */\n  mstore(0x40, 0x80)\n    /* \"contracts/LaunchSettings.sol\":1486:1819  constructor() {\r... */\n  callvalue\n  dup1\n  iszero\n  tag_1\n  jumpi\n  0x00\n  dup1\n  revert\ntag_1:\n  pop\n    /* \"@openzeppelin/contracts/access/Ownable.sol\":936:968  _transferOwnership(_msgSender()) */\n  tag_5\n    /* \"@openzeppelin/contracts/access/Ownable.sol\":955:967  _msgSender() */\n  tag_6\n    /* \"@openzeppelin/contracts/access/Ownable.sol\":955:965  _msgSender */\n  shl(0x20, tag_7)\n    /* \"@openzeppelin/contracts/access/Ownable.sol\":955:967  _msgSender() */\n  0x20\n  shr\n  jump\t// in\ntag_6:\n    /* \"@openzeppelin/contracts/access/Ownable.sol\":936:954  _transferOwnership */\n  shl(0x20, tag_8)\n    /* \"@openzeppelin/contracts/access/Ownable.sol\":936:968  _transferOwnership(_msgSender()) */\n  0x20\n  shr\n  jump\t// in\ntag_5:\n    /* \"contracts/LaunchSettings.sol\":1530:1537  2 weeks */\n  0x127500\n    /* \"contracts/LaunchSettings.sol\":1511:1527  maxAuctionLength */\n  0x01\n    /* \"contracts/LaunchSettings.sol\":1511:1537  maxAuctionLength = 2 weeks */\n  dup2\n  swap1\n  sstore\n  pop\n    /* \"contracts/LaunchSettings.sol\":1567:1573  3 days */\n  0x03f480\n    /* \"contracts/LaunchSettings.sol\":1548:1564  minAuctionLength */\n  0x02\n    /* \"contracts/LaunchSettings.sol\":1548:1573  minAuctionLength = 3 days */\n  dup2\n  swap1\n  sstore\n  pop\n    /* \"contracts/LaunchSettings.sol\":1606:1616  msg.sender */\n  caller\n    /* \"contracts/LaunchSettings.sol\":1584:1595  feeReceiver */\n  0x09\n  0x00\n    /* \"contracts/LaunchSettings.sol\":1584:1617  feeReceiver = payable(msg.sender) */\n  0x0100\n  exp\n  dup2\n  sload\n  dup2\n  0xffffffffffffffffffffffffffffffffffffffff\n  mul\n  not\n  and\n  swap1\n  dup4\n  0xffffffffffffffffffffffffffffffffffffffff\n  and\n  mul\n  or\n  swap1\n  sstore\n  pop\n    /* \"contracts/LaunchSettings.sol\":1647:1650  200 */\n  0xc8\n    /* \"contracts/LaunchSettings.sol\":1628:1644  minReserveFactor */\n  0x08\n    /* \"contracts/LaunchSettings.sol\":1628:1650  minReserveFactor = 200 */\n  dup2\n  swap1\n  sstore\n  pop\n    /* \"contracts/LaunchSettings.sol\":1688:1692  5000 */\n  0x1388\n    /* \"contracts/LaunchSettings.sol\":1669:1685  maxReserveFactor */\n  0x07\n    /* \"contracts/LaunchSettings.sol\":1669:1692  maxReserveFactor = 5000 */\n  dup2\n  swap1\n  sstore\n  pop\n    /* \"contracts/LaunchSettings.sol\":1728:1730  50 */\n  0x32\n    /* \"contracts/LaunchSettings.sol\":1711:1725  minBidIncrease */\n  0x05\n    /* \"contracts/LaunchSettings.sol\":1711:1730  minBidIncrease = 50 */\n  dup2\n  swap1\n  sstore\n  pop\n    /* \"contracts/LaunchSettings.sol\":1767:1770  100 */\n  0x64\n    /* \"contracts/LaunchSettings.sol\":1751:1764  maxCuratorFee */\n  0x04\n    /* \"contracts/LaunchSettings.sol\":1751:1770  maxCuratorFee = 100 */\n  dup2\n  swap1\n  sstore\n  pop\n    /* \"contracts/LaunchSettings.sol\":1801:1804  500 */\n  0x01f4\n    /* \"contracts/LaunchSettings.sol\":1781:1798  minVotePercentage */\n  0x06\n    /* \"contracts/LaunchSettings.sol\":1781:1804  minVotePercentage = 500 */\n  dup2\n  swap1\n  sstore\n  pop\n    /* \"contracts/LaunchSettings.sol\":154:4264  contract LaunchSettings is ILaunchSettings, Ownable {\r... */\n  jump(tag_10)\n    /* \"@openzeppelin/contracts/utils/Context.sol\":640:736  function _msgSender() internal view virtual returns (address) {... */\ntag_7:\n    /* \"@openzeppelin/contracts/utils/Context.sol\":693:700  address */\n  0x00\n    /* \"@openzeppelin/contracts/utils/Context.sol\":719:729  msg.sender */\n  caller\n    /* \"@openzeppelin/contracts/utils/Context.sol\":712:729  return msg.sender */\n  swap1\n  pop\n    /* \"@openzeppelin/contracts/utils/Context.sol\":640:736  function _msgSender() internal view virtual returns (address) {... */\n  swap1\n  jump\t// out\n    /* \"@openzeppelin/contracts/access/Ownable.sol\":2433:2620  function _transferOwnership(address newOwner) internal virtual {... */\ntag_8:\n    /* \"@openzeppelin/contracts/access/Ownable.sol\":2506:2522  address oldOwner */\n  0x00\n    /* \"@openzeppelin/contracts/access/Ownable.sol\":2525:2531  _owner */\n  dup1\n  0x00\n  swap1\n  sload\n  swap1\n  0x0100\n  exp\n  swap1\n  div\n  0xffffffffffffffffffffffffffffffffffffffff\n  and\n    /* \"@openzeppelin/contracts/access/Ownable.sol\":2506:2531  address oldOwner = _owner */\n  swap1\n  pop\n    /* \"@openzeppelin/contracts/access/Ownable.sol\":2550:2558  newOwner */\n  dup2\n    /* \"@openzeppelin/contracts/access/Ownable.sol\":2541:2547  _owner */\n  0x00\n  dup1\n    /* \"@openzeppelin/contracts/access/Ownable.sol\":2541:2558  _owner = newOwner */\n  0x0100\n  exp\n  dup2\n  sload\n  dup2\n  0xffffffffffffffffffffffffffffffffffffffff\n  mul\n  not\n  and\n  swap1\n  dup4\n  0xffffffffffffffffffffffffffffffffffffffff\n  and\n  mul\n  or\n  swap1\n  sstore\n  pop\n    /* \"@openzeppelin/contracts/access/Ownable.sol\":2604:2612  newOwner */\n  dup2\n    /* \"@openzeppelin/contracts/access/Ownable.sol\":2573:2613  OwnershipTransferred(oldOwner, newOwner) */\n  0xffffffffffffffffffffffffffffffffffffffff\n  and\n    /* \"@openzeppelin/contracts/access/Ownable.sol\":2594:2602  oldOwner */\n  dup2\n    /* \"@openzeppelin/contracts/access/Ownable.sol\":2573:2613  OwnershipTransferred(oldOwner, newOwner) */\n  0xffffffffffffffffffffffffffffffffffffffff\n  and\n  0x8be0079c531659141344cd1fd0a4f28419497f9722a3daafe3b4186f6b6457e0\n  mload(0x40)\n  mload(0x40)\n  dup1\n  swap2\n  sub\n  swap1\n  log3\n    /* \"@openzeppelin/contracts/access/Ownable.sol\":2496:2620  {... */\n  pop\n    /* \"@openzeppelin/contracts/access/Ownable.sol\":2433:2620  function _transferOwnership(address newOwner) internal virtual {... */\n  pop\n  jump\t// out\n    /* \"contracts/LaunchSettings.sol\":154:4264  contract LaunchSettings is ILaunchSettings, Ownable {\r... */\ntag_10:\n  dataSize(sub_0)\n  dup1\n  dataOffset(sub_0)\n  0x00\n  codecopy\n  0x00\n  return\nstop\n\nsub_0: assembly {\n        /* \"contracts/LaunchSettings.sol\":154:4264  contract LaunchSettings is ILaunchSettings, Ownable {\r... */\n      mstore(0x40, 0x80)\n      callvalue\n      dup1\n      iszero\n      tag_1\n      jumpi\n      0x00\n      dup1\n      revert\n    tag_1:\n      pop\n      jumpi(tag_2, lt(calldatasize, 0x04))\n      shr(0xe0, calldataload(0x00))\n      dup1\n      0x7c513c0f\n      gt\n      tag_29\n      jumpi\n      dup1\n      0xa0b335e3\n      gt\n      tag_30\n      jumpi\n      dup1\n      0xd213b900\n      gt\n      tag_31\n      jumpi\n      dup1\n      0xd213b900\n      eq\n      tag_25\n      jumpi\n      dup1\n      0xefdcd974\n      eq\n      tag_26\n      jumpi\n      dup1\n      0xf2fde38b\n      eq\n      tag_27\n      jumpi\n      dup1\n      0xfcd81e32\n      eq\n      tag_28\n      jumpi\n      jump(tag_2)\n    tag_31:\n      dup1\n      0xa0b335e3\n      eq\n      tag_22\n      jumpi\n      dup1\n      0xaffdafd8\n      eq\n      tag_23\n      jumpi\n      dup1\n      0xb3f00674\n      eq\n      tag_24\n      jumpi\n      jump(tag_2)\n    tag_30:\n      dup1\n      0x7c513c0f\n      eq\n      tag_16\n      jumpi\n      dup1\n      0x846a4dd2\n      eq\n      tag_17\n      jumpi\n      dup1\n      0x84810309\n      eq\n      tag_18\n      jumpi\n      dup1\n      0x8a364bc1\n      eq\n      tag_19\n      jumpi\n      dup1\n      0x8da5cb5b\n      eq\n      tag_20\n      jumpi\n      dup1\n      0x9665eb0f\n      eq\n      tag_21\n      jumpi\n      jump(tag_2)\n    tag_29:\n      dup1\n      0x32a69330\n      gt\n      tag_32\n      jumpi\n      dup1\n      0x57c74c6c\n      gt\n      tag_33\n      jumpi\n      dup1\n      0x57c74c6c\n      eq\n      tag_12\n      jumpi\n      dup1\n      0x6109f5b5\n      eq\n      tag_13\n      jumpi\n      dup1\n      0x6fc83db3\n      eq\n      tag_14\n      jumpi\n      dup1\n      0x715018a6\n      eq\n      tag_15\n      jumpi\n      jump(tag_2)\n    tag_33:\n      dup1\n      0x32a69330\n      eq\n      tag_9\n      jumpi\n      dup1\n      0x339f87ed\n      eq\n      tag_10\n      jumpi\n      dup1\n      0x5410bfc9\n      eq\n      tag_11\n      jumpi\n      jump(tag_2)\n    tag_32:\n      dup1\n      0x09990a96\n      eq\n      tag_3\n      jumpi\n      dup1\n      0x0e519ef9\n      eq\n      tag_4\n      jumpi\n      dup1\n      0x0ea90a12\n      eq\n      tag_5\n      jumpi\n      dup1\n      0x18fee3bf\n      eq\n      tag_6\n      jumpi\n      dup1\n      0x1a58364c\n      eq\n      tag_7\n      jumpi\n      dup1\n      0x32977c73\n      eq\n      tag_8\n      jumpi\n    tag_2:\n      0x00\n      dup1\n      revert\n        /* \"contracts/LaunchSettings.sol\":817:857  uint256 public override minReserveFactor */\n    tag_3:\n      tag_34\n      tag_35\n      jump\t// in\n    tag_34:\n      mload(0x40)\n      tag_36\n      swap2\n      swap1\n      tag_37\n      jump\t// in\n    tag_36:\n      mload(0x40)\n      dup1\n      swap2\n      sub\n      swap1\n      return\n        /* \"contracts/LaunchSettings.sol\":219:259  uint256 public override maxAuctionLength */\n    tag_4:\n      tag_38\n      tag_39\n      jump\t// in\n    tag_38:\n      mload(0x40)\n      tag_40\n      swap2\n      swap1\n      tag_37\n      jump\t// in\n    tag_40:\n      mload(0x40)\n      dup1\n      swap2\n      sub\n      swap1\n      return\n        /* \"contracts/LaunchSettings.sol\":432:469  uint256 public override governanceFee */\n    tag_5:\n      tag_41\n      tag_42\n      jump\t// in\n    tag_41:\n      mload(0x40)\n      tag_43\n      swap2\n      swap1\n      tag_37\n      jump\t// in\n    tag_43:\n      mload(0x40)\n      dup1\n      swap2\n      sub\n      swap1\n      return\n        /* \"contracts/LaunchSettings.sol\":3746:4002  function setMinReserveFactor(uint256 _factor) external onlyOwner {\r... */\n    tag_6:\n      tag_44\n      0x04\n      dup1\n      calldatasize\n      sub\n      dup2\n      add\n      swap1\n      tag_45\n      swap2\n      swap1\n      tag_46\n      jump\t// in\n    tag_45:\n      tag_47\n      jump\t// in\n    tag_44:\n      stop\n        /* \"contracts/LaunchSettings.sol\":266:319  uint256 public constant maxMaxAuctionLength = 8 weeks */\n    tag_7:\n      tag_48\n      tag_49\n      jump\t// in\n    tag_48:\n      mload(0x40)\n      tag_50\n      swap2\n      swap1\n      tag_37\n      jump\t// in\n    tag_50:\n      mload(0x40)\n      dup1\n      swap2\n      sub\n      swap1\n      return\n        /* \"contracts/LaunchSettings.sol\":718:759  uint256 public override minVotePercentage */\n    tag_8:\n      tag_51\n      tag_52\n      jump\t// in\n    tag_51:\n      mload(0x40)\n      tag_53\n      swap2\n      swap1\n      tag_37\n      jump\t// in\n    tag_53:\n      mload(0x40)\n      dup1\n      swap2\n      sub\n      swap1\n      return\n        /* \"contracts/LaunchSettings.sol\":2515:2726  function setGovernanceFee(uint256 _fee) external onlyOwner {\r... */\n    tag_9:\n      tag_54\n      0x04\n      dup1\n      calldatasize\n      sub\n      dup2\n      add\n      swap1\n      tag_55\n      swap2\n      swap1\n      tag_46\n      jump\t// in\n    tag_55:\n      tag_56\n      jump\t// in\n    tag_54:\n      stop\n        /* \"contracts/LaunchSettings.sol\":665:711  uint256 public constant minMinBidIncrease = 10 */\n    tag_10:\n      tag_57\n      tag_58\n      jump\t// in\n    tag_57:\n      mload(0x40)\n      tag_59\n      swap2\n      swap1\n      tag_37\n      jump\t// in\n    tag_59:\n      mload(0x40)\n      dup1\n      swap2\n      sub\n      swap1\n      return\n        /* \"contracts/LaunchSettings.sol\":768:808  uint256 public override maxReserveFactor */\n    tag_11:\n      tag_60\n      tag_61\n      jump\t// in\n    tag_60:\n      mload(0x40)\n      tag_62\n      swap2\n      swap1\n      tag_37\n      jump\t// in\n    tag_62:\n      mload(0x40)\n      dup1\n      swap2\n      sub\n      swap1\n      return\n        /* \"contracts/LaunchSettings.sol\":3212:3475  function setMinVotePercentage(uint256 _min) external onlyOwner {\r... */\n    tag_12:\n      tag_63\n      0x04\n      dup1\n      calldatasize\n      sub\n      dup2\n      add\n      swap1\n      tag_64\n      swap2\n      swap1\n      tag_46\n      jump\t// in\n    tag_64:\n      tag_65\n      jump\t// in\n    tag_63:\n      stop\n        /* \"contracts/LaunchSettings.sol\":2734:2887  function setMaxCuratorFee(uint256 _fee) external onlyOwner {\r... */\n    tag_13:\n      tag_66\n      0x04\n      dup1\n      calldatasize\n      sub\n      dup2\n      add\n      swap1\n      tag_67\n      swap2\n      swap1\n      tag_46\n      jump\t// in\n    tag_67:\n      tag_68\n      jump\t// in\n    tag_66:\n      stop\n        /* \"contracts/LaunchSettings.sol\":2171:2507  function setMinAuctionLength(uint256 _length) external onlyOwner {\r... */\n    tag_14:\n      tag_69\n      0x04\n      dup1\n      calldatasize\n      sub\n      dup2\n      add\n      swap1\n      tag_70\n      swap2\n      swap1\n      tag_46\n      jump\t// in\n    tag_70:\n      tag_71\n      jump\t// in\n    tag_69:\n      stop\n        /* \"@openzeppelin/contracts/access/Ownable.sol\":1831:1932  function renounceOwnership() public virtual onlyOwner {... */\n    tag_15:\n      tag_72\n      tag_73\n      jump\t// in\n    tag_72:\n      stop\n        /* \"contracts/LaunchSettings.sol\":566:604  uint256 public override minBidIncrease */\n    tag_16:\n      tag_74\n      tag_75\n      jump\t// in\n    tag_74:\n      mload(0x40)\n      tag_76\n      swap2\n      swap1\n      tag_37\n      jump\t// in\n    tag_76:\n      mload(0x40)\n      dup1\n      swap2\n      sub\n      swap1\n      return\n        /* \"contracts/LaunchSettings.sol\":476:515  uint256 public constant maxGovFee = 100 */\n    tag_17:\n      tag_77\n      tag_78\n      jump\t// in\n    tag_77:\n      mload(0x40)\n      tag_79\n      swap2\n      swap1\n      tag_37\n      jump\t// in\n    tag_79:\n      mload(0x40)\n      dup1\n      swap2\n      sub\n      swap1\n      return\n        /* \"contracts/LaunchSettings.sol\":3483:3738  function setMaxReserveFactor(uint256 _factor) external onlyOwner {\r... */\n    tag_18:\n      tag_80\n      0x04\n      dup1\n      calldatasize\n      sub\n      dup2\n      add\n      swap1\n      tag_81\n      swap2\n      swap1\n      tag_46\n      jump\t// in\n    tag_81:\n      tag_82\n      jump\t// in\n    tag_80:\n      stop\n        /* \"contracts/LaunchSettings.sol\":522:559  uint256 public override maxCuratorFee */\n    tag_19:\n      tag_83\n      tag_84\n      jump\t// in\n    tag_83:\n      mload(0x40)\n      tag_85\n      swap2\n      swap1\n      tag_37\n      jump\t// in\n    tag_85:\n      mload(0x40)\n      dup1\n      swap2\n      sub\n      swap1\n      return\n        /* \"@openzeppelin/contracts/access/Ownable.sol\":1201:1286  function owner() public view virtual returns (address) {... */\n    tag_20:\n      tag_86\n      tag_87\n      jump\t// in\n    tag_86:\n      mload(0x40)\n      tag_88\n      swap2\n      swap1\n      tag_89\n      jump\t// in\n    tag_88:\n      mload(0x40)\n      dup1\n      swap2\n      sub\n      swap1\n      return\n        /* \"contracts/LaunchSettings.sol\":2895:3204  function setMinBidIncrease(uint256 _min) external onlyOwner {\r... */\n    tag_21:\n      tag_90\n      0x04\n      dup1\n      calldatasize\n      sub\n      dup2\n      add\n      swap1\n      tag_91\n      swap2\n      swap1\n      tag_46\n      jump\t// in\n    tag_91:\n      tag_92\n      jump\t// in\n    tag_90:\n      stop\n        /* \"contracts/LaunchSettings.sol\":326:366  uint256 public override minAuctionLength */\n    tag_22:\n      tag_93\n      tag_94\n      jump\t// in\n    tag_93:\n      mload(0x40)\n      tag_95\n      swap2\n      swap1\n      tag_37\n      jump\t// in\n    tag_95:\n      mload(0x40)\n      dup1\n      swap2\n      sub\n      swap1\n      return\n        /* \"contracts/LaunchSettings.sol\":1827:2163  function setMaxAuctionLength(uint256 _length) external onlyOwner {\r... */\n    tag_23:\n      tag_96\n      0x04\n      dup1\n      calldatasize\n      sub\n      dup2\n      add\n      swap1\n      tag_97\n      swap2\n      swap1\n      tag_46\n      jump\t// in\n    tag_97:\n      tag_98\n      jump\t// in\n    tag_96:\n      stop\n        /* \"contracts/LaunchSettings.sol\":864:907  address payable public override feeReceiver */\n    tag_24:\n      tag_99\n      tag_100\n      jump\t// in\n    tag_99:\n      mload(0x40)\n      tag_101\n      swap2\n      swap1\n      tag_102\n      jump\t// in\n    tag_101:\n      mload(0x40)\n      dup1\n      swap2\n      sub\n      swap1\n      return\n        /* \"contracts/LaunchSettings.sol\":373:425  uint256 public constant minMinAuctionLength = 1 days */\n    tag_25:\n      tag_103\n      tag_104\n      jump\t// in\n    tag_103:\n      mload(0x40)\n      tag_105\n      swap2\n      swap1\n      tag_37\n      jump\t// in\n    tag_105:\n      mload(0x40)\n      dup1\n      swap2\n      sub\n      swap1\n      return\n        /* \"contracts/LaunchSettings.sol\":4010:4257  function setFeeReceiver(address payable _receiver) external onlyOwner {\r... */\n    tag_26:\n      tag_106\n      0x04\n      dup1\n      calldatasize\n      sub\n      dup2\n      add\n      swap1\n      tag_107\n      swap2\n      swap1\n      tag_108\n      jump\t// in\n    tag_107:\n      tag_109\n      jump\t// in\n    tag_106:\n      stop\n        /* \"@openzeppelin/contracts/access/Ownable.sol\":2081:2279  function transferOwnership(address newOwner) public virtual onlyOwner {... */\n    tag_27:\n      tag_110\n      0x04\n      dup1\n      calldatasize\n      sub\n      dup2\n      add\n      swap1\n      tag_111\n      swap2\n      swap1\n      tag_112\n      jump\t// in\n    tag_111:\n      tag_113\n      jump\t// in\n    tag_110:\n      stop\n        /* \"contracts/LaunchSettings.sol\":611:658  uint256 public constant maxMinBidIncrease = 100 */\n    tag_28:\n      tag_114\n      tag_115\n      jump\t// in\n    tag_114:\n      mload(0x40)\n      tag_116\n      swap2\n      swap1\n      tag_37\n      jump\t// in\n    tag_116:\n      mload(0x40)\n      dup1\n      swap2\n      sub\n      swap1\n      return\n        /* \"contracts/LaunchSettings.sol\":817:857  uint256 public override minReserveFactor */\n    tag_35:\n      sload(0x08)\n      dup2\n      jump\t// out\n        /* \"contracts/LaunchSettings.sol\":219:259  uint256 public override maxAuctionLength */\n    tag_39:\n      sload(0x01)\n      dup2\n      jump\t// out\n        /* \"contracts/LaunchSettings.sol\":432:469  uint256 public override governanceFee */\n    tag_42:\n      sload(0x03)\n      dup2\n      jump\t// out\n        /* \"contracts/LaunchSettings.sol\":3746:4002  function setMinReserveFactor(uint256 _factor) external onlyOwner {\r... */\n    tag_47:\n        /* \"@openzeppelin/contracts/access/Ownable.sol\":1094:1107  _checkOwner() */\n      tag_118\n        /* \"@openzeppelin/contracts/access/Ownable.sol\":1094:1105  _checkOwner */\n      tag_119\n        /* \"@openzeppelin/contracts/access/Ownable.sol\":1094:1107  _checkOwner() */\n      jump\t// in\n    tag_118:\n        /* \"contracts/LaunchSettings.sol\":3840:3856  maxReserveFactor */\n      sload(0x07)\n        /* \"contracts/LaunchSettings.sol\":3830:3837  _factor */\n      dup2\n        /* \"contracts/LaunchSettings.sol\":3830:3856  _factor < maxReserveFactor */\n      lt\n        /* \"contracts/LaunchSettings.sol\":3822:3888  require(_factor < maxReserveFactor, \"min reserve factor too high\") */\n      tag_121\n      jumpi\n      mload(0x40)\n      0x08c379a000000000000000000000000000000000000000000000000000000000\n      dup2\n      mstore\n      0x04\n      add\n      tag_122\n      swap1\n      tag_123\n      jump\t// in\n    tag_122:\n      mload(0x40)\n      dup1\n      swap2\n      sub\n      swap1\n      revert\n    tag_121:\n        /* \"contracts/LaunchSettings.sol\":3906:3955  UpdateMinReserveFactor(minReserveFactor, _factor) */\n      0xa93910a1e82dcd753b639a2ff1def7bf84d6bb1bf6fe79212d0d9ae72afc6cfa\n        /* \"contracts/LaunchSettings.sol\":3929:3945  minReserveFactor */\n      sload(0x08)\n        /* \"contracts/LaunchSettings.sol\":3947:3954  _factor */\n      dup3\n        /* \"contracts/LaunchSettings.sol\":3906:3955  UpdateMinReserveFactor(minReserveFactor, _factor) */\n      mload(0x40)\n      tag_124\n      swap3\n      swap2\n      swap1\n      tag_125\n      jump\t// in\n    tag_124:\n      mload(0x40)\n      dup1\n      swap2\n      sub\n      swap1\n      log1\n        /* \"contracts/LaunchSettings.sol\":3987:3994  _factor */\n      dup1\n        /* \"contracts/LaunchSettings.sol\":3968:3984  minReserveFactor */\n      0x08\n        /* \"contracts/LaunchSettings.sol\":3968:3994  minReserveFactor = _factor */\n      dup2\n      swap1\n      sstore\n      pop\n        /* \"contracts/LaunchSettings.sol\":3746:4002  function setMinReserveFactor(uint256 _factor) external onlyOwner {\r... */\n      pop\n      jump\t// out\n        /* \"contracts/LaunchSettings.sol\":266:319  uint256 public constant maxMaxAuctionLength = 8 weeks */\n    tag_49:\n        /* \"contracts/LaunchSettings.sol\":312:319  8 weeks */\n      0x49d400\n        /* \"contracts/LaunchSettings.sol\":266:319  uint256 public constant maxMaxAuctionLength = 8 weeks */\n      dup2\n      jump\t// out\n        /* \"contracts/LaunchSettings.sol\":718:759  uint256 public override minVotePercentage */\n    tag_52:\n      sload(0x06)\n      dup2\n      jump\t// out\n        /* \"contracts/LaunchSettings.sol\":2515:2726  function setGovernanceFee(uint256 _fee) external onlyOwner {\r... */\n    tag_56:\n        /* \"@openzeppelin/contracts/access/Ownable.sol\":1094:1107  _checkOwner() */\n      tag_127\n        /* \"@openzeppelin/contracts/access/Ownable.sol\":1094:1105  _checkOwner */\n      tag_119\n        /* \"@openzeppelin/contracts/access/Ownable.sol\":1094:1107  _checkOwner() */\n      jump\t// in\n    tag_127:\n        /* \"contracts/LaunchSettings.sol\":512:515  100 */\n      0x64\n        /* \"contracts/LaunchSettings.sol\":2593:2597  _fee */\n      dup2\n        /* \"contracts/LaunchSettings.sol\":2593:2610  _fee <= maxGovFee */\n      gt\n      iszero\n        /* \"contracts/LaunchSettings.sol\":2585:2627  require(_fee <= maxGovFee, \"fee too high\") */\n      tag_129\n      jumpi\n      mload(0x40)\n      0x08c379a000000000000000000000000000000000000000000000000000000000\n      dup2\n      mstore\n      0x04\n      add\n      tag_130\n      swap1\n      tag_131\n      jump\t// in\n    tag_130:\n      mload(0x40)\n      dup1\n      swap2\n      sub\n      swap1\n      revert\n    tag_129:\n        /* \"contracts/LaunchSettings.sol\":2645:2685  UpdateGovernanceFee(governanceFee, _fee) */\n      0x11b96af861c45de0c17127383516c92fc2a9d50eff86ea831b69e76a3fa87e2f\n        /* \"contracts/LaunchSettings.sol\":2665:2678  governanceFee */\n      sload(0x03)\n        /* \"contracts/LaunchSettings.sol\":2680:2684  _fee */\n      dup3\n        /* \"contracts/LaunchSettings.sol\":2645:2685  UpdateGovernanceFee(governanceFee, _fee) */\n      mload(0x40)\n      tag_132\n      swap3\n      swap2\n      swap1\n      tag_125\n      jump\t// in\n    tag_132:\n      mload(0x40)\n      dup1\n      swap2\n      sub\n      swap1\n      log1\n        /* \"contracts/LaunchSettings.sol\":2714:2718  _fee */\n      dup1\n        /* \"contracts/LaunchSettings.sol\":2698:2711  governanceFee */\n      0x03\n        /* \"contracts/LaunchSettings.sol\":2698:2718  governanceFee = _fee */\n      dup2\n      swap1\n      sstore\n      pop\n        /* \"contracts/LaunchSettings.sol\":2515:2726  function setGovernanceFee(uint256 _fee) external onlyOwner {\r... */\n      pop\n      jump\t// out\n        /* \"contracts/LaunchSettings.sol\":665:711  uint256 public constant minMinBidIncrease = 10 */\n    tag_58:\n        /* \"contracts/LaunchSettings.sol\":709:711  10 */\n      0x0a\n        /* \"contracts/LaunchSettings.sol\":665:711  uint256 public constant minMinBidIncrease = 10 */\n      dup2\n      jump\t// out\n        /* \"contracts/LaunchSettings.sol\":768:808  uint256 public override maxReserveFactor */\n    tag_61:\n      sload(0x07)\n      dup2\n      jump\t// out\n        /* \"contracts/LaunchSettings.sol\":3212:3475  function setMinVotePercentage(uint256 _min) external onlyOwner {\r... */\n    tag_65:\n        /* \"@openzeppelin/contracts/access/Ownable.sol\":1094:1107  _checkOwner() */\n      tag_134\n        /* \"@openzeppelin/contracts/access/Ownable.sol\":1094:1105  _checkOwner */\n      tag_119\n        /* \"@openzeppelin/contracts/access/Ownable.sol\":1094:1107  _checkOwner() */\n      jump\t// in\n    tag_134:\n        /* \"contracts/LaunchSettings.sol\":3327:3331  1000 */\n      0x03e8\n        /* \"contracts/LaunchSettings.sol\":3319:3323  _min */\n      dup2\n        /* \"contracts/LaunchSettings.sol\":3319:3331  _min <= 1000 */\n      gt\n      iszero\n        /* \"contracts/LaunchSettings.sol\":3311:3364  require(_min <= 1000, \"min vote percentage too high\") */\n      tag_136\n      jumpi\n      mload(0x40)\n      0x08c379a000000000000000000000000000000000000000000000000000000000\n      dup2\n      mstore\n      0x04\n      add\n      tag_137\n      swap1\n      tag_138\n      jump\t// in\n    tag_137:\n      mload(0x40)\n      dup1\n      swap2\n      sub\n      swap1\n      revert\n    tag_136:\n        /* \"contracts/LaunchSettings.sol\":3382:3430  UpdateMinVotePercentage(minVotePercentage, _min) */\n      0xf8298d9709c2527c6ec1e2c605c5a163b44b0520bdd80335d5faba17e3f38fb8\n        /* \"contracts/LaunchSettings.sol\":3406:3423  minVotePercentage */\n      sload(0x06)\n        /* \"contracts/LaunchSettings.sol\":3425:3429  _min */\n      dup3\n        /* \"contracts/LaunchSettings.sol\":3382:3430  UpdateMinVotePercentage(minVotePercentage, _min) */\n      mload(0x40)\n      tag_139\n      swap3\n      swap2\n      swap1\n      tag_125\n      jump\t// in\n    tag_139:\n      mload(0x40)\n      dup1\n      swap2\n      sub\n      swap1\n      log1\n        /* \"contracts/LaunchSettings.sol\":3463:3467  _min */\n      dup1\n        /* \"contracts/LaunchSettings.sol\":3443:3460  minVotePercentage */\n      0x06\n        /* \"contracts/LaunchSettings.sol\":3443:3467  minVotePercentage = _min */\n      dup2\n      swap1\n      sstore\n      pop\n        /* \"contracts/LaunchSettings.sol\":3212:3475  function setMinVotePercentage(uint256 _min) external onlyOwner {\r... */\n      pop\n      jump\t// out\n        /* \"contracts/LaunchSettings.sol\":2734:2887  function setMaxCuratorFee(uint256 _fee) external onlyOwner {\r... */\n    tag_68:\n        /* \"@openzeppelin/contracts/access/Ownable.sol\":1094:1107  _checkOwner() */\n      tag_141\n        /* \"@openzeppelin/contracts/access/Ownable.sol\":1094:1105  _checkOwner */\n      tag_119\n        /* \"@openzeppelin/contracts/access/Ownable.sol\":1094:1107  _checkOwner() */\n      jump\t// in\n    tag_141:\n        /* \"contracts/LaunchSettings.sol\":2809:2846  UpdateCuratorFee(governanceFee, _fee) */\n      0x283f7179cc13a8f90c3123b415b98ca8a0ca9619eed3c981db52809ab62700f9\n        /* \"contracts/LaunchSettings.sol\":2826:2839  governanceFee */\n      sload(0x03)\n        /* \"contracts/LaunchSettings.sol\":2841:2845  _fee */\n      dup3\n        /* \"contracts/LaunchSettings.sol\":2809:2846  UpdateCuratorFee(governanceFee, _fee) */\n      mload(0x40)\n      tag_143\n      swap3\n      swap2\n      swap1\n      tag_125\n      jump\t// in\n    tag_143:\n      mload(0x40)\n      dup1\n      swap2\n      sub\n      swap1\n      log1\n        /* \"contracts/LaunchSettings.sol\":2875:2879  _fee */\n      dup1\n        /* \"contracts/LaunchSettings.sol\":2859:2872  maxCuratorFee */\n      0x04\n        /* \"contracts/LaunchSettings.sol\":2859:2879  maxCuratorFee = _fee */\n      dup2\n      swap1\n      sstore\n      pop\n        /* \"contracts/LaunchSettings.sol\":2734:2887  function setMaxCuratorFee(uint256 _fee) external onlyOwner {\r... */\n      pop\n      jump\t// out\n        /* \"contracts/LaunchSettings.sol\":2171:2507  function setMinAuctionLength(uint256 _length) external onlyOwner {\r... */\n    tag_71:\n        /* \"@openzeppelin/contracts/access/Ownable.sol\":1094:1107  _checkOwner() */\n      tag_145\n        /* \"@openzeppelin/contracts/access/Ownable.sol\":1094:1105  _checkOwner */\n      tag_119\n        /* \"@openzeppelin/contracts/access/Ownable.sol\":1094:1107  _checkOwner() */\n      jump\t// in\n    tag_145:\n        /* \"contracts/LaunchSettings.sol\":419:425  1 days */\n      0x015180\n        /* \"contracts/LaunchSettings.sol\":2255:2262  _length */\n      dup2\n        /* \"contracts/LaunchSettings.sol\":2255:2285  _length >= minMinAuctionLength */\n      lt\n      iszero\n        /* \"contracts/LaunchSettings.sol\":2247:2316  require(_length >= minMinAuctionLength, \"min auction length too low\") */\n      tag_147\n      jumpi\n      mload(0x40)\n      0x08c379a000000000000000000000000000000000000000000000000000000000\n      dup2\n      mstore\n      0x04\n      add\n      tag_148\n      swap1\n      tag_149\n      jump\t// in\n    tag_148:\n      mload(0x40)\n      dup1\n      swap2\n      sub\n      swap1\n      revert\n    tag_147:\n        /* \"contracts/LaunchSettings.sol\":2345:2361  maxAuctionLength */\n      sload(0x01)\n        /* \"contracts/LaunchSettings.sol\":2335:2342  _length */\n      dup2\n        /* \"contracts/LaunchSettings.sol\":2335:2361  _length < maxAuctionLength */\n      lt\n        /* \"contracts/LaunchSettings.sol\":2327:2393  require(_length < maxAuctionLength, \"min auction length too high\") */\n      tag_150\n      jumpi\n      mload(0x40)\n      0x08c379a000000000000000000000000000000000000000000000000000000000\n      dup2\n      mstore\n      0x04\n      add\n      tag_151\n      swap1\n      tag_152\n      jump\t// in\n    tag_151:\n      mload(0x40)\n      dup1\n      swap2\n      sub\n      swap1\n      revert\n    tag_150:\n        /* \"contracts/LaunchSettings.sol\":2411:2460  UpdateMinAuctionLength(minAuctionLength, _length) */\n      0x055017e5b2f20973817c668e2f744e7c1b68a6f20332f25bb7b9bbb2f0c7eca7\n        /* \"contracts/LaunchSettings.sol\":2434:2450  minAuctionLength */\n      sload(0x02)\n        /* \"contracts/LaunchSettings.sol\":2452:2459  _length */\n      dup3\n        /* \"contracts/LaunchSettings.sol\":2411:2460  UpdateMinAuctionLength(minAuctionLength, _length) */\n      mload(0x40)\n      tag_153\n      swap3\n      swap2\n      swap1\n      tag_125\n      jump\t// in\n    tag_153:\n      mload(0x40)\n      dup1\n      swap2\n      sub\n      swap1\n      log1\n        /* \"contracts/LaunchSettings.sol\":2492:2499  _length */\n      dup1\n        /* \"contracts/LaunchSettings.sol\":2473:2489  minAuctionLength */\n      0x02\n        /* \"contracts/LaunchSettings.sol\":2473:2499  minAuctionLength = _length */\n      dup2\n      swap1\n      sstore\n      pop\n        /* \"contracts/LaunchSettings.sol\":2171:2507  function setMinAuctionLength(uint256 _length) external onlyOwner {\r... */\n      pop\n      jump\t// out\n        /* \"@openzeppelin/contracts/access/Ownable.sol\":1831:1932  function renounceOwnership() public virtual onlyOwner {... */\n    tag_73:\n        /* \"@openzeppelin/contracts/access/Ownable.sol\":1094:1107  _checkOwner() */\n      tag_155\n        /* \"@openzeppelin/contracts/access/Ownable.sol\":1094:1105  _checkOwner */\n      tag_119\n        /* \"@openzeppelin/contracts/access/Ownable.sol\":1094:1107  _checkOwner() */\n      jump\t// in\n    tag_155:\n        /* \"@openzeppelin/contracts/access/Ownable.sol\":1895:1925  _transferOwnership(address(0)) */\n      tag_157\n        /* \"@openzeppelin/contracts/access/Ownable.sol\":1922:1923  0 */\n      0x00\n        /* \"@openzeppelin/contracts/access/Ownable.sol\":1895:1913  _transferOwnership */\n      tag_158\n        /* \"@openzeppelin/contracts/access/Ownable.sol\":1895:1925  _transferOwnership(address(0)) */\n      jump\t// in\n    tag_157:\n        /* \"@openzeppelin/contracts/access/Ownable.sol\":1831:1932  function renounceOwnership() public virtual onlyOwner {... */\n      jump\t// out\n        /* \"contracts/LaunchSettings.sol\":566:604  uint256 public override minBidIncrease */\n    tag_75:\n      sload(0x05)\n      dup2\n      jump\t// out\n        /* \"contracts/LaunchSettings.sol\":476:515  uint256 public constant maxGovFee = 100 */\n    tag_78:\n        /* \"contracts/LaunchSettings.sol\":512:515  100 */\n      0x64\n        /* \"contracts/LaunchSettings.sol\":476:515  uint256 public constant maxGovFee = 100 */\n      dup2\n      jump\t// out\n        /* \"contracts/LaunchSettings.sol\":3483:3738  function setMaxReserveFactor(uint256 _factor) external onlyOwner {\r... */\n    tag_82:\n        /* \"@openzeppelin/contracts/access/Ownable.sol\":1094:1107  _checkOwner() */\n      tag_160\n        /* \"@openzeppelin/contracts/access/Ownable.sol\":1094:1105  _checkOwner */\n      tag_119\n        /* \"@openzeppelin/contracts/access/Ownable.sol\":1094:1107  _checkOwner() */\n      jump\t// in\n    tag_160:\n        /* \"contracts/LaunchSettings.sol\":3577:3593  minReserveFactor */\n      sload(0x08)\n        /* \"contracts/LaunchSettings.sol\":3567:3574  _factor */\n      dup2\n        /* \"contracts/LaunchSettings.sol\":3567:3593  _factor > minReserveFactor */\n      gt\n        /* \"contracts/LaunchSettings.sol\":3559:3624  require(_factor > minReserveFactor, \"max reserve factor too low\") */\n      tag_162\n      jumpi\n      mload(0x40)\n      0x08c379a000000000000000000000000000000000000000000000000000000000\n      dup2\n      mstore\n      0x04\n      add\n      tag_163\n      swap1\n      tag_164\n      jump\t// in\n    tag_163:\n      mload(0x40)\n      dup1\n      swap2\n      sub\n      swap1\n      revert\n    tag_162:\n        /* \"contracts/LaunchSettings.sol\":3642:3691  UpdateMaxReserveFactor(maxReserveFactor, _factor) */\n      0xebec08ac4f5f91f0463f6e09a9b1729f1cbea09d240d8a1807ed6b9cd171ef19\n        /* \"contracts/LaunchSettings.sol\":3665:3681  maxReserveFactor */\n      sload(0x07)\n        /* \"contracts/LaunchSettings.sol\":3683:3690  _factor */\n      dup3\n        /* \"contracts/LaunchSettings.sol\":3642:3691  UpdateMaxReserveFactor(maxReserveFactor, _factor) */\n      mload(0x40)\n      tag_165\n      swap3\n      swap2\n      swap1\n      tag_125\n      jump\t// in\n    tag_165:\n      mload(0x40)\n      dup1\n      swap2\n      sub\n      swap1\n      log1\n        /* \"contracts/LaunchSettings.sol\":3723:3730  _factor */\n      dup1\n        /* \"contracts/LaunchSettings.sol\":3704:3720  maxReserveFactor */\n      0x07\n        /* \"contracts/LaunchSettings.sol\":3704:3730  maxReserveFactor = _factor */\n      dup2\n      swap1\n      sstore\n      pop\n        /* \"contracts/LaunchSettings.sol\":3483:3738  function setMaxReserveFactor(uint256 _factor) external onlyOwner {\r... */\n      pop\n      jump\t// out\n        /* \"contracts/LaunchSettings.sol\":522:559  uint256 public override maxCuratorFee */\n    tag_84:\n      sload(0x04)\n      dup2\n      jump\t// out\n        /* \"@openzeppelin/contracts/access/Ownable.sol\":1201:1286  function owner() public view virtual returns (address) {... */\n    tag_87:\n        /* \"@openzeppelin/contracts/access/Ownable.sol\":1247:1254  address */\n      0x00\n        /* \"@openzeppelin/contracts/access/Ownable.sol\":1273:1279  _owner */\n      dup1\n      0x00\n      swap1\n      sload\n      swap1\n      0x0100\n      exp\n      swap1\n      div\n      0xffffffffffffffffffffffffffffffffffffffff\n      and\n        /* \"@openzeppelin/contracts/access/Ownable.sol\":1266:1279  return _owner */\n      swap1\n      pop\n        /* \"@openzeppelin/contracts/access/Ownable.sol\":1201:1286  function owner() public view virtual returns (address) {... */\n      swap1\n      jump\t// out\n        /* \"contracts/LaunchSettings.sol\":2895:3204  function setMinBidIncrease(uint256 _min) external onlyOwner {\r... */\n    tag_92:\n        /* \"@openzeppelin/contracts/access/Ownable.sol\":1094:1107  _checkOwner() */\n      tag_168\n        /* \"@openzeppelin/contracts/access/Ownable.sol\":1094:1105  _checkOwner */\n      tag_119\n        /* \"@openzeppelin/contracts/access/Ownable.sol\":1094:1107  _checkOwner() */\n      jump\t// in\n    tag_168:\n        /* \"contracts/LaunchSettings.sol\":655:658  100 */\n      0x64\n        /* \"contracts/LaunchSettings.sol\":2974:2978  _min */\n      dup2\n        /* \"contracts/LaunchSettings.sol\":2974:2999  _min <= maxMinBidIncrease */\n      gt\n      iszero\n        /* \"contracts/LaunchSettings.sol\":2966:3029  require(_min <= maxMinBidIncrease, \"min bid increase too high\") */\n      tag_170\n      jumpi\n      mload(0x40)\n      0x08c379a000000000000000000000000000000000000000000000000000000000\n      dup2\n      mstore\n      0x04\n      add\n      tag_171\n      swap1\n      tag_172\n      jump\t// in\n    tag_171:\n      mload(0x40)\n      dup1\n      swap2\n      sub\n      swap1\n      revert\n    tag_170:\n        /* \"contracts/LaunchSettings.sol\":709:711  10 */\n      0x0a\n        /* \"contracts/LaunchSettings.sol\":3048:3052  _min */\n      dup2\n        /* \"contracts/LaunchSettings.sol\":3048:3073  _min >= minMinBidIncrease */\n      lt\n      iszero\n        /* \"contracts/LaunchSettings.sol\":3040:3102  require(_min >= minMinBidIncrease, \"min bid increase too low\") */\n      tag_173\n      jumpi\n      mload(0x40)\n      0x08c379a000000000000000000000000000000000000000000000000000000000\n      dup2\n      mstore\n      0x04\n      add\n      tag_174\n      swap1\n      tag_175\n      jump\t// in\n    tag_174:\n      mload(0x40)\n      dup1\n      swap2\n      sub\n      swap1\n      revert\n    tag_173:\n        /* \"contracts/LaunchSettings.sol\":3120:3162  UpdateMinBidIncrease(minBidIncrease, _min) */\n      0x3995c181714327dbf0232c3b20873e87ca6978b6418eec0f97a1447c5a4c43fc\n        /* \"contracts/LaunchSettings.sol\":3141:3155  minBidIncrease */\n      sload(0x05)\n        /* \"contracts/LaunchSettings.sol\":3157:3161  _min */\n      dup3\n        /* \"contracts/LaunchSettings.sol\":3120:3162  UpdateMinBidIncrease(minBidIncrease, _min) */\n      mload(0x40)\n      tag_176\n      swap3\n      swap2\n      swap1\n      tag_125\n      jump\t// in\n    tag_176:\n      mload(0x40)\n      dup1\n      swap2\n      sub\n      swap1\n      log1\n        /* \"contracts/LaunchSettings.sol\":3192:3196  _min */\n      dup1\n        /* \"contracts/LaunchSettings.sol\":3175:3189  minBidIncrease */\n      0x05\n        /* \"contracts/LaunchSettings.sol\":3175:3196  minBidIncrease = _min */\n      dup2\n      swap1\n      sstore\n      pop\n        /* \"contracts/LaunchSettings.sol\":2895:3204  function setMinBidIncrease(uint256 _min) external onlyOwner {\r... */\n      pop\n      jump\t// out\n        /* \"contracts/LaunchSettings.sol\":326:366  uint256 public override minAuctionLength */\n    tag_94:\n      sload(0x02)\n      dup2\n      jump\t// out\n        /* \"contracts/LaunchSettings.sol\":1827:2163  function setMaxAuctionLength(uint256 _length) external onlyOwner {\r... */\n    tag_98:\n        /* \"@openzeppelin/contracts/access/Ownable.sol\":1094:1107  _checkOwner() */\n      tag_178\n        /* \"@openzeppelin/contracts/access/Ownable.sol\":1094:1105  _checkOwner */\n      tag_119\n        /* \"@openzeppelin/contracts/access/Ownable.sol\":1094:1107  _checkOwner() */\n      jump\t// in\n    tag_178:\n        /* \"contracts/LaunchSettings.sol\":312:319  8 weeks */\n      0x49d400\n        /* \"contracts/LaunchSettings.sol\":1911:1918  _length */\n      dup2\n        /* \"contracts/LaunchSettings.sol\":1911:1941  _length <= maxMaxAuctionLength */\n      gt\n      iszero\n        /* \"contracts/LaunchSettings.sol\":1903:1973  require(_length <= maxMaxAuctionLength, \"max auction length too high\") */\n      tag_180\n      jumpi\n      mload(0x40)\n      0x08c379a000000000000000000000000000000000000000000000000000000000\n      dup2\n      mstore\n      0x04\n      add\n      tag_181\n      swap1\n      tag_182\n      jump\t// in\n    tag_181:\n      mload(0x40)\n      dup1\n      swap2\n      sub\n      swap1\n      revert\n    tag_180:\n        /* \"contracts/LaunchSettings.sol\":2002:2018  minAuctionLength */\n      sload(0x02)\n        /* \"contracts/LaunchSettings.sol\":1992:1999  _length */\n      dup2\n        /* \"contracts/LaunchSettings.sol\":1992:2018  _length > minAuctionLength */\n      gt\n        /* \"contracts/LaunchSettings.sol\":1984:2049  require(_length > minAuctionLength, \"max auction length too low\") */\n      tag_183\n      jumpi\n      mload(0x40)\n      0x08c379a000000000000000000000000000000000000000000000000000000000\n      dup2\n      mstore\n      0x04\n      add\n      tag_184\n      swap1\n      tag_185\n      jump\t// in\n    tag_184:\n      mload(0x40)\n      dup1\n      swap2\n      sub\n      swap1\n      revert\n    tag_183:\n        /* \"contracts/LaunchSettings.sol\":2067:2116  UpdateMaxAuctionLength(maxAuctionLength, _length) */\n      0x06684837277f012a4c3a13c8ec0e53d85b843e328a811a8f5f25f5e1456d9f59\n        /* \"contracts/LaunchSettings.sol\":2090:2106  maxAuctionLength */\n      sload(0x01)\n        /* \"contracts/LaunchSettings.sol\":2108:2115  _length */\n      dup3\n        /* \"contracts/LaunchSettings.sol\":2067:2116  UpdateMaxAuctionLength(maxAuctionLength, _length) */\n      mload(0x40)\n      tag_186\n      swap3\n      swap2\n      swap1\n      tag_125\n      jump\t// in\n    tag_186:\n      mload(0x40)\n      dup1\n      swap2\n      sub\n      swap1\n      log1\n        /* \"contracts/LaunchSettings.sol\":2148:2155  _length */\n      dup1\n        /* \"contracts/LaunchSettings.sol\":2129:2145  maxAuctionLength */\n      0x01\n        /* \"contracts/LaunchSettings.sol\":2129:2155  maxAuctionLength = _length */\n      dup2\n      swap1\n      sstore\n      pop\n        /* \"contracts/LaunchSettings.sol\":1827:2163  function setMaxAuctionLength(uint256 _length) external onlyOwner {\r... */\n      pop\n      jump\t// out\n        /* \"contracts/LaunchSettings.sol\":864:907  address payable public override feeReceiver */\n    tag_100:\n      0x09\n      0x00\n      swap1\n      sload\n      swap1\n      0x0100\n      exp\n      swap1\n      div\n      0xffffffffffffffffffffffffffffffffffffffff\n      and\n      dup2\n      jump\t// out\n        /* \"contracts/LaunchSettings.sol\":373:425  uint256 public constant minMinAuctionLength = 1 days */\n    tag_104:\n        /* \"contracts/LaunchSettings.sol\":419:425  1 days */\n      0x015180\n        /* \"contracts/LaunchSettings.sol\":373:425  uint256 public constant minMinAuctionLength = 1 days */\n      dup2\n      jump\t// out\n        /* \"contracts/LaunchSettings.sol\":4010:4257  function setFeeReceiver(address payable _receiver) external onlyOwner {\r... */\n    tag_109:\n        /* \"@openzeppelin/contracts/access/Ownable.sol\":1094:1107  _checkOwner() */\n      tag_188\n        /* \"@openzeppelin/contracts/access/Ownable.sol\":1094:1105  _checkOwner */\n      tag_119\n        /* \"@openzeppelin/contracts/access/Ownable.sol\":1094:1107  _checkOwner() */\n      jump\t// in\n    tag_188:\n        /* \"contracts/LaunchSettings.sol\":4120:4121  0 */\n      0x00\n        /* \"contracts/LaunchSettings.sol\":4099:4122  _receiver != address(0) */\n      0xffffffffffffffffffffffffffffffffffffffff\n      and\n        /* \"contracts/LaunchSettings.sol\":4099:4108  _receiver */\n      dup2\n        /* \"contracts/LaunchSettings.sol\":4099:4122  _receiver != address(0) */\n      0xffffffffffffffffffffffffffffffffffffffff\n      and\n      eq\n      iszero\n        /* \"contracts/LaunchSettings.sol\":4091:4154  require(_receiver != address(0), \"fees cannot go to 0 address\") */\n      tag_190\n      jumpi\n      mload(0x40)\n      0x08c379a000000000000000000000000000000000000000000000000000000000\n      dup2\n      mstore\n      0x04\n      add\n      tag_191\n      swap1\n      tag_192\n      jump\t// in\n    tag_191:\n      mload(0x40)\n      dup1\n      swap2\n      sub\n      swap1\n      revert\n    tag_190:\n        /* \"contracts/LaunchSettings.sol\":4172:4213  UpdateFeeReceiver(feeReceiver, _receiver) */\n      0x2861448678f0be67f11bfb5481b3e3b4cfeb3acc6126ad60a05f95bfc6530666\n        /* \"contracts/LaunchSettings.sol\":4190:4201  feeReceiver */\n      0x09\n      0x00\n      swap1\n      sload\n      swap1\n      0x0100\n      exp\n      swap1\n      div\n      0xffffffffffffffffffffffffffffffffffffffff\n      and\n        /* \"contracts/LaunchSettings.sol\":4203:4212  _receiver */\n      dup3\n        /* \"contracts/LaunchSettings.sol\":4172:4213  UpdateFeeReceiver(feeReceiver, _receiver) */\n      mload(0x40)\n      tag_193\n      swap3\n      swap2\n      swap1\n      tag_194\n      jump\t// in\n    tag_193:\n      mload(0x40)\n      dup1\n      swap2\n      sub\n      swap1\n      log1\n        /* \"contracts/LaunchSettings.sol\":4240:4249  _receiver */\n      dup1\n        /* \"contracts/LaunchSettings.sol\":4226:4237  feeReceiver */\n      0x09\n      0x00\n        /* \"contracts/LaunchSettings.sol\":4226:4249  feeReceiver = _receiver */\n      0x0100\n      exp\n      dup2\n      sload\n      dup2\n      0xffffffffffffffffffffffffffffffffffffffff\n      mul\n      not\n      and\n      swap1\n      dup4\n      0xffffffffffffffffffffffffffffffffffffffff\n      and\n      mul\n      or\n      swap1\n      sstore\n      pop\n        /* \"contracts/LaunchSettings.sol\":4010:4257  function setFeeReceiver(address payable _receiver) external onlyOwner {\r... */\n      pop\n      jump\t// out\n        /* \"@openzeppelin/contracts/access/Ownable.sol\":2081:2279  function transferOwnership(address newOwner) public virtual onlyOwner {... */\n    tag_113:\n        /* \"@openzeppelin/contracts/access/Ownable.sol\":1094:1107  _checkOwner() */\n      tag_196\n        /* \"@openzeppelin/contracts/access/Ownable.sol\":1094:1105  _checkOwner */\n      tag_119\n        /* \"@openzeppelin/contracts/access/Ownable.sol\":1094:1107  _checkOwner() */\n      jump\t// in\n    tag_196:\n        /* \"@openzeppelin/contracts/access/Ownable.sol\":2189:2190  0 */\n      0x00\n        /* \"@openzeppelin/contracts/access/Ownable.sol\":2169:2191  newOwner != address(0) */\n      0xffffffffffffffffffffffffffffffffffffffff\n      and\n        /* \"@openzeppelin/contracts/access/Ownable.sol\":2169:2177  newOwner */\n      dup2\n        /* \"@openzeppelin/contracts/access/Ownable.sol\":2169:2191  newOwner != address(0) */\n      0xffffffffffffffffffffffffffffffffffffffff\n      and\n      eq\n      iszero\n        /* \"@openzeppelin/contracts/access/Ownable.sol\":2161:2234  require(newOwner != address(0), \"Ownable: new owner is the zero address\") */\n      tag_198\n      jumpi\n      mload(0x40)\n      0x08c379a000000000000000000000000000000000000000000000000000000000\n      dup2\n      mstore\n      0x04\n      add\n      tag_199\n      swap1\n      tag_200\n      jump\t// in\n    tag_199:\n      mload(0x40)\n      dup1\n      swap2\n      sub\n      swap1\n      revert\n    tag_198:\n        /* \"@openzeppelin/contracts/access/Ownable.sol\":2244:2272  _transferOwnership(newOwner) */\n      tag_201\n        /* \"@openzeppelin/contracts/access/Ownable.sol\":2263:2271  newOwner */\n      dup2\n        /* \"@openzeppelin/contracts/access/Ownable.sol\":2244:2262  _transferOwnership */\n      tag_158\n        /* \"@openzeppelin/contracts/access/Ownable.sol\":2244:2272  _transferOwnership(newOwner) */\n      jump\t// in\n    tag_201:\n        /* \"@openzeppelin/contracts/access/Ownable.sol\":2081:2279  function transferOwnership(address newOwner) public virtual onlyOwner {... */\n      pop\n      jump\t// out\n        /* \"contracts/LaunchSettings.sol\":611:658  uint256 public constant maxMinBidIncrease = 100 */\n    tag_115:\n        /* \"contracts/LaunchSettings.sol\":655:658  100 */\n      0x64\n        /* \"contracts/LaunchSettings.sol\":611:658  uint256 public constant maxMinBidIncrease = 100 */\n      dup2\n      jump\t// out\n        /* \"@openzeppelin/contracts/access/Ownable.sol\":1359:1489  function _checkOwner() internal view virtual {... */\n    tag_119:\n        /* \"@openzeppelin/contracts/access/Ownable.sol\":1433:1445  _msgSender() */\n      tag_203\n        /* \"@openzeppelin/contracts/access/Ownable.sol\":1433:1443  _msgSender */\n      tag_204\n        /* \"@openzeppelin/contracts/access/Ownable.sol\":1433:1445  _msgSender() */\n      jump\t// in\n    tag_203:\n        /* \"@openzeppelin/contracts/access/Ownable.sol\":1422:1445  owner() == _msgSender() */\n      0xffffffffffffffffffffffffffffffffffffffff\n      and\n        /* \"@openzeppelin/contracts/access/Ownable.sol\":1422:1429  owner() */\n      tag_205\n        /* \"@openzeppelin/contracts/access/Ownable.sol\":1422:1427  owner */\n      tag_87\n        /* \"@openzeppelin/contracts/access/Ownable.sol\":1422:1429  owner() */\n      jump\t// in\n    tag_205:\n        /* \"@openzeppelin/contracts/access/Ownable.sol\":1422:1445  owner() == _msgSender() */\n      0xffffffffffffffffffffffffffffffffffffffff\n      and\n      eq\n        /* \"@openzeppelin/contracts/access/Ownable.sol\":1414:1482  require(owner() == _msgSender(), \"Ownable: caller is not the owner\") */\n      tag_206\n      jumpi\n      mload(0x40)\n      0x08c379a000000000000000000000000000000000000000000000000000000000\n      dup2\n      mstore\n      0x04\n      add\n      tag_207\n      swap1\n      tag_208\n      jump\t// in\n    tag_207:\n      mload(0x40)\n      dup1\n      swap2\n      sub\n      swap1\n      revert\n    tag_206:\n        /* \"@openzeppelin/contracts/access/Ownable.sol\":1359:1489  function _checkOwner() internal view virtual {... */\n      jump\t// out\n        /* \"@openzeppelin/contracts/access/Ownable.sol\":2433:2620  function _transferOwnership(address newOwner) internal virtual {... */\n    tag_158:\n        /* \"@openzeppelin/contracts/access/Ownable.sol\":2506:2522  address oldOwner */\n      0x00\n        /* \"@openzeppelin/contracts/access/Ownable.sol\":2525:2531  _owner */\n      dup1\n      0x00\n      swap1\n      sload\n      swap1\n      0x0100\n      exp\n      swap1\n      div\n      0xffffffffffffffffffffffffffffffffffffffff\n      and\n        /* \"@openzeppelin/contracts/access/Ownable.sol\":2506:2531  address oldOwner = _owner */\n      swap1\n      pop\n        /* \"@openzeppelin/contracts/access/Ownable.sol\":2550:2558  newOwner */\n      dup2\n        /* \"@openzeppelin/contracts/access/Ownable.sol\":2541:2547  _owner */\n      0x00\n      dup1\n        /* \"@openzeppelin/contracts/access/Ownable.sol\":2541:2558  _owner = newOwner */\n      0x0100\n      exp\n      dup2\n      sload\n      dup2\n      0xffffffffffffffffffffffffffffffffffffffff\n      mul\n      not\n      and\n      swap1\n      dup4\n      0xffffffffffffffffffffffffffffffffffffffff\n      and\n      mul\n      or\n      swap1\n      sstore\n      pop\n        /* \"@openzeppelin/contracts/access/Ownable.sol\":2604:2612  newOwner */\n      dup2\n        /* \"@openzeppelin/contracts/access/Ownable.sol\":2573:2613  OwnershipTransferred(oldOwner, newOwner) */\n      0xffffffffffffffffffffffffffffffffffffffff\n      and\n        /* \"@openzeppelin/contracts/access/Ownable.sol\":2594:2602  oldOwner */\n      dup2\n        /* \"@openzeppelin/contracts/access/Ownable.sol\":2573:2613  OwnershipTransferred(oldOwner, newOwner) */\n      0xffffffffffffffffffffffffffffffffffffffff\n      and\n      0x8be0079c531659141344cd1fd0a4f28419497f9722a3daafe3b4186f6b6457e0\n      mload(0x40)\n      mload(0x40)\n      dup1\n      swap2\n      sub\n      swap1\n      log3\n        /* \"@openzeppelin/contracts/access/Ownable.sol\":2496:2620  {... */\n      pop\n        /* \"@openzeppelin/contracts/access/Ownable.sol\":2433:2620  function _transferOwnership(address newOwner) internal virtual {... */\n      pop\n      jump\t// out\n        /* \"@openzeppelin/contracts/utils/Context.sol\":640:736  function _msgSender() internal view virtual returns (address) {... */\n    tag_204:\n        /* \"@openzeppelin/contracts/utils/Context.sol\":693:700  address */\n      0x00\n        /* \"@openzeppelin/contracts/utils/Context.sol\":719:729  msg.sender */\n      caller\n        /* \"@openzeppelin/contracts/utils/Context.sol\":712:729  return msg.sender */\n      swap1\n      pop\n        /* \"@openzeppelin/contracts/utils/Context.sol\":640:736  function _msgSender() internal view virtual returns (address) {... */\n      swap1\n      jump\t// out\n        /* \"#utility.yul\":7:146   */\n    tag_212:\n        /* \"#utility.yul\":53:58   */\n      0x00\n        /* \"#utility.yul\":91:97   */\n      dup2\n        /* \"#utility.yul\":78:98   */\n      calldataload\n        /* \"#utility.yul\":69:98   */\n      swap1\n      pop\n        /* \"#utility.yul\":107:140   */\n      tag_214\n        /* \"#utility.yul\":134:139   */\n      dup2\n        /* \"#utility.yul\":107:140   */\n      tag_215\n      jump\t// in\n    tag_214:\n        /* \"#utility.yul\":7:146   */\n      swap3\n      swap2\n      pop\n      pop\n      jump\t// out\n        /* \"#utility.yul\":152:307   */\n    tag_216:\n        /* \"#utility.yul\":206:211   */\n      0x00\n        /* \"#utility.yul\":244:250   */\n      dup2\n        /* \"#utility.yul\":231:251   */\n      calldataload\n        /* \"#utility.yul\":222:251   */\n      swap1\n      pop\n        /* \"#utility.yul\":260:301   */\n      tag_218\n        /* \"#utility.yul\":295:300   */\n      dup2\n        /* \"#utility.yul\":260:301   */\n      tag_219\n      jump\t// in\n    tag_218:\n        /* \"#utility.yul\":152:307   */\n      swap3\n      swap2\n      pop\n      pop\n      jump\t// out\n        /* \"#utility.yul\":313:452   */\n    tag_220:\n        /* \"#utility.yul\":359:364   */\n      0x00\n        /* \"#utility.yul\":397:403   */\n      dup2\n        /* \"#utility.yul\":384:404   */\n      calldataload\n        /* \"#utility.yul\":375:404   */\n      swap1\n      pop\n        /* \"#utility.yul\":413:446   */\n      tag_222\n        /* \"#utility.yul\":440:445   */\n      dup2\n        /* \"#utility.yul\":413:446   */\n      tag_223\n      jump\t// in\n    tag_222:\n        /* \"#utility.yul\":313:452   */\n      swap3\n      swap2\n      pop\n      pop\n      jump\t// out\n        /* \"#utility.yul\":458:787   */\n    tag_112:\n        /* \"#utility.yul\":517:523   */\n      0x00\n        /* \"#utility.yul\":566:568   */\n      0x20\n        /* \"#utility.yul\":554:563   */\n      dup3\n        /* \"#utility.yul\":545:552   */\n      dup5\n        /* \"#utility.yul\":541:564   */\n      sub\n        /* \"#utility.yul\":537:569   */\n      slt\n        /* \"#utility.yul\":534:653   */\n      iszero\n      tag_225\n      jumpi\n        /* \"#utility.yul\":572:651   */\n      tag_226\n      tag_227\n      jump\t// in\n    tag_226:\n        /* \"#utility.yul\":534:653   */\n    tag_225:\n        /* \"#utility.yul\":692:693   */\n      0x00\n        /* \"#utility.yul\":717:770   */\n      tag_228\n        /* \"#utility.yul\":762:769   */\n      dup5\n        /* \"#utility.yul\":753:759   */\n      dup3\n        /* \"#utility.yul\":742:751   */\n      dup6\n        /* \"#utility.yul\":738:760   */\n      add\n        /* \"#utility.yul\":717:770   */\n      tag_212\n      jump\t// in\n    tag_228:\n        /* \"#utility.yul\":707:770   */\n      swap2\n      pop\n        /* \"#utility.yul\":663:780   */\n      pop\n        /* \"#utility.yul\":458:787   */\n      swap3\n      swap2\n      pop\n      pop\n      jump\t// out\n        /* \"#utility.yul\":793:1138   */\n    tag_108:\n        /* \"#utility.yul\":860:866   */\n      0x00\n        /* \"#utility.yul\":909:911   */\n      0x20\n        /* \"#utility.yul\":897:906   */\n      dup3\n        /* \"#utility.yul\":888:895   */\n      dup5\n        /* \"#utility.yul\":884:907   */\n      sub\n        /* \"#utility.yul\":880:912   */\n      slt\n        /* \"#utility.yul\":877:996   */\n      iszero\n      tag_230\n      jumpi\n        /* \"#utility.yul\":915:994   */\n      tag_231\n      tag_227\n      jump\t// in\n    tag_231:\n        /* \"#utility.yul\":877:996   */\n    tag_230:\n        /* \"#utility.yul\":1035:1036   */\n      0x00\n        /* \"#utility.yul\":1060:1121   */\n      tag_232\n        /* \"#utility.yul\":1113:1120   */\n      dup5\n        /* \"#utility.yul\":1104:1110   */\n      dup3\n        /* \"#utility.yul\":1093:1102   */\n      dup6\n        /* \"#utility.yul\":1089:1111   */\n      add\n        /* \"#utility.yul\":1060:1121   */\n      tag_216\n      jump\t// in\n    tag_232:\n        /* \"#utility.yul\":1050:1121   */\n      swap2\n      pop\n        /* \"#utility.yul\":1006:1131   */\n      pop\n        /* \"#utility.yul\":793:1138   */\n      swap3\n      swap2\n      pop\n      pop\n      jump\t// out\n        /* \"#utility.yul\":1144:1473   */\n    tag_46:\n        /* \"#utility.yul\":1203:1209   */\n      0x00\n        /* \"#utility.yul\":1252:1254   */\n      0x20\n        /* \"#utility.yul\":1240:1249   */\n      dup3\n        /* \"#utility.yul\":1231:1238   */\n      dup5\n        /* \"#utility.yul\":1227:1250   */\n      sub\n        /* \"#utility.yul\":1223:1255   */\n      slt\n        /* \"#utility.yul\":1220:1339   */\n      iszero\n      tag_234\n      jumpi\n        /* \"#utility.yul\":1258:1337   */\n      tag_235\n      tag_227\n      jump\t// in\n    tag_235:\n        /* \"#utility.yul\":1220:1339   */\n    tag_234:\n        /* \"#utility.yul\":1378:1379   */\n      0x00\n        /* \"#utility.yul\":1403:1456   */\n      tag_236\n        /* \"#utility.yul\":1448:1455   */\n      dup5\n        /* \"#utility.yul\":1439:1445   */\n      dup3\n        /* \"#utility.yul\":1428:1437   */\n      dup6\n        /* \"#utility.yul\":1424:1446   */\n      add\n        /* \"#utility.yul\":1403:1456   */\n      tag_220\n      jump\t// in\n    tag_236:\n        /* \"#utility.yul\":1393:1456   */\n      swap2\n      pop\n        /* \"#utility.yul\":1349:1466   */\n      pop\n        /* \"#utility.yul\":1144:1473   */\n      swap3\n      swap2\n      pop\n      pop\n      jump\t// out\n        /* \"#utility.yul\":1479:1626   */\n    tag_237:\n        /* \"#utility.yul\":1574:1619   */\n      tag_239\n        /* \"#utility.yul\":1613:1618   */\n      dup2\n        /* \"#utility.yul\":1574:1619   */\n      tag_240\n      jump\t// in\n    tag_239:\n        /* \"#utility.yul\":1569:1572   */\n      dup3\n        /* \"#utility.yul\":1562:1620   */\n      mstore\n        /* \"#utility.yul\":1479:1626   */\n      pop\n      pop\n      jump\t// out\n        /* \"#utility.yul\":1632:1774   */\n    tag_241:\n        /* \"#utility.yul\":1735:1767   */\n      tag_243\n        /* \"#utility.yul\":1761:1766   */\n      dup2\n        /* \"#utility.yul\":1735:1767   */\n      tag_244\n      jump\t// in\n    tag_243:\n        /* \"#utility.yul\":1730:1733   */\n      dup3\n        /* \"#utility.yul\":1723:1768   */\n      mstore\n        /* \"#utility.yul\":1632:1774   */\n      pop\n      pop\n      jump\t// out\n        /* \"#utility.yul\":1780:1898   */\n    tag_245:\n        /* \"#utility.yul\":1867:1891   */\n      tag_247\n        /* \"#utility.yul\":1885:1890   */\n      dup2\n        /* \"#utility.yul\":1867:1891   */\n      tag_248\n      jump\t// in\n    tag_247:\n        /* \"#utility.yul\":1862:1865   */\n      dup3\n        /* \"#utility.yul\":1855:1892   */\n      mstore\n        /* \"#utility.yul\":1780:1898   */\n      pop\n      pop\n      jump\t// out\n        /* \"#utility.yul\":1904:2270   */\n    tag_249:\n        /* \"#utility.yul\":2046:2049   */\n      0x00\n        /* \"#utility.yul\":2067:2134   */\n      tag_251\n        /* \"#utility.yul\":2131:2133   */\n      0x1b\n        /* \"#utility.yul\":2126:2129   */\n      dup4\n        /* \"#utility.yul\":2067:2134   */\n      tag_252\n      jump\t// in\n    tag_251:\n        /* \"#utility.yul\":2060:2134   */\n      swap2\n      pop\n        /* \"#utility.yul\":2143:2236   */\n      tag_253\n        /* \"#utility.yul\":2232:2235   */\n      dup3\n        /* \"#utility.yul\":2143:2236   */\n      tag_254\n      jump\t// in\n    tag_253:\n        /* \"#utility.yul\":2261:2263   */\n      0x20\n        /* \"#utility.yul\":2256:2259   */\n      dup3\n        /* \"#utility.yul\":2252:2264   */\n      add\n        /* \"#utility.yul\":2245:2264   */\n      swap1\n      pop\n        /* \"#utility.yul\":1904:2270   */\n      swap2\n      swap1\n      pop\n      jump\t// out\n        /* \"#utility.yul\":2276:2642   */\n    tag_255:\n        /* \"#utility.yul\":2418:2421   */\n      0x00\n        /* \"#utility.yul\":2439:2506   */\n      tag_257\n        /* \"#utility.yul\":2503:2505   */\n      0x1b\n        /* \"#utility.yul\":2498:2501   */\n      dup4\n        /* \"#utility.yul\":2439:2506   */\n      tag_252\n      jump\t// in\n    tag_257:\n        /* \"#utility.yul\":2432:2506   */\n      swap2\n      pop\n        /* \"#utility.yul\":2515:2608   */\n      tag_258\n        /* \"#utility.yul\":2604:2607   */\n      dup3\n        /* \"#utility.yul\":2515:2608   */\n      tag_259\n      jump\t// in\n    tag_258:\n        /* \"#utility.yul\":2633:2635   */\n      0x20\n        /* \"#utility.yul\":2628:2631   */\n      dup3\n        /* \"#utility.yul\":2624:2636   */\n      add\n        /* \"#utility.yul\":2617:2636   */\n      swap1\n      pop\n        /* \"#utility.yul\":2276:2642   */\n      swap2\n      swap1\n      pop\n      jump\t// out\n        /* \"#utility.yul\":2648:3014   */\n    tag_260:\n        /* \"#utility.yul\":2790:2793   */\n      0x00\n        /* \"#utility.yul\":2811:2878   */\n      tag_262\n        /* \"#utility.yul\":2875:2877   */\n      0x26\n        /* \"#utility.yul\":2870:2873   */\n      dup4\n        /* \"#utility.yul\":2811:2878   */\n      tag_252\n      jump\t// in\n    tag_262:\n        /* \"#utility.yul\":2804:2878   */\n      swap2\n      pop\n        /* \"#utility.yul\":2887:2980   */\n      tag_263\n        /* \"#utility.yul\":2976:2979   */\n      dup3\n        /* \"#utility.yul\":2887:2980   */\n      tag_264\n      jump\t// in\n    tag_263:\n        /* \"#utility.yul\":3005:3007   */\n      0x40\n        /* \"#utility.yul\":3000:3003   */\n      dup3\n        /* \"#utility.yul\":2996:3008   */\n      add\n        /* \"#utility.yul\":2989:3008   */\n      swap1\n      pop\n        /* \"#utility.yul\":2648:3014   */\n      swap2\n      swap1\n      pop\n      jump\t// out\n        /* \"#utility.yul\":3020:3386   */\n    tag_265:\n        /* \"#utility.yul\":3162:3165   */\n      0x00\n        /* \"#utility.yul\":3183:3250   */\n      tag_267\n        /* \"#utility.yul\":3247:3249   */\n      0x18\n        /* \"#utility.yul\":3242:3245   */\n      dup4\n        /* \"#utility.yul\":3183:3250   */\n      tag_252\n      jump\t// in\n    tag_267:\n        /* \"#utility.yul\":3176:3250   */\n      swap2\n      pop\n        /* \"#utility.yul\":3259:3352   */\n      tag_268\n        /* \"#utility.yul\":3348:3351   */\n      dup3\n        /* \"#utility.yul\":3259:3352   */\n      tag_269\n      jump\t// in\n    tag_268:\n        /* \"#utility.yul\":3377:3379   */\n      0x20\n        /* \"#utility.yul\":3372:3375   */\n      dup3\n        /* \"#utility.yul\":3368:3380   */\n      add\n        /* \"#utility.yul\":3361:3380   */\n      swap1\n      pop\n        /* \"#utility.yul\":3020:3386   */\n      swap2\n      swap1\n      pop\n      jump\t// out\n        /* \"#utility.yul\":3392:3758   */\n    tag_270:\n        /* \"#utility.yul\":3534:3537   */\n      0x00\n        /* \"#utility.yul\":3555:3622   */\n      tag_272\n        /* \"#utility.yul\":3619:3621   */\n      0x19\n        /* \"#utility.yul\":3614:3617   */\n      dup4\n        /* \"#utility.yul\":3555:3622   */\n      tag_252\n      jump\t// in\n    tag_272:\n        /* \"#utility.yul\":3548:3622   */\n      swap2\n      pop\n        /* \"#utility.yul\":3631:3724   */\n      tag_273\n        /* \"#utility.yul\":3720:3723   */\n      dup3\n        /* \"#utility.yul\":3631:3724   */\n      tag_274\n      jump\t// in\n    tag_273:\n        /* \"#utility.yul\":3749:3751   */\n      0x20\n        /* \"#utility.yul\":3744:3747   */\n      dup3\n        /* \"#utility.yul\":3740:3752   */\n      add\n        /* \"#utility.yul\":3733:3752   */\n      swap1\n      pop\n        /* \"#utility.yul\":3392:3758   */\n      swap2\n      swap1\n      pop\n      jump\t// out\n        /* \"#utility.yul\":3764:4130   */\n    tag_275:\n        /* \"#utility.yul\":3906:3909   */\n      0x00\n        /* \"#utility.yul\":3927:3994   */\n      tag_277\n        /* \"#utility.yul\":3991:3993   */\n      0x1a\n        /* \"#utility.yul\":3986:3989   */\n      dup4\n        /* \"#utility.yul\":3927:3994   */\n      tag_252\n      jump\t// in\n    tag_277:\n        /* \"#utility.yul\":3920:3994   */\n      swap2\n      pop\n        /* \"#utility.yul\":4003:4096   */\n      tag_278\n        /* \"#utility.yul\":4092:4095   */\n      dup3\n        /* \"#utility.yul\":4003:4096   */\n      tag_279\n      jump\t// in\n    tag_278:\n        /* \"#utility.yul\":4121:4123   */\n      0x20\n        /* \"#utility.yul\":4116:4119   */\n      dup3\n        /* \"#utility.yul\":4112:4124   */\n      add\n        /* \"#utility.yul\":4105:4124   */\n      swap1\n      pop\n        /* \"#utility.yul\":3764:4130   */\n      swap2\n      swap1\n      pop\n      jump\t// out\n        /* \"#utility.yul\":4136:4502   */\n    tag_280:\n        /* \"#utility.yul\":4278:4281   */\n      0x00\n        /* \"#utility.yul\":4299:4366   */\n      tag_282\n        /* \"#utility.yul\":4363:4365   */\n      0x1a\n        /* \"#utility.yul\":4358:4361   */\n      dup4\n        /* \"#utility.yul\":4299:4366   */\n      tag_252\n      jump\t// in\n    tag_282:\n        /* \"#utility.yul\":4292:4366   */\n      swap2\n      pop\n        /* \"#utility.yul\":4375:4468   */\n      tag_283\n        /* \"#utility.yul\":4464:4467   */\n      dup3\n        /* \"#utility.yul\":4375:4468   */\n      tag_284\n      jump\t// in\n    tag_283:\n        /* \"#utility.yul\":4493:4495   */\n      0x20\n        /* \"#utility.yul\":4488:4491   */\n      dup3\n        /* \"#utility.yul\":4484:4496   */\n      add\n        /* \"#utility.yul\":4477:4496   */\n      swap1\n      pop\n        /* \"#utility.yul\":4136:4502   */\n      swap2\n      swap1\n      pop\n      jump\t// out\n        /* \"#utility.yul\":4508:4874   */\n    tag_285:\n        /* \"#utility.yul\":4650:4653   */\n      0x00\n        /* \"#utility.yul\":4671:4738   */\n      tag_287\n        /* \"#utility.yul\":4735:4737   */\n      0x20\n        /* \"#utility.yul\":4730:4733   */\n      dup4\n        /* \"#utility.yul\":4671:4738   */\n      tag_252\n      jump\t// in\n    tag_287:\n        /* \"#utility.yul\":4664:4738   */\n      swap2\n      pop\n        /* \"#utility.yul\":4747:4840   */\n      tag_288\n        /* \"#utility.yul\":4836:4839   */\n      dup3\n        /* \"#utility.yul\":4747:4840   */\n      tag_289\n      jump\t// in\n    tag_288:\n        /* \"#utility.yul\":4865:4867   */\n      0x20\n        /* \"#utility.yul\":4860:4863   */\n      dup3\n        /* \"#utility.yul\":4856:4868   */\n      add\n        /* \"#utility.yul\":4849:4868   */\n      swap1\n      pop\n        /* \"#utility.yul\":4508:4874   */\n      swap2\n      swap1\n      pop\n      jump\t// out\n        /* \"#utility.yul\":4880:5246   */\n    tag_290:\n        /* \"#utility.yul\":5022:5025   */\n      0x00\n        /* \"#utility.yul\":5043:5110   */\n      tag_292\n        /* \"#utility.yul\":5107:5109   */\n      0x1a\n        /* \"#utility.yul\":5102:5105   */\n      dup4\n        /* \"#utility.yul\":5043:5110   */\n      tag_252\n      jump\t// in\n    tag_292:\n        /* \"#utility.yul\":5036:5110   */\n      swap2\n      pop\n        /* \"#utility.yul\":5119:5212   */\n      tag_293\n        /* \"#utility.yul\":5208:5211   */\n      dup3\n        /* \"#utility.yul\":5119:5212   */\n      tag_294\n      jump\t// in\n    tag_293:\n        /* \"#utility.yul\":5237:5239   */\n      0x20\n        /* \"#utility.yul\":5232:5235   */\n      dup3\n        /* \"#utility.yul\":5228:5240   */\n      add\n        /* \"#utility.yul\":5221:5240   */\n      swap1\n      pop\n        /* \"#utility.yul\":4880:5246   */\n      swap2\n      swap1\n      pop\n      jump\t// out\n        /* \"#utility.yul\":5252:5618   */\n    tag_295:\n        /* \"#utility.yul\":5394:5397   */\n      0x00\n        /* \"#utility.yul\":5415:5482   */\n      tag_297\n        /* \"#utility.yul\":5479:5481   */\n      0x1b\n        /* \"#utility.yul\":5474:5477   */\n      dup4\n        /* \"#utility.yul\":5415:5482   */\n      tag_252\n      jump\t// in\n    tag_297:\n        /* \"#utility.yul\":5408:5482   */\n      swap2\n      pop\n        /* \"#utility.yul\":5491:5584   */\n      tag_298\n        /* \"#utility.yul\":5580:5583   */\n      dup3\n        /* \"#utility.yul\":5491:5584   */\n      tag_299\n      jump\t// in\n    tag_298:\n        /* \"#utility.yul\":5609:5611   */\n      0x20\n        /* \"#utility.yul\":5604:5607   */\n      dup3\n        /* \"#utility.yul\":5600:5612   */\n      add\n        /* \"#utility.yul\":5593:5612   */\n      swap1\n      pop\n        /* \"#utility.yul\":5252:5618   */\n      swap2\n      swap1\n      pop\n      jump\t// out\n        /* \"#utility.yul\":5624:5990   */\n    tag_300:\n        /* \"#utility.yul\":5766:5769   */\n      0x00\n        /* \"#utility.yul\":5787:5854   */\n      tag_302\n        /* \"#utility.yul\":5851:5853   */\n      0x0c\n        /* \"#utility.yul\":5846:5849   */\n      dup4\n        /* \"#utility.yul\":5787:5854   */\n      tag_252\n      jump\t// in\n    tag_302:\n        /* \"#utility.yul\":5780:5854   */\n      swap2\n      pop\n        /* \"#utility.yul\":5863:5956   */\n      tag_303\n        /* \"#utility.yul\":5952:5955   */\n      dup3\n        /* \"#utility.yul\":5863:5956   */\n      tag_304\n      jump\t// in\n    tag_303:\n        /* \"#utility.yul\":5981:5983   */\n      0x20\n        /* \"#utility.yul\":5976:5979   */\n      dup3\n        /* \"#utility.yul\":5972:5984   */\n      add\n        /* \"#utility.yul\":5965:5984   */\n      swap1\n      pop\n        /* \"#utility.yul\":5624:5990   */\n      swap2\n      swap1\n      pop\n      jump\t// out\n        /* \"#utility.yul\":5996:6362   */\n    tag_305:\n        /* \"#utility.yul\":6138:6141   */\n      0x00\n        /* \"#utility.yul\":6159:6226   */\n      tag_307\n        /* \"#utility.yul\":6223:6225   */\n      0x1b\n        /* \"#utility.yul\":6218:6221   */\n      dup4\n        /* \"#utility.yul\":6159:6226   */\n      tag_252\n      jump\t// in\n    tag_307:\n        /* \"#utility.yul\":6152:6226   */\n      swap2\n      pop\n        /* \"#utility.yul\":6235:6328   */\n      tag_308\n        /* \"#utility.yul\":6324:6327   */\n      dup3\n        /* \"#utility.yul\":6235:6328   */\n      tag_309\n      jump\t// in\n    tag_308:\n        /* \"#utility.yul\":6353:6355   */\n      0x20\n        /* \"#utility.yul\":6348:6351   */\n      dup3\n        /* \"#utility.yul\":6344:6356   */\n      add\n        /* \"#utility.yul\":6337:6356   */\n      swap1\n      pop\n        /* \"#utility.yul\":5996:6362   */\n      swap2\n      swap1\n      pop\n      jump\t// out\n        /* \"#utility.yul\":6368:6734   */\n    tag_310:\n        /* \"#utility.yul\":6510:6513   */\n      0x00\n        /* \"#utility.yul\":6531:6598   */\n      tag_312\n        /* \"#utility.yul\":6595:6597   */\n      0x1c\n        /* \"#utility.yul\":6590:6593   */\n      dup4\n        /* \"#utility.yul\":6531:6598   */\n      tag_252\n      jump\t// in\n    tag_312:\n        /* \"#utility.yul\":6524:6598   */\n      swap2\n      pop\n        /* \"#utility.yul\":6607:6700   */\n      tag_313\n        /* \"#utility.yul\":6696:6699   */\n      dup3\n        /* \"#utility.yul\":6607:6700   */\n      tag_314\n      jump\t// in\n    tag_313:\n        /* \"#utility.yul\":6725:6727   */\n      0x20\n        /* \"#utility.yul\":6720:6723   */\n      dup3\n        /* \"#utility.yul\":6716:6728   */\n      add\n        /* \"#utility.yul\":6709:6728   */\n      swap1\n      pop\n        /* \"#utility.yul\":6368:6734   */\n      swap2\n      swap1\n      pop\n      jump\t// out\n        /* \"#utility.yul\":6740:6858   */\n    tag_315:\n        /* \"#utility.yul\":6827:6851   */\n      tag_317\n        /* \"#utility.yul\":6845:6850   */\n      dup2\n        /* \"#utility.yul\":6827:6851   */\n      tag_318\n      jump\t// in\n    tag_317:\n        /* \"#utility.yul\":6822:6825   */\n      dup3\n        /* \"#utility.yul\":6815:6852   */\n      mstore\n        /* \"#utility.yul\":6740:6858   */\n      pop\n      pop\n      jump\t// out\n        /* \"#utility.yul\":6864:7086   */\n    tag_89:\n        /* \"#utility.yul\":6957:6961   */\n      0x00\n        /* \"#utility.yul\":6995:6997   */\n      0x20\n        /* \"#utility.yul\":6984:6993   */\n      dup3\n        /* \"#utility.yul\":6980:6998   */\n      add\n        /* \"#utility.yul\":6972:6998   */\n      swap1\n      pop\n        /* \"#utility.yul\":7008:7079   */\n      tag_320\n        /* \"#utility.yul\":7076:7077   */\n      0x00\n        /* \"#utility.yul\":7065:7074   */\n      dup4\n        /* \"#utility.yul\":7061:7078   */\n      add\n        /* \"#utility.yul\":7052:7058   */\n      dup5\n        /* \"#utility.yul\":7008:7079   */\n      tag_245\n      jump\t// in\n    tag_320:\n        /* \"#utility.yul\":6864:7086   */\n      swap3\n      swap2\n      pop\n      pop\n      jump\t// out\n        /* \"#utility.yul\":7092:7346   */\n    tag_102:\n        /* \"#utility.yul\":7201:7205   */\n      0x00\n        /* \"#utility.yul\":7239:7241   */\n      0x20\n        /* \"#utility.yul\":7228:7237   */\n      dup3\n        /* \"#utility.yul\":7224:7242   */\n      add\n        /* \"#utility.yul\":7216:7242   */\n      swap1\n      pop\n        /* \"#utility.yul\":7252:7339   */\n      tag_322\n        /* \"#utility.yul\":7336:7337   */\n      0x00\n        /* \"#utility.yul\":7325:7334   */\n      dup4\n        /* \"#utility.yul\":7321:7338   */\n      add\n        /* \"#utility.yul\":7312:7318   */\n      dup5\n        /* \"#utility.yul\":7252:7339   */\n      tag_241\n      jump\t// in\n    tag_322:\n        /* \"#utility.yul\":7092:7346   */\n      swap3\n      swap2\n      pop\n      pop\n      jump\t// out\n        /* \"#utility.yul\":7352:7716   */\n    tag_194:\n        /* \"#utility.yul\":7489:7493   */\n      0x00\n        /* \"#utility.yul\":7527:7529   */\n      0x40\n        /* \"#utility.yul\":7516:7525   */\n      dup3\n        /* \"#utility.yul\":7512:7530   */\n      add\n        /* \"#utility.yul\":7504:7530   */\n      swap1\n      pop\n        /* \"#utility.yul\":7540:7619   */\n      tag_324\n        /* \"#utility.yul\":7616:7617   */\n      0x00\n        /* \"#utility.yul\":7605:7614   */\n      dup4\n        /* \"#utility.yul\":7601:7618   */\n      add\n        /* \"#utility.yul\":7592:7598   */\n      dup6\n        /* \"#utility.yul\":7540:7619   */\n      tag_237\n      jump\t// in\n    tag_324:\n        /* \"#utility.yul\":7629:7709   */\n      tag_325\n        /* \"#utility.yul\":7705:7707   */\n      0x20\n        /* \"#utility.yul\":7694:7703   */\n      dup4\n        /* \"#utility.yul\":7690:7708   */\n      add\n        /* \"#utility.yul\":7681:7687   */\n      dup5\n        /* \"#utility.yul\":7629:7709   */\n      tag_237\n      jump\t// in\n    tag_325:\n        /* \"#utility.yul\":7352:7716   */\n      swap4\n      swap3\n      pop\n      pop\n      pop\n      jump\t// out\n        /* \"#utility.yul\":7722:8141   */\n    tag_182:\n        /* \"#utility.yul\":7888:7892   */\n      0x00\n        /* \"#utility.yul\":7926:7928   */\n      0x20\n        /* \"#utility.yul\":7915:7924   */\n      dup3\n        /* \"#utility.yul\":7911:7929   */\n      add\n        /* \"#utility.yul\":7903:7929   */\n      swap1\n      pop\n        /* \"#utility.yul\":7975:7984   */\n      dup2\n        /* \"#utility.yul\":7969:7973   */\n      dup2\n        /* \"#utility.yul\":7965:7985   */\n      sub\n        /* \"#utility.yul\":7961:7962   */\n      0x00\n        /* \"#utility.yul\":7950:7959   */\n      dup4\n        /* \"#utility.yul\":7946:7963   */\n      add\n        /* \"#utility.yul\":7939:7986   */\n      mstore\n        /* \"#utility.yul\":8003:8134   */\n      tag_327\n        /* \"#utility.yul\":8129:8133   */\n      dup2\n        /* \"#utility.yul\":8003:8134   */\n      tag_249\n      jump\t// in\n    tag_327:\n        /* \"#utility.yul\":7995:8134   */\n      swap1\n      pop\n        /* \"#utility.yul\":7722:8141   */\n      swap2\n      swap1\n      pop\n      jump\t// out\n        /* \"#utility.yul\":8147:8566   */\n    tag_123:\n        /* \"#utility.yul\":8313:8317   */\n      0x00\n        /* \"#utility.yul\":8351:8353   */\n      0x20\n        /* \"#utility.yul\":8340:8349   */\n      dup3\n        /* \"#utility.yul\":8336:8354   */\n      add\n        /* \"#utility.yul\":8328:8354   */\n      swap1\n      pop\n        /* \"#utility.yul\":8400:8409   */\n      dup2\n        /* \"#utility.yul\":8394:8398   */\n      dup2\n        /* \"#utility.yul\":8390:8410   */\n      sub\n        /* \"#utility.yul\":8386:8387   */\n      0x00\n        /* \"#utility.yul\":8375:8384   */\n      dup4\n        /* \"#utility.yul\":8371:8388   */\n      add\n        /* \"#utility.yul\":8364:8411   */\n      mstore\n        /* \"#utility.yul\":8428:8559   */\n      tag_329\n        /* \"#utility.yul\":8554:8558   */\n      dup2\n        /* \"#utility.yul\":8428:8559   */\n      tag_255\n      jump\t// in\n    tag_329:\n        /* \"#utility.yul\":8420:8559   */\n      swap1\n      pop\n        /* \"#utility.yul\":8147:8566   */\n      swap2\n      swap1\n      pop\n      jump\t// out\n        /* \"#utility.yul\":8572:8991   */\n    tag_200:\n        /* \"#utility.yul\":8738:8742   */\n      0x00\n        /* \"#utility.yul\":8776:8778   */\n      0x20\n        /* \"#utility.yul\":8765:8774   */\n      dup3\n        /* \"#utility.yul\":8761:8779   */\n      add\n        /* \"#utility.yul\":8753:8779   */\n      swap1\n      pop\n        /* \"#utility.yul\":8825:8834   */\n      dup2\n        /* \"#utility.yul\":8819:8823   */\n      dup2\n        /* \"#utility.yul\":8815:8835   */\n      sub\n        /* \"#utility.yul\":8811:8812   */\n      0x00\n        /* \"#utility.yul\":8800:8809   */\n      dup4\n        /* \"#utility.yul\":8796:8813   */\n      add\n        /* \"#utility.yul\":8789:8836   */\n      mstore\n        /* \"#utility.yul\":8853:8984   */\n      tag_331\n        /* \"#utility.yul\":8979:8983   */\n      dup2\n        /* \"#utility.yul\":8853:8984   */\n      tag_260\n      jump\t// in\n    tag_331:\n        /* \"#utility.yul\":8845:8984   */\n      swap1\n      pop\n        /* \"#utility.yul\":8572:8991   */\n      swap2\n      swap1\n      pop\n      jump\t// out\n        /* \"#utility.yul\":8997:9416   */\n    tag_175:\n        /* \"#utility.yul\":9163:9167   */\n      0x00\n        /* \"#utility.yul\":9201:9203   */\n      0x20\n        /* \"#utility.yul\":9190:9199   */\n      dup3\n        /* \"#utility.yul\":9186:9204   */\n      add\n        /* \"#utility.yul\":9178:9204   */\n      swap1\n      pop\n        /* \"#utility.yul\":9250:9259   */\n      dup2\n        /* \"#utility.yul\":9244:9248   */\n      dup2\n        /* \"#utility.yul\":9240:9260   */\n      sub\n        /* \"#utility.yul\":9236:9237   */\n      0x00\n        /* \"#utility.yul\":9225:9234   */\n      dup4\n        /* \"#utility.yul\":9221:9238   */\n      add\n        /* \"#utility.yul\":9214:9261   */\n      mstore\n        /* \"#utility.yul\":9278:9409   */\n      tag_333\n        /* \"#utility.yul\":9404:9408   */\n      dup2\n        /* \"#utility.yul\":9278:9409   */\n      tag_265\n      jump\t// in\n    tag_333:\n        /* \"#utility.yul\":9270:9409   */\n      swap1\n      pop\n        /* \"#utility.yul\":8997:9416   */\n      swap2\n      swap1\n      pop\n      jump\t// out\n        /* \"#utility.yul\":9422:9841   */\n    tag_172:\n        /* \"#utility.yul\":9588:9592   */\n      0x00\n        /* \"#utility.yul\":9626:9628   */\n      0x20\n        /* \"#utility.yul\":9615:9624   */\n      dup3\n        /* \"#utility.yul\":9611:9629   */\n      add\n        /* \"#utility.yul\":9603:9629   */\n      swap1\n      pop\n        /* \"#utility.yul\":9675:9684   */\n      dup2\n        /* \"#utility.yul\":9669:9673   */\n      dup2\n        /* \"#utility.yul\":9665:9685   */\n      sub\n        /* \"#utility.yul\":9661:9662   */\n      0x00\n        /* \"#utility.yul\":9650:9659   */\n      dup4\n        /* \"#utility.yul\":9646:9663   */\n      add\n        /* \"#utility.yul\":9639:9686   */\n      mstore\n        /* \"#utility.yul\":9703:9834   */\n      tag_335\n        /* \"#utility.yul\":9829:9833   */\n      dup2\n        /* \"#utility.yul\":9703:9834   */\n      tag_270\n      jump\t// in\n    tag_335:\n        /* \"#utility.yul\":9695:9834   */\n      swap1\n      pop\n        /* \"#utility.yul\":9422:9841   */\n      swap2\n      swap1\n      pop\n      jump\t// out\n        /* \"#utility.yul\":9847:10266   */\n    tag_185:\n        /* \"#utility.yul\":10013:10017   */\n      0x00\n        /* \"#utility.yul\":10051:10053   */\n      0x20\n        /* \"#utility.yul\":10040:10049   */\n      dup3\n        /* \"#utility.yul\":10036:10054   */\n      add\n        /* \"#utility.yul\":10028:10054   */\n      swap1\n      pop\n        /* \"#utility.yul\":10100:10109   */\n      dup2\n        /* \"#utility.yul\":10094:10098   */\n      dup2\n        /* \"#utility.yul\":10090:10110   */\n      sub\n        /* \"#utility.yul\":10086:10087   */\n      0x00\n        /* \"#utility.yul\":10075:10084   */\n      dup4\n        /* \"#utility.yul\":10071:10088   */\n      add\n        /* \"#utility.yul\":10064:10111   */\n      mstore\n        /* \"#utility.yul\":10128:10259   */\n      tag_337\n        /* \"#utility.yul\":10254:10258   */\n      dup2\n        /* \"#utility.yul\":10128:10259   */\n      tag_275\n      jump\t// in\n    tag_337:\n        /* \"#utility.yul\":10120:10259   */\n      swap1\n      pop\n        /* \"#utility.yul\":9847:10266   */\n      swap2\n      swap1\n      pop\n      jump\t// out\n        /* \"#utility.yul\":10272:10691   */\n    tag_164:\n        /* \"#utility.yul\":10438:10442   */\n      0x00\n        /* \"#utility.yul\":10476:10478   */\n      0x20\n        /* \"#utility.yul\":10465:10474   */\n      dup3\n        /* \"#utility.yul\":10461:10479   */\n      add\n        /* \"#utility.yul\":10453:10479   */\n      swap1\n      pop\n        /* \"#utility.yul\":10525:10534   */\n      dup2\n        /* \"#utility.yul\":10519:10523   */\n      dup2\n        /* \"#utility.yul\":10515:10535   */\n      sub\n        /* \"#utility.yul\":10511:10512   */\n      0x00\n        /* \"#utility.yul\":10500:10509   */\n      dup4\n        /* \"#utility.yul\":10496:10513   */\n      add\n        /* \"#utility.yul\":10489:10536   */\n      mstore\n        /* \"#utility.yul\":10553:10684   */\n      tag_339\n        /* \"#utility.yul\":10679:10683   */\n      dup2\n        /* \"#utility.yul\":10553:10684   */\n      tag_280\n      jump\t// in\n    tag_339:\n        /* \"#utility.yul\":10545:10684   */\n      swap1\n      pop\n        /* \"#utility.yul\":10272:10691   */\n      swap2\n      swap1\n      pop\n      jump\t// out\n        /* \"#utility.yul\":10697:11116   */\n    tag_208:\n        /* \"#utility.yul\":10863:10867   */\n      0x00\n        /* \"#utility.yul\":10901:10903   */\n      0x20\n        /* \"#utility.yul\":10890:10899   */\n      dup3\n        /* \"#utility.yul\":10886:10904   */\n      add\n        /* \"#utility.yul\":10878:10904   */\n      swap1\n      pop\n        /* \"#utility.yul\":10950:10959   */\n      dup2\n        /* \"#utility.yul\":10944:10948   */\n      dup2\n        /* \"#utility.yul\":10940:10960   */\n      sub\n        /* \"#utility.yul\":10936:10937   */\n      0x00\n        /* \"#utility.yul\":10925:10934   */\n      dup4\n        /* \"#utility.yul\":10921:10938   */\n      add\n        /* \"#utility.yul\":10914:10961   */\n      mstore\n        /* \"#utility.yul\":10978:11109   */\n      tag_341\n        /* \"#utility.yul\":11104:11108   */\n      dup2\n        /* \"#utility.yul\":10978:11109   */\n      tag_285\n      jump\t// in\n    tag_341:\n        /* \"#utility.yul\":10970:11109   */\n      swap1\n      pop\n        /* \"#utility.yul\":10697:11116   */\n      swap2\n      swap1\n      pop\n      jump\t// out\n        /* \"#utility.yul\":11122:11541   */\n    tag_149:\n        /* \"#utility.yul\":11288:11292   */\n      0x00\n        /* \"#utility.yul\":11326:11328   */\n      0x20\n        /* \"#utility.yul\":11315:11324   */\n      dup3\n        /* \"#utility.yul\":11311:11329   */\n      add\n        /* \"#utility.yul\":11303:11329   */\n      swap1\n      pop\n        /* \"#utility.yul\":11375:11384   */\n      dup2\n        /* \"#utility.yul\":11369:11373   */\n      dup2\n        /* \"#utility.yul\":11365:11385   */\n      sub\n        /* \"#utility.yul\":11361:11362   */\n      0x00\n        /* \"#utility.yul\":11350:11359   */\n      dup4\n        /* \"#utility.yul\":11346:11363   */\n      add\n        /* \"#utility.yul\":11339:11386   */\n      mstore\n        /* \"#utility.yul\":11403:11534   */\n      tag_343\n        /* \"#utility.yul\":11529:11533   */\n      dup2\n        /* \"#utility.yul\":11403:11534   */\n      tag_290\n      jump\t// in\n    tag_343:\n        /* \"#utility.yul\":11395:11534   */\n      swap1\n      pop\n        /* \"#utility.yul\":11122:11541   */\n      swap2\n      swap1\n      pop\n      jump\t// out\n        /* \"#utility.yul\":11547:11966   */\n    tag_152:\n        /* \"#utility.yul\":11713:11717   */\n      0x00\n        /* \"#utility.yul\":11751:11753   */\n      0x20\n        /* \"#utility.yul\":11740:11749   */\n      dup3\n        /* \"#utility.yul\":11736:11754   */\n      add\n        /* \"#utility.yul\":11728:11754   */\n      swap1\n      pop\n        /* \"#utility.yul\":11800:11809   */\n      dup2\n        /* \"#utility.yul\":11794:11798   */\n      dup2\n        /* \"#utility.yul\":11790:11810   */\n      sub\n        /* \"#utility.yul\":11786:11787   */\n      0x00\n        /* \"#utility.yul\":11775:11784   */\n      dup4\n        /* \"#utility.yul\":11771:11788   */\n      add\n        /* \"#utility.yul\":11764:11811   */\n      mstore\n        /* \"#utility.yul\":11828:11959   */\n      tag_345\n        /* \"#utility.yul\":11954:11958   */\n      dup2\n        /* \"#utility.yul\":11828:11959   */\n      tag_295\n      jump\t// in\n    tag_345:\n        /* \"#utility.yul\":11820:11959   */\n      swap1\n      pop\n        /* \"#utility.yul\":11547:11966   */\n      swap2\n      swap1\n      pop\n      jump\t// out\n        /* \"#utility.yul\":11972:12391   */\n    tag_131:\n        /* \"#utility.yul\":12138:12142   */\n      0x00\n        /* \"#utility.yul\":12176:12178   */\n      0x20\n        /* \"#utility.yul\":12165:12174   */\n      dup3\n        /* \"#utility.yul\":12161:12179   */\n      add\n        /* \"#utility.yul\":12153:12179   */\n      swap1\n      pop\n        /* \"#utility.yul\":12225:12234   */\n      dup2\n        /* \"#utility.yul\":12219:12223   */\n      dup2\n        /* \"#utility.yul\":12215:12235   */\n      sub\n        /* \"#utility.yul\":12211:12212   */\n      0x00\n        /* \"#utility.yul\":12200:12209   */\n      dup4\n        /* \"#utility.yul\":12196:12213   */\n      add\n        /* \"#utility.yul\":12189:12236   */\n      mstore\n        /* \"#utility.yul\":12253:12384   */\n      tag_347\n        /* \"#utility.yul\":12379:12383   */\n      dup2\n        /* \"#utility.yul\":12253:12384   */\n      tag_300\n      jump\t// in\n    tag_347:\n        /* \"#utility.yul\":12245:12384   */\n      swap1\n      pop\n        /* \"#utility.yul\":11972:12391   */\n      swap2\n      swap1\n      pop\n      jump\t// out\n        /* \"#utility.yul\":12397:12816   */\n    tag_192:\n        /* \"#utility.yul\":12563:12567   */\n      0x00\n        /* \"#utility.yul\":12601:12603   */\n      0x20\n        /* \"#utility.yul\":12590:12599   */\n      dup3\n        /* \"#utility.yul\":12586:12604   */\n      add\n        /* \"#utility.yul\":12578:12604   */\n      swap1\n      pop\n        /* \"#utility.yul\":12650:12659   */\n      dup2\n        /* \"#utility.yul\":12644:12648   */\n      dup2\n        /* \"#utility.yul\":12640:12660   */\n      sub\n        /* \"#utility.yul\":12636:12637   */\n      0x00\n        /* \"#utility.yul\":12625:12634   */\n      dup4\n        /* \"#utility.yul\":12621:12638   */\n      add\n        /* \"#utility.yul\":12614:12661   */\n      mstore\n        /* \"#utility.yul\":12678:12809   */\n      tag_349\n        /* \"#utility.yul\":12804:12808   */\n      dup2\n        /* \"#utility.yul\":12678:12809   */\n      tag_305\n      jump\t// in\n    tag_349:\n        /* \"#utility.yul\":12670:12809   */\n      swap1\n      pop\n        /* \"#utility.yul\":12397:12816   */\n      swap2\n      swap1\n      pop\n      jump\t// out\n        /* \"#utility.yul\":12822:13241   */\n    tag_138:\n        /* \"#utility.yul\":12988:12992   */\n      0x00\n        /* \"#utility.yul\":13026:13028   */\n      0x20\n        /* \"#utility.yul\":13015:13024   */\n      dup3\n        /* \"#utility.yul\":13011:13029   */\n      add\n        /* \"#utility.yul\":13003:13029   */\n      swap1\n      pop\n        /* \"#utility.yul\":13075:13084   */\n      dup2\n        /* \"#utility.yul\":13069:13073   */\n      dup2\n        /* \"#utility.yul\":13065:13085   */\n      sub\n        /* \"#utility.yul\":13061:13062   */\n      0x00\n        /* \"#utility.yul\":13050:13059   */\n      dup4\n        /* \"#utility.yul\":13046:13063   */\n      add\n        /* \"#utility.yul\":13039:13086   */\n      mstore\n        /* \"#utility.yul\":13103:13234   */\n      tag_351\n        /* \"#utility.yul\":13229:13233   */\n      dup2\n        /* \"#utility.yul\":13103:13234   */\n      tag_310\n      jump\t// in\n    tag_351:\n        /* \"#utility.yul\":13095:13234   */\n      swap1\n      pop\n        /* \"#utility.yul\":12822:13241   */\n      swap2\n      swap1\n      pop\n      jump\t// out\n        /* \"#utility.yul\":13247:13469   */\n    tag_37:\n        /* \"#utility.yul\":13340:13344   */\n      0x00\n        /* \"#utility.yul\":13378:13380   */\n      0x20\n        /* \"#utility.yul\":13367:13376   */\n      dup3\n        /* \"#utility.yul\":13363:13381   */\n      add\n        /* \"#utility.yul\":13355:13381   */\n      swap1\n      pop\n        /* \"#utility.yul\":13391:13462   */\n      tag_353\n        /* \"#utility.yul\":13459:13460   */\n      0x00\n        /* \"#utility.yul\":13448:13457   */\n      dup4\n        /* \"#utility.yul\":13444:13461   */\n      add\n        /* \"#utility.yul\":13435:13441   */\n      dup5\n        /* \"#utility.yul\":13391:13462   */\n      tag_315\n      jump\t// in\n    tag_353:\n        /* \"#utility.yul\":13247:13469   */\n      swap3\n      swap2\n      pop\n      pop\n      jump\t// out\n        /* \"#utility.yul\":13475:13807   */\n    tag_125:\n        /* \"#utility.yul\":13596:13600   */\n      0x00\n        /* \"#utility.yul\":13634:13636   */\n      0x40\n        /* \"#utility.yul\":13623:13632   */\n      dup3\n        /* \"#utility.yul\":13619:13637   */\n      add\n        /* \"#utility.yul\":13611:13637   */\n      swap1\n      pop\n        /* \"#utility.yul\":13647:13718   */\n      tag_355\n        /* \"#utility.yul\":13715:13716   */\n      0x00\n        /* \"#utility.yul\":13704:13713   */\n      dup4\n        /* \"#utility.yul\":13700:13717   */\n      add\n        /* \"#utility.yul\":13691:13697   */\n      dup6\n        /* \"#utility.yul\":13647:13718   */\n      tag_315\n      jump\t// in\n    tag_355:\n        /* \"#utility.yul\":13728:13800   */\n      tag_356\n        /* \"#utility.yul\":13796:13798   */\n      0x20\n        /* \"#utility.yul\":13785:13794   */\n      dup4\n        /* \"#utility.yul\":13781:13799   */\n      add\n        /* \"#utility.yul\":13772:13778   */\n      dup5\n        /* \"#utility.yul\":13728:13800   */\n      tag_315\n      jump\t// in\n    tag_356:\n        /* \"#utility.yul\":13475:13807   */\n      swap4\n      swap3\n      pop\n      pop\n      pop\n      jump\t// out\n        /* \"#utility.yul\":13894:14063   */\n    tag_252:\n        /* \"#utility.yul\":13978:13989   */\n      0x00\n        /* \"#utility.yul\":14012:14018   */\n      dup3\n        /* \"#utility.yul\":14007:14010   */\n      dup3\n        /* \"#utility.yul\":14000:14019   */\n      mstore\n        /* \"#utility.yul\":14052:14056   */\n      0x20\n        /* \"#utility.yul\":14047:14050   */\n      dup3\n        /* \"#utility.yul\":14043:14057   */\n      add\n        /* \"#utility.yul\":14028:14057   */\n      swap1\n      pop\n        /* \"#utility.yul\":13894:14063   */\n      swap3\n      swap2\n      pop\n      pop\n      jump\t// out\n        /* \"#utility.yul\":14069:14165   */\n    tag_248:\n        /* \"#utility.yul\":14106:14113   */\n      0x00\n        /* \"#utility.yul\":14135:14159   */\n      tag_361\n        /* \"#utility.yul\":14153:14158   */\n      dup3\n        /* \"#utility.yul\":14135:14159   */\n      tag_362\n      jump\t// in\n    tag_361:\n        /* \"#utility.yul\":14124:14159   */\n      swap1\n      pop\n        /* \"#utility.yul\":14069:14165   */\n      swap2\n      swap1\n      pop\n      jump\t// out\n        /* \"#utility.yul\":14171:14275   */\n    tag_244:\n        /* \"#utility.yul\":14216:14223   */\n      0x00\n        /* \"#utility.yul\":14245:14269   */\n      tag_364\n        /* \"#utility.yul\":14263:14268   */\n      dup3\n        /* \"#utility.yul\":14245:14269   */\n      tag_362\n      jump\t// in\n    tag_364:\n        /* \"#utility.yul\":14234:14269   */\n      swap1\n      pop\n        /* \"#utility.yul\":14171:14275   */\n      swap2\n      swap1\n      pop\n      jump\t// out\n        /* \"#utility.yul\":14281:14407   */\n    tag_362:\n        /* \"#utility.yul\":14318:14325   */\n      0x00\n        /* \"#utility.yul\":14358:14400   */\n      0xffffffffffffffffffffffffffffffffffffffff\n        /* \"#utility.yul\":14351:14356   */\n      dup3\n        /* \"#utility.yul\":14347:14401   */\n      and\n        /* \"#utility.yul\":14336:14401   */\n      swap1\n      pop\n        /* \"#utility.yul\":14281:14407   */\n      swap2\n      swap1\n      pop\n      jump\t// out\n        /* \"#utility.yul\":14413:14490   */\n    tag_318:\n        /* \"#utility.yul\":14450:14457   */\n      0x00\n        /* \"#utility.yul\":14479:14484   */\n      dup2\n        /* \"#utility.yul\":14468:14484   */\n      swap1\n      pop\n        /* \"#utility.yul\":14413:14490   */\n      swap2\n      swap1\n      pop\n      jump\t// out\n        /* \"#utility.yul\":14496:14630   */\n    tag_240:\n        /* \"#utility.yul\":14554:14563   */\n      0x00\n        /* \"#utility.yul\":14587:14624   */\n      tag_368\n        /* \"#utility.yul\":14618:14623   */\n      dup3\n        /* \"#utility.yul\":14587:14624   */\n      tag_369\n      jump\t// in\n    tag_368:\n        /* \"#utility.yul\":14574:14624   */\n      swap1\n      pop\n        /* \"#utility.yul\":14496:14630   */\n      swap2\n      swap1\n      pop\n      jump\t// out\n        /* \"#utility.yul\":14636:14762   */\n    tag_369:\n        /* \"#utility.yul\":14686:14695   */\n      0x00\n        /* \"#utility.yul\":14719:14756   */\n      tag_371\n        /* \"#utility.yul\":14750:14755   */\n      dup3\n        /* \"#utility.yul\":14719:14756   */\n      tag_372\n      jump\t// in\n    tag_371:\n        /* \"#utility.yul\":14706:14756   */\n      swap1\n      pop\n        /* \"#utility.yul\":14636:14762   */\n      swap2\n      swap1\n      pop\n      jump\t// out\n        /* \"#utility.yul\":14768:14881   */\n    tag_372:\n        /* \"#utility.yul\":14818:14827   */\n      0x00\n        /* \"#utility.yul\":14851:14875   */\n      tag_374\n        /* \"#utility.yul\":14869:14874   */\n      dup3\n        /* \"#utility.yul\":14851:14875   */\n      tag_362\n      jump\t// in\n    tag_374:\n        /* \"#utility.yul\":14838:14875   */\n      swap1\n      pop\n        /* \"#utility.yul\":14768:14881   */\n      swap2\n      swap1\n      pop\n      jump\t// out\n        /* \"#utility.yul\":15010:15127   */\n    tag_227:\n        /* \"#utility.yul\":15119:15120   */\n      0x00\n        /* \"#utility.yul\":15116:15117   */\n      dup1\n        /* \"#utility.yul\":15109:15121   */\n      revert\n        /* \"#utility.yul\":15133:15310   */\n    tag_254:\n        /* \"#utility.yul\":15273:15302   */\n      0x6d61782061756374696f6e206c656e67746820746f6f20686967680000000000\n        /* \"#utility.yul\":15269:15270   */\n      0x00\n        /* \"#utility.yul\":15261:15267   */\n      dup3\n        /* \"#utility.yul\":15257:15271   */\n      add\n        /* \"#utility.yul\":15250:15303   */\n      mstore\n        /* \"#utility.yul\":15133:15310   */\n      pop\n      jump\t// out\n        /* \"#utility.yul\":15316:15493   */\n    tag_259:\n        /* \"#utility.yul\":15456:15485   */\n      0x6d696e207265736572766520666163746f7220746f6f20686967680000000000\n        /* \"#utility.yul\":15452:15453   */\n      0x00\n        /* \"#utility.yul\":15444:15450   */\n      dup3\n        /* \"#utility.yul\":15440:15454   */\n      add\n        /* \"#utility.yul\":15433:15486   */\n      mstore\n        /* \"#utility.yul\":15316:15493   */\n      pop\n      jump\t// out\n        /* \"#utility.yul\":15499:15724   */\n    tag_264:\n        /* \"#utility.yul\":15639:15673   */\n      0x4f776e61626c653a206e6577206f776e657220697320746865207a65726f2061\n        /* \"#utility.yul\":15635:15636   */\n      0x00\n        /* \"#utility.yul\":15627:15633   */\n      dup3\n        /* \"#utility.yul\":15623:15637   */\n      add\n        /* \"#utility.yul\":15616:15674   */\n      mstore\n        /* \"#utility.yul\":15708:15716   */\n      0x6464726573730000000000000000000000000000000000000000000000000000\n        /* \"#utility.yul\":15703:15705   */\n      0x20\n        /* \"#utility.yul\":15695:15701   */\n      dup3\n        /* \"#utility.yul\":15691:15706   */\n      add\n        /* \"#utility.yul\":15684:15717   */\n      mstore\n        /* \"#utility.yul\":15499:15724   */\n      pop\n      jump\t// out\n        /* \"#utility.yul\":15730:15904   */\n    tag_269:\n        /* \"#utility.yul\":15870:15896   */\n      0x6d696e2062696420696e63726561736520746f6f206c6f770000000000000000\n        /* \"#utility.yul\":15866:15867   */\n      0x00\n        /* \"#utility.yul\":15858:15864   */\n      dup3\n        /* \"#utility.yul\":15854:15868   */\n      add\n        /* \"#utility.yul\":15847:15897   */\n      mstore\n        /* \"#utility.yul\":15730:15904   */\n      pop\n      jump\t// out\n        /* \"#utility.yul\":15910:16085   */\n    tag_274:\n        /* \"#utility.yul\":16050:16077   */\n      0x6d696e2062696420696e63726561736520746f6f206869676800000000000000\n        /* \"#utility.yul\":16046:16047   */\n      0x00\n        /* \"#utility.yul\":16038:16044   */\n      dup3\n        /* \"#utility.yul\":16034:16048   */\n      add\n        /* \"#utility.yul\":16027:16078   */\n      mstore\n        /* \"#utility.yul\":15910:16085   */\n      pop\n      jump\t// out\n        /* \"#utility.yul\":16091:16267   */\n    tag_279:\n        /* \"#utility.yul\":16231:16259   */\n      0x6d61782061756374696f6e206c656e67746820746f6f206c6f77000000000000\n        /* \"#utility.yul\":16227:16228   */\n      0x00\n        /* \"#utility.yul\":16219:16225   */\n      dup3\n        /* \"#utility.yul\":16215:16229   */\n      add\n        /* \"#utility.yul\":16208:16260   */\n      mstore\n        /* \"#utility.yul\":16091:16267   */\n      pop\n      jump\t// out\n        /* \"#utility.yul\":16273:16449   */\n    tag_284:\n        /* \"#utility.yul\":16413:16441   */\n      0x6d6178207265736572766520666163746f7220746f6f206c6f77000000000000\n        /* \"#utility.yul\":16409:16410   */\n      0x00\n        /* \"#utility.yul\":16401:16407   */\n      dup3\n        /* \"#utility.yul\":16397:16411   */\n      add\n        /* \"#utility.yul\":16390:16442   */\n      mstore\n        /* \"#utility.yul\":16273:16449   */\n      pop\n      jump\t// out\n        /* \"#utility.yul\":16455:16637   */\n    tag_289:\n        /* \"#utility.yul\":16595:16629   */\n      0x4f776e61626c653a2063616c6c6572206973206e6f7420746865206f776e6572\n        /* \"#utility.yul\":16591:16592   */\n      0x00\n        /* \"#utility.yul\":16583:16589   */\n      dup3\n        /* \"#utility.yul\":16579:16593   */\n      add\n        /* \"#utility.yul\":16572:16630   */\n      mstore\n        /* \"#utility.yul\":16455:16637   */\n      pop\n      jump\t// out\n        /* \"#utility.yul\":16643:16819   */\n    tag_294:\n        /* \"#utility.yul\":16783:16811   */\n      0x6d696e2061756374696f6e206c656e67746820746f6f206c6f77000000000000\n        /* \"#utility.yul\":16779:16780   */\n      0x00\n        /* \"#utility.yul\":16771:16777   */\n      dup3\n        /* \"#utility.yul\":16767:16781   */\n      add\n        /* \"#utility.yul\":16760:16812   */\n      mstore\n        /* \"#utility.yul\":16643:16819   */\n      pop\n      jump\t// out\n        /* \"#utility.yul\":16825:17002   */\n    tag_299:\n        /* \"#utility.yul\":16965:16994   */\n      0x6d696e2061756374696f6e206c656e67746820746f6f20686967680000000000\n        /* \"#utility.yul\":16961:16962   */\n      0x00\n        /* \"#utility.yul\":16953:16959   */\n      dup3\n        /* \"#utility.yul\":16949:16963   */\n      add\n        /* \"#utility.yul\":16942:16995   */\n      mstore\n        /* \"#utility.yul\":16825:17002   */\n      pop\n      jump\t// out\n        /* \"#utility.yul\":17008:17170   */\n    tag_304:\n        /* \"#utility.yul\":17148:17162   */\n      0x66656520746f6f20686967680000000000000000000000000000000000000000\n        /* \"#utility.yul\":17144:17145   */\n      0x00\n        /* \"#utility.yul\":17136:17142   */\n      dup3\n        /* \"#utility.yul\":17132:17146   */\n      add\n        /* \"#utility.yul\":17125:17163   */\n      mstore\n        /* \"#utility.yul\":17008:17170   */\n      pop\n      jump\t// out\n        /* \"#utility.yul\":17176:17353   */\n    tag_309:\n        /* \"#utility.yul\":17316:17345   */\n      0x666565732063616e6e6f7420676f20746f203020616464726573730000000000\n        /* \"#utility.yul\":17312:17313   */\n      0x00\n        /* \"#utility.yul\":17304:17310   */\n      dup3\n        /* \"#utility.yul\":17300:17314   */\n      add\n        /* \"#utility.yul\":17293:17346   */\n      mstore\n        /* \"#utility.yul\":17176:17353   */\n      pop\n      jump\t// out\n        /* \"#utility.yul\":17359:17537   */\n    tag_314:\n        /* \"#utility.yul\":17499:17529   */\n      0x6d696e20766f74652070657263656e7461676520746f6f206869676800000000\n        /* \"#utility.yul\":17495:17496   */\n      0x00\n        /* \"#utility.yul\":17487:17493   */\n      dup3\n        /* \"#utility.yul\":17483:17497   */\n      add\n        /* \"#utility.yul\":17476:17530   */\n      mstore\n        /* \"#utility.yul\":17359:17537   */\n      pop\n      jump\t// out\n        /* \"#utility.yul\":17543:17665   */\n    tag_215:\n        /* \"#utility.yul\":17616:17640   */\n      tag_392\n        /* \"#utility.yul\":17634:17639   */\n      dup2\n        /* \"#utility.yul\":17616:17640   */\n      tag_248\n      jump\t// in\n    tag_392:\n        /* \"#utility.yul\":17609:17614   */\n      dup2\n        /* \"#utility.yul\":17606:17641   */\n      eq\n        /* \"#utility.yul\":17596:17659   */\n      tag_393\n      jumpi\n        /* \"#utility.yul\":17655:17656   */\n      0x00\n        /* \"#utility.yul\":17652:17653   */\n      dup1\n        /* \"#utility.yul\":17645:17657   */\n      revert\n        /* \"#utility.yul\":17596:17659   */\n    tag_393:\n        /* \"#utility.yul\":17543:17665   */\n      pop\n      jump\t// out\n        /* \"#utility.yul\":17671:17809   */\n    tag_219:\n        /* \"#utility.yul\":17752:17784   */\n      tag_395\n        /* \"#utility.yul\":17778:17783   */\n      dup2\n        /* \"#utility.yul\":17752:17784   */\n      tag_244\n      jump\t// in\n    tag_395:\n        /* \"#utility.yul\":17745:17750   */\n      dup2\n        /* \"#utility.yul\":17742:17785   */\n      eq\n        /* \"#utility.yul\":17732:17803   */\n      tag_396\n      jumpi\n        /* \"#utility.yul\":17799:17800   */\n      0x00\n        /* \"#utility.yul\":17796:17797   */\n      dup1\n        /* \"#utility.yul\":17789:17801   */\n      revert\n        /* \"#utility.yul\":17732:17803   */\n    tag_396:\n        /* \"#utility.yul\":17671:17809   */\n      pop\n      jump\t// out\n        /* \"#utility.yul\":17815:17937   */\n    tag_223:\n        /* \"#utility.yul\":17888:17912   */\n      tag_398\n        /* \"#utility.yul\":17906:17911   */\n      dup2\n        /* \"#utility.yul\":17888:17912   */\n      tag_318\n      jump\t// in\n    tag_398:\n        /* \"#utility.yul\":17881:17886   */\n      dup2\n        /* \"#utility.yul\":17878:17913   */\n      eq\n        /* \"#utility.yul\":17868:17931   */\n      tag_399\n      jumpi\n        /* \"#utility.yul\":17927:17928   */\n      0x00\n        /* \"#utility.yul\":17924:17925   */\n      dup1\n        /* \"#utility.yul\":17917:17929   */\n      revert\n        /* \"#utility.yul\":17868:17931   */\n    tag_399:\n        /* \"#utility.yul\":17815:17937   */\n      pop\n      jump\t// out\n\n    auxdata: 0xa264697066735822122069fc68854fdc729d0a313f1352b75519a54334861211833e6e5bea7732d9834f64736f6c63430008070033\n}\n",
				"bytecode": {
					"linkReferences": {},
					"object": "608060405234801561001057600080fd5b5061002d6100226100b160201b60201c565b6100b960201b60201c565b621275006001819055506203f48060028190555033600960006101000a81548173ffffffffffffffffffffffffffffffffffffffff021916908373ffffffffffffffffffffffffffffffffffffffff16021790555060c8600881905550611388600781905550603260058190555060646004819055506101f460068190555061017d565b600033905090565b60008060009054906101000a900473ffffffffffffffffffffffffffffffffffffffff169050816000806101000a81548173ffffffffffffffffffffffffffffffffffffffff021916908373ffffffffffffffffffffffffffffffffffffffff1602179055508173ffffffffffffffffffffffffffffffffffffffff168173ffffffffffffffffffffffffffffffffffffffff167f8be0079c531659141344cd1fd0a4f28419497f9722a3daafe3b4186f6b6457e060405160405180910390a35050565b61157d8061018c6000396000f3fe608060405234801561001057600080fd5b506004361061018e5760003560e01c80637c513c0f116100de578063a0b335e311610097578063d213b90011610071578063d213b90014610403578063efdcd97414610421578063f2fde38b1461043d578063fcd81e32146104595761018e565b8063a0b335e3146103ab578063affdafd8146103c9578063b3f00674146103e55761018e565b80637c513c0f146102fb578063846a4dd21461031957806384810309146103375780638a364bc1146103535780638da5cb5b146103715780639665eb0f1461038f5761018e565b806332a693301161014b57806357c74c6c1161012557806357c74c6c1461029d5780636109f5b5146102b95780636fc83db3146102d5578063715018a6146102f15761018e565b806332a6933014610245578063339f87ed146102615780635410bfc91461027f5761018e565b806309990a96146101935780630e519ef9146101b15780630ea90a12146101cf57806318fee3bf146101ed5780631a58364c1461020957806332977c7314610227575b600080fd5b61019b610477565b6040516101a891906111e9565b60405180910390f35b6101b961047d565b6040516101c691906111e9565b60405180910390f35b6101d7610483565b6040516101e491906111e9565b60405180910390f35b61020760048036038101906102029190610dba565b610489565b005b61021161051a565b60405161021e91906111e9565b60405180910390f35b61022f610521565b60405161023c91906111e9565b60405180910390f35b61025f600480360381019061025a9190610dba565b610527565b005b6102696105b8565b60405161027691906111e9565b60405180910390f35b6102876105bd565b60405161029491906111e9565b60405180910390f35b6102b760048036038101906102b29190610dba565b6105c3565b005b6102d360048036038101906102ce9190610dba565b610655565b005b6102ef60048036038101906102ea9190610dba565b6106a2565b005b6102f9610779565b005b61030361078d565b60405161031091906111e9565b60405180910390f35b610321610793565b60405161032e91906111e9565b60405180910390f35b610351600480360381019061034c9190610dba565b610798565b005b61035b610829565b60405161036891906111e9565b60405180910390f35b61037961082f565b6040516103869190610fea565b60405180910390f35b6103a960048036038101906103a49190610dba565b610858565b005b6103b361092d565b6040516103c091906111e9565b60405180910390f35b6103e360048036038101906103de9190610dba565b610933565b005b6103ed610a0a565b6040516103fa9190611005565b60405180910390f35b61040b610a30565b60405161041891906111e9565b60405180910390f35b61043b60048036038101906104369190610d8d565b610a37565b005b61045760048036038101906104529190610d60565b610b4e565b005b610461610bd2565b60405161046e91906111e9565b60405180910390f35b60085481565b60015481565b60035481565b610491610bd7565b60075481106104d5576040517f08c379a00000000000000000000000000000000000000000000000000000000081526004016104cc90611069565b60405180910390fd5b7fa93910a1e82dcd753b639a2ff1def7bf84d6bb1bf6fe79212d0d9ae72afc6cfa60085482604051610508929190611204565b60405180910390a18060088190555050565b6249d40081565b60065481565b61052f610bd7565b6064811115610573576040517f08c379a000000000000000000000000000000000000000000000000000000000815260040161056a90611189565b60405180910390fd5b7f11b96af861c45de0c17127383516c92fc2a9d50eff86ea831b69e76a3fa87e2f600354826040516105a6929190611204565b60405180910390a18060038190555050565b600a81565b60075481565b6105cb610bd7565b6103e8811115610610576040517f08c379a0000000000000000000000000000000000000000000000000000000008152600401610607906111c9565b60405180910390fd5b7ff8298d9709c2527c6ec1e2c605c5a163b44b0520bdd80335d5faba17e3f38fb860065482604051610643929190611204565b60405180910390a18060068190555050565b61065d610bd7565b7f283f7179cc13a8f90c3123b415b98ca8a0ca9619eed3c981db52809ab62700f960035482604051610690929190611204565b60405180910390a18060048190555050565b6106aa610bd7565b620151808110156106f0576040517f08c379a00000000000000000000000000000000000000000000000000000000081526004016106e790611149565b60405180910390fd5b6001548110610734576040517f08c379a000000000000000000000000000000000000000000000000000000000815260040161072b90611169565b60405180910390fd5b7f055017e5b2f20973817c668e2f744e7c1b68a6f20332f25bb7b9bbb2f0c7eca760025482604051610767929190611204565b60405180910390a18060028190555050565b610781610bd7565b61078b6000610c55565b565b60055481565b606481565b6107a0610bd7565b60085481116107e4576040517f08c379a00000000000000000000000000000000000000000000000000000000081526004016107db90611109565b60405180910390fd5b7febec08ac4f5f91f0463f6e09a9b1729f1cbea09d240d8a1807ed6b9cd171ef1960075482604051610817929190611204565b60405180910390a18060078190555050565b60045481565b60008060009054906101000a900473ffffffffffffffffffffffffffffffffffffffff16905090565b610860610bd7565b60648111156108a4576040517f08c379a000000000000000000000000000000000000000000000000000000000815260040161089b906110c9565b60405180910390fd5b600a8110156108e8576040517f08c379a00000000000000000000000000000000000000000000000000000000081526004016108df906110a9565b60405180910390fd5b7f3995c181714327dbf0232c3b20873e87ca6978b6418eec0f97a1447c5a4c43fc6005548260405161091b929190611204565b60405180910390a18060058190555050565b60025481565b61093b610bd7565b6249d400811115610981576040517f08c379a000000000000000000000000000000000000000000000000000000000815260040161097890611049565b60405180910390fd5b60025481116109c5576040517f08c379a00000000000000000000000000000000000000000000000000000000081526004016109bc906110e9565b60405180910390fd5b7f06684837277f012a4c3a13c8ec0e53d85b843e328a811a8f5f25f5e1456d9f59600154826040516109f8929190611204565b60405180910390a18060018190555050565b600960009054906101000a900473ffffffffffffffffffffffffffffffffffffffff1681565b6201518081565b610a3f610bd7565b600073ffffffffffffffffffffffffffffffffffffffff168173ffffffffffffffffffffffffffffffffffffffff161415610aaf576040517f08c379a0000000000000000000000000000000000000000000000000000000008152600401610aa6906111a9565b60405180910390fd5b7f2861448678f0be67f11bfb5481b3e3b4cfeb3acc6126ad60a05f95bfc6530666600960009054906101000a900473ffffffffffffffffffffffffffffffffffffffff1682604051610b02929190611020565b60405180910390a180600960006101000a81548173ffffffffffffffffffffffffffffffffffffffff021916908373ffffffffffffffffffffffffffffffffffffffff16021790555050565b610b56610bd7565b600073ffffffffffffffffffffffffffffffffffffffff168173ffffffffffffffffffffffffffffffffffffffff161415610bc6576040517f08c379a0000000000000000000000000000000000000000000000000000000008152600401610bbd90611089565b60405180910390fd5b610bcf81610c55565b50565b606481565b610bdf610d19565b73ffffffffffffffffffffffffffffffffffffffff16610bfd61082f565b73ffffffffffffffffffffffffffffffffffffffff1614610c53576040517f08c379a0000000000000000000000000000000000000000000000000000000008152600401610c4a90611129565b60405180910390fd5b565b60008060009054906101000a900473ffffffffffffffffffffffffffffffffffffffff169050816000806101000a81548173ffffffffffffffffffffffffffffffffffffffff021916908373ffffffffffffffffffffffffffffffffffffffff1602179055508173ffffffffffffffffffffffffffffffffffffffff168173ffffffffffffffffffffffffffffffffffffffff167f8be0079c531659141344cd1fd0a4f28419497f9722a3daafe3b4186f6b6457e060405160405180910390a35050565b600033905090565b600081359050610d3081611502565b92915050565b600081359050610d4581611519565b92915050565b600081359050610d5a81611530565b92915050565b600060208284031215610d7657610d756112c2565b5b6000610d8484828501610d21565b91505092915050565b600060208284031215610da357610da26112c2565b5b6000610db184828501610d36565b91505092915050565b600060208284031215610dd057610dcf6112c2565b5b6000610dde84828501610d4b565b91505092915050565b610df08161128c565b82525050565b610dff81611250565b82525050565b610e0e8161123e565b82525050565b6000610e21601b8361122d565b9150610e2c826112c7565b602082019050919050565b6000610e44601b8361122d565b9150610e4f826112f0565b602082019050919050565b6000610e6760268361122d565b9150610e7282611319565b604082019050919050565b6000610e8a60188361122d565b9150610e9582611368565b602082019050919050565b6000610ead60198361122d565b9150610eb882611391565b602082019050919050565b6000610ed0601a8361122d565b9150610edb826113ba565b602082019050919050565b6000610ef3601a8361122d565b9150610efe826113e3565b602082019050919050565b6000610f1660208361122d565b9150610f218261140c565b602082019050919050565b6000610f39601a8361122d565b9150610f4482611435565b602082019050919050565b6000610f5c601b8361122d565b9150610f678261145e565b602082019050919050565b6000610f7f600c8361122d565b9150610f8a82611487565b602082019050919050565b6000610fa2601b8361122d565b9150610fad826114b0565b602082019050919050565b6000610fc5601c8361122d565b9150610fd0826114d9565b602082019050919050565b610fe481611282565b82525050565b6000602082019050610fff6000830184610e05565b92915050565b600060208201905061101a6000830184610df6565b92915050565b60006040820190506110356000830185610de7565b6110426020830184610de7565b9392505050565b6000602082019050818103600083015261106281610e14565b9050919050565b6000602082019050818103600083015261108281610e37565b9050919050565b600060208201905081810360008301526110a281610e5a565b9050919050565b600060208201905081810360008301526110c281610e7d565b9050919050565b600060208201905081810360008301526110e281610ea0565b9050919050565b6000602082019050818103600083015261110281610ec3565b9050919050565b6000602082019050818103600083015261112281610ee6565b9050919050565b6000602082019050818103600083015261114281610f09565b9050919050565b6000602082019050818103600083015261116281610f2c565b9050919050565b6000602082019050818103600083015261118281610f4f565b9050919050565b600060208201905081810360008301526111a281610f72565b9050919050565b600060208201905081810360008301526111c281610f95565b9050919050565b600060208201905081810360008301526111e281610fb8565b9050919050565b60006020820190506111fe6000830184610fdb565b92915050565b60006040820190506112196000830185610fdb565b6112266020830184610fdb565b9392505050565b600082825260208201905092915050565b600061124982611262565b9050919050565b600061125b82611262565b9050919050565b600073ffffffffffffffffffffffffffffffffffffffff82169050919050565b6000819050919050565b60006112978261129e565b9050919050565b60006112a9826112b0565b9050919050565b60006112bb82611262565b9050919050565b600080fd5b7f6d61782061756374696f6e206c656e67746820746f6f20686967680000000000600082015250565b7f6d696e207265736572766520666163746f7220746f6f20686967680000000000600082015250565b7f4f776e61626c653a206e6577206f776e657220697320746865207a65726f206160008201527f6464726573730000000000000000000000000000000000000000000000000000602082015250565b7f6d696e2062696420696e63726561736520746f6f206c6f770000000000000000600082015250565b7f6d696e2062696420696e63726561736520746f6f206869676800000000000000600082015250565b7f6d61782061756374696f6e206c656e67746820746f6f206c6f77000000000000600082015250565b7f6d6178207265736572766520666163746f7220746f6f206c6f77000000000000600082015250565b7f4f776e61626c653a2063616c6c6572206973206e6f7420746865206f776e6572600082015250565b7f6d696e2061756374696f6e206c656e67746820746f6f206c6f77000000000000600082015250565b7f6d696e2061756374696f6e206c656e67746820746f6f20686967680000000000600082015250565b7f66656520746f6f20686967680000000000000000000000000000000000000000600082015250565b7f666565732063616e6e6f7420676f20746f203020616464726573730000000000600082015250565b7f6d696e20766f74652070657263656e7461676520746f6f206869676800000000600082015250565b61150b8161123e565b811461151657600080fd5b50565b61152281611250565b811461152d57600080fd5b50565b61153981611282565b811461154457600080fd5b5056fea264697066735822122069fc68854fdc729d0a313f1352b75519a54334861211833e6e5bea7732d9834f64736f6c63430008070033",
					"opcodes": "PUSH1 0x80 PUSH1 0x40 MSTORE CALLVALUE DUP1 ISZERO PUSH2 0x10 JUMPI PUSH1 0x0 DUP1 REVERT JUMPDEST POP PUSH2 0x2D PUSH2 0x22 PUSH2 0xB1 PUSH1 0x20 SHL PUSH1 0x20 SHR JUMP JUMPDEST PUSH2 0xB9 PUSH1 0x20 SHL PUSH1 0x20 SHR JUMP JUMPDEST PUSH3 0x127500 PUSH1 0x1 DUP2 SWAP1 SSTORE POP PUSH3 0x3F480 PUSH1 0x2 DUP2 SWAP1 SSTORE POP CALLER PUSH1 0x9 PUSH1 0x0 PUSH2 0x100 EXP DUP2 SLOAD DUP2 PUSH20 0xFFFFFFFFFFFFFFFFFFFFFFFFFFFFFFFFFFFFFFFF MUL NOT AND SWAP1 DUP4 PUSH20 0xFFFFFFFFFFFFFFFFFFFFFFFFFFFFFFFFFFFFFFFF AND MUL OR SWAP1 SSTORE POP PUSH1 0xC8 PUSH1 0x8 DUP2 SWAP1 SSTORE POP PUSH2 0x1388 PUSH1 0x7 DUP2 SWAP1 SSTORE POP PUSH1 0x32 PUSH1 0x5 DUP2 SWAP1 SSTORE POP PUSH1 0x64 PUSH1 0x4 DUP2 SWAP1 SSTORE POP PUSH2 0x1F4 PUSH1 0x6 DUP2 SWAP1 SSTORE POP PUSH2 0x17D JUMP JUMPDEST PUSH1 0x0 CALLER SWAP1 POP SWAP1 JUMP JUMPDEST PUSH1 0x0 DUP1 PUSH1 0x0 SWAP1 SLOAD SWAP1 PUSH2 0x100 EXP SWAP1 DIV PUSH20 0xFFFFFFFFFFFFFFFFFFFFFFFFFFFFFFFFFFFFFFFF AND SWAP1 POP DUP2 PUSH1 0x0 DUP1 PUSH2 0x100 EXP DUP2 SLOAD DUP2 PUSH20 0xFFFFFFFFFFFFFFFFFFFFFFFFFFFFFFFFFFFFFFFF MUL NOT AND SWAP1 DUP4 PUSH20 0xFFFFFFFFFFFFFFFFFFFFFFFFFFFFFFFFFFFFFFFF AND MUL OR SWAP1 SSTORE POP DUP2 PUSH20 0xFFFFFFFFFFFFFFFFFFFFFFFFFFFFFFFFFFFFFFFF AND DUP2 PUSH20 0xFFFFFFFFFFFFFFFFFFFFFFFFFFFFFFFFFFFFFFFF AND PUSH32 0x8BE0079C531659141344CD1FD0A4F28419497F9722A3DAAFE3B4186F6B6457E0 PUSH1 0x40 MLOAD PUSH1 0x40 MLOAD DUP1 SWAP2 SUB SWAP1 LOG3 POP POP JUMP JUMPDEST PUSH2 0x157D DUP1 PUSH2 0x18C PUSH1 0x0 CODECOPY PUSH1 0x0 RETURN INVALID PUSH1 0x80 PUSH1 0x40 MSTORE CALLVALUE DUP1 ISZERO PUSH2 0x10 JUMPI PUSH1 0x0 DUP1 REVERT JUMPDEST POP PUSH1 0x4 CALLDATASIZE LT PUSH2 0x18E JUMPI PUSH1 0x0 CALLDATALOAD PUSH1 0xE0 SHR DUP1 PUSH4 0x7C513C0F GT PUSH2 0xDE JUMPI DUP1 PUSH4 0xA0B335E3 GT PUSH2 0x97 JUMPI DUP1 PUSH4 0xD213B900 GT PUSH2 0x71 JUMPI DUP1 PUSH4 0xD213B900 EQ PUSH2 0x403 JUMPI DUP1 PUSH4 0xEFDCD974 EQ PUSH2 0x421 JUMPI DUP1 PUSH4 0xF2FDE38B EQ PUSH2 0x43D JUMPI DUP1 PUSH4 0xFCD81E32 EQ PUSH2 0x459 JUMPI PUSH2 0x18E JUMP JUMPDEST DUP1 PUSH4 0xA0B335E3 EQ PUSH2 0x3AB JUMPI DUP1 PUSH4 0xAFFDAFD8 EQ PUSH2 0x3C9 JUMPI DUP1 PUSH4 0xB3F00674 EQ PUSH2 0x3E5 JUMPI PUSH2 0x18E JUMP JUMPDEST DUP1 PUSH4 0x7C513C0F EQ PUSH2 0x2FB JUMPI DUP1 PUSH4 0x846A4DD2 EQ PUSH2 0x319 JUMPI DUP1 PUSH4 0x84810309 EQ PUSH2 0x337 JUMPI DUP1 PUSH4 0x8A364BC1 EQ PUSH2 0x353 JUMPI DUP1 PUSH4 0x8DA5CB5B EQ PUSH2 0x371 JUMPI DUP1 PUSH4 0x9665EB0F EQ PUSH2 0x38F JUMPI PUSH2 0x18E JUMP JUMPDEST DUP1 PUSH4 0x32A69330 GT PUSH2 0x14B JUMPI DUP1 PUSH4 0x57C74C6C GT PUSH2 0x125 JUMPI DUP1 PUSH4 0x57C74C6C EQ PUSH2 0x29D JUMPI DUP1 PUSH4 0x6109F5B5 EQ PUSH2 0x2B9 JUMPI DUP1 PUSH4 0x6FC83DB3 EQ PUSH2 0x2D5 JUMPI DUP1 PUSH4 0x715018A6 EQ PUSH2 0x2F1 JUMPI PUSH2 0x18E JUMP JUMPDEST DUP1 PUSH4 0x32A69330 EQ PUSH2 0x245 JUMPI DUP1 PUSH4 0x339F87ED EQ PUSH2 0x261 JUMPI DUP1 PUSH4 0x5410BFC9 EQ PUSH2 0x27F JUMPI PUSH2 0x18E JUMP JUMPDEST DUP1 PUSH4 0x9990A96 EQ PUSH2 0x193 JUMPI DUP1 PUSH4 0xE519EF9 EQ PUSH2 0x1B1 JUMPI DUP1 PUSH4 0xEA90A12 EQ PUSH2 0x1CF JUMPI DUP1 PUSH4 0x18FEE3BF EQ PUSH2 0x1ED JUMPI DUP1 PUSH4 0x1A58364C EQ PUSH2 0x209 JUMPI DUP1 PUSH4 0x32977C73 EQ PUSH2 0x227 JUMPI JUMPDEST PUSH1 0x0 DUP1 REVERT JUMPDEST PUSH2 0x19B PUSH2 0x477 JUMP JUMPDEST PUSH1 0x40 MLOAD PUSH2 0x1A8 SWAP2 SWAP1 PUSH2 0x11E9 JUMP JUMPDEST PUSH1 0x40 MLOAD DUP1 SWAP2 SUB SWAP1 RETURN JUMPDEST PUSH2 0x1B9 PUSH2 0x47D JUMP JUMPDEST PUSH1 0x40 MLOAD PUSH2 0x1C6 SWAP2 SWAP1 PUSH2 0x11E9 JUMP JUMPDEST PUSH1 0x40 MLOAD DUP1 SWAP2 SUB SWAP1 RETURN JUMPDEST PUSH2 0x1D7 PUSH2 0x483 JUMP JUMPDEST PUSH1 0x40 MLOAD PUSH2 0x1E4 SWAP2 SWAP1 PUSH2 0x11E9 JUMP JUMPDEST PUSH1 0x40 MLOAD DUP1 SWAP2 SUB SWAP1 RETURN JUMPDEST PUSH2 0x207 PUSH1 0x4 DUP1 CALLDATASIZE SUB DUP2 ADD SWAP1 PUSH2 0x202 SWAP2 SWAP1 PUSH2 0xDBA JUMP JUMPDEST PUSH2 0x489 JUMP JUMPDEST STOP JUMPDEST PUSH2 0x211 PUSH2 0x51A JUMP JUMPDEST PUSH1 0x40 MLOAD PUSH2 0x21E SWAP2 SWAP1 PUSH2 0x11E9 JUMP JUMPDEST PUSH1 0x40 MLOAD DUP1 SWAP2 SUB SWAP1 RETURN JUMPDEST PUSH2 0x22F PUSH2 0x521 JUMP JUMPDEST PUSH1 0x40 MLOAD PUSH2 0x23C SWAP2 SWAP1 PUSH2 0x11E9 JUMP JUMPDEST PUSH1 0x40 MLOAD DUP1 SWAP2 SUB SWAP1 RETURN JUMPDEST PUSH2 0x25F PUSH1 0x4 DUP1 CALLDATASIZE SUB DUP2 ADD SWAP1 PUSH2 0x25A SWAP2 SWAP1 PUSH2 0xDBA JUMP JUMPDEST PUSH2 0x527 JUMP JUMPDEST STOP JUMPDEST PUSH2 0x269 PUSH2 0x5B8 JUMP JUMPDEST PUSH1 0x40 MLOAD PUSH2 0x276 SWAP2 SWAP1 PUSH2 0x11E9 JUMP JUMPDEST PUSH1 0x40 MLOAD DUP1 SWAP2 SUB SWAP1 RETURN JUMPDEST PUSH2 0x287 PUSH2 0x5BD JUMP JUMPDEST PUSH1 0x40 MLOAD PUSH2 0x294 SWAP2 SWAP1 PUSH2 0x11E9 JUMP JUMPDEST PUSH1 0x40 MLOAD DUP1 SWAP2 SUB SWAP1 RETURN JUMPDEST PUSH2 0x2B7 PUSH1 0x4 DUP1 CALLDATASIZE SUB DUP2 ADD SWAP1 PUSH2 0x2B2 SWAP2 SWAP1 PUSH2 0xDBA JUMP JUMPDEST PUSH2 0x5C3 JUMP JUMPDEST STOP JUMPDEST PUSH2 0x2D3 PUSH1 0x4 DUP1 CALLDATASIZE SUB DUP2 ADD SWAP1 PUSH2 0x2CE SWAP2 SWAP1 PUSH2 0xDBA JUMP JUMPDEST PUSH2 0x655 JUMP JUMPDEST STOP JUMPDEST PUSH2 0x2EF PUSH1 0x4 DUP1 CALLDATASIZE SUB DUP2 ADD SWAP1 PUSH2 0x2EA SWAP2 SWAP1 PUSH2 0xDBA JUMP JUMPDEST PUSH2 0x6A2 JUMP JUMPDEST STOP JUMPDEST PUSH2 0x2F9 PUSH2 0x779 JUMP JUMPDEST STOP JUMPDEST PUSH2 0x303 PUSH2 0x78D JUMP JUMPDEST PUSH1 0x40 MLOAD PUSH2 0x310 SWAP2 SWAP1 PUSH2 0x11E9 JUMP JUMPDEST PUSH1 0x40 MLOAD DUP1 SWAP2 SUB SWAP1 RETURN JUMPDEST PUSH2 0x321 PUSH2 0x793 JUMP JUMPDEST PUSH1 0x40 MLOAD PUSH2 0x32E SWAP2 SWAP1 PUSH2 0x11E9 JUMP JUMPDEST PUSH1 0x40 MLOAD DUP1 SWAP2 SUB SWAP1 RETURN JUMPDEST PUSH2 0x351 PUSH1 0x4 DUP1 CALLDATASIZE SUB DUP2 ADD SWAP1 PUSH2 0x34C SWAP2 SWAP1 PUSH2 0xDBA JUMP JUMPDEST PUSH2 0x798 JUMP JUMPDEST STOP JUMPDEST PUSH2 0x35B PUSH2 0x829 JUMP JUMPDEST PUSH1 0x40 MLOAD PUSH2 0x368 SWAP2 SWAP1 PUSH2 0x11E9 JUMP JUMPDEST PUSH1 0x40 MLOAD DUP1 SWAP2 SUB SWAP1 RETURN JUMPDEST PUSH2 0x379 PUSH2 0x82F JUMP JUMPDEST PUSH1 0x40 MLOAD PUSH2 0x386 SWAP2 SWAP1 PUSH2 0xFEA JUMP JUMPDEST PUSH1 0x40 MLOAD DUP1 SWAP2 SUB SWAP1 RETURN JUMPDEST PUSH2 0x3A9 PUSH1 0x4 DUP1 CALLDATASIZE SUB DUP2 ADD SWAP1 PUSH2 0x3A4 SWAP2 SWAP1 PUSH2 0xDBA JUMP JUMPDEST PUSH2 0x858 JUMP JUMPDEST STOP JUMPDEST PUSH2 0x3B3 PUSH2 0x92D JUMP JUMPDEST PUSH1 0x40 MLOAD PUSH2 0x3C0 SWAP2 SWAP1 PUSH2 0x11E9 JUMP JUMPDEST PUSH1 0x40 MLOAD DUP1 SWAP2 SUB SWAP1 RETURN JUMPDEST PUSH2 0x3E3 PUSH1 0x4 DUP1 CALLDATASIZE SUB DUP2 ADD SWAP1 PUSH2 0x3DE SWAP2 SWAP1 PUSH2 0xDBA JUMP JUMPDEST PUSH2 0x933 JUMP JUMPDEST STOP JUMPDEST PUSH2 0x3ED PUSH2 0xA0A JUMP JUMPDEST PUSH1 0x40 MLOAD PUSH2 0x3FA SWAP2 SWAP1 PUSH2 0x1005 JUMP JUMPDEST PUSH1 0x40 MLOAD DUP1 SWAP2 SUB SWAP1 RETURN JUMPDEST PUSH2 0x40B PUSH2 0xA30 JUMP JUMPDEST PUSH1 0x40 MLOAD PUSH2 0x418 SWAP2 SWAP1 PUSH2 0x11E9 JUMP JUMPDEST PUSH1 0x40 MLOAD DUP1 SWAP2 SUB SWAP1 RETURN JUMPDEST PUSH2 0x43B PUSH1 0x4 DUP1 CALLDATASIZE SUB DUP2 ADD SWAP1 PUSH2 0x436 SWAP2 SWAP1 PUSH2 0xD8D JUMP JUMPDEST PUSH2 0xA37 JUMP JUMPDEST STOP JUMPDEST PUSH2 0x457 PUSH1 0x4 DUP1 CALLDATASIZE SUB DUP2 ADD SWAP1 PUSH2 0x452 SWAP2 SWAP1 PUSH2 0xD60 JUMP JUMPDEST PUSH2 0xB4E JUMP JUMPDEST STOP JUMPDEST PUSH2 0x461 PUSH2 0xBD2 JUMP JUMPDEST PUSH1 0x40 MLOAD PUSH2 0x46E SWAP2 SWAP1 PUSH2 0x11E9 JUMP JUMPDEST PUSH1 0x40 MLOAD DUP1 SWAP2 SUB SWAP1 RETURN JUMPDEST PUSH1 0x8 SLOAD DUP2 JUMP JUMPDEST PUSH1 0x1 SLOAD DUP2 JUMP JUMPDEST PUSH1 0x3 SLOAD DUP2 JUMP JUMPDEST PUSH2 0x491 PUSH2 0xBD7 JUMP JUMPDEST PUSH1 0x7 SLOAD DUP2 LT PUSH2 0x4D5 JUMPI PUSH1 0x40 MLOAD PUSH32 0x8C379A000000000000000000000000000000000000000000000000000000000 DUP2 MSTORE PUSH1 0x4 ADD PUSH2 0x4CC SWAP1 PUSH2 0x1069 JUMP JUMPDEST PUSH1 0x40 MLOAD DUP1 SWAP2 SUB SWAP1 REVERT JUMPDEST PUSH32 0xA93910A1E82DCD753B639A2FF1DEF7BF84D6BB1BF6FE79212D0D9AE72AFC6CFA PUSH1 0x8 SLOAD DUP3 PUSH1 0x40 MLOAD PUSH2 0x508 SWAP3 SWAP2 SWAP1 PUSH2 0x1204 JUMP JUMPDEST PUSH1 0x40 MLOAD DUP1 SWAP2 SUB SWAP1 LOG1 DUP1 PUSH1 0x8 DUP2 SWAP1 SSTORE POP POP JUMP JUMPDEST PUSH3 0x49D400 DUP2 JUMP JUMPDEST PUSH1 0x6 SLOAD DUP2 JUMP JUMPDEST PUSH2 0x52F PUSH2 0xBD7 JUMP JUMPDEST PUSH1 0x64 DUP2 GT ISZERO PUSH2 0x573 JUMPI PUSH1 0x40 MLOAD PUSH32 0x8C379A000000000000000000000000000000000000000000000000000000000 DUP2 MSTORE PUSH1 0x4 ADD PUSH2 0x56A SWAP1 PUSH2 0x1189 JUMP JUMPDEST PUSH1 0x40 MLOAD DUP1 SWAP2 SUB SWAP1 REVERT JUMPDEST PUSH32 0x11B96AF861C45DE0C17127383516C92FC2A9D50EFF86EA831B69E76A3FA87E2F PUSH1 0x3 SLOAD DUP3 PUSH1 0x40 MLOAD PUSH2 0x5A6 SWAP3 SWAP2 SWAP1 PUSH2 0x1204 JUMP JUMPDEST PUSH1 0x40 MLOAD DUP1 SWAP2 SUB SWAP1 LOG1 DUP1 PUSH1 0x3 DUP2 SWAP1 SSTORE POP POP JUMP JUMPDEST PUSH1 0xA DUP2 JUMP JUMPDEST PUSH1 0x7 SLOAD DUP2 JUMP JUMPDEST PUSH2 0x5CB PUSH2 0xBD7 JUMP JUMPDEST PUSH2 0x3E8 DUP2 GT ISZERO PUSH2 0x610 JUMPI PUSH1 0x40 MLOAD PUSH32 0x8C379A000000000000000000000000000000000000000000000000000000000 DUP2 MSTORE PUSH1 0x4 ADD PUSH2 0x607 SWAP1 PUSH2 0x11C9 JUMP JUMPDEST PUSH1 0x40 MLOAD DUP1 SWAP2 SUB SWAP1 REVERT JUMPDEST PUSH32 0xF8298D9709C2527C6EC1E2C605C5A163B44B0520BDD80335D5FABA17E3F38FB8 PUSH1 0x6 SLOAD DUP3 PUSH1 0x40 MLOAD PUSH2 0x643 SWAP3 SWAP2 SWAP1 PUSH2 0x1204 JUMP JUMPDEST PUSH1 0x40 MLOAD DUP1 SWAP2 SUB SWAP1 LOG1 DUP1 PUSH1 0x6 DUP2 SWAP1 SSTORE POP POP JUMP JUMPDEST PUSH2 0x65D PUSH2 0xBD7 JUMP JUMPDEST PUSH32 0x283F7179CC13A8F90C3123B415B98CA8A0CA9619EED3C981DB52809AB62700F9 PUSH1 0x3 SLOAD DUP3 PUSH1 0x40 MLOAD PUSH2 0x690 SWAP3 SWAP2 SWAP1 PUSH2 0x1204 JUMP JUMPDEST PUSH1 0x40 MLOAD DUP1 SWAP2 SUB SWAP1 LOG1 DUP1 PUSH1 0x4 DUP2 SWAP1 SSTORE POP POP JUMP JUMPDEST PUSH2 0x6AA PUSH2 0xBD7 JUMP JUMPDEST PUSH3 0x15180 DUP2 LT ISZERO PUSH2 0x6F0 JUMPI PUSH1 0x40 MLOAD PUSH32 0x8C379A000000000000000000000000000000000000000000000000000000000 DUP2 MSTORE PUSH1 0x4 ADD PUSH2 0x6E7 SWAP1 PUSH2 0x1149 JUMP JUMPDEST PUSH1 0x40 MLOAD DUP1 SWAP2 SUB SWAP1 REVERT JUMPDEST PUSH1 0x1 SLOAD DUP2 LT PUSH2 0x734 JUMPI PUSH1 0x40 MLOAD PUSH32 0x8C379A000000000000000000000000000000000000000000000000000000000 DUP2 MSTORE PUSH1 0x4 ADD PUSH2 0x72B SWAP1 PUSH2 0x1169 JUMP JUMPDEST PUSH1 0x40 MLOAD DUP1 SWAP2 SUB SWAP1 REVERT JUMPDEST PUSH32 0x55017E5B2F20973817C668E2F744E7C1B68A6F20332F25BB7B9BBB2F0C7ECA7 PUSH1 0x2 SLOAD DUP3 PUSH1 0x40 MLOAD PUSH2 0x767 SWAP3 SWAP2 SWAP1 PUSH2 0x1204 JUMP JUMPDEST PUSH1 0x40 MLOAD DUP1 SWAP2 SUB SWAP1 LOG1 DUP1 PUSH1 0x2 DUP2 SWAP1 SSTORE POP POP JUMP JUMPDEST PUSH2 0x781 PUSH2 0xBD7 JUMP JUMPDEST PUSH2 0x78B PUSH1 0x0 PUSH2 0xC55 JUMP JUMPDEST JUMP JUMPDEST PUSH1 0x5 SLOAD DUP2 JUMP JUMPDEST PUSH1 0x64 DUP2 JUMP JUMPDEST PUSH2 0x7A0 PUSH2 0xBD7 JUMP JUMPDEST PUSH1 0x8 SLOAD DUP2 GT PUSH2 0x7E4 JUMPI PUSH1 0x40 MLOAD PUSH32 0x8C379A000000000000000000000000000000000000000000000000000000000 DUP2 MSTORE PUSH1 0x4 ADD PUSH2 0x7DB SWAP1 PUSH2 0x1109 JUMP JUMPDEST PUSH1 0x40 MLOAD DUP1 SWAP2 SUB SWAP1 REVERT JUMPDEST PUSH32 0xEBEC08AC4F5F91F0463F6E09A9B1729F1CBEA09D240D8A1807ED6B9CD171EF19 PUSH1 0x7 SLOAD DUP3 PUSH1 0x40 MLOAD PUSH2 0x817 SWAP3 SWAP2 SWAP1 PUSH2 0x1204 JUMP JUMPDEST PUSH1 0x40 MLOAD DUP1 SWAP2 SUB SWAP1 LOG1 DUP1 PUSH1 0x7 DUP2 SWAP1 SSTORE POP POP JUMP JUMPDEST PUSH1 0x4 SLOAD DUP2 JUMP JUMPDEST PUSH1 0x0 DUP1 PUSH1 0x0 SWAP1 SLOAD SWAP1 PUSH2 0x100 EXP SWAP1 DIV PUSH20 0xFFFFFFFFFFFFFFFFFFFFFFFFFFFFFFFFFFFFFFFF AND SWAP1 POP SWAP1 JUMP JUMPDEST PUSH2 0x860 PUSH2 0xBD7 JUMP JUMPDEST PUSH1 0x64 DUP2 GT ISZERO PUSH2 0x8A4 JUMPI PUSH1 0x40 MLOAD PUSH32 0x8C379A000000000000000000000000000000000000000000000000000000000 DUP2 MSTORE PUSH1 0x4 ADD PUSH2 0x89B SWAP1 PUSH2 0x10C9 JUMP JUMPDEST PUSH1 0x40 MLOAD DUP1 SWAP2 SUB SWAP1 REVERT JUMPDEST PUSH1 0xA DUP2 LT ISZERO PUSH2 0x8E8 JUMPI PUSH1 0x40 MLOAD PUSH32 0x8C379A000000000000000000000000000000000000000000000000000000000 DUP2 MSTORE PUSH1 0x4 ADD PUSH2 0x8DF SWAP1 PUSH2 0x10A9 JUMP JUMPDEST PUSH1 0x40 MLOAD DUP1 SWAP2 SUB SWAP1 REVERT JUMPDEST PUSH32 0x3995C181714327DBF0232C3B20873E87CA6978B6418EEC0F97A1447C5A4C43FC PUSH1 0x5 SLOAD DUP3 PUSH1 0x40 MLOAD PUSH2 0x91B SWAP3 SWAP2 SWAP1 PUSH2 0x1204 JUMP JUMPDEST PUSH1 0x40 MLOAD DUP1 SWAP2 SUB SWAP1 LOG1 DUP1 PUSH1 0x5 DUP2 SWAP1 SSTORE POP POP JUMP JUMPDEST PUSH1 0x2 SLOAD DUP2 JUMP JUMPDEST PUSH2 0x93B PUSH2 0xBD7 JUMP JUMPDEST PUSH3 0x49D400 DUP2 GT ISZERO PUSH2 0x981 JUMPI PUSH1 0x40 MLOAD PUSH32 0x8C379A000000000000000000000000000000000000000000000000000000000 DUP2 MSTORE PUSH1 0x4 ADD PUSH2 0x978 SWAP1 PUSH2 0x1049 JUMP JUMPDEST PUSH1 0x40 MLOAD DUP1 SWAP2 SUB SWAP1 REVERT JUMPDEST PUSH1 0x2 SLOAD DUP2 GT PUSH2 0x9C5 JUMPI PUSH1 0x40 MLOAD PUSH32 0x8C379A000000000000000000000000000000000000000000000000000000000 DUP2 MSTORE PUSH1 0x4 ADD PUSH2 0x9BC SWAP1 PUSH2 0x10E9 JUMP JUMPDEST PUSH1 0x40 MLOAD DUP1 SWAP2 SUB SWAP1 REVERT JUMPDEST PUSH32 0x6684837277F012A4C3A13C8EC0E53D85B843E328A811A8F5F25F5E1456D9F59 PUSH1 0x1 SLOAD DUP3 PUSH1 0x40 MLOAD PUSH2 0x9F8 SWAP3 SWAP2 SWAP1 PUSH2 0x1204 JUMP JUMPDEST PUSH1 0x40 MLOAD DUP1 SWAP2 SUB SWAP1 LOG1 DUP1 PUSH1 0x1 DUP2 SWAP1 SSTORE POP POP JUMP JUMPDEST PUSH1 0x9 PUSH1 0x0 SWAP1 SLOAD SWAP1 PUSH2 0x100 EXP SWAP1 DIV PUSH20 0xFFFFFFFFFFFFFFFFFFFFFFFFFFFFFFFFFFFFFFFF AND DUP2 JUMP JUMPDEST PUSH3 0x15180 DUP2 JUMP JUMPDEST PUSH2 0xA3F PUSH2 0xBD7 JUMP JUMPDEST PUSH1 0x0 PUSH20 0xFFFFFFFFFFFFFFFFFFFFFFFFFFFFFFFFFFFFFFFF AND DUP2 PUSH20 0xFFFFFFFFFFFFFFFFFFFFFFFFFFFFFFFFFFFFFFFF AND EQ ISZERO PUSH2 0xAAF JUMPI PUSH1 0x40 MLOAD PUSH32 0x8C379A000000000000000000000000000000000000000000000000000000000 DUP2 MSTORE PUSH1 0x4 ADD PUSH2 0xAA6 SWAP1 PUSH2 0x11A9 JUMP JUMPDEST PUSH1 0x40 MLOAD DUP1 SWAP2 SUB SWAP1 REVERT JUMPDEST PUSH32 0x2861448678F0BE67F11BFB5481B3E3B4CFEB3ACC6126AD60A05F95BFC6530666 PUSH1 0x9 PUSH1 0x0 SWAP1 SLOAD SWAP1 PUSH2 0x100 EXP SWAP1 DIV PUSH20 0xFFFFFFFFFFFFFFFFFFFFFFFFFFFFFFFFFFFFFFFF AND DUP3 PUSH1 0x40 MLOAD PUSH2 0xB02 SWAP3 SWAP2 SWAP1 PUSH2 0x1020 JUMP JUMPDEST PUSH1 0x40 MLOAD DUP1 SWAP2 SUB SWAP1 LOG1 DUP1 PUSH1 0x9 PUSH1 0x0 PUSH2 0x100 EXP DUP2 SLOAD DUP2 PUSH20 0xFFFFFFFFFFFFFFFFFFFFFFFFFFFFFFFFFFFFFFFF MUL NOT AND SWAP1 DUP4 PUSH20 0xFFFFFFFFFFFFFFFFFFFFFFFFFFFFFFFFFFFFFFFF AND MUL OR SWAP1 SSTORE POP POP JUMP JUMPDEST PUSH2 0xB56 PUSH2 0xBD7 JUMP JUMPDEST PUSH1 0x0 PUSH20 0xFFFFFFFFFFFFFFFFFFFFFFFFFFFFFFFFFFFFFFFF AND DUP2 PUSH20 0xFFFFFFFFFFFFFFFFFFFFFFFFFFFFFFFFFFFFFFFF AND EQ ISZERO PUSH2 0xBC6 JUMPI PUSH1 0x40 MLOAD PUSH32 0x8C379A000000000000000000000000000000000000000000000000000000000 DUP2 MSTORE PUSH1 0x4 ADD PUSH2 0xBBD SWAP1 PUSH2 0x1089 JUMP JUMPDEST PUSH1 0x40 MLOAD DUP1 SWAP2 SUB SWAP1 REVERT JUMPDEST PUSH2 0xBCF DUP2 PUSH2 0xC55 JUMP JUMPDEST POP JUMP JUMPDEST PUSH1 0x64 DUP2 JUMP JUMPDEST PUSH2 0xBDF PUSH2 0xD19 JUMP JUMPDEST PUSH20 0xFFFFFFFFFFFFFFFFFFFFFFFFFFFFFFFFFFFFFFFF AND PUSH2 0xBFD PUSH2 0x82F JUMP JUMPDEST PUSH20 0xFFFFFFFFFFFFFFFFFFFFFFFFFFFFFFFFFFFFFFFF AND EQ PUSH2 0xC53 JUMPI PUSH1 0x40 MLOAD PUSH32 0x8C379A000000000000000000000000000000000000000000000000000000000 DUP2 MSTORE PUSH1 0x4 ADD PUSH2 0xC4A SWAP1 PUSH2 0x1129 JUMP JUMPDEST PUSH1 0x40 MLOAD DUP1 SWAP2 SUB SWAP1 REVERT JUMPDEST JUMP JUMPDEST PUSH1 0x0 DUP1 PUSH1 0x0 SWAP1 SLOAD SWAP1 PUSH2 0x100 EXP SWAP1 DIV PUSH20 0xFFFFFFFFFFFFFFFFFFFFFFFFFFFFFFFFFFFFFFFF AND SWAP1 POP DUP2 PUSH1 0x0 DUP1 PUSH2 0x100 EXP DUP2 SLOAD DUP2 PUSH20 0xFFFFFFFFFFFFFFFFFFFFFFFFFFFFFFFFFFFFFFFF MUL NOT AND SWAP1 DUP4 PUSH20 0xFFFFFFFFFFFFFFFFFFFFFFFFFFFFFFFFFFFFFFFF AND MUL OR SWAP1 SSTORE POP DUP2 PUSH20 0xFFFFFFFFFFFFFFFFFFFFFFFFFFFFFFFFFFFFFFFF AND DUP2 PUSH20 0xFFFFFFFFFFFFFFFFFFFFFFFFFFFFFFFFFFFFFFFF AND PUSH32 0x8BE0079C531659141344CD1FD0A4F28419497F9722A3DAAFE3B4186F6B6457E0 PUSH1 0x40 MLOAD PUSH1 0x40 MLOAD DUP1 SWAP2 SUB SWAP1 LOG3 POP POP JUMP JUMPDEST PUSH1 0x0 CALLER SWAP1 POP SWAP1 JUMP JUMPDEST PUSH1 0x0 DUP2 CALLDATALOAD SWAP1 POP PUSH2 0xD30 DUP2 PUSH2 0x1502 JUMP JUMPDEST SWAP3 SWAP2 POP POP JUMP JUMPDEST PUSH1 0x0 DUP2 CALLDATALOAD SWAP1 POP PUSH2 0xD45 DUP2 PUSH2 0x1519 JUMP JUMPDEST SWAP3 SWAP2 POP POP JUMP JUMPDEST PUSH1 0x0 DUP2 CALLDATALOAD SWAP1 POP PUSH2 0xD5A DUP2 PUSH2 0x1530 JUMP JUMPDEST SWAP3 SWAP2 POP POP JUMP JUMPDEST PUSH1 0x0 PUSH1 0x20 DUP3 DUP5 SUB SLT ISZERO PUSH2 0xD76 JUMPI PUSH2 0xD75 PUSH2 0x12C2 JUMP JUMPDEST JUMPDEST PUSH1 0x0 PUSH2 0xD84 DUP5 DUP3 DUP6 ADD PUSH2 0xD21 JUMP JUMPDEST SWAP2 POP POP SWAP3 SWAP2 POP POP JUMP JUMPDEST PUSH1 0x0 PUSH1 0x20 DUP3 DUP5 SUB SLT ISZERO PUSH2 0xDA3 JUMPI PUSH2 0xDA2 PUSH2 0x12C2 JUMP JUMPDEST JUMPDEST PUSH1 0x0 PUSH2 0xDB1 DUP5 DUP3 DUP6 ADD PUSH2 0xD36 JUMP JUMPDEST SWAP2 POP POP SWAP3 SWAP2 POP POP JUMP JUMPDEST PUSH1 0x0 PUSH1 0x20 DUP3 DUP5 SUB SLT ISZERO PUSH2 0xDD0 JUMPI PUSH2 0xDCF PUSH2 0x12C2 JUMP JUMPDEST JUMPDEST PUSH1 0x0 PUSH2 0xDDE DUP5 DUP3 DUP6 ADD PUSH2 0xD4B JUMP JUMPDEST SWAP2 POP POP SWAP3 SWAP2 POP POP JUMP JUMPDEST PUSH2 0xDF0 DUP2 PUSH2 0x128C JUMP JUMPDEST DUP3 MSTORE POP POP JUMP JUMPDEST PUSH2 0xDFF DUP2 PUSH2 0x1250 JUMP JUMPDEST DUP3 MSTORE POP POP JUMP JUMPDEST PUSH2 0xE0E DUP2 PUSH2 0x123E JUMP JUMPDEST DUP3 MSTORE POP POP JUMP JUMPDEST PUSH1 0x0 PUSH2 0xE21 PUSH1 0x1B DUP4 PUSH2 0x122D JUMP JUMPDEST SWAP2 POP PUSH2 0xE2C DUP3 PUSH2 0x12C7 JUMP JUMPDEST PUSH1 0x20 DUP3 ADD SWAP1 POP SWAP2 SWAP1 POP JUMP JUMPDEST PUSH1 0x0 PUSH2 0xE44 PUSH1 0x1B DUP4 PUSH2 0x122D JUMP JUMPDEST SWAP2 POP PUSH2 0xE4F DUP3 PUSH2 0x12F0 JUMP JUMPDEST PUSH1 0x20 DUP3 ADD SWAP1 POP SWAP2 SWAP1 POP JUMP JUMPDEST PUSH1 0x0 PUSH2 0xE67 PUSH1 0x26 DUP4 PUSH2 0x122D JUMP JUMPDEST SWAP2 POP PUSH2 0xE72 DUP3 PUSH2 0x1319 JUMP JUMPDEST PUSH1 0x40 DUP3 ADD SWAP1 POP SWAP2 SWAP1 POP JUMP JUMPDEST PUSH1 0x0 PUSH2 0xE8A PUSH1 0x18 DUP4 PUSH2 0x122D JUMP JUMPDEST SWAP2 POP PUSH2 0xE95 DUP3 PUSH2 0x1368 JUMP JUMPDEST PUSH1 0x20 DUP3 ADD SWAP1 POP SWAP2 SWAP1 POP JUMP JUMPDEST PUSH1 0x0 PUSH2 0xEAD PUSH1 0x19 DUP4 PUSH2 0x122D JUMP JUMPDEST SWAP2 POP PUSH2 0xEB8 DUP3 PUSH2 0x1391 JUMP JUMPDEST PUSH1 0x20 DUP3 ADD SWAP1 POP SWAP2 SWAP1 POP JUMP JUMPDEST PUSH1 0x0 PUSH2 0xED0 PUSH1 0x1A DUP4 PUSH2 0x122D JUMP JUMPDEST SWAP2 POP PUSH2 0xEDB DUP3 PUSH2 0x13BA JUMP JUMPDEST PUSH1 0x20 DUP3 ADD SWAP1 POP SWAP2 SWAP1 POP JUMP JUMPDEST PUSH1 0x0 PUSH2 0xEF3 PUSH1 0x1A DUP4 PUSH2 0x122D JUMP JUMPDEST SWAP2 POP PUSH2 0xEFE DUP3 PUSH2 0x13E3 JUMP JUMPDEST PUSH1 0x20 DUP3 ADD SWAP1 POP SWAP2 SWAP1 POP JUMP JUMPDEST PUSH1 0x0 PUSH2 0xF16 PUSH1 0x20 DUP4 PUSH2 0x122D JUMP JUMPDEST SWAP2 POP PUSH2 0xF21 DUP3 PUSH2 0x140C JUMP JUMPDEST PUSH1 0x20 DUP3 ADD SWAP1 POP SWAP2 SWAP1 POP JUMP JUMPDEST PUSH1 0x0 PUSH2 0xF39 PUSH1 0x1A DUP4 PUSH2 0x122D JUMP JUMPDEST SWAP2 POP PUSH2 0xF44 DUP3 PUSH2 0x1435 JUMP JUMPDEST PUSH1 0x20 DUP3 ADD SWAP1 POP SWAP2 SWAP1 POP JUMP JUMPDEST PUSH1 0x0 PUSH2 0xF5C PUSH1 0x1B DUP4 PUSH2 0x122D JUMP JUMPDEST SWAP2 POP PUSH2 0xF67 DUP3 PUSH2 0x145E JUMP JUMPDEST PUSH1 0x20 DUP3 ADD SWAP1 POP SWAP2 SWAP1 POP JUMP JUMPDEST PUSH1 0x0 PUSH2 0xF7F PUSH1 0xC DUP4 PUSH2 0x122D JUMP JUMPDEST SWAP2 POP PUSH2 0xF8A DUP3 PUSH2 0x1487 JUMP JUMPDEST PUSH1 0x20 DUP3 ADD SWAP1 POP SWAP2 SWAP1 POP JUMP JUMPDEST PUSH1 0x0 PUSH2 0xFA2 PUSH1 0x1B DUP4 PUSH2 0x122D JUMP JUMPDEST SWAP2 POP PUSH2 0xFAD DUP3 PUSH2 0x14B0 JUMP JUMPDEST PUSH1 0x20 DUP3 ADD SWAP1 POP SWAP2 SWAP1 POP JUMP JUMPDEST PUSH1 0x0 PUSH2 0xFC5 PUSH1 0x1C DUP4 PUSH2 0x122D JUMP JUMPDEST SWAP2 POP PUSH2 0xFD0 DUP3 PUSH2 0x14D9 JUMP JUMPDEST PUSH1 0x20 DUP3 ADD SWAP1 POP SWAP2 SWAP1 POP JUMP JUMPDEST PUSH2 0xFE4 DUP2 PUSH2 0x1282 JUMP JUMPDEST DUP3 MSTORE POP POP JUMP JUMPDEST PUSH1 0x0 PUSH1 0x20 DUP3 ADD SWAP1 POP PUSH2 0xFFF PUSH1 0x0 DUP4 ADD DUP5 PUSH2 0xE05 JUMP JUMPDEST SWAP3 SWAP2 POP POP JUMP JUMPDEST PUSH1 0x0 PUSH1 0x20 DUP3 ADD SWAP1 POP PUSH2 0x101A PUSH1 0x0 DUP4 ADD DUP5 PUSH2 0xDF6 JUMP JUMPDEST SWAP3 SWAP2 POP POP JUMP JUMPDEST PUSH1 0x0 PUSH1 0x40 DUP3 ADD SWAP1 POP PUSH2 0x1035 PUSH1 0x0 DUP4 ADD DUP6 PUSH2 0xDE7 JUMP JUMPDEST PUSH2 0x1042 PUSH1 0x20 DUP4 ADD DUP5 PUSH2 0xDE7 JUMP JUMPDEST SWAP4 SWAP3 POP POP POP JUMP JUMPDEST PUSH1 0x0 PUSH1 0x20 DUP3 ADD SWAP1 POP DUP2 DUP2 SUB PUSH1 0x0 DUP4 ADD MSTORE PUSH2 0x1062 DUP2 PUSH2 0xE14 JUMP JUMPDEST SWAP1 POP SWAP2 SWAP1 POP JUMP JUMPDEST PUSH1 0x0 PUSH1 0x20 DUP3 ADD SWAP1 POP DUP2 DUP2 SUB PUSH1 0x0 DUP4 ADD MSTORE PUSH2 0x1082 DUP2 PUSH2 0xE37 JUMP JUMPDEST SWAP1 POP SWAP2 SWAP1 POP JUMP JUMPDEST PUSH1 0x0 PUSH1 0x20 DUP3 ADD SWAP1 POP DUP2 DUP2 SUB PUSH1 0x0 DUP4 ADD MSTORE PUSH2 0x10A2 DUP2 PUSH2 0xE5A JUMP JUMPDEST SWAP1 POP SWAP2 SWAP1 POP JUMP JUMPDEST PUSH1 0x0 PUSH1 0x20 DUP3 ADD SWAP1 POP DUP2 DUP2 SUB PUSH1 0x0 DUP4 ADD MSTORE PUSH2 0x10C2 DUP2 PUSH2 0xE7D JUMP JUMPDEST SWAP1 POP SWAP2 SWAP1 POP JUMP JUMPDEST PUSH1 0x0 PUSH1 0x20 DUP3 ADD SWAP1 POP DUP2 DUP2 SUB PUSH1 0x0 DUP4 ADD MSTORE PUSH2 0x10E2 DUP2 PUSH2 0xEA0 JUMP JUMPDEST SWAP1 POP SWAP2 SWAP1 POP JUMP JUMPDEST PUSH1 0x0 PUSH1 0x20 DUP3 ADD SWAP1 POP DUP2 DUP2 SUB PUSH1 0x0 DUP4 ADD MSTORE PUSH2 0x1102 DUP2 PUSH2 0xEC3 JUMP JUMPDEST SWAP1 POP SWAP2 SWAP1 POP JUMP JUMPDEST PUSH1 0x0 PUSH1 0x20 DUP3 ADD SWAP1 POP DUP2 DUP2 SUB PUSH1 0x0 DUP4 ADD MSTORE PUSH2 0x1122 DUP2 PUSH2 0xEE6 JUMP JUMPDEST SWAP1 POP SWAP2 SWAP1 POP JUMP JUMPDEST PUSH1 0x0 PUSH1 0x20 DUP3 ADD SWAP1 POP DUP2 DUP2 SUB PUSH1 0x0 DUP4 ADD MSTORE PUSH2 0x1142 DUP2 PUSH2 0xF09 JUMP JUMPDEST SWAP1 POP SWAP2 SWAP1 POP JUMP JUMPDEST PUSH1 0x0 PUSH1 0x20 DUP3 ADD SWAP1 POP DUP2 DUP2 SUB PUSH1 0x0 DUP4 ADD MSTORE PUSH2 0x1162 DUP2 PUSH2 0xF2C JUMP JUMPDEST SWAP1 POP SWAP2 SWAP1 POP JUMP JUMPDEST PUSH1 0x0 PUSH1 0x20 DUP3 ADD SWAP1 POP DUP2 DUP2 SUB PUSH1 0x0 DUP4 ADD MSTORE PUSH2 0x1182 DUP2 PUSH2 0xF4F JUMP JUMPDEST SWAP1 POP SWAP2 SWAP1 POP JUMP JUMPDEST PUSH1 0x0 PUSH1 0x20 DUP3 ADD SWAP1 POP DUP2 DUP2 SUB PUSH1 0x0 DUP4 ADD MSTORE PUSH2 0x11A2 DUP2 PUSH2 0xF72 JUMP JUMPDEST SWAP1 POP SWAP2 SWAP1 POP JUMP JUMPDEST PUSH1 0x0 PUSH1 0x20 DUP3 ADD SWAP1 POP DUP2 DUP2 SUB PUSH1 0x0 DUP4 ADD MSTORE PUSH2 0x11C2 DUP2 PUSH2 0xF95 JUMP JUMPDEST SWAP1 POP SWAP2 SWAP1 POP JUMP JUMPDEST PUSH1 0x0 PUSH1 0x20 DUP3 ADD SWAP1 POP DUP2 DUP2 SUB PUSH1 0x0 DUP4 ADD MSTORE PUSH2 0x11E2 DUP2 PUSH2 0xFB8 JUMP JUMPDEST SWAP1 POP SWAP2 SWAP1 POP JUMP JUMPDEST PUSH1 0x0 PUSH1 0x20 DUP3 ADD SWAP1 POP PUSH2 0x11FE PUSH1 0x0 DUP4 ADD DUP5 PUSH2 0xFDB JUMP JUMPDEST SWAP3 SWAP2 POP POP JUMP JUMPDEST PUSH1 0x0 PUSH1 0x40 DUP3 ADD SWAP1 POP PUSH2 0x1219 PUSH1 0x0 DUP4 ADD DUP6 PUSH2 0xFDB JUMP JUMPDEST PUSH2 0x1226 PUSH1 0x20 DUP4 ADD DUP5 PUSH2 0xFDB JUMP JUMPDEST SWAP4 SWAP3 POP POP POP JUMP JUMPDEST PUSH1 0x0 DUP3 DUP3 MSTORE PUSH1 0x20 DUP3 ADD SWAP1 POP SWAP3 SWAP2 POP POP JUMP JUMPDEST PUSH1 0x0 PUSH2 0x1249 DUP3 PUSH2 0x1262 JUMP JUMPDEST SWAP1 POP SWAP2 SWAP1 POP JUMP JUMPDEST PUSH1 0x0 PUSH2 0x125B DUP3 PUSH2 0x1262 JUMP JUMPDEST SWAP1 POP SWAP2 SWAP1 POP JUMP JUMPDEST PUSH1 0x0 PUSH20 0xFFFFFFFFFFFFFFFFFFFFFFFFFFFFFFFFFFFFFFFF DUP3 AND SWAP1 POP SWAP2 SWAP1 POP JUMP JUMPDEST PUSH1 0x0 DUP2 SWAP1 POP SWAP2 SWAP1 POP JUMP JUMPDEST PUSH1 0x0 PUSH2 0x1297 DUP3 PUSH2 0x129E JUMP JUMPDEST SWAP1 POP SWAP2 SWAP1 POP JUMP JUMPDEST PUSH1 0x0 PUSH2 0x12A9 DUP3 PUSH2 0x12B0 JUMP JUMPDEST SWAP1 POP SWAP2 SWAP1 POP JUMP JUMPDEST PUSH1 0x0 PUSH2 0x12BB DUP3 PUSH2 0x1262 JUMP JUMPDEST SWAP1 POP SWAP2 SWAP1 POP JUMP JUMPDEST PUSH1 0x0 DUP1 REVERT JUMPDEST PUSH32 0x6D61782061756374696F6E206C656E67746820746F6F20686967680000000000 PUSH1 0x0 DUP3 ADD MSTORE POP JUMP JUMPDEST PUSH32 0x6D696E207265736572766520666163746F7220746F6F20686967680000000000 PUSH1 0x0 DUP3 ADD MSTORE POP JUMP JUMPDEST PUSH32 0x4F776E61626C653A206E6577206F776E657220697320746865207A65726F2061 PUSH1 0x0 DUP3 ADD MSTORE PUSH32 0x6464726573730000000000000000000000000000000000000000000000000000 PUSH1 0x20 DUP3 ADD MSTORE POP JUMP JUMPDEST PUSH32 0x6D696E2062696420696E63726561736520746F6F206C6F770000000000000000 PUSH1 0x0 DUP3 ADD MSTORE POP JUMP JUMPDEST PUSH32 0x6D696E2062696420696E63726561736520746F6F206869676800000000000000 PUSH1 0x0 DUP3 ADD MSTORE POP JUMP JUMPDEST PUSH32 0x6D61782061756374696F6E206C656E67746820746F6F206C6F77000000000000 PUSH1 0x0 DUP3 ADD MSTORE POP JUMP JUMPDEST PUSH32 0x6D6178207265736572766520666163746F7220746F6F206C6F77000000000000 PUSH1 0x0 DUP3 ADD MSTORE POP JUMP JUMPDEST PUSH32 0x4F776E61626C653A2063616C6C6572206973206E6F7420746865206F776E6572 PUSH1 0x0 DUP3 ADD MSTORE POP JUMP JUMPDEST PUSH32 0x6D696E2061756374696F6E206C656E67746820746F6F206C6F77000000000000 PUSH1 0x0 DUP3 ADD MSTORE POP JUMP JUMPDEST PUSH32 0x6D696E2061756374696F6E206C656E67746820746F6F20686967680000000000 PUSH1 0x0 DUP3 ADD MSTORE POP JUMP JUMPDEST PUSH32 0x66656520746F6F20686967680000000000000000000000000000000000000000 PUSH1 0x0 DUP3 ADD MSTORE POP JUMP JUMPDEST PUSH32 0x666565732063616E6E6F7420676F20746F203020616464726573730000000000 PUSH1 0x0 DUP3 ADD MSTORE POP JUMP JUMPDEST PUSH32 0x6D696E20766F74652070657263656E7461676520746F6F206869676800000000 PUSH1 0x0 DUP3 ADD MSTORE POP JUMP JUMPDEST PUSH2 0x150B DUP2 PUSH2 0x123E JUMP JUMPDEST DUP2 EQ PUSH2 0x1516 JUMPI PUSH1 0x0 DUP1 REVERT JUMPDEST POP JUMP JUMPDEST PUSH2 0x1522 DUP2 PUSH2 0x1250 JUMP JUMPDEST DUP2 EQ PUSH2 0x152D JUMPI PUSH1 0x0 DUP1 REVERT JUMPDEST POP JUMP JUMPDEST PUSH2 0x1539 DUP2 PUSH2 0x1282 JUMP JUMPDEST DUP2 EQ PUSH2 0x1544 JUMPI PUSH1 0x0 DUP1 REVERT JUMPDEST POP JUMP INVALID LOG2 PUSH5 0x6970667358 0x22 SLT KECCAK256 PUSH10 0xFC68854FDC729D0A313F SGT MSTORE 0xB7 SSTORE NOT 0xA5 NUMBER CALLVALUE DUP7 SLT GT DUP4 RETURNDATACOPY PUSH15 0x5BEA7732D9834F64736F6C63430008 SMOD STOP CALLER "
				},
				"gasEstimates": {
					"creation": {
						"codeDepositCost": "1100200",
						"executionCost": "infinite",
						"totalCost": "infinite"
					},
					"external": {
						"feeReceiver()": "2603",
						"governanceFee()": "2497",
						"maxAuctionLength()": "2475",
						"maxCuratorFee()": "2518",
						"maxGovFee()": "374",
						"maxMaxAuctionLength()": "441",
						"maxMinBidIncrease()": "439",
						"maxReserveFactor()": "2519",
						"minAuctionLength()": "2474",
						"minBidIncrease()": "2452",
						"minMinAuctionLength()": "373",
						"minMinBidIncrease()": "397",
						"minReserveFactor()": "2453",
						"minVotePercentage()": "2563",
						"owner()": "2633",
						"renounceOwnership()": "30509",
						"setFeeReceiver(address)": "infinite",
						"setGovernanceFee(uint256)": "infinite",
						"setMaxAuctionLength(uint256)": "infinite",
						"setMaxCuratorFee(uint256)": "infinite",
						"setMaxReserveFactor(uint256)": "infinite",
						"setMinAuctionLength(uint256)": "infinite",
						"setMinBidIncrease(uint256)": "infinite",
						"setMinReserveFactor(uint256)": "infinite",
						"setMinVotePercentage(uint256)": "infinite",
						"transferOwnership(address)": "30835"
					}
				},
				"methodIdentifiers": {
					"feeReceiver()": "b3f00674",
					"governanceFee()": "0ea90a12",
					"maxAuctionLength()": "0e519ef9",
					"maxCuratorFee()": "8a364bc1",
					"maxGovFee()": "846a4dd2",
					"maxMaxAuctionLength()": "1a58364c",
					"maxMinBidIncrease()": "fcd81e32",
					"maxReserveFactor()": "5410bfc9",
					"minAuctionLength()": "a0b335e3",
					"minBidIncrease()": "7c513c0f",
					"minMinAuctionLength()": "d213b900",
					"minMinBidIncrease()": "339f87ed",
					"minReserveFactor()": "09990a96",
					"minVotePercentage()": "32977c73",
					"owner()": "8da5cb5b",
					"renounceOwnership()": "715018a6",
					"setFeeReceiver(address)": "efdcd974",
					"setGovernanceFee(uint256)": "32a69330",
					"setMaxAuctionLength(uint256)": "affdafd8",
					"setMaxCuratorFee(uint256)": "6109f5b5",
					"setMaxReserveFactor(uint256)": "84810309",
					"setMinAuctionLength(uint256)": "6fc83db3",
					"setMinBidIncrease(uint256)": "9665eb0f",
					"setMinReserveFactor(uint256)": "18fee3bf",
					"setMinVotePercentage(uint256)": "57c74c6c",
					"transferOwnership(address)": "f2fde38b"
				}
			},
			"storageLayout": {
				"storage": [
					{
						"astId": 7,
						"contract": "contracts/LaunchSettings.sol:LaunchSettings",
						"label": "_owner",
						"offset": 0,
						"slot": "0",
						"type": "t_address"
					},
					{
						"astId": 193,
						"contract": "contracts/LaunchSettings.sol:LaunchSettings",
						"label": "maxAuctionLength",
						"offset": 0,
						"slot": "1",
						"type": "t_uint256"
					},
					{
						"astId": 199,
						"contract": "contracts/LaunchSettings.sol:LaunchSettings",
						"label": "minAuctionLength",
						"offset": 0,
						"slot": "2",
						"type": "t_uint256"
					},
					{
						"astId": 205,
						"contract": "contracts/LaunchSettings.sol:LaunchSettings",
						"label": "governanceFee",
						"offset": 0,
						"slot": "3",
						"type": "t_uint256"
					},
					{
						"astId": 211,
						"contract": "contracts/LaunchSettings.sol:LaunchSettings",
						"label": "maxCuratorFee",
						"offset": 0,
						"slot": "4",
						"type": "t_uint256"
					},
					{
						"astId": 214,
						"contract": "contracts/LaunchSettings.sol:LaunchSettings",
						"label": "minBidIncrease",
						"offset": 0,
						"slot": "5",
						"type": "t_uint256"
					},
					{
						"astId": 223,
						"contract": "contracts/LaunchSettings.sol:LaunchSettings",
						"label": "minVotePercentage",
						"offset": 0,
						"slot": "6",
						"type": "t_uint256"
					},
					{
						"astId": 226,
						"contract": "contracts/LaunchSettings.sol:LaunchSettings",
						"label": "maxReserveFactor",
						"offset": 0,
						"slot": "7",
						"type": "t_uint256"
					},
					{
						"astId": 229,
						"contract": "contracts/LaunchSettings.sol:LaunchSettings",
						"label": "minReserveFactor",
						"offset": 0,
						"slot": "8",
						"type": "t_uint256"
					},
					{
						"astId": 232,
						"contract": "contracts/LaunchSettings.sol:LaunchSettings",
						"label": "feeReceiver",
						"offset": 0,
						"slot": "9",
						"type": "t_address_payable"
					}
				],
				"types": {
					"t_address": {
						"encoding": "inplace",
						"label": "address",
						"numberOfBytes": "20"
					},
					"t_address_payable": {
						"encoding": "inplace",
						"label": "address payable",
						"numberOfBytes": "20"
					},
					"t_uint256": {
						"encoding": "inplace",
						"label": "uint256",
						"numberOfBytes": "32"
					}
				}
			},
			"userdoc": {
				"kind": "user",
				"methods": {},
				"version": 1
			}
		}
	}
}