{
  "contractName": "LaunchNft",
  "abi": [
    {
      "inputs": [
        {
          "internalType": "address",
          "name": "_launchSetting",
          "type": "address"
        }
      ],
      "stateMutability": "nonpayable",
      "type": "constructor"
    },
    {
      "inputs": [],
      "name": "ApprovalCallerNotOwnerNorApproved",
      "type": "error"
    },
    {
      "inputs": [],
      "name": "ApprovalQueryForNonexistentToken",
      "type": "error"
    },
    {
      "inputs": [],
      "name": "ApproveToCaller",
      "type": "error"
    },
    {
      "inputs": [],
      "name": "BalanceQueryForZeroAddress",
      "type": "error"
    },
    {
      "inputs": [],
      "name": "MintERC2309QuantityExceedsLimit",
      "type": "error"
    },
    {
      "inputs": [],
      "name": "MintToZeroAddress",
      "type": "error"
    },
    {
      "inputs": [],
      "name": "MintZeroQuantity",
      "type": "error"
    },
    {
      "inputs": [],
      "name": "OwnerQueryForNonexistentToken",
      "type": "error"
    },
    {
      "inputs": [],
      "name": "OwnershipNotInitializedForExtraData",
      "type": "error"
    },
    {
      "inputs": [],
      "name": "TransferCallerNotOwnerNorApproved",
      "type": "error"
    },
    {
      "inputs": [],
      "name": "TransferFromIncorrectOwner",
      "type": "error"
    },
    {
      "inputs": [],
      "name": "TransferToNonERC721ReceiverImplementer",
      "type": "error"
    },
    {
      "inputs": [],
      "name": "TransferToZeroAddress",
      "type": "error"
    },
    {
      "inputs": [],
      "name": "URIQueryForNonexistentToken",
      "type": "error"
    },
    {
      "anonymous": false,
      "inputs": [
        {
          "indexed": true,
          "internalType": "address",
          "name": "owner",
          "type": "address"
        },
        {
          "indexed": true,
          "internalType": "address",
          "name": "approved",
          "type": "address"
        },
        {
          "indexed": true,
          "internalType": "uint256",
          "name": "tokenId",
          "type": "uint256"
        }
      ],
      "name": "Approval",
      "type": "event"
    },
    {
      "anonymous": false,
      "inputs": [
        {
          "indexed": true,
          "internalType": "address",
          "name": "owner",
          "type": "address"
        },
        {
          "indexed": true,
          "internalType": "address",
          "name": "operator",
          "type": "address"
        },
        {
          "indexed": false,
          "internalType": "bool",
          "name": "approved",
          "type": "bool"
        }
      ],
      "name": "ApprovalForAll",
      "type": "event"
    },
    {
      "anonymous": false,
      "inputs": [
        {
          "indexed": true,
          "internalType": "address",
          "name": "buyer",
          "type": "address"
        },
        {
          "indexed": false,
          "internalType": "uint256",
          "name": "price",
          "type": "uint256"
        }
      ],
      "name": "Bid",
      "type": "event"
    },
    {
      "anonymous": false,
      "inputs": [
        {
          "indexed": true,
          "internalType": "address",
          "name": "owner",
          "type": "address"
        },
        {
          "indexed": false,
          "internalType": "uint256",
          "name": "shares",
          "type": "uint256"
        }
      ],
      "name": "Cash",
      "type": "event"
    },
    {
      "anonymous": false,
      "inputs": [
        {
          "indexed": true,
          "internalType": "uint256",
          "name": "fromTokenId",
          "type": "uint256"
        },
        {
          "indexed": false,
          "internalType": "uint256",
          "name": "toTokenId",
          "type": "uint256"
        },
        {
          "indexed": true,
          "internalType": "address",
          "name": "from",
          "type": "address"
        },
        {
          "indexed": true,
          "internalType": "address",
          "name": "to",
          "type": "address"
        }
      ],
      "name": "ConsecutiveTransfer",
      "type": "event"
    },
    {
      "anonymous": false,
      "inputs": [
        {
          "indexed": false,
          "internalType": "uint256",
          "name": "fee",
          "type": "uint256"
        }
      ],
      "name": "FeeClaimed",
      "type": "event"
    },
    {
      "anonymous": false,
      "inputs": [
        {
          "indexed": false,
          "internalType": "uint8",
          "name": "version",
          "type": "uint8"
        }
      ],
      "name": "Initialized",
      "type": "event"
    },
    {
      "anonymous": false,
      "inputs": [
        {
          "indexed": true,
          "internalType": "address",
          "name": "user",
          "type": "address"
        },
        {
          "indexed": false,
          "internalType": "uint256",
          "name": "price",
          "type": "uint256"
        }
      ],
      "name": "PriceUpdate",
      "type": "event"
    },
    {
      "anonymous": false,
      "inputs": [
        {
          "indexed": true,
          "internalType": "address",
          "name": "redeemer",
          "type": "address"
        }
      ],
      "name": "Redeem",
      "type": "event"
    },
    {
      "anonymous": false,
      "inputs": [
        {
          "indexed": true,
          "internalType": "address",
          "name": "buyer",
          "type": "address"
        },
        {
          "indexed": false,
          "internalType": "uint256",
          "name": "price",
          "type": "uint256"
        }
      ],
      "name": "Start",
      "type": "event"
    },
    {
      "anonymous": false,
      "inputs": [
        {
          "indexed": true,
          "internalType": "address",
          "name": "from",
          "type": "address"
        },
        {
          "indexed": true,
          "internalType": "address",
          "name": "to",
          "type": "address"
        },
        {
          "indexed": true,
          "internalType": "uint256",
          "name": "tokenId",
          "type": "uint256"
        }
      ],
      "name": "Transfer",
      "type": "event"
    },
    {
      "anonymous": false,
      "inputs": [
        {
          "indexed": false,
          "internalType": "uint256",
          "name": "length",
          "type": "uint256"
        }
      ],
      "name": "UpdateAuctionLength",
      "type": "event"
    },
    {
      "anonymous": false,
      "inputs": [
        {
          "indexed": false,
          "internalType": "uint256",
          "name": "fee",
          "type": "uint256"
        }
      ],
      "name": "UpdateCuratorFee",
      "type": "event"
    },
    {
      "anonymous": false,
      "inputs": [
        {
          "indexed": true,
          "internalType": "address",
          "name": "buyer",
          "type": "address"
        },
        {
          "indexed": false,
          "internalType": "uint256",
          "name": "price",
          "type": "uint256"
        }
      ],
      "name": "Won",
      "type": "event"
    },
    {
      "inputs": [
        {
          "internalType": "address",
          "name": "to",
          "type": "address"
        },
        {
          "internalType": "uint256",
          "name": "tokenId",
          "type": "uint256"
        }
      ],
      "name": "approve",
      "outputs": [],
      "stateMutability": "nonpayable",
      "type": "function"
    },
    {
      "inputs": [],
      "name": "auctionEnd",
      "outputs": [
        {
          "internalType": "uint256",
          "name": "",
          "type": "uint256"
        }
      ],
      "stateMutability": "view",
      "type": "function"
    },
    {
      "inputs": [],
      "name": "auctionLength",
      "outputs": [
        {
          "internalType": "uint256",
          "name": "",
          "type": "uint256"
        }
      ],
      "stateMutability": "view",
      "type": "function"
    },
    {
      "inputs": [],
      "name": "auctionState",
      "outputs": [
        {
          "internalType": "enum LaunchNft.State",
          "name": "",
          "type": "uint8"
        }
      ],
      "stateMutability": "view",
      "type": "function"
    },
    {
      "inputs": [
        {
          "internalType": "address",
          "name": "owner",
          "type": "address"
        }
      ],
      "name": "balanceOf",
      "outputs": [
        {
          "internalType": "uint256",
          "name": "",
          "type": "uint256"
        }
      ],
      "stateMutability": "view",
      "type": "function"
    },
    {
      "inputs": [],
      "name": "curator",
      "outputs": [
        {
          "internalType": "address",
          "name": "",
          "type": "address"
        }
      ],
      "stateMutability": "view",
      "type": "function"
    },
    {
      "inputs": [],
      "name": "fee",
      "outputs": [
        {
          "internalType": "uint256",
          "name": "",
          "type": "uint256"
        }
      ],
      "stateMutability": "view",
      "type": "function"
    },
    {
      "inputs": [
        {
          "internalType": "uint256",
          "name": "tokenId",
          "type": "uint256"
        }
      ],
      "name": "getApproved",
      "outputs": [
        {
          "internalType": "address",
          "name": "",
          "type": "address"
        }
      ],
      "stateMutability": "view",
      "type": "function"
    },
    {
      "inputs": [
        {
          "internalType": "address",
          "name": "owner",
          "type": "address"
        },
        {
          "internalType": "address",
          "name": "operator",
          "type": "address"
        }
      ],
      "name": "isApprovedForAll",
      "outputs": [
        {
          "internalType": "bool",
          "name": "",
          "type": "bool"
        }
      ],
      "stateMutability": "view",
      "type": "function"
    },
    {
      "inputs": [],
      "name": "lastClaimed",
      "outputs": [
        {
          "internalType": "uint256",
          "name": "",
          "type": "uint256"
        }
      ],
      "stateMutability": "view",
      "type": "function"
    },
    {
      "inputs": [],
      "name": "launchSetting",
      "outputs": [
        {
          "internalType": "address",
          "name": "",
          "type": "address"
        }
      ],
      "stateMutability": "view",
      "type": "function"
    },
    {
      "inputs": [],
      "name": "livePrice",
      "outputs": [
        {
          "internalType": "uint256",
          "name": "",
          "type": "uint256"
        }
      ],
      "stateMutability": "view",
      "type": "function"
    },
    {
      "inputs": [],
      "name": "name",
      "outputs": [
        {
          "internalType": "string",
          "name": "",
          "type": "string"
        }
      ],
      "stateMutability": "view",
      "type": "function"
    },
    {
      "inputs": [],
      "name": "nft",
      "outputs": [
        {
          "internalType": "address",
          "name": "",
          "type": "address"
        }
      ],
      "stateMutability": "view",
      "type": "function"
    },
    {
      "inputs": [],
      "name": "nftId",
      "outputs": [
        {
          "internalType": "uint256",
          "name": "",
          "type": "uint256"
        }
      ],
      "stateMutability": "view",
      "type": "function"
    },
    {
      "inputs": [
        {
          "internalType": "address",
          "name": "",
          "type": "address"
        },
        {
          "internalType": "address",
          "name": "",
          "type": "address"
        },
        {
          "internalType": "uint256[]",
          "name": "",
          "type": "uint256[]"
        },
        {
          "internalType": "uint256[]",
          "name": "",
          "type": "uint256[]"
        },
        {
          "internalType": "bytes",
          "name": "",
          "type": "bytes"
        }
      ],
      "name": "onERC1155BatchReceived",
      "outputs": [
        {
          "internalType": "bytes4",
          "name": "",
          "type": "bytes4"
        }
      ],
      "stateMutability": "nonpayable",
      "type": "function"
    },
    {
      "inputs": [
        {
          "internalType": "address",
          "name": "",
          "type": "address"
        },
        {
          "internalType": "address",
          "name": "",
          "type": "address"
        },
        {
          "internalType": "uint256",
          "name": "",
          "type": "uint256"
        },
        {
          "internalType": "uint256",
          "name": "",
          "type": "uint256"
        },
        {
          "internalType": "bytes",
          "name": "",
          "type": "bytes"
        }
      ],
      "name": "onERC1155Received",
      "outputs": [
        {
          "internalType": "bytes4",
          "name": "",
          "type": "bytes4"
        }
      ],
      "stateMutability": "nonpayable",
      "type": "function"
    },
    {
      "inputs": [
        {
          "internalType": "address",
          "name": "",
          "type": "address"
        },
        {
          "internalType": "address",
          "name": "",
          "type": "address"
        },
        {
          "internalType": "uint256",
          "name": "",
          "type": "uint256"
        },
        {
          "internalType": "bytes",
          "name": "",
          "type": "bytes"
        }
      ],
      "name": "onERC721Received",
      "outputs": [
        {
          "internalType": "bytes4",
          "name": "",
          "type": "bytes4"
        }
      ],
      "stateMutability": "nonpayable",
      "type": "function"
    },
    {
      "inputs": [
        {
          "internalType": "uint256",
          "name": "tokenId",
          "type": "uint256"
        }
      ],
      "name": "ownerOf",
      "outputs": [
        {
          "internalType": "address",
          "name": "",
          "type": "address"
        }
      ],
      "stateMutability": "view",
      "type": "function"
    },
    {
      "inputs": [],
      "name": "reserveTotal",
      "outputs": [
        {
          "internalType": "uint256",
          "name": "",
          "type": "uint256"
        }
      ],
      "stateMutability": "view",
      "type": "function"
    },
    {
      "inputs": [
        {
          "internalType": "address",
          "name": "from",
          "type": "address"
        },
        {
          "internalType": "address",
          "name": "to",
          "type": "address"
        },
        {
          "internalType": "uint256",
          "name": "tokenId",
          "type": "uint256"
        }
      ],
      "name": "safeTransferFrom",
      "outputs": [],
      "stateMutability": "nonpayable",
      "type": "function"
    },
    {
      "inputs": [
        {
          "internalType": "address",
          "name": "from",
          "type": "address"
        },
        {
          "internalType": "address",
          "name": "to",
          "type": "address"
        },
        {
          "internalType": "uint256",
          "name": "tokenId",
          "type": "uint256"
        },
        {
          "internalType": "bytes",
          "name": "_data",
          "type": "bytes"
        }
      ],
      "name": "safeTransferFrom",
      "outputs": [],
      "stateMutability": "nonpayable",
      "type": "function"
    },
    {
      "inputs": [
        {
          "internalType": "address",
          "name": "operator",
          "type": "address"
        },
        {
          "internalType": "bool",
          "name": "approved",
          "type": "bool"
        }
      ],
      "name": "setApprovalForAll",
      "outputs": [],
      "stateMutability": "nonpayable",
      "type": "function"
    },
    {
      "inputs": [],
      "name": "symbol",
      "outputs": [
        {
          "internalType": "string",
          "name": "",
          "type": "string"
        }
      ],
      "stateMutability": "view",
      "type": "function"
    },
    {
      "inputs": [
        {
          "internalType": "uint256",
          "name": "tokenId",
          "type": "uint256"
        }
      ],
      "name": "tokenURI",
      "outputs": [
        {
          "internalType": "string",
          "name": "",
          "type": "string"
        }
      ],
      "stateMutability": "view",
      "type": "function"
    },
    {
      "inputs": [],
      "name": "totalSupply",
      "outputs": [
        {
          "internalType": "uint256",
          "name": "",
          "type": "uint256"
        }
      ],
      "stateMutability": "view",
      "type": "function"
    },
    {
      "inputs": [
        {
          "internalType": "address",
          "name": "from",
          "type": "address"
        },
        {
          "internalType": "address",
          "name": "to",
          "type": "address"
        },
        {
          "internalType": "uint256",
          "name": "tokenId",
          "type": "uint256"
        }
      ],
      "name": "transferFrom",
      "outputs": [],
      "stateMutability": "nonpayable",
      "type": "function"
    },
    {
      "inputs": [
        {
          "internalType": "address",
          "name": "",
          "type": "address"
        }
      ],
      "name": "userPrices",
      "outputs": [
        {
          "internalType": "uint256",
          "name": "",
          "type": "uint256"
        }
      ],
      "stateMutability": "view",
      "type": "function"
    },
    {
      "inputs": [],
      "name": "vaultClosed",
      "outputs": [
        {
          "internalType": "bool",
          "name": "",
          "type": "bool"
        }
      ],
      "stateMutability": "view",
      "type": "function"
    },
    {
      "inputs": [],
      "name": "votingTokens",
      "outputs": [
        {
          "internalType": "uint256",
          "name": "",
          "type": "uint256"
        }
      ],
      "stateMutability": "view",
      "type": "function"
    },
    {
      "inputs": [],
      "name": "weth",
      "outputs": [
        {
          "internalType": "address",
          "name": "",
          "type": "address"
        }
      ],
      "stateMutability": "view",
      "type": "function"
    },
    {
      "inputs": [],
      "name": "winning",
      "outputs": [
        {
          "internalType": "address payable",
          "name": "",
          "type": "address"
        }
      ],
      "stateMutability": "view",
      "type": "function"
    },
    {
      "inputs": [
        {
          "internalType": "bytes4",
          "name": "interfaceId",
          "type": "bytes4"
        }
      ],
      "name": "supportsInterface",
      "outputs": [
        {
          "internalType": "bool",
          "name": "",
          "type": "bool"
        }
      ],
      "stateMutability": "view",
      "type": "function"
    },
    {
      "inputs": [
        {
          "internalType": "address",
          "name": "_curator",
          "type": "address"
        },
        {
          "internalType": "address",
          "name": "_nft",
          "type": "address"
        },
        {
          "internalType": "uint256",
          "name": "_nftId",
          "type": "uint256"
        },
        {
          "internalType": "uint256",
          "name": "_supply",
          "type": "uint256"
        },
        {
          "internalType": "uint256",
          "name": "_priceOfNft",
          "type": "uint256"
        },
        {
          "internalType": "uint256",
          "name": "_platformFee",
          "type": "uint256"
        },
        {
          "internalType": "string",
          "name": "_name",
          "type": "string"
        },
        {
          "internalType": "string",
          "name": "_symbol",
          "type": "string"
        }
      ],
      "name": "initialize",
      "outputs": [],
      "stateMutability": "nonpayable",
      "type": "function"
    },
    {
      "inputs": [],
      "name": "reservePrice",
      "outputs": [
        {
          "internalType": "uint256",
          "name": "",
          "type": "uint256"
        }
      ],
      "stateMutability": "view",
      "type": "function"
    },
    {
      "inputs": [
        {
          "internalType": "address",
          "name": "_curator",
          "type": "address"
        }
      ],
      "name": "kickCurator",
      "outputs": [],
      "stateMutability": "nonpayable",
      "type": "function"
    },
    {
      "inputs": [
        {
          "internalType": "address",
          "name": "_user",
          "type": "address"
        }
      ],
      "name": "removeReserve",
      "outputs": [],
      "stateMutability": "nonpayable",
      "type": "function"
    },
    {
      "inputs": [
        {
          "internalType": "address",
          "name": "_curator",
          "type": "address"
        }
      ],
      "name": "updateCurator",
      "outputs": [],
      "stateMutability": "nonpayable",
      "type": "function"
    },
    {
      "inputs": [
        {
          "internalType": "uint256",
          "name": "_length",
          "type": "uint256"
        }
      ],
      "name": "updateAuctionLength",
      "outputs": [],
      "stateMutability": "nonpayable",
      "type": "function"
    },
    {
      "inputs": [
        {
          "internalType": "uint256",
          "name": "_fee",
          "type": "uint256"
        }
      ],
      "name": "updateFee",
      "outputs": [],
      "stateMutability": "nonpayable",
      "type": "function"
    },
    {
      "inputs": [],
      "name": "claimFees",
      "outputs": [],
      "stateMutability": "nonpayable",
      "type": "function"
    },
    {
      "inputs": [
        {
          "internalType": "uint256",
          "name": "_new",
          "type": "uint256"
        }
      ],
      "name": "updateUserPrice",
      "outputs": [],
      "stateMutability": "nonpayable",
      "type": "function"
    },
    {
      "inputs": [],
      "name": "start",
      "outputs": [],
      "stateMutability": "payable",
      "type": "function"
    },
    {
      "inputs": [],
      "name": "bid",
      "outputs": [],
      "stateMutability": "payable",
      "type": "function"
    },
    {
      "inputs": [],
      "name": "end",
      "outputs": [],
      "stateMutability": "nonpayable",
      "type": "function"
    },
    {
      "inputs": [],
      "name": "redeem",
      "outputs": [],
      "stateMutability": "nonpayable",
      "type": "function"
    },
    {
      "inputs": [],
      "name": "cash",
      "outputs": [],
      "stateMutability": "nonpayable",
      "type": "function"
    }
  ],
  "bytecode": "0x60a06040523480156200001157600080fd5b50604051620062f1380380620062f183398181016040528101906200003791906200008c565b8073ffffffffffffffffffffffffffffffffffffffff1660808173ffffffffffffffffffffffffffffffffffffffff1660601b815250505062000106565b6000815190506200008681620000ec565b92915050565b6000602082840312156200009f57600080fd5b6000620000af8482850162000075565b91505092915050565b6000620000c582620000cc565b9050919050565b600073ffffffffffffffffffffffffffffffffffffffff82169050919050565b620000f781620000b8565b81146200010357600080fd5b50565b60805160601c6161716200018060003960008181610ed201528181611479015281816116580152818161170201528181611d1601528181611e1501528181611fd9015281816120d801528181612386015281816127b801528181613024015281816133d401528181613ee10152613f8501526161716000f3fe6080604052600436106102885760003560e01c80637fb450991161015a578063be9a6555116100c1578063ddca3f431161007a578063ddca3f431461096a578063e66f53b714610995578063e985e9c5146109c0578063ec25c1ac146109fd578063efbe1c1c14610a28578063f23a6e6114610a3f57610288565b8063be9a655514610879578063c6bc518214610883578063c87b56dd146108ae578063c91de649146108eb578063d294f09314610928578063db2e1eed1461093f57610288565b80639a4e6d34116101135780639a4e6d341461077d578063a22cb465146107a8578063adc1b956146107d1578063b88d4fde146107fc578063bc197c8114610825578063be040fb01461086257610288565b80637fb450991461069357806380436fe0146106be578063853a1b90146106e75780639012c4a81461071257806395d89b411461073b578063961be3911461076657610288565b80632bf33bd9116101fe578063626fb2f0116101b7578063626fb2f0146105715780636352211e1461059a5780636a775714146105d75780636da84e6c1461060057806370a082311461062b5780637b5581ed1461066857610288565b80632bf33bd914610473578063325c25a21461049c5780633fc8cef3146104c757806342842e0e146104f257806347ccca021461051b5780635c9920fc1461054657610288565b8063150b7a0211610250578063150b7a021461038457806318160ddd146103c15780631998aeef146103ec57806323b872dd146103f65780632a24f46c1461041f5780632a44f1201461044a57610288565b806301ffc9a71461028d57806306fdde03146102ca578063081812fc146102f5578063095ea7b3146103325780630c6a62dd1461035b575b600080fd5b34801561029957600080fd5b506102b460048036038101906102af9190614c71565b610a7c565b6040516102c1919061531f565b60405180910390f35b3480156102d657600080fd5b506102df610a8e565b6040516102ec91906153a6565b60405180910390f35b34801561030157600080fd5b5061031c60048036038101906103179190614cc3565b610b29565b6040516103299190615206565b60405180910390f35b34801561033e57600080fd5b5061035960048036038101906103549190614c0c565b610bae565b005b34801561036757600080fd5b50610382600480360381019061037d919061481f565b610cf8565b005b34801561039057600080fd5b506103ab60048036038101906103a691906149e4565b610dcc565b6040516103b8919061533a565b60405180910390f35b3480156103cd57600080fd5b506103d6610de0565b6040516103e391906156e8565b60405180910390f35b6103f4610e09565b005b34801561040257600080fd5b5061041d60048036038101906104189190614995565b611116565b005b34801561042b57600080fd5b50610434611471565b60405161044191906156e8565b60405180910390f35b34801561045657600080fd5b50610471600480360381019061046c919061481f565b611477565b005b34801561047f57600080fd5b5061049a60048036038101906104959190614cc3565b6115c6565b005b3480156104a857600080fd5b506104b1611824565b6040516104be91906156e8565b60405180910390f35b3480156104d357600080fd5b506104dc61182a565b6040516104e99190615206565b60405180910390f35b3480156104fe57600080fd5b5061051960048036038101906105149190614995565b611842565b005b34801561052757600080fd5b50610530611862565b60405161053d9190615206565b60405180910390f35b34801561055257600080fd5b5061055b611888565b604051610568919061531f565b60405180910390f35b34801561057d57600080fd5b5061059860048036038101906105939190614aee565b61189b565b005b3480156105a657600080fd5b506105c160048036038101906105bc9190614cc3565b611b33565b6040516105ce9190615206565b60405180910390f35b3480156105e357600080fd5b506105fe60048036038101906105f99190614cc3565b611b45565b005b34801561060c57600080fd5b506106156122a3565b60405161062291906156e8565b60405180910390f35b34801561063757600080fd5b50610652600480360381019061064d919061481f565b6122a9565b60405161065f91906156e8565b60405180910390f35b34801561067457600080fd5b5061067d61236b565b60405161068a91906156e8565b60405180910390f35b34801561069f57600080fd5b506106a8612371565b6040516106b59190615355565b60405180910390f35b3480156106ca57600080fd5b506106e560048036038101906106e0919061481f565b612384565b005b3480156106f357600080fd5b506106fc6126bc565b6040516107099190615221565b60405180910390f35b34801561071e57600080fd5b5061073960048036038101906107349190614cc3565b6126e2565b005b34801561074757600080fd5b506107506128e3565b60405161075d91906153a6565b60405180910390f35b34801561077257600080fd5b5061077b61297e565b005b34801561078957600080fd5b50610792612b0e565b60405161079f91906156e8565b60405180910390f35b3480156107b457600080fd5b506107cf60048036038101906107ca9190614bd0565b612b14565b005b3480156107dd57600080fd5b506107e6612c95565b6040516107f391906156e8565b60405180910390f35b34801561080857600080fd5b50610823600480360381019061081e91906149e4565b612c9b565b005b34801561083157600080fd5b5061084c600480360381019061084791906148d6565b612d0e565b604051610859919061533a565b60405180910390f35b34801561086e57600080fd5b50610877612d23565b005b610881612f0e565b005b34801561088f57600080fd5b5061089861321a565b6040516108a591906156e8565b60405180910390f35b3480156108ba57600080fd5b506108d560048036038101906108d09190614cc3565b613220565b6040516108e291906153a6565b60405180910390f35b3480156108f757600080fd5b50610912600480360381019061090d919061481f565b6132bf565b60405161091f91906156e8565b60405180910390f35b34801561093457600080fd5b5061093d6132d7565b005b34801561094b57600080fd5b506109546132e1565b60405161096191906156e8565b60405180910390f35b34801561097657600080fd5b5061097f613309565b60405161098c91906156e8565b60405180910390f35b3480156109a157600080fd5b506109aa61330f565b6040516109b79190615206565b60405180910390f35b3480156109cc57600080fd5b506109e760048036038101906109e2919061489a565b613335565b6040516109f4919061531f565b60405180910390f35b348015610a0957600080fd5b50610a126133d2565b604051610a1f9190615206565b60405180910390f35b348015610a3457600080fd5b50610a3d6133f6565b005b348015610a4b57600080fd5b50610a666004803603810190610a619190614a5f565b61367f565b604051610a73919061533a565b60405180910390f35b6000610a8782613694565b9050919050565b6060610a9861370e565b6002018054610aa690615a6d565b80601f0160208091040260200160405190810160405280929190818152602001828054610ad290615a6d565b8015610b1f5780601f10610af457610100808354040283529160200191610b1f565b820191906000526020600020905b815481529060010190602001808311610b0257829003601f168201915b5050505050905090565b6000610b348261373b565b610b6a576040517fcf4700e400000000000000000000000000000000000000000000000000000000815260040160405180910390fd5b610b7261370e565b600601600083815260200190815260200160002060009054906101000a900473ffffffffffffffffffffffffffffffffffffffff169050919050565b6000610bb982611b33565b90508073ffffffffffffffffffffffffffffffffffffffff16610bda6137ac565b73ffffffffffffffffffffffffffffffffffffffff1614610c3d57610c0681610c016137ac565b613335565b610c3c576040517fcfb3b94200000000000000000000000000000000000000000000000000000000815260040160405180910390fd5b5b82610c4661370e565b600601600084815260200190815260200160002060006101000a81548173ffffffffffffffffffffffffffffffffffffffff021916908373ffffffffffffffffffffffffffffffffffffffff160217905550818373ffffffffffffffffffffffffffffffffffffffff168273ffffffffffffffffffffffffffffffffffffffff167f8c5be1e5ebec7d5bd14f71427d1e84f3dd0314c0f7b2291e5b200ac8c7c3b92560405160405180910390a4505050565b60d060009054906101000a900473ffffffffffffffffffffffffffffffffffffffff1673ffffffffffffffffffffffffffffffffffffffff163373ffffffffffffffffffffffffffffffffffffffff1614610d88576040517f08c379a0000000000000000000000000000000000000000000000000000000008152600401610d7f90615528565b60405180910390fd5b8060d060006101000a81548173ffffffffffffffffffffffffffffffffffffffff021916908373ffffffffffffffffffffffffffffffffffffffff16021790555050565b600063150b7a0260e01b9050949350505050565b6000610dea6137b4565b610df261370e565b60010154610dfe61370e565b600001540303905090565b60016003811115610e43577f4e487b7100000000000000000000000000000000000000000000000000000000600052602160045260246000fd5b60cf60149054906101000a900460ff166003811115610e8b577f4e487b7100000000000000000000000000000000000000000000000000000000600052602160045260246000fd5b14610ecb576040517f08c379a0000000000000000000000000000000000000000000000000000000008152600401610ec290615428565b60405180910390fd5b60006103e87f000000000000000000000000000000000000000000000000000000000000000073ffffffffffffffffffffffffffffffffffffffff16637c513c0f6040518163ffffffff1660e01b8152600401602060405180830381600087803b158015610f3857600080fd5b505af1158015610f4c573d6000803e3d6000fd5b505050506040513d601f19601f82011682018060405250810190610f709190614cec565b610f7a9190615804565b90508060ce54610f8a919061588b565b6103e834610f98919061588b565b1015610fd9576040517f08c379a0000000000000000000000000000000000000000000000000000000008152600401610fd090615648565b60405180910390fd5b60cb54421061101d576040517f08c379a000000000000000000000000000000000000000000000000000000000815260040161101490615588565b60405180910390fd5b6103844260cb5461102e91906158e5565b1161104f5761038460cb60008282546110479190615804565b925050819055505b61107d60cf60009054906101000a900473ffffffffffffffffffffffffffffffffffffffff1660ce546137b9565b3460ce819055503360cf60006101000a81548173ffffffffffffffffffffffffffffffffffffffff021916908373ffffffffffffffffffffffffffffffffffffffff1602179055503373ffffffffffffffffffffffffffffffffffffffff167fe684a55f31b79eca403df938249029212a5925ec6be8012e099b45bc1019e5d23460405161110b91906156e8565b60405180910390a250565b6000611121826138e3565b90508373ffffffffffffffffffffffffffffffffffffffff168173ffffffffffffffffffffffffffffffffffffffff1614611188576040517fa114810000000000000000000000000000000000000000000000000000000000815260040160405180910390fd5b600080611194846139cc565b915091506111aa81876111a56137ac565b6139f7565b6111f6576111bf866111ba6137ac565b613335565b6111f5576040517f59c896be00000000000000000000000000000000000000000000000000000000815260040160405180910390fd5b5b600073ffffffffffffffffffffffffffffffffffffffff168573ffffffffffffffffffffffffffffffffffffffff16141561125d576040517fea553b3400000000000000000000000000000000000000000000000000000000815260040160405180910390fd5b61126a8686866001613a3b565b801561127557600082555b61127d61370e565b60050160008773ffffffffffffffffffffffffffffffffffffffff1673ffffffffffffffffffffffffffffffffffffffff1681526020019081526020016000206000815460019003919050819055506112d461370e565b60050160008673ffffffffffffffffffffffffffffffffffffffff1673ffffffffffffffffffffffffffffffffffffffff168152602001908152602001600020600081546001019190508190555061135585611331888887613a41565b7c020000000000000000000000000000000000000000000000000000000017613a69565b61135d61370e565b60040160008681526020019081526020016000208190555060007c02000000000000000000000000000000000000000000000000000000008416141561140157600060018501905060006113af61370e565b60040160008381526020019081526020016000205414156113ff576113d261370e565b6000015481146113fe57836113e561370e565b6004016000838152602001908152602001600020819055505b5b505b838573ffffffffffffffffffffffffffffffffffffffff168773ffffffffffffffffffffffffffffffffffffffff167fddf252ad1be2c89b69c2b068fc378daa952ba7f163c4a11628f55a4df523b3ef60405160405180910390a46114698686866001613a94565b505050505050565b60cb5481565b7f000000000000000000000000000000000000000000000000000000000000000073ffffffffffffffffffffffffffffffffffffffff16638da5cb5b6040518163ffffffff1660e01b815260040160206040518083038186803b1580156114dd57600080fd5b505afa1580156114f1573d6000803e3d6000fd5b505050506040513d601f19601f820116820180604052508101906115159190614848565b73ffffffffffffffffffffffffffffffffffffffff163373ffffffffffffffffffffffffffffffffffffffff1614611582576040517f08c379a0000000000000000000000000000000000000000000000000000000008152600401611579906154a8565b60405180910390fd5b8060d060006101000a81548173ffffffffffffffffffffffffffffffffffffffff021916908373ffffffffffffffffffffffffffffffffffffffff16021790555050565b60d060009054906101000a900473ffffffffffffffffffffffffffffffffffffffff1673ffffffffffffffffffffffffffffffffffffffff163373ffffffffffffffffffffffffffffffffffffffff1614611656576040517f08c379a000000000000000000000000000000000000000000000000000000000815260040161164d90615528565b60405180910390fd5b7f000000000000000000000000000000000000000000000000000000000000000073ffffffffffffffffffffffffffffffffffffffff1663a0b335e36040518163ffffffff1660e01b8152600401602060405180830381600087803b1580156116be57600080fd5b505af11580156116d2573d6000803e3d6000fd5b505050506040513d601f19601f820116820180604052508101906116f69190614cec565b81101580156117a457507f000000000000000000000000000000000000000000000000000000000000000073ffffffffffffffffffffffffffffffffffffffff16630e519ef96040518163ffffffff1660e01b8152600401602060405180830381600087803b15801561176857600080fd5b505af115801561177c573d6000803e3d6000fd5b505050506040513d601f19601f820116820180604052508101906117a09190614cec565b8111155b6117e3576040517f08c379a00000000000000000000000000000000000000000000000000000000081526004016117da90615568565b60405180910390fd5b8060cc819055507f4ab86ae701798277aa378943b9dfd155d3b19703cd57be298908fadd32f7bf468160405161181991906156e8565b60405180910390a150565b60cc5481565b73c02aaa39b223fe8d0a0e5c4f27ead9083c756cc281565b61185d83838360405180602001604052806000815250612c9b565b505050565b60c960009054906101000a900473ffffffffffffffffffffffffffffffffffffffff1681565b60d360009054906101000a900460ff1681565b60008060019054906101000a900460ff161590508080156118cc5750600160008054906101000a900460ff1660ff16105b806118f957506118db30613a9a565b1580156118f85750600160008054906101000a900460ff1660ff16145b5b611938576040517f08c379a000000000000000000000000000000000000000000000000000000000815260040161192f90615548565b60405180910390fd5b60016000806101000a81548160ff021916908360ff1602179055508015611975576001600060016101000a81548160ff0219169083151502179055505b61197f8383613abd565b611987613b23565b61198f613b74565b8760c960006101000a81548173ffffffffffffffffffffffffffffffffffffffff021916908373ffffffffffffffffffffffffffffffffffffffff1602179055508660ca819055506203f48060cc819055508860d060006101000a81548173ffffffffffffffffffffffffffffffffffffffff021916908373ffffffffffffffffffffffffffffffffffffffff1602179055508360d1819055504260d281905550600060cf60146101000a81548160ff02191690836003811115611a7c577f4e487b7100000000000000000000000000000000000000000000000000000000600052602160045260246000fd5b02179055508460d560008b73ffffffffffffffffffffffffffffffffffffffff1673ffffffffffffffffffffffffffffffffffffffff16815260200190815260200160002081905550611acf8987613bc5565b8015611b285760008060016101000a81548160ff0219169083151502179055507f7f26b83ff96e1f2b6a682f133852f6798a09c465da95921460cefb38474024986001604051611b1f919061538b565b60405180910390a15b505050505050505050565b6000611b3e826138e3565b9050919050565b60006003811115611b7f577f4e487b7100000000000000000000000000000000000000000000000000000000600052602160045260246000fd5b60cf60149054906101000a900460ff166003811115611bc7577f4e487b7100000000000000000000000000000000000000000000000000000000600052602160045260246000fd5b14611c07576040517f08c379a0000000000000000000000000000000000000000000000000000000008152600401611bfe90615688565b60405180910390fd5b600060d560003373ffffffffffffffffffffffffffffffffffffffff1673ffffffffffffffffffffffffffffffffffffffff16815260200190815260200160002054905080821415611c8e576040517f08c379a0000000000000000000000000000000000000000000000000000000008152600401611c85906156a8565b60405180910390fd5b6000611c99336122a9565b9050600060d4541415611cc4578060d4819055508281611cb9919061588b565b60cd8190555061220c565b60d45481148015611cd6575060008214155b15611cf2578281611ce7919061588b565b60cd8190555061220b565b6000821415611f5257600060d45460cd54611d0d919061585a565b905060006103e87f000000000000000000000000000000000000000000000000000000000000000073ffffffffffffffffffffffffffffffffffffffff166309990a966040518163ffffffff1660e01b8152600401602060405180830381600087803b158015611d7c57600080fd5b505af1158015611d90573d6000803e3d6000fd5b505050506040513d601f19601f82011682018060405250810190611db49190614cec565b83611dbf919061588b565b611dc9919061585a565b905080851015611e0e576040517f08c379a0000000000000000000000000000000000000000000000000000000008152600401611e05906153e8565b60405180910390fd5b60006103e87f000000000000000000000000000000000000000000000000000000000000000073ffffffffffffffffffffffffffffffffffffffff16635410bfc96040518163ffffffff1660e01b8152600401602060405180830381600087803b158015611e7b57600080fd5b505af1158015611e8f573d6000803e3d6000fd5b505050506040513d601f19601f82011682018060405250810190611eb39190614cec565b84611ebe919061588b565b611ec8919061585a565b905080861115611f0d576040517f08c379a0000000000000000000000000000000000000000000000000000000008152600401611f0490615668565b60405180910390fd5b8360d46000828254611f1f9190615804565b925050819055508584611f32919061588b565b60cd6000828254611f439190615804565b9250508190555050505061220a565b6000831415611f9d578060d46000828254611f6d91906158e5565b925050819055508181611f80919061588b565b60cd6000828254611f9191906158e5565b92505081905550612209565b60008160d454611fad91906158e5565b8284611fb9919061588b565b60cd54611fc691906158e5565b611fd0919061585a565b905060006103e87f000000000000000000000000000000000000000000000000000000000000000073ffffffffffffffffffffffffffffffffffffffff166309990a966040518163ffffffff1660e01b8152600401602060405180830381600087803b15801561203f57600080fd5b505af1158015612053573d6000803e3d6000fd5b505050506040513d601f19601f820116820180604052508101906120779190614cec565b83612082919061588b565b61208c919061585a565b9050808510156120d1576040517f08c379a00000000000000000000000000000000000000000000000000000000081526004016120c8906153e8565b60405180910390fd5b60006103e87f000000000000000000000000000000000000000000000000000000000000000073ffffffffffffffffffffffffffffffffffffffff16635410bfc96040518163ffffffff1660e01b8152600401602060405180830381600087803b15801561213e57600080fd5b505af1158015612152573d6000803e3d6000fd5b505050506040513d601f19601f820116820180604052508101906121769190614cec565b84612181919061588b565b61218b919061585a565b9050808611156121d0576040517f08c379a00000000000000000000000000000000000000000000000000000000081526004016121c790615668565b60405180910390fd5b84846121dc919061588b565b86856121e8919061588b565b60cd546121f59190615804565b6121ff91906158e5565b60cd819055505050505b5b5b5b8260d560003373ffffffffffffffffffffffffffffffffffffffff1673ffffffffffffffffffffffffffffffffffffffff168152602001908152602001600020819055503373ffffffffffffffffffffffffffffffffffffffff167f64e6e7bd72b853c4e62fd6ceaca05a104700c70a4cb567c75c7f2242ba7f037c8460405161229691906156e8565b60405180910390a2505050565b60ce5481565b60008073ffffffffffffffffffffffffffffffffffffffff168273ffffffffffffffffffffffffffffffffffffffff161415612311576040517f8f4eb60400000000000000000000000000000000000000000000000000000000815260040160405180910390fd5b67ffffffffffffffff61232261370e565b60050160008473ffffffffffffffffffffffffffffffffffffffff1673ffffffffffffffffffffffffffffffffffffffff16815260200190815260200160002054169050919050565b60cd5481565b60cf60149054906101000a900460ff1681565b7f000000000000000000000000000000000000000000000000000000000000000073ffffffffffffffffffffffffffffffffffffffff16638da5cb5b6040518163ffffffff1660e01b815260040160206040518083038186803b1580156123ea57600080fd5b505afa1580156123fe573d6000803e3d6000fd5b505050506040513d601f19601f820116820180604052508101906124229190614848565b73ffffffffffffffffffffffffffffffffffffffff163373ffffffffffffffffffffffffffffffffffffffff161461248f576040517f08c379a0000000000000000000000000000000000000000000000000000000008152600401612486906155c8565b60405180910390fd5b600060038111156124c9577f4e487b7100000000000000000000000000000000000000000000000000000000600052602160045260246000fd5b60cf60149054906101000a900460ff166003811115612511577f4e487b7100000000000000000000000000000000000000000000000000000000600052602160045260246000fd5b14612551576040517f08c379a000000000000000000000000000000000000000000000000000000000815260040161254890615688565b60405180910390fd5b600060d560008373ffffffffffffffffffffffffffffffffffffffff1673ffffffffffffffffffffffffffffffffffffffff16815260200190815260200160002054905080600014156125d9576040517f08c379a00000000000000000000000000000000000000000000000000000000081526004016125d0906156a8565b60405180910390fd5b60006125e4836122a9565b90508060d460008282546125f891906158e5565b92505081905550818161260b919061588b565b60cd600082825461261c91906158e5565b92505081905550600060d560008573ffffffffffffffffffffffffffffffffffffffff1673ffffffffffffffffffffffffffffffffffffffff168152602001908152602001600020819055508273ffffffffffffffffffffffffffffffffffffffff167f64e6e7bd72b853c4e62fd6ceaca05a104700c70a4cb567c75c7f2242ba7f037c60006040516126af9190615370565b60405180910390a2505050565b60cf60009054906101000a900473ffffffffffffffffffffffffffffffffffffffff1681565b60d060009054906101000a900473ffffffffffffffffffffffffffffffffffffffff1673ffffffffffffffffffffffffffffffffffffffff163373ffffffffffffffffffffffffffffffffffffffff1614612772576040517f08c379a000000000000000000000000000000000000000000000000000000000815260040161276990615528565b60405180910390fd5b60d15481106127b6576040517f08c379a00000000000000000000000000000000000000000000000000000000081526004016127ad90615468565b60405180910390fd5b7f000000000000000000000000000000000000000000000000000000000000000073ffffffffffffffffffffffffffffffffffffffff16638a364bc16040518163ffffffff1660e01b8152600401602060405180830381600087803b15801561281e57600080fd5b505af1158015612832573d6000803e3d6000fd5b505050506040513d601f19601f820116820180604052508101906128569190614cec565b811115612898576040517f08c379a000000000000000000000000000000000000000000000000000000000815260040161288f906155a8565b60405180910390fd5b6128a0613dbe565b8060d1819055507f2d1dae59a9e9ec0bc2ab19d45b7d10c8c55304fa08b40a7998e9f67f03223d0460d1546040516128d891906156e8565b60405180910390a150565b60606128ed61370e565b60030180546128fb90615a6d565b80601f016020809104026020016040519081016040528092919081815260200182805461292790615a6d565b80156129745780601f1061294957610100808354040283529160200191612974565b820191906000526020600020905b81548152906001019060200180831161295757829003601f168201915b5050505050905090565b600260038111156129b8577f4e487b7100000000000000000000000000000000000000000000000000000000600052602160045260246000fd5b60cf60149054906101000a900460ff166003811115612a00577f4e487b7100000000000000000000000000000000000000000000000000000000600052602160045260246000fd5b14612a40576040517f08c379a0000000000000000000000000000000000000000000000000000000008152600401612a37906156c8565b60405180910390fd5b6000612a4b336122a9565b905060008111612a90576040517f08c379a0000000000000000000000000000000000000000000000000000000008152600401612a8790615448565b60405180910390fd5b6000612a9a610de0565b4783612aa6919061588b565b612ab0919061585a565b9050612abc33826137b9565b3373ffffffffffffffffffffffffffffffffffffffff167f730831a1e4aa2d187ddd8e03d7beeac760a3927da5f112d645e0f8df7494b36782604051612b0291906156e8565b60405180910390a25050565b60d45481565b612b1c6137ac565b73ffffffffffffffffffffffffffffffffffffffff168273ffffffffffffffffffffffffffffffffffffffff161415612b81576040517fb06307db00000000000000000000000000000000000000000000000000000000815260040160405180910390fd5b80612b8a61370e565b6007016000612b976137ac565b73ffffffffffffffffffffffffffffffffffffffff1673ffffffffffffffffffffffffffffffffffffffff16815260200190815260200160002060008473ffffffffffffffffffffffffffffffffffffffff1673ffffffffffffffffffffffffffffffffffffffff16815260200190815260200160002060006101000a81548160ff0219169083151502179055508173ffffffffffffffffffffffffffffffffffffffff16612c446137ac565b73ffffffffffffffffffffffffffffffffffffffff167f17307eab39ab6107e8899845ad3d59bd9653f200f220920489ca2b5937696c3183604051612c89919061531f565b60405180910390a35050565b60d25481565b612ca6848484611116565b60008373ffffffffffffffffffffffffffffffffffffffff163b14612d0857612cd1848484846141a9565b612d07576040517fd1a57ed600000000000000000000000000000000000000000000000000000000815260040160405180910390fd5b5b50505050565b600063bc197c8160e01b905095945050505050565b60006003811115612d5d577f4e487b7100000000000000000000000000000000000000000000000000000000600052602160045260246000fd5b60cf60149054906101000a900460ff166003811115612da5577f4e487b7100000000000000000000000000000000000000000000000000000000600052602160045260246000fd5b14612de5576040517f08c379a0000000000000000000000000000000000000000000000000000000008152600401612ddc90615488565b60405180910390fd5b60c960009054906101000a900473ffffffffffffffffffffffffffffffffffffffff1673ffffffffffffffffffffffffffffffffffffffff166323b872dd303360ca546040518463ffffffff1660e01b8152600401612e4693929190615273565b600060405180830381600087803b158015612e6057600080fd5b505af1158015612e74573d6000803e3d6000fd5b50505050600360cf60146101000a81548160ff02191690836003811115612ec4577f4e487b7100000000000000000000000000000000000000000000000000000000600052602160045260246000fd5b02179055503373ffffffffffffffffffffffffffffffffffffffff167fd1b5ea7fe0f1c2fa09d49c2aa9b2200664ba57a734f1d95481d95b7f99af991c60405160405180910390a2565b60006003811115612f48577f4e487b7100000000000000000000000000000000000000000000000000000000600052602160045260246000fd5b60cf60149054906101000a900460ff166003811115612f90577f4e487b7100000000000000000000000000000000000000000000000000000000600052602160045260246000fd5b14612fd0576040517f08c379a0000000000000000000000000000000000000000000000000000000008152600401612fc7906153c8565b60405180910390fd5b612fd86132e1565b34101561301a576040517f08c379a0000000000000000000000000000000000000000000000000000000008152600401613011906154c8565b60405180910390fd5b613022610de0565b7f000000000000000000000000000000000000000000000000000000000000000073ffffffffffffffffffffffffffffffffffffffff166332977c736040518163ffffffff1660e01b8152600401602060405180830381600087803b15801561308a57600080fd5b505af115801561309e573d6000803e3d6000fd5b505050506040513d601f19601f820116820180604052508101906130c29190614cec565b6130cc919061588b565b6103e860d4546130dc919061588b565b101561311d576040517f08c379a000000000000000000000000000000000000000000000000000000000815260040161311490615508565b60405180910390fd5b60cc544261312b9190615804565b60cb81905550600160cf60146101000a81548160ff0219169083600381111561317d577f4e487b7100000000000000000000000000000000000000000000000000000000600052602160045260246000fd5b02179055503460ce819055503360cf60006101000a81548173ffffffffffffffffffffffffffffffffffffffff021916908373ffffffffffffffffffffffffffffffffffffffff1602179055503373ffffffffffffffffffffffffffffffffffffffff167fcfb9c5312b25ec7b809d61e638df25f749eae5d5c25399e1c93d1d319bfd58213460405161321091906156e8565b60405180910390a2565b60ca5481565b606061322b8261373b565b613261576040517fa14c4b5000000000000000000000000000000000000000000000000000000000815260040160405180910390fd5b600061326b614309565b905060008151141561328c57604051806020016040528060008152506132b7565b8061329684614320565b6040516020016132a79291906151cd565b6040516020818303038152906040525b915050919050565b60d56020528060005260406000206000915090505481565b6132df613dbe565b565b60008060d454146133015760d45460cd546132fc919061585a565b613304565b60005b905090565b60d15481565b60d060009054906101000a900473ffffffffffffffffffffffffffffffffffffffff1681565b600061333f61370e565b60070160008473ffffffffffffffffffffffffffffffffffffffff1673ffffffffffffffffffffffffffffffffffffffff16815260200190815260200160002060008373ffffffffffffffffffffffffffffffffffffffff1673ffffffffffffffffffffffffffffffffffffffff16815260200190815260200160002060009054906101000a900460ff16905092915050565b7f000000000000000000000000000000000000000000000000000000000000000081565b60016003811115613430577f4e487b7100000000000000000000000000000000000000000000000000000000600052602160045260246000fd5b60cf60149054906101000a900460ff166003811115613478577f4e487b7100000000000000000000000000000000000000000000000000000000600052602160045260246000fd5b146134b8576040517f08c379a00000000000000000000000000000000000000000000000000000000081526004016134af906155e8565b60405180910390fd5b60cb544210156134fd576040517f08c379a00000000000000000000000000000000000000000000000000000000081526004016134f4906154e8565b60405180910390fd5b613505613dbe565b60c960009054906101000a900473ffffffffffffffffffffffffffffffffffffffff1673ffffffffffffffffffffffffffffffffffffffff166323b872dd3060cf60009054906101000a900473ffffffffffffffffffffffffffffffffffffffff1660ca546040518463ffffffff1660e01b81526004016135889392919061523c565b600060405180830381600087803b1580156135a257600080fd5b505af11580156135b6573d6000803e3d6000fd5b50505050600260cf60146101000a81548160ff02191690836003811115613606577f4e487b7100000000000000000000000000000000000000000000000000000000600052602160045260246000fd5b021790555060cf60009054906101000a900473ffffffffffffffffffffffffffffffffffffffff1673ffffffffffffffffffffffffffffffffffffffff167f8b01f9dd0400d6a1e84369a5fb8f6033934856ffa8ebadd707dca302ab55169560ce5460405161367591906156e8565b60405180910390a2565b600063f23a6e6160e01b905095945050505050565b60007f4e2312e0000000000000000000000000000000000000000000000000000000007bffffffffffffffffffffffffffffffffffffffffffffffffffffffff1916827bffffffffffffffffffffffffffffffffffffffffffffffffffffffff1916148061370757506137068261437a565b5b9050919050565b6000807f2569078dfb4b0305704d3008e7403993ae9601b85f7ae5e742de3de8f8011c4090508091505090565b6000816137466137b4565b1115801561375e575061375761370e565b6000015482105b80156137a5575060007c010000000000000000000000000000000000000000000000000000000061378d61370e565b60040160008581526020019081526020016000205416145b9050919050565b600033905090565b600090565b6137c382826143e4565b6138df5773c02aaa39b223fe8d0a0e5c4f27ead9083c756cc273ffffffffffffffffffffffffffffffffffffffff1663d0e30db0826040518263ffffffff1660e01b81526004016000604051808303818588803b15801561382357600080fd5b505af1158015613837573d6000803e3d6000fd5b505050505073c02aaa39b223fe8d0a0e5c4f27ead9083c756cc273ffffffffffffffffffffffffffffffffffffffff1663a9059cbb83836040518363ffffffff1660e01b815260040161388b9291906152f6565b602060405180830381600087803b1580156138a557600080fd5b505af11580156138b9573d6000803e3d6000fd5b505050506040513d601f19601f820116820180604052508101906138dd9190614c48565b505b5050565b600080829050806138f26137b4565b11613995576138ff61370e565b6000015481101561399457600061391461370e565b600401600083815260200190815260200160002054905060007c010000000000000000000000000000000000000000000000000000000082161415613992575b60008114156139885761396561370e565b600401600083600190039350838152602001908152602001600020549050613954565b80925050506139c7565b505b5b6040517fdf2d9b4200000000000000000000000000000000000000000000000000000000815260040160405180910390fd5b919050565b60008060006139d961370e565b60060190508360005280602052604060002092508254915050915091565b600073ffffffffffffffffffffffffffffffffffffffff8316925073ffffffffffffffffffffffffffffffffffffffff821691508382148383141790509392505050565b50505050565b60008060e883901c905060e8613a58868684614460565b62ffffff16901b9150509392505050565b600073ffffffffffffffffffffffffffffffffffffffff83169250814260a01b178317905092915050565b50505050565b6000808273ffffffffffffffffffffffffffffffffffffffff163b119050919050565b613ac5614469565b60000160019054906101000a900460ff16613b15576040517f08c379a0000000000000000000000000000000000000000000000000000000008152600401613b0c90615408565b60405180910390fd5b613b1f8282614496565b5050565b600060019054906101000a900460ff16613b72576040517f08c379a0000000000000000000000000000000000000000000000000000000008152600401613b6990615628565b60405180910390fd5b565b600060019054906101000a900460ff16613bc3576040517f08c379a0000000000000000000000000000000000000000000000000000000008152600401613bba90615628565b60405180910390fd5b565b6000613bcf61370e565b600001549050600073ffffffffffffffffffffffffffffffffffffffff168373ffffffffffffffffffffffffffffffffffffffff161415613c3c576040517f2e07630000000000000000000000000000000000000000000000000000000000815260040160405180910390fd5b6000821415613c77576040517fb562e8dd00000000000000000000000000000000000000000000000000000000815260040160405180910390fd5b613c846000848385613a3b565b600160406001901b178202613c9761370e565b60050160008573ffffffffffffffffffffffffffffffffffffffff1673ffffffffffffffffffffffffffffffffffffffff16815260200190815260200160002060008282540192505081905550613d0483613cf56000866000613a41565b613cfe85614549565b17613a69565b613d0c61370e565b6004016000838152602001908152602001600020819055506000819050600083830190505b818060010192508573ffffffffffffffffffffffffffffffffffffffff16600073ffffffffffffffffffffffffffffffffffffffff167fddf252ad1be2c89b69c2b068fc378daa952ba7f163c4a11628f55a4df523b3ef60405160405180910390a4808210613d315780613da361370e565b600001819055505050613db96000848385613a94565b505050565b60026003811115613df8577f4e487b7100000000000000000000000000000000000000000000000000000000600052602160045260246000fd5b60cf60149054906101000a900460ff166003811115613e40577f4e487b7100000000000000000000000000000000000000000000000000000000600052602160045260246000fd5b1415613e81576040517f08c379a0000000000000000000000000000000000000000000000000000000008152600401613e7890615608565b60405180910390fd5b60006103e8613e8e610de0565b60d154613e9b919061588b565b613ea5919061585a565b905060006301e1338082613eb9919061585a565b9050600060d25442613ecb91906158e5565b905060008282613edb919061588b565b905060007f000000000000000000000000000000000000000000000000000000000000000073ffffffffffffffffffffffffffffffffffffffff1663b3f006746040518163ffffffff1660e01b8152600401602060405180830381600087803b158015613f4757600080fd5b505af1158015613f5b573d6000803e3d6000fd5b505050506040513d601f19601f82011682018060405250810190613f7f9190614871565b905060007f000000000000000000000000000000000000000000000000000000000000000073ffffffffffffffffffffffffffffffffffffffff16630ea90a126040518163ffffffff1660e01b8152600401602060405180830381600087803b158015613feb57600080fd5b505af1158015613fff573d6000803e3d6000fd5b505050506040513d601f19601f820116820180604052508101906140239190614cec565b90506103e8614030610de0565b8261403b919061588b565b614045919061585a565b95506301e1338086614057919061585a565b945060008585614067919061588b565b90504260d281905550600073ffffffffffffffffffffffffffffffffffffffff1660d060009054906101000a900473ffffffffffffffffffffffffffffffffffffffff1673ffffffffffffffffffffffffffffffffffffffff161461412a576140f260d060009054906101000a900473ffffffffffffffffffffffffffffffffffffffff1685613bc5565b7f62b10e3ff3d45b5ff546e740b893897facb1680285f989a64ae932d62c5388e18460405161412191906156e8565b60405180910390a15b600073ffffffffffffffffffffffffffffffffffffffff168373ffffffffffffffffffffffffffffffffffffffff16146141a0576141688382613bc5565b7f62b10e3ff3d45b5ff546e740b893897facb1680285f989a64ae932d62c5388e18160405161419791906156e8565b60405180910390a15b50505050505050565b60008373ffffffffffffffffffffffffffffffffffffffff1663150b7a026141cf6137ac565b8786866040518563ffffffff1660e01b81526004016141f194939291906152aa565b602060405180830381600087803b15801561420b57600080fd5b505af192505050801561423c57506040513d601f19601f820116820180604052508101906142399190614c9a565b60015b6142b6573d806000811461426c576040519150601f19603f3d011682016040523d82523d6000602084013e614271565b606091505b506000815114156142ae576040517fd1a57ed600000000000000000000000000000000000000000000000000000000815260040160405180910390fd5b805181602001fd5b63150b7a0260e01b7bffffffffffffffffffffffffffffffffffffffffffffffffffffffff1916817bffffffffffffffffffffffffffffffffffffffffffffffffffffffff191614915050949350505050565b606060405180602001604052806000815250905090565b60606080604051019050806040528082600183039250600a81066030018353600a810490505b801561436657600183039250600a81066030018353600a81049050614346565b508181036020830392508083525050919050565b60007f01ffc9a7000000000000000000000000000000000000000000000000000000007bffffffffffffffffffffffffffffffffffffffffffffffffffffffff1916827bffffffffffffffffffffffffffffffffffffffffffffffffffffffff1916149050919050565b6000808373ffffffffffffffffffffffffffffffffffffffff16836175309060405161440f906151f1565b600060405180830381858888f193505050503d806000811461444d576040519150601f19603f3d011682016040523d82523d6000602084013e614452565b606091505b505090508091505092915050565b60009392505050565b6000807fee151c8401928dc223602bb187aff91b9a56c7cae5476ef1b3287b085a16c85f90508091505090565b61449e614469565b60000160019054906101000a900460ff166144ee576040517f08c379a00000000000000000000000000000000000000000000000000000000081526004016144e590615408565b60405180910390fd5b816144f761370e565b600201908051906020019061450d929190614559565b508061451761370e565b600301908051906020019061452d929190614559565b506145366137b4565b61453e61370e565b600001819055505050565b60006001821460e11b9050919050565b82805461456590615a6d565b90600052602060002090601f01602090048101928261458757600085556145ce565b82601f106145a057805160ff19168380011785556145ce565b828001600101855582156145ce579182015b828111156145cd5782518255916020019190600101906145b2565b5b5090506145db91906145df565b5090565b5b808211156145f85760008160009055506001016145e0565b5090565b600061460f61460a84615728565b615703565b9050808382526020820190508285602086028201111561462e57600080fd5b60005b8581101561465e578161464488826147f5565b845260208401935060208301925050600181019050614631565b5050509392505050565b600061467b61467684615754565b615703565b90508281526020810184848401111561469357600080fd5b61469e848285615a2b565b509392505050565b60006146b96146b484615785565b615703565b9050828152602081018484840111156146d157600080fd5b6146dc848285615a2b565b509392505050565b6000813590506146f3816160c8565b92915050565b600081519050614708816160c8565b92915050565b60008151905061471d816160df565b92915050565b600082601f83011261473457600080fd5b81356147448482602086016145fc565b91505092915050565b60008135905061475c816160f6565b92915050565b600081519050614771816160f6565b92915050565b6000813590506147868161610d565b92915050565b60008151905061479b8161610d565b92915050565b600082601f8301126147b257600080fd5b81356147c2848260208601614668565b91505092915050565b600082601f8301126147dc57600080fd5b81356147ec8482602086016146a6565b91505092915050565b60008135905061480481616124565b92915050565b60008151905061481981616124565b92915050565b60006020828403121561483157600080fd5b600061483f848285016146e4565b91505092915050565b60006020828403121561485a57600080fd5b6000614868848285016146f9565b91505092915050565b60006020828403121561488357600080fd5b60006148918482850161470e565b91505092915050565b600080604083850312156148ad57600080fd5b60006148bb858286016146e4565b92505060206148cc858286016146e4565b9150509250929050565b600080600080600060a086880312156148ee57600080fd5b60006148fc888289016146e4565b955050602061490d888289016146e4565b945050604086013567ffffffffffffffff81111561492a57600080fd5b61493688828901614723565b935050606086013567ffffffffffffffff81111561495357600080fd5b61495f88828901614723565b925050608086013567ffffffffffffffff81111561497c57600080fd5b614988888289016147a1565b9150509295509295909350565b6000806000606084860312156149aa57600080fd5b60006149b8868287016146e4565b93505060206149c9868287016146e4565b92505060406149da868287016147f5565b9150509250925092565b600080600080608085870312156149fa57600080fd5b6000614a08878288016146e4565b9450506020614a19878288016146e4565b9350506040614a2a878288016147f5565b925050606085013567ffffffffffffffff811115614a4757600080fd5b614a53878288016147a1565b91505092959194509250565b600080600080600060a08688031215614a7757600080fd5b6000614a85888289016146e4565b9550506020614a96888289016146e4565b9450506040614aa7888289016147f5565b9350506060614ab8888289016147f5565b925050608086013567ffffffffffffffff811115614ad557600080fd5b614ae1888289016147a1565b9150509295509295909350565b600080600080600080600080610100898b031215614b0b57600080fd5b6000614b198b828c016146e4565b9850506020614b2a8b828c016146e4565b9750506040614b3b8b828c016147f5565b9650506060614b4c8b828c016147f5565b9550506080614b5d8b828c016147f5565b94505060a0614b6e8b828c016147f5565b93505060c089013567ffffffffffffffff811115614b8b57600080fd5b614b978b828c016147cb565b92505060e089013567ffffffffffffffff811115614bb457600080fd5b614bc08b828c016147cb565b9150509295985092959890939650565b60008060408385031215614be357600080fd5b6000614bf1858286016146e4565b9250506020614c028582860161474d565b9150509250929050565b60008060408385031215614c1f57600080fd5b6000614c2d858286016146e4565b9250506020614c3e858286016147f5565b9150509250929050565b600060208284031215614c5a57600080fd5b6000614c6884828501614762565b91505092915050565b600060208284031215614c8357600080fd5b6000614c9184828501614777565b91505092915050565b600060208284031215614cac57600080fd5b6000614cba8482850161478c565b91505092915050565b600060208284031215614cd557600080fd5b6000614ce3848285016147f5565b91505092915050565b600060208284031215614cfe57600080fd5b6000614d0c8482850161480a565b91505092915050565b614d1e816159bf565b82525050565b614d2d8161592b565b82525050565b614d3c81615919565b82525050565b614d4b8161593d565b82525050565b614d5a81615949565b82525050565b6000614d6b826157b6565b614d7581856157cc565b9350614d85818560208601615a3a565b614d8e81615bbb565b840191505092915050565b614da2816159d1565b82525050565b614db1816159e3565b82525050565b614dc0816159f5565b82525050565b6000614dd1826157c1565b614ddb81856157e8565b9350614deb818560208601615a3a565b614df481615bbb565b840191505092915050565b6000614e0a826157c1565b614e1481856157f9565b9350614e24818560208601615a3a565b80840191505092915050565b6000614e3d6017836157e8565b9150614e4882615bcc565b602082019050919050565b6000614e60601c836157e8565b9150614e6b82615bf5565b602082019050919050565b6000614e836034836157e8565b9150614e8e82615c1e565b604082019050919050565b6000614ea66017836157e8565b9150614eb182615c6d565b602082019050919050565b6000614ec9601a836157e8565b9150614ed482615c96565b602082019050919050565b6000614eec6012836157e8565b9150614ef782615cbf565b602082019050919050565b6000614f0f6013836157e8565b9150614f1a82615ce8565b602082019050919050565b6000614f32600c836157e8565b9150614f3d82615d11565b602082019050919050565b6000614f556011836157e8565b9150614f6082615d3a565b602082019050919050565b6000614f786010836157e8565b9150614f8382615d63565b602082019050919050565b6000614f9b6017836157e8565b9150614fa682615d8c565b602082019050919050565b6000614fbe6012836157e8565b9150614fc982615db5565b602082019050919050565b6000614fe1602e836157e8565b9150614fec82615dde565b604082019050919050565b6000615004601d836157e8565b915061500f82615e2d565b602082019050919050565b60006150276011836157e8565b915061503282615e56565b602082019050919050565b600061504a6024836157e8565b915061505582615e7f565b604082019050919050565b600061506d600e836157e8565b915061507882615ece565b602082019050919050565b60006150906000836157dd565b915061509b82615ef7565b600082019050919050565b60006150b3601c836157e8565b91506150be82615efa565b602082019050919050565b60006150d66025836157e8565b91506150e182615f23565b604082019050919050565b60006150f9602b836157e8565b915061510482615f72565b604082019050919050565b600061511c600f836157e8565b915061512782615fc1565b602082019050919050565b600061513f601d836157e8565b915061514a82615fea565b602082019050919050565b60006151626027836157e8565b915061516d82616013565b604082019050919050565b60006151856014836157e8565b915061519082616062565b602082019050919050565b60006151a86019836157e8565b91506151b38261608b565b602082019050919050565b6151c7816159a8565b82525050565b60006151d98285614dff565b91506151e58284614dff565b91508190509392505050565b60006151fc82615083565b9150819050919050565b600060208201905061521b6000830184614d33565b92915050565b60006020820190506152366000830184614d24565b92915050565b60006060820190506152516000830186614d33565b61525e6020830185614d15565b61526b60408301846151be565b949350505050565b60006060820190506152886000830186614d33565b6152956020830185614d33565b6152a260408301846151be565b949350505050565b60006080820190506152bf6000830187614d33565b6152cc6020830186614d33565b6152d960408301856151be565b81810360608301526152eb8184614d60565b905095945050505050565b600060408201905061530b6000830185614d33565b61531860208301846151be565b9392505050565b60006020820190506153346000830184614d42565b92915050565b600060208201905061534f6000830184614d51565b92915050565b600060208201905061536a6000830184614d99565b92915050565b60006020820190506153856000830184614da8565b92915050565b60006020820190506153a06000830184614db7565b92915050565b600060208201905081810360008301526153c08184614dc6565b905092915050565b600060208201905081810360008301526153e181614e30565b9050919050565b6000602082019050818103600083015261540181614e53565b9050919050565b6000602082019050818103600083015261542181614e76565b9050919050565b6000602082019050818103600083015261544181614e99565b9050919050565b6000602082019050818103600083015261546181614ebc565b9050919050565b6000602082019050818103600083015261548181614edf565b9050919050565b600060208201905081810360008301526154a181614f02565b9050919050565b600060208201905081810360008301526154c181614f25565b9050919050565b600060208201905081810360008301526154e181614f48565b9050919050565b6000602082019050818103600083015261550181614f6b565b9050919050565b6000602082019050818103600083015261552181614f8e565b9050919050565b6000602082019050818103600083015261554181614fb1565b9050919050565b6000602082019050818103600083015261556181614fd4565b9050919050565b6000602082019050818103600083015261558181614ff7565b9050919050565b600060208201905081810360008301526155a18161501a565b9050919050565b600060208201905081810360008301526155c18161503d565b9050919050565b600060208201905081810360008301526155e181615060565b9050919050565b60006020820190508181036000830152615601816150a6565b9050919050565b60006020820190508181036000830152615621816150c9565b9050919050565b60006020820190508181036000830152615641816150ec565b9050919050565b600060208201905081810360008301526156618161510f565b9050919050565b6000602082019050818103600083015261568181615132565b9050919050565b600060208201905081810360008301526156a181615155565b9050919050565b600060208201905081810360008301526156c181615178565b9050919050565b600060208201905081810360008301526156e18161519b565b9050919050565b60006020820190506156fd60008301846151be565b92915050565b600061570d61571e565b90506157198282615a9f565b919050565b6000604051905090565b600067ffffffffffffffff82111561574357615742615b8c565b5b602082029050602081019050919050565b600067ffffffffffffffff82111561576f5761576e615b8c565b5b61577882615bbb565b9050602081019050919050565b600067ffffffffffffffff8211156157a05761579f615b8c565b5b6157a982615bbb565b9050602081019050919050565b600081519050919050565b600081519050919050565b600082825260208201905092915050565b600081905092915050565b600082825260208201905092915050565b600081905092915050565b600061580f826159a8565b915061581a836159a8565b9250827fffffffffffffffffffffffffffffffffffffffffffffffffffffffffffffffff0382111561584f5761584e615ad0565b5b828201905092915050565b6000615865826159a8565b9150615870836159a8565b9250826158805761587f615aff565b5b828204905092915050565b6000615896826159a8565b91506158a1836159a8565b9250817fffffffffffffffffffffffffffffffffffffffffffffffffffffffffffffffff04831182151516156158da576158d9615ad0565b5b828202905092915050565b60006158f0826159a8565b91506158fb836159a8565b92508282101561590e5761590d615ad0565b5b828203905092915050565b600061592482615988565b9050919050565b600061593682615988565b9050919050565b60008115159050919050565b60007fffffffff0000000000000000000000000000000000000000000000000000000082169050919050565b6000819050615983826160b4565b919050565b600073ffffffffffffffffffffffffffffffffffffffff82169050919050565b6000819050919050565b600060ff82169050919050565b60006159ca82615a07565b9050919050565b60006159dc82615975565b9050919050565b60006159ee826159a8565b9050919050565b6000615a00826159b2565b9050919050565b6000615a1282615a19565b9050919050565b6000615a2482615988565b9050919050565b82818337600083830152505050565b60005b83811015615a58578082015181840152602081019050615a3d565b83811115615a67576000848401525b50505050565b60006002820490506001821680615a8557607f821691505b60208210811415615a9957615a98615b5d565b5b50919050565b615aa882615bbb565b810181811067ffffffffffffffff82111715615ac757615ac6615b8c565b5b80604052505050565b7f4e487b7100000000000000000000000000000000000000000000000000000000600052601160045260246000fd5b7f4e487b7100000000000000000000000000000000000000000000000000000000600052601260045260246000fd5b7f4e487b7100000000000000000000000000000000000000000000000000000000600052602160045260246000fd5b7f4e487b7100000000000000000000000000000000000000000000000000000000600052602260045260246000fd5b7f4e487b7100000000000000000000000000000000000000000000000000000000600052604160045260246000fd5b6000601f19601f8301169050919050565b7f73746172743a6e6f2061756374696f6e20737461727473000000000000000000600082015250565b7f7570646174653a7265736572766520707269636520746f6f206c6f7700000000600082015250565b7f455243373231415f5f496e697469616c697a61626c653a20636f6e747261637460008201527f206973206e6f7420696e697469616c697a696e67000000000000000000000000602082015250565b7f6269643a61756374696f6e206973206e6f74206c697665000000000000000000600082015250565b7f636173683a6e6f20746f6b656e7320746f2063617368206f7574000000000000600082015250565b7f7570646174653a63616e27742072616973650000000000000000000000000000600082015250565b7f72656465656d3a6e6f2072656465656d696e6700000000000000000000000000600082015250565b7f6b69636b3a6e6f7420676f760000000000000000000000000000000000000000600082015250565b7f73746172743a746f6f206c6f7720626964000000000000000000000000000000600082015250565b7f656e643a61756374696f6e206c69766500000000000000000000000000000000600082015250565b7f73746172743a6e6f7420656e6f75676820766f74657273000000000000000000600082015250565b7f7570646174653a6e6f742063757261746f720000000000000000000000000000600082015250565b7f496e697469616c697a61626c653a20636f6e747261637420697320616c72656160008201527f647920696e697469616c697a6564000000000000000000000000000000000000602082015250565b7f7570646174653a696e76616c69642061756374696f6e206c656e677468000000600082015250565b7f6269643a61756374696f6e20656e646564000000000000000000000000000000600082015250565b7f7570646174653a63616e6e6f7420696e6372656173652066656520746869732060008201527f6869676800000000000000000000000000000000000000000000000000000000602082015250565b7f72656d6f76653a6e6f7420676f76000000000000000000000000000000000000600082015250565b50565b7f656e643a7661756c742068617320616c726561647920636c6f73656400000000600082015250565b7f636c61696d3a63616e6e6f7420636c61696d2061667465722061756374696f6e60008201527f20656e6473000000000000000000000000000000000000000000000000000000602082015250565b7f496e697469616c697a61626c653a20636f6e7472616374206973206e6f74206960008201527f6e697469616c697a696e67000000000000000000000000000000000000000000602082015250565b7f6269643a746f6f206c6f77206269640000000000000000000000000000000000600082015250565b7f7570646174653a7265736572766520707269636520746f6f2068696768000000600082015250565b7f7570646174653a61756374696f6e206c6976652063616e6e6f7420757064617460008201527f6520707269636500000000000000000000000000000000000000000000000000602082015250565b7f7570646174653a6e6f7420616e20757064617465000000000000000000000000600082015250565b7f636173683a7661756c74206e6f7420636c6f7365642079657400000000000000600082015250565b600481106160c5576160c4615b2e565b5b50565b6160d181615919565b81146160dc57600080fd5b50565b6160e88161592b565b81146160f357600080fd5b50565b6160ff8161593d565b811461610a57600080fd5b50565b61611681615949565b811461612157600080fd5b50565b61612d816159a8565b811461613857600080fd5b5056fea2646970667358221220095c7316d187b437de4170b9da1c620b90e2569e9cc2ad8a3ed3a0ac7a29922664736f6c63430008040033",
  "immutableReferences": {
    "371": [
      {
        "length": 32,
        "start": 3794
      },
      {
        "length": 32,
        "start": 5241
      },
      {
        "length": 32,
        "start": 5720
      },
      {
        "length": 32,
        "start": 5890
      },
      {
        "length": 32,
        "start": 7446
      },
      {
        "length": 32,
        "start": 7701
      },
      {
        "length": 32,
        "start": 8153
      },
      {
        "length": 32,
        "start": 8408
      },
      {
        "length": 32,
        "start": 9094
      },
      {
        "length": 32,
        "start": 10168
      },
      {
        "length": 32,
        "start": 12324
      },
      {
        "length": 32,
        "start": 13268
      },
      {
        "length": 32,
        "start": 16097
      },
      {
        "length": 32,
        "start": 16261
      }
    ]
  },
  "source": "// SPDX-License-Identifier: MIT\r\npragma solidity >=0.4.22 <0.9.0;\r\nimport \"@openzeppelin/contracts-upgradeable/token/ERC721/ERC721Upgradeable.sol\";\r\nimport \"@openzeppelin/contracts-upgradeable/token/ERC721/utils/ERC721HolderUpgradeable.sol\";\r\nimport \"@openzeppelin/contracts-upgradeable/token/ERC1155/utils/ERC1155HolderUpgradeable.sol\";\r\nimport \"erc721a-upgradeable/contracts/ERC721AUpgradeable.sol\";\r\nimport \"./ILaunchSettings.sol\";\r\nimport \"@openzeppelin/contracts/interfaces/IERC721.sol\";\r\nimport \"./IWETH.sol\";\r\nimport \"@openzeppelin/contracts/access/Ownable.sol\";\r\ncontract LaunchNft is ERC721AUpgradeable, \r\n                      ERC721HolderUpgradeable,\r\n                      ERC1155HolderUpgradeable \r\n                      {\r\n\r\n    using AddressUpgradeable for address;\r\n\r\n    address public constant weth = 0xC02aaA39b223FE8D0A0e5C4F27eAD9083C756Cc2;\r\n\r\n    address public nft;\r\n\r\n    uint256 public nftId;\r\n\r\n    function supportsInterface(bytes4 interfaceId) public view virtual override(ERC721AUpgradeable,ERC1155ReceiverUpgradeable) returns (bool) {\r\n        return super.supportsInterface(interfaceId);\r\n    }\r\n\r\n    \r\n    uint256 public auctionEnd;\r\n    uint256 public auctionLength;\r\n    uint256 public reserveTotal;\r\n    uint256 public livePrice;\r\n    address payable public winning;\r\n    enum State {\r\n        inactive,\r\n        live,\r\n        ended,\r\n        redeemed\r\n    }\r\n    State public auctionState;\r\n\r\n    address public immutable launchSetting;\r\n\r\n    address public curator;\r\n    uint256 public fee;\r\n    uint256 public lastClaimed;\r\n    bool public vaultClosed;\r\n    uint256 public votingTokens;\r\n    mapping(address => uint256) public userPrices;\r\n\r\n    event PriceUpdate(address indexed user, uint256 price);\r\n    event Start(address indexed buyer, uint256 price);\r\n    event Bid(address indexed buyer, uint256 price);\r\n\r\n    event Won(address indexed buyer, uint256 price);\r\n    event Redeem(address indexed redeemer);\r\n    event Cash(address indexed owner, uint256 shares);\r\n\r\n    event UpdateAuctionLength(uint256 length);\r\n\r\n    event UpdateCuratorFee(uint256 fee);\r\n\r\n    event FeeClaimed(uint256 fee);\r\n\r\n    constructor(address _launchSetting) {\r\n        launchSetting = _launchSetting;\r\n    }\r\n\r\nfunction initialize(\r\n        address _curator,\r\n        address _nft,\r\n        uint256 _nftId,\r\n        uint256 _supply,\r\n        uint256 _priceOfNft,\r\n        uint256 _platformFee,\r\n        string memory _name,\r\n        string memory _symbol\r\n    ) external initializer {\r\n        __ERC721A_init(_name, _symbol);\r\n        __ERC721Holder_init();\r\n        __ERC1155Holder_init();\r\n        nft = _nft;\r\n        nftId = _nftId;\r\n        auctionLength = 3 days;\r\n        curator = _curator;\r\n        fee = _platformFee;\r\n        lastClaimed = block.timestamp;\r\n        auctionState = State.inactive;\r\n        userPrices[_curator] = _priceOfNft;\r\n\r\n        _mint(_curator, _supply);\r\n    }\r\n\r\n      function reservePrice() public view returns (uint256) {\r\n        return votingTokens == 0 ? 0 : reserveTotal / votingTokens;\r\n    }\r\n\r\n    function kickCurator(address _curator) external {\r\n        require(msg.sender == Ownable(launchSetting).owner(), \"kick:not gov\");\r\n\r\n        curator = _curator;\r\n    }\r\n\r\n    function removeReserve(address _user) external {\r\n        require(msg.sender == Ownable(launchSetting).owner(), \"remove:not gov\");\r\n        require(\r\n            auctionState == State.inactive,\r\n            \"update:auction live cannot update price\"\r\n        );\r\n\r\n        uint256 old = userPrices[_user];\r\n        require(0 != old, \"update:not an update\");\r\n        uint256 weight = balanceOf(_user);\r\n\r\n        votingTokens -= weight;\r\n        reserveTotal -= weight * old;\r\n\r\n        userPrices[_user] = 0;\r\n\r\n        emit PriceUpdate(_user, 0);\r\n    }\r\n\r\n    function updateCurator(address _curator) external {\r\n        require(msg.sender == curator, \"update:not curator\");\r\n\r\n        curator = _curator;\r\n    }\r\n\r\n    function updateAuctionLength(uint256 _length) external {\r\n        require(msg.sender == curator, \"update:not curator\");\r\n        require(\r\n            _length >= ILaunchSettings(launchSetting).minAuctionLength() &&\r\n                _length <= ILaunchSettings(launchSetting).maxAuctionLength(),\r\n            \"update:invalid auction length\"\r\n        );\r\n\r\n        auctionLength = _length;\r\n        emit UpdateAuctionLength(_length);\r\n    }\r\n\r\n    function updateFee(uint256 _fee) external {\r\n        require(msg.sender == curator, \"update:not curator\");\r\n        require(_fee < fee, \"update:can't raise\");\r\n        require(\r\n            _fee <= ILaunchSettings(launchSetting).maxCuratorFee(),\r\n            \"update:cannot increase fee this high\"\r\n        );\r\n\r\n        _claimFees();\r\n\r\n        fee = _fee;\r\n        emit UpdateCuratorFee(fee);\r\n    }\r\n\r\n    function claimFees() external {\r\n        _claimFees();\r\n    }\r\n\r\n    function _claimFees() internal {\r\n        require(\r\n            auctionState != State.ended,\r\n            \"claim:cannot claim after auction ends\"\r\n        );\r\n\r\n        // get how much in fees the curator would make in a year\r\n        uint256 currentAnnualFee = (fee * totalSupply()) / 1000;\r\n        // get how much that is per second;\r\n        uint256 feePerSecond = currentAnnualFee / 31536000;\r\n        // get how many seconds they are eligible to claim\r\n        uint256 sinceLastClaim = block.timestamp - lastClaimed;\r\n        // get the amount of tokens to mint\r\n        uint256 curatorMint = sinceLastClaim * feePerSecond;\r\n\r\n        // now lets do the same for governance\r\n        address govAddress = ILaunchSettings(launchSetting).feeReceiver();\r\n        uint256 govFee = ILaunchSettings(launchSetting).governanceFee();\r\n        currentAnnualFee = (govFee * totalSupply()) / 1000;\r\n        feePerSecond = currentAnnualFee / 31536000;\r\n        uint256 govMint = sinceLastClaim * feePerSecond;\r\n\r\n        lastClaimed = block.timestamp;\r\n\r\n        if (curator != address(0)) {\r\n            _mint(curator, curatorMint);\r\n            emit FeeClaimed(curatorMint);\r\n        }\r\n        if (govAddress != address(0)) {\r\n            _mint(govAddress, govMint);\r\n            emit FeeClaimed(govMint);\r\n        }\r\n    }\r\n\r\n    function updateUserPrice(uint256 _new) external {\r\n        require(\r\n            auctionState == State.inactive,\r\n            \"update:auction live cannot update price\"\r\n        );\r\n        uint256 old = userPrices[msg.sender];\r\n        require(_new != old, \"update:not an update\");\r\n        uint256 weight = balanceOf(msg.sender);\r\n\r\n        if (votingTokens == 0) {\r\n            votingTokens = weight;\r\n            reserveTotal = weight * _new;\r\n        }\r\n        // they are the only one voting\r\n        else if (weight == votingTokens && old != 0) {\r\n            reserveTotal = weight * _new;\r\n        }\r\n        // previously they were not voting\r\n        else if (old == 0) {\r\n            uint256 averageReserve = reserveTotal / votingTokens;\r\n\r\n            uint256 reservePriceMin = (averageReserve *\r\n                ILaunchSettings(launchSetting).minReserveFactor()) / 1000;\r\n            require(_new >= reservePriceMin, \"update:reserve price too low\");\r\n            uint256 reservePriceMax = (averageReserve *\r\n                ILaunchSettings(launchSetting).maxReserveFactor()) / 1000;\r\n            require(_new <= reservePriceMax, \"update:reserve price too high\");\r\n\r\n            votingTokens += weight;\r\n            reserveTotal += weight * _new;\r\n        }\r\n        // they no longer want to vote\r\n        else if (_new == 0) {\r\n            votingTokens -= weight;\r\n            reserveTotal -= weight * old;\r\n        }\r\n        // they are updating their vote\r\n        else {\r\n            uint256 averageReserve = (reserveTotal - (old * weight)) /\r\n                (votingTokens - weight);\r\n\r\n            uint256 reservePriceMin = (averageReserve *\r\n                ILaunchSettings(launchSetting).minReserveFactor()) / 1000;\r\n            require(_new >= reservePriceMin, \"update:reserve price too low\");\r\n            uint256 reservePriceMax = (averageReserve *\r\n                ILaunchSettings(launchSetting).maxReserveFactor()) / 1000;\r\n            require(_new <= reservePriceMax, \"update:reserve price too high\");\r\n\r\n            reserveTotal = reserveTotal + (weight * _new) - (weight * old);\r\n        }\r\n\r\n        userPrices[msg.sender] = _new;\r\n\r\n        emit PriceUpdate(msg.sender, _new);\r\n    }\r\n\r\n    function _beforeTokenTransfer(\r\n        address _from,\r\n        address _to,\r\n        uint256 _amount\r\n    ) internal virtual {\r\n        if (auctionState == State.inactive) {\r\n            uint256 fromPrice = userPrices[_from];\r\n            uint256 toPrice = userPrices[_to];\r\n\r\n            // only do something if users have different reserve price\r\n            if (toPrice != fromPrice) {\r\n                // new holder is not a voter\r\n                if (toPrice == 0) {\r\n                    // get the average reserve price ignoring the senders amount\r\n                    votingTokens -= _amount;\r\n                    reserveTotal -= _amount * fromPrice;\r\n                }\r\n                // old holder is not a voter\r\n                else if (fromPrice == 0) {\r\n                    votingTokens += _amount;\r\n                    reserveTotal += _amount * toPrice;\r\n                }\r\n                // both holders are voters\r\n                else {\r\n                    reserveTotal =\r\n                        reserveTotal +\r\n                        (_amount * toPrice) -\r\n                        (_amount * fromPrice);\r\n                }\r\n            }\r\n        }\r\n    }\r\n\r\n    function start() external payable {\r\n        require(auctionState == State.inactive, \"start:no auction starts\");\r\n        require(msg.value >= reservePrice(), \"start:too low bid\");\r\n        require(\r\n            votingTokens * 1000 >=\r\n                ILaunchSettings(launchSetting).minVotePercentage() *\r\n                    totalSupply(),\r\n            \"start:not enough voters\"\r\n        );\r\n\r\n        auctionEnd = block.timestamp + auctionLength;\r\n        auctionState = State.live;\r\n\r\n        livePrice = msg.value;\r\n        winning = payable(msg.sender);\r\n\r\n        emit Start(msg.sender, msg.value);\r\n    }\r\n\r\n    function bid() external payable {\r\n        require(auctionState == State.live, \"bid:auction is not live\");\r\n        uint256 increase = ILaunchSettings(launchSetting).minBidIncrease() +\r\n            1000;\r\n        require(msg.value * 1000 >= livePrice * increase, \"bid:too low bid\");\r\n        require(block.timestamp < auctionEnd, \"bid:auction ended\");\r\n\r\n        // If bid is within 15 minutes of auction end, extend auction\r\n        if (auctionEnd - block.timestamp <= 15 minutes) {\r\n            auctionEnd += 15 minutes;\r\n        }\r\n\r\n        _sendETHOrWETH(winning, livePrice);\r\n\r\n        livePrice = msg.value;\r\n        winning = payable(msg.sender);\r\n\r\n        emit Bid(msg.sender, msg.value);\r\n    }\r\n\r\n    function end() external {\r\n        require(auctionState == State.live, \"end:vault has already closed\");\r\n        require(block.timestamp >= auctionEnd, \"end:auction live\");\r\n\r\n        _claimFees();\r\n\r\n        // transfer erc721 to winner\r\n        IERC721(nft).transferFrom(address(this), winning, nftId);\r\n\r\n        auctionState = State.ended;\r\n\r\n        emit Won(winning, livePrice);\r\n    }\r\n\r\n    function redeem() external {\r\n        require(auctionState == State.inactive, \"redeem:no redeeming\");\r\n        // TODO\r\n        //_burn(msg.sender, totalSupply());\r\n\r\n        // transfer erc721 to redeemer\r\n        IERC721(nft).transferFrom(address(this), msg.sender, nftId);\r\n\r\n        auctionState = State.redeemed;\r\n\r\n        emit Redeem(msg.sender);\r\n    }\r\n\r\n    function cash() external {\r\n        require(auctionState == State.ended, \"cash:vault not closed yet\");\r\n        uint256 bal = balanceOf(msg.sender);\r\n        require(bal > 0, \"cash:no tokens to cash out\");\r\n        uint256 share = (bal * address(this).balance) / totalSupply();\r\n        // TODO\r\n    //    _burn(msg.sender, bal);\r\n\r\n        _sendETHOrWETH(payable(msg.sender), share);\r\n\r\n        emit Cash(msg.sender, share);\r\n    }\r\n\r\n    function _sendETHOrWETH(address to, uint256 value) internal {\r\n        // Try to transfer ETH to the given recipient.\r\n        if (!_attemptETHTransfer(to, value)) {\r\n            // If the transfer fails, wrap and send as WETH, so that\r\n            // the auction is not impeded and the recipient still\r\n            // can claim ETH via the WETH contract (similar to escrow).\r\n            IWETH(weth).deposit{value: value}();\r\n            IWETH(weth).transfer(to, value);\r\n            // At this point, the recipient can unwrap WETH.\r\n        }\r\n    }\r\n\r\n    function _attemptETHTransfer(address to, uint256 value)\r\n        internal\r\n        returns (bool)\r\n    {\r\n        // Here increase the gas limit a reasonable amount above the default, and try\r\n        // to send ETH to the recipient.\r\n        // NOTE: This might allow the recipient to attempt a limited reentrancy attack.\r\n        (bool success, ) = to.call{value: value, gas: 30000}(\"\");\r\n        return success;\r\n    }\r\n\r\n}",
  "sourcePath": "D:/Repo/NFT-Launch/smart-contracts/contracts/LaunchNft.sol",
  "compiler": {
    "name": "solc",
    "version": "0.8.4+commit.c7e474f2.Emscripten.clang"
  },
  "schemaVersion": "3.4.0",
  "updatedAt": "2022-07-11T09:51:37.588Z",
  "devdoc": {
    "kind": "dev",
    "methods": {
      "approve(address,uint256)": {
        "details": "See {IERC721-approve}."
      },
      "balanceOf(address)": {
        "details": "See {IERC721-balanceOf}."
      },
      "getApproved(uint256)": {
        "details": "See {IERC721-getApproved}."
      },
      "isApprovedForAll(address,address)": {
        "details": "See {IERC721-isApprovedForAll}."
      },
      "name()": {
        "details": "See {IERC721Metadata-name}."
      },
      "onERC721Received(address,address,uint256,bytes)": {
        "details": "See {IERC721Receiver-onERC721Received}. Always returns `IERC721Receiver.onERC721Received.selector`."
      },
      "ownerOf(uint256)": {
        "details": "See {IERC721-ownerOf}."
      },
      "safeTransferFrom(address,address,uint256)": {
        "details": "See {IERC721-safeTransferFrom}."
      },
      "safeTransferFrom(address,address,uint256,bytes)": {
        "details": "See {IERC721-safeTransferFrom}."
      },
      "setApprovalForAll(address,bool)": {
        "details": "See {IERC721-setApprovalForAll}."
      },
      "symbol()": {
        "details": "See {IERC721Metadata-symbol}."
      },
      "tokenURI(uint256)": {
        "details": "See {IERC721Metadata-tokenURI}."
      },
      "totalSupply()": {
        "details": "Returns the total number of tokens in existence. Burned tokens will reduce the count. To get the total number of tokens minted, please see `_totalMinted`."
      },
      "transferFrom(address,address,uint256)": {
        "details": "Transfers `tokenId` from `from` to `to`. Requirements: - `to` cannot be the zero address. - `tokenId` token must be owned by `from`. Emits a {Transfer} event."
      }
    },
    "version": 1
  },
  "userdoc": {
    "errors": {
      "ApprovalCallerNotOwnerNorApproved()": [
        {
          "notice": "The caller must own the token or be an approved operator."
        }
      ],
      "ApprovalQueryForNonexistentToken()": [
        {
          "notice": "The token does not exist."
        }
      ],
      "ApproveToCaller()": [
        {
          "notice": "The caller cannot approve to their own address."
        }
      ],
      "BalanceQueryForZeroAddress()": [
        {
          "notice": "Cannot query the balance for the zero address."
        }
      ],
      "MintERC2309QuantityExceedsLimit()": [
        {
          "notice": "The `quantity` minted with ERC2309 exceeds the safety limit."
        }
      ],
      "MintToZeroAddress()": [
        {
          "notice": "Cannot mint to the zero address."
        }
      ],
      "MintZeroQuantity()": [
        {
          "notice": "The quantity of tokens minted must be more than zero."
        }
      ],
      "OwnerQueryForNonexistentToken()": [
        {
          "notice": "The token does not exist."
        }
      ],
      "OwnershipNotInitializedForExtraData()": [
        {
          "notice": "The `extraData` cannot be set on an unintialized ownership slot."
        }
      ],
      "TransferCallerNotOwnerNorApproved()": [
        {
          "notice": "The caller must own the token or be an approved operator."
        }
      ],
      "TransferFromIncorrectOwner()": [
        {
          "notice": "The token must be owned by `from`."
        }
      ],
      "TransferToNonERC721ReceiverImplementer()": [
        {
          "notice": "Cannot safely transfer to a contract that does not implement the ERC721Receiver interface."
        }
      ],
      "TransferToZeroAddress()": [
        {
          "notice": "Cannot transfer to the zero address."
        }
      ],
      "URIQueryForNonexistentToken()": [
        {
          "notice": "The token does not exist."
        }
      ]
    },
    "kind": "user",
    "methods": {},
    "version": 1
  }
}