{
  "contractName": "LaunchInitProxy",
  "abi": [
    {
      "inputs": [
        {
          "internalType": "address",
          "name": "_logic",
          "type": "address"
        },
        {
          "internalType": "bytes",
          "name": "_initData",
          "type": "bytes"
        }
      ],
      "stateMutability": "nonpayable",
      "type": "constructor"
    },
    {
      "stateMutability": "payable",
      "type": "fallback"
    },
    {
      "inputs": [],
      "name": "logic",
      "outputs": [
        {
          "internalType": "address",
          "name": "",
          "type": "address"
        }
      ],
      "stateMutability": "view",
      "type": "function"
    },
    {
      "stateMutability": "payable",
      "type": "receive"
    }
  ],
  "bytecode": "0x60a060405234801561001057600080fd5b50604051610585380380610585833981810160405281019061003291906101a0565b8173ffffffffffffffffffffffffffffffffffffffff1660808173ffffffffffffffffffffffffffffffffffffffff1660601b815250506000808373ffffffffffffffffffffffffffffffffffffffff1683604051610091919061025e565b600060405180830381855af49150503d80600081146100cc576040519150601f19603f3d011682016040523d82523d6000602084013e6100d1565b606091505b5091509150818190610119576040517f08c379a00000000000000000000000000000000000000000000000000000000081526004016101109190610275565b60405180910390fd5b505050505061040c565b6000610136610131846102bc565b610297565b90508281526020810184848401111561014e57600080fd5b610159848285610351565b509392505050565b600081519050610170816103f5565b92915050565b600082601f83011261018757600080fd5b8151610197848260208601610123565b91505092915050565b600080604083850312156101b357600080fd5b60006101c185828601610161565b925050602083015167ffffffffffffffff8111156101de57600080fd5b6101ea85828601610176565b9150509250929050565b60006101ff826102ed565b6102098185610303565b9350610219818560208601610351565b80840191505092915050565b6000610230826102f8565b61023a818561030e565b935061024a818560208601610351565b610253816103e4565b840191505092915050565b600061026a82846101f4565b915081905092915050565b6000602082019050818103600083015261028f8184610225565b905092915050565b60006102a16102b2565b90506102ad8282610384565b919050565b6000604051905090565b600067ffffffffffffffff8211156102d7576102d66103b5565b5b6102e0826103e4565b9050602081019050919050565b600081519050919050565b600081519050919050565b600081905092915050565b600082825260208201905092915050565b600061032a82610331565b9050919050565b600073ffffffffffffffffffffffffffffffffffffffff82169050919050565b60005b8381101561036f578082015181840152602081019050610354565b8381111561037e576000848401525b50505050565b61038d826103e4565b810181811067ffffffffffffffff821117156103ac576103ab6103b5565b5b80604052505050565b7f4e487b7100000000000000000000000000000000000000000000000000000000600052604160045260246000fd5b6000601f19601f8301169050919050565b6103fe8161031f565b811461040957600080fd5b50565b60805160601c61015661042f60003960008181602d015260a201526101566000f3fe6080604052600436106100225760003560e01c8063d7dfa0dd1461007557610029565b3661002957005b60007f0000000000000000000000000000000000000000000000000000000000000000905060405136600082376000803683855af43d806000843e8160008114610071578184f35b8184fd5b34801561008157600080fd5b5061008a6100a0565b60405161009791906100d3565b60405180910390f35b7f000000000000000000000000000000000000000000000000000000000000000081565b6100cd816100ee565b82525050565b60006020820190506100e860008301846100c4565b92915050565b60006100f982610100565b9050919050565b600073ffffffffffffffffffffffffffffffffffffffff8216905091905056fea2646970667358221220440a768e0201a39a0ed6084aaaa6e5a4d7ff53f557c3e913f690286e6714124564736f6c63430008040033",
  "immutableReferences": {
    "98": [
      {
        "length": 32,
        "start": 45
      },
      {
        "length": 32,
        "start": 162
      }
    ]
  },
  "source": "// SPDX-License-Identifier: MIT\r\npragma solidity >=0.4.22 <0.9.0;\r\n\r\ncontract LaunchInitProxy {\r\n    address public immutable logic;\r\n\r\n    constructor(address _logic, bytes memory _initData) {\r\n        logic = _logic;\r\n        (bool _ok, bytes memory returnData) = _logic.delegatecall(\r\n            _initData\r\n        );\r\n        require(_ok, string(returnData));\r\n    }\r\n\r\n     fallback() external payable {\r\n        address _impl = logic;\r\n        assembly {\r\n            let ptr := mload(0x40)\r\n            calldatacopy(ptr, 0, calldatasize())\r\n            let result := delegatecall(gas(), _impl, ptr, calldatasize(), 0, 0)\r\n            let size := returndatasize()\r\n            returndatacopy(ptr, 0, size)\r\n\r\n            switch result\r\n                case 0 {\r\n                    revert(ptr, size)\r\n                }\r\n                default {\r\n                    return(ptr, size)\r\n                }\r\n        }\r\n    }\r\n\r\n     receive() external payable {}\r\n}\r\n",
  "sourcePath": "D:/Repo/NFT-Launch/smart-contracts/contracts/LaunchInitProxy.sol",
  "compiler": {
    "name": "solc",
    "version": "0.8.4+commit.c7e474f2.Emscripten.clang"
  },
  "schemaVersion": "3.4.0",
  "updatedAt": "2022-07-11T09:51:57.080Z",
  "devdoc": {
    "kind": "dev",
    "methods": {},
    "version": 1
  },
  "userdoc": {
    "kind": "user",
    "methods": {},
    "version": 1
  }
}