{
  "contractName": "LaunchSettings",
  "abi": [
    {
      "inputs": [],
      "stateMutability": "nonpayable",
      "type": "constructor"
    },
    {
      "anonymous": false,
      "inputs": [
        {
          "indexed": true,
          "internalType": "address",
          "name": "previousOwner",
          "type": "address"
        },
        {
          "indexed": true,
          "internalType": "address",
          "name": "newOwner",
          "type": "address"
        }
      ],
      "name": "OwnershipTransferred",
      "type": "event"
    },
    {
      "anonymous": false,
      "inputs": [
        {
          "indexed": false,
          "internalType": "uint256",
          "name": "_old",
          "type": "uint256"
        },
        {
          "indexed": false,
          "internalType": "uint256",
          "name": "_new",
          "type": "uint256"
        }
      ],
      "name": "UpdateCuratorFee",
      "type": "event"
    },
    {
      "anonymous": false,
      "inputs": [
        {
          "indexed": false,
          "internalType": "address",
          "name": "_old",
          "type": "address"
        },
        {
          "indexed": false,
          "internalType": "address",
          "name": "_new",
          "type": "address"
        }
      ],
      "name": "UpdateFeeReceiver",
      "type": "event"
    },
    {
      "anonymous": false,
      "inputs": [
        {
          "indexed": false,
          "internalType": "uint256",
          "name": "_old",
          "type": "uint256"
        },
        {
          "indexed": false,
          "internalType": "uint256",
          "name": "_new",
          "type": "uint256"
        }
      ],
      "name": "UpdateGovernanceFee",
      "type": "event"
    },
    {
      "anonymous": false,
      "inputs": [
        {
          "indexed": false,
          "internalType": "uint256",
          "name": "_old",
          "type": "uint256"
        },
        {
          "indexed": false,
          "internalType": "uint256",
          "name": "_new",
          "type": "uint256"
        }
      ],
      "name": "UpdateMaxAuctionLength",
      "type": "event"
    },
    {
      "anonymous": false,
      "inputs": [
        {
          "indexed": false,
          "internalType": "uint256",
          "name": "_old",
          "type": "uint256"
        },
        {
          "indexed": false,
          "internalType": "uint256",
          "name": "_new",
          "type": "uint256"
        }
      ],
      "name": "UpdateMaxReserveFactor",
      "type": "event"
    },
    {
      "anonymous": false,
      "inputs": [
        {
          "indexed": false,
          "internalType": "uint256",
          "name": "_old",
          "type": "uint256"
        },
        {
          "indexed": false,
          "internalType": "uint256",
          "name": "_new",
          "type": "uint256"
        }
      ],
      "name": "UpdateMinAuctionLength",
      "type": "event"
    },
    {
      "anonymous": false,
      "inputs": [
        {
          "indexed": false,
          "internalType": "uint256",
          "name": "_old",
          "type": "uint256"
        },
        {
          "indexed": false,
          "internalType": "uint256",
          "name": "_new",
          "type": "uint256"
        }
      ],
      "name": "UpdateMinBidIncrease",
      "type": "event"
    },
    {
      "anonymous": false,
      "inputs": [
        {
          "indexed": false,
          "internalType": "uint256",
          "name": "_old",
          "type": "uint256"
        },
        {
          "indexed": false,
          "internalType": "uint256",
          "name": "_new",
          "type": "uint256"
        }
      ],
      "name": "UpdateMinReserveFactor",
      "type": "event"
    },
    {
      "anonymous": false,
      "inputs": [
        {
          "indexed": false,
          "internalType": "uint256",
          "name": "_old",
          "type": "uint256"
        },
        {
          "indexed": false,
          "internalType": "uint256",
          "name": "_new",
          "type": "uint256"
        }
      ],
      "name": "UpdateMinVotePercentage",
      "type": "event"
    },
    {
      "inputs": [],
      "name": "feeReceiver",
      "outputs": [
        {
          "internalType": "address payable",
          "name": "",
          "type": "address"
        }
      ],
      "stateMutability": "view",
      "type": "function",
      "constant": true
    },
    {
      "inputs": [],
      "name": "governanceFee",
      "outputs": [
        {
          "internalType": "uint256",
          "name": "",
          "type": "uint256"
        }
      ],
      "stateMutability": "view",
      "type": "function",
      "constant": true
    },
    {
      "inputs": [],
      "name": "maxAuctionLength",
      "outputs": [
        {
          "internalType": "uint256",
          "name": "",
          "type": "uint256"
        }
      ],
      "stateMutability": "view",
      "type": "function",
      "constant": true
    },
    {
      "inputs": [],
      "name": "maxCuratorFee",
      "outputs": [
        {
          "internalType": "uint256",
          "name": "",
          "type": "uint256"
        }
      ],
      "stateMutability": "view",
      "type": "function",
      "constant": true
    },
    {
      "inputs": [],
      "name": "maxGovFee",
      "outputs": [
        {
          "internalType": "uint256",
          "name": "",
          "type": "uint256"
        }
      ],
      "stateMutability": "view",
      "type": "function",
      "constant": true
    },
    {
      "inputs": [],
      "name": "maxMaxAuctionLength",
      "outputs": [
        {
          "internalType": "uint256",
          "name": "",
          "type": "uint256"
        }
      ],
      "stateMutability": "view",
      "type": "function",
      "constant": true
    },
    {
      "inputs": [],
      "name": "maxMinBidIncrease",
      "outputs": [
        {
          "internalType": "uint256",
          "name": "",
          "type": "uint256"
        }
      ],
      "stateMutability": "view",
      "type": "function",
      "constant": true
    },
    {
      "inputs": [],
      "name": "maxReserveFactor",
      "outputs": [
        {
          "internalType": "uint256",
          "name": "",
          "type": "uint256"
        }
      ],
      "stateMutability": "view",
      "type": "function",
      "constant": true
    },
    {
      "inputs": [],
      "name": "minAuctionLength",
      "outputs": [
        {
          "internalType": "uint256",
          "name": "",
          "type": "uint256"
        }
      ],
      "stateMutability": "view",
      "type": "function",
      "constant": true
    },
    {
      "inputs": [],
      "name": "minBidIncrease",
      "outputs": [
        {
          "internalType": "uint256",
          "name": "",
          "type": "uint256"
        }
      ],
      "stateMutability": "view",
      "type": "function",
      "constant": true
    },
    {
      "inputs": [],
      "name": "minMinAuctionLength",
      "outputs": [
        {
          "internalType": "uint256",
          "name": "",
          "type": "uint256"
        }
      ],
      "stateMutability": "view",
      "type": "function",
      "constant": true
    },
    {
      "inputs": [],
      "name": "minMinBidIncrease",
      "outputs": [
        {
          "internalType": "uint256",
          "name": "",
          "type": "uint256"
        }
      ],
      "stateMutability": "view",
      "type": "function",
      "constant": true
    },
    {
      "inputs": [],
      "name": "minReserveFactor",
      "outputs": [
        {
          "internalType": "uint256",
          "name": "",
          "type": "uint256"
        }
      ],
      "stateMutability": "view",
      "type": "function",
      "constant": true
    },
    {
      "inputs": [],
      "name": "minVotePercentage",
      "outputs": [
        {
          "internalType": "uint256",
          "name": "",
          "type": "uint256"
        }
      ],
      "stateMutability": "view",
      "type": "function",
      "constant": true
    },
    {
      "inputs": [],
      "name": "owner",
      "outputs": [
        {
          "internalType": "address",
          "name": "",
          "type": "address"
        }
      ],
      "stateMutability": "view",
      "type": "function",
      "constant": true
    },
    {
      "inputs": [],
      "name": "renounceOwnership",
      "outputs": [],
      "stateMutability": "nonpayable",
      "type": "function"
    },
    {
      "inputs": [
        {
          "internalType": "address",
          "name": "newOwner",
          "type": "address"
        }
      ],
      "name": "transferOwnership",
      "outputs": [],
      "stateMutability": "nonpayable",
      "type": "function"
    },
    {
      "inputs": [
        {
          "internalType": "uint256",
          "name": "_length",
          "type": "uint256"
        }
      ],
      "name": "setMaxAuctionLength",
      "outputs": [],
      "stateMutability": "nonpayable",
      "type": "function"
    },
    {
      "inputs": [
        {
          "internalType": "uint256",
          "name": "_length",
          "type": "uint256"
        }
      ],
      "name": "setMinAuctionLength",
      "outputs": [],
      "stateMutability": "nonpayable",
      "type": "function"
    },
    {
      "inputs": [
        {
          "internalType": "uint256",
          "name": "_fee",
          "type": "uint256"
        }
      ],
      "name": "setGovernanceFee",
      "outputs": [],
      "stateMutability": "nonpayable",
      "type": "function"
    },
    {
      "inputs": [
        {
          "internalType": "uint256",
          "name": "_fee",
          "type": "uint256"
        }
      ],
      "name": "setMaxCuratorFee",
      "outputs": [],
      "stateMutability": "nonpayable",
      "type": "function"
    },
    {
      "inputs": [
        {
          "internalType": "uint256",
          "name": "_min",
          "type": "uint256"
        }
      ],
      "name": "setMinBidIncrease",
      "outputs": [],
      "stateMutability": "nonpayable",
      "type": "function"
    },
    {
      "inputs": [
        {
          "internalType": "uint256",
          "name": "_min",
          "type": "uint256"
        }
      ],
      "name": "setMinVotePercentage",
      "outputs": [],
      "stateMutability": "nonpayable",
      "type": "function"
    },
    {
      "inputs": [
        {
          "internalType": "uint256",
          "name": "_factor",
          "type": "uint256"
        }
      ],
      "name": "setMaxReserveFactor",
      "outputs": [],
      "stateMutability": "nonpayable",
      "type": "function"
    },
    {
      "inputs": [
        {
          "internalType": "uint256",
          "name": "_factor",
          "type": "uint256"
        }
      ],
      "name": "setMinReserveFactor",
      "outputs": [],
      "stateMutability": "nonpayable",
      "type": "function"
    },
    {
      "inputs": [
        {
          "internalType": "address payable",
          "name": "_receiver",
          "type": "address"
        }
      ],
      "name": "setFeeReceiver",
      "outputs": [],
      "stateMutability": "nonpayable",
      "type": "function"
    }
  ],
  "bytecode": "0x608060405234801561001057600080fd5b5061002d6100226100b160201b60201c565b6100b960201b60201c565b621275006001819055506203f48060028190555033600960006101000a81548173ffffffffffffffffffffffffffffffffffffffff021916908373ffffffffffffffffffffffffffffffffffffffff16021790555060c8600881905550611388600781905550603260058190555060646004819055506101f460068190555061017d565b600033905090565b60008060009054906101000a900473ffffffffffffffffffffffffffffffffffffffff169050816000806101000a81548173ffffffffffffffffffffffffffffffffffffffff021916908373ffffffffffffffffffffffffffffffffffffffff1602179055508173ffffffffffffffffffffffffffffffffffffffff168173ffffffffffffffffffffffffffffffffffffffff167f8be0079c531659141344cd1fd0a4f28419497f9722a3daafe3b4186f6b6457e060405160405180910390a35050565b61156c8061018c6000396000f3fe608060405234801561001057600080fd5b506004361061018e5760003560e01c80637c513c0f116100de578063a0b335e311610097578063d213b90011610071578063d213b90014610403578063efdcd97414610421578063f2fde38b1461043d578063fcd81e32146104595761018e565b8063a0b335e3146103ab578063affdafd8146103c9578063b3f00674146103e55761018e565b80637c513c0f146102fb578063846a4dd21461031957806384810309146103375780638a364bc1146103535780638da5cb5b146103715780639665eb0f1461038f5761018e565b806332a693301161014b57806357c74c6c1161012557806357c74c6c1461029d5780636109f5b5146102b95780636fc83db3146102d5578063715018a6146102f15761018e565b806332a6933014610245578063339f87ed146102615780635410bfc91461027f5761018e565b806309990a96146101935780630e519ef9146101b15780630ea90a12146101cf57806318fee3bf146101ed5780631a58364c1461020957806332977c7314610227575b600080fd5b61019b610477565b6040516101a891906111dd565b60405180910390f35b6101b961047d565b6040516101c691906111dd565b60405180910390f35b6101d7610483565b6040516101e491906111dd565b60405180910390f35b61020760048036038101906102029190610db2565b610489565b005b61021161051a565b60405161021e91906111dd565b60405180910390f35b61022f610521565b60405161023c91906111dd565b60405180910390f35b61025f600480360381019061025a9190610db2565b610527565b005b6102696105b8565b60405161027691906111dd565b60405180910390f35b6102876105bd565b60405161029491906111dd565b60405180910390f35b6102b760048036038101906102b29190610db2565b6105c3565b005b6102d360048036038101906102ce9190610db2565b610655565b005b6102ef60048036038101906102ea9190610db2565b6106a2565b005b6102f9610779565b005b61030361078d565b60405161031091906111dd565b60405180910390f35b610321610793565b60405161032e91906111dd565b60405180910390f35b610351600480360381019061034c9190610db2565b610798565b005b61035b610829565b60405161036891906111dd565b60405180910390f35b61037961082f565b6040516103869190610fde565b60405180910390f35b6103a960048036038101906103a49190610db2565b610858565b005b6103b361092d565b6040516103c091906111dd565b60405180910390f35b6103e360048036038101906103de9190610db2565b610933565b005b6103ed610a0a565b6040516103fa9190610ff9565b60405180910390f35b61040b610a30565b60405161041891906111dd565b60405180910390f35b61043b60048036038101906104369190610d89565b610a37565b005b61045760048036038101906104529190610d60565b610b4e565b005b610461610bd2565b60405161046e91906111dd565b60405180910390f35b60085481565b60015481565b60035481565b610491610bd7565b60075481106104d5576040517f08c379a00000000000000000000000000000000000000000000000000000000081526004016104cc9061105d565b60405180910390fd5b7fa93910a1e82dcd753b639a2ff1def7bf84d6bb1bf6fe79212d0d9ae72afc6cfa600854826040516105089291906111f8565b60405180910390a18060088190555050565b6249d40081565b60065481565b61052f610bd7565b6064811115610573576040517f08c379a000000000000000000000000000000000000000000000000000000000815260040161056a9061117d565b60405180910390fd5b7f11b96af861c45de0c17127383516c92fc2a9d50eff86ea831b69e76a3fa87e2f600354826040516105a69291906111f8565b60405180910390a18060038190555050565b600a81565b60075481565b6105cb610bd7565b6103e8811115610610576040517f08c379a0000000000000000000000000000000000000000000000000000000008152600401610607906111bd565b60405180910390fd5b7ff8298d9709c2527c6ec1e2c605c5a163b44b0520bdd80335d5faba17e3f38fb8600654826040516106439291906111f8565b60405180910390a18060068190555050565b61065d610bd7565b7f283f7179cc13a8f90c3123b415b98ca8a0ca9619eed3c981db52809ab62700f9600354826040516106909291906111f8565b60405180910390a18060048190555050565b6106aa610bd7565b620151808110156106f0576040517f08c379a00000000000000000000000000000000000000000000000000000000081526004016106e79061113d565b60405180910390fd5b6001548110610734576040517f08c379a000000000000000000000000000000000000000000000000000000000815260040161072b9061115d565b60405180910390fd5b7f055017e5b2f20973817c668e2f744e7c1b68a6f20332f25bb7b9bbb2f0c7eca7600254826040516107679291906111f8565b60405180910390a18060028190555050565b610781610bd7565b61078b6000610c55565b565b60055481565b606481565b6107a0610bd7565b60085481116107e4576040517f08c379a00000000000000000000000000000000000000000000000000000000081526004016107db906110fd565b60405180910390fd5b7febec08ac4f5f91f0463f6e09a9b1729f1cbea09d240d8a1807ed6b9cd171ef19600754826040516108179291906111f8565b60405180910390a18060078190555050565b60045481565b60008060009054906101000a900473ffffffffffffffffffffffffffffffffffffffff16905090565b610860610bd7565b60648111156108a4576040517f08c379a000000000000000000000000000000000000000000000000000000000815260040161089b906110bd565b60405180910390fd5b600a8110156108e8576040517f08c379a00000000000000000000000000000000000000000000000000000000081526004016108df9061109d565b60405180910390fd5b7f3995c181714327dbf0232c3b20873e87ca6978b6418eec0f97a1447c5a4c43fc6005548260405161091b9291906111f8565b60405180910390a18060058190555050565b60025481565b61093b610bd7565b6249d400811115610981576040517f08c379a00000000000000000000000000000000000000000000000000000000081526004016109789061103d565b60405180910390fd5b60025481116109c5576040517f08c379a00000000000000000000000000000000000000000000000000000000081526004016109bc906110dd565b60405180910390fd5b7f06684837277f012a4c3a13c8ec0e53d85b843e328a811a8f5f25f5e1456d9f59600154826040516109f89291906111f8565b60405180910390a18060018190555050565b600960009054906101000a900473ffffffffffffffffffffffffffffffffffffffff1681565b6201518081565b610a3f610bd7565b600073ffffffffffffffffffffffffffffffffffffffff168173ffffffffffffffffffffffffffffffffffffffff161415610aaf576040517f08c379a0000000000000000000000000000000000000000000000000000000008152600401610aa69061119d565b60405180910390fd5b7f2861448678f0be67f11bfb5481b3e3b4cfeb3acc6126ad60a05f95bfc6530666600960009054906101000a900473ffffffffffffffffffffffffffffffffffffffff1682604051610b02929190611014565b60405180910390a180600960006101000a81548173ffffffffffffffffffffffffffffffffffffffff021916908373ffffffffffffffffffffffffffffffffffffffff16021790555050565b610b56610bd7565b600073ffffffffffffffffffffffffffffffffffffffff168173ffffffffffffffffffffffffffffffffffffffff161415610bc6576040517f08c379a0000000000000000000000000000000000000000000000000000000008152600401610bbd9061107d565b60405180910390fd5b610bcf81610c55565b50565b606481565b610bdf610d19565b73ffffffffffffffffffffffffffffffffffffffff16610bfd61082f565b73ffffffffffffffffffffffffffffffffffffffff1614610c53576040517f08c379a0000000000000000000000000000000000000000000000000000000008152600401610c4a9061111d565b60405180910390fd5b565b60008060009054906101000a900473ffffffffffffffffffffffffffffffffffffffff169050816000806101000a81548173ffffffffffffffffffffffffffffffffffffffff021916908373ffffffffffffffffffffffffffffffffffffffff1602179055508173ffffffffffffffffffffffffffffffffffffffff168173ffffffffffffffffffffffffffffffffffffffff167f8be0079c531659141344cd1fd0a4f28419497f9722a3daafe3b4186f6b6457e060405160405180910390a35050565b600033905090565b600081359050610d30816114f1565b92915050565b600081359050610d4581611508565b92915050565b600081359050610d5a8161151f565b92915050565b600060208284031215610d7257600080fd5b6000610d8084828501610d21565b91505092915050565b600060208284031215610d9b57600080fd5b6000610da984828501610d36565b91505092915050565b600060208284031215610dc457600080fd5b6000610dd284828501610d4b565b91505092915050565b610de481611280565b82525050565b610df381611244565b82525050565b610e0281611232565b82525050565b6000610e15601b83611221565b9150610e20826112b6565b602082019050919050565b6000610e38601b83611221565b9150610e43826112df565b602082019050919050565b6000610e5b602683611221565b9150610e6682611308565b604082019050919050565b6000610e7e601883611221565b9150610e8982611357565b602082019050919050565b6000610ea1601983611221565b9150610eac82611380565b602082019050919050565b6000610ec4601a83611221565b9150610ecf826113a9565b602082019050919050565b6000610ee7601a83611221565b9150610ef2826113d2565b602082019050919050565b6000610f0a602083611221565b9150610f15826113fb565b602082019050919050565b6000610f2d601a83611221565b9150610f3882611424565b602082019050919050565b6000610f50601b83611221565b9150610f5b8261144d565b602082019050919050565b6000610f73600c83611221565b9150610f7e82611476565b602082019050919050565b6000610f96601b83611221565b9150610fa18261149f565b602082019050919050565b6000610fb9601c83611221565b9150610fc4826114c8565b602082019050919050565b610fd881611276565b82525050565b6000602082019050610ff36000830184610df9565b92915050565b600060208201905061100e6000830184610dea565b92915050565b60006040820190506110296000830185610ddb565b6110366020830184610ddb565b9392505050565b6000602082019050818103600083015261105681610e08565b9050919050565b6000602082019050818103600083015261107681610e2b565b9050919050565b6000602082019050818103600083015261109681610e4e565b9050919050565b600060208201905081810360008301526110b681610e71565b9050919050565b600060208201905081810360008301526110d681610e94565b9050919050565b600060208201905081810360008301526110f681610eb7565b9050919050565b6000602082019050818103600083015261111681610eda565b9050919050565b6000602082019050818103600083015261113681610efd565b9050919050565b6000602082019050818103600083015261115681610f20565b9050919050565b6000602082019050818103600083015261117681610f43565b9050919050565b6000602082019050818103600083015261119681610f66565b9050919050565b600060208201905081810360008301526111b681610f89565b9050919050565b600060208201905081810360008301526111d681610fac565b9050919050565b60006020820190506111f26000830184610fcf565b92915050565b600060408201905061120d6000830185610fcf565b61121a6020830184610fcf565b9392505050565b600082825260208201905092915050565b600061123d82611256565b9050919050565b600061124f82611256565b9050919050565b600073ffffffffffffffffffffffffffffffffffffffff82169050919050565b6000819050919050565b600061128b82611292565b9050919050565b600061129d826112a4565b9050919050565b60006112af82611256565b9050919050565b7f6d61782061756374696f6e206c656e67746820746f6f20686967680000000000600082015250565b7f6d696e207265736572766520666163746f7220746f6f20686967680000000000600082015250565b7f4f776e61626c653a206e6577206f776e657220697320746865207a65726f206160008201527f6464726573730000000000000000000000000000000000000000000000000000602082015250565b7f6d696e2062696420696e63726561736520746f6f206c6f770000000000000000600082015250565b7f6d696e2062696420696e63726561736520746f6f206869676800000000000000600082015250565b7f6d61782061756374696f6e206c656e67746820746f6f206c6f77000000000000600082015250565b7f6d6178207265736572766520666163746f7220746f6f206c6f77000000000000600082015250565b7f4f776e61626c653a2063616c6c6572206973206e6f7420746865206f776e6572600082015250565b7f6d696e2061756374696f6e206c656e67746820746f6f206c6f77000000000000600082015250565b7f6d696e2061756374696f6e206c656e67746820746f6f20686967680000000000600082015250565b7f66656520746f6f20686967680000000000000000000000000000000000000000600082015250565b7f666565732063616e6e6f7420676f20746f203020616464726573730000000000600082015250565b7f6d696e20766f74652070657263656e7461676520746f6f206869676800000000600082015250565b6114fa81611232565b811461150557600080fd5b50565b61151181611244565b811461151c57600080fd5b50565b61152881611276565b811461153357600080fd5b5056fea2646970667358221220d23a3296ba00a327b64df4c970ddca3400d02b7ed9d06d468503d2550629c37964736f6c63430008040033",
  "immutableReferences": {},
  "source": "// SPDX-License-Identifier: MIT\r\npragma solidity >=0.4.22 <0.9.0;\r\nimport \"./ILaunchSettings.sol\";\r\nimport \"@openzeppelin/contracts/access/Ownable.sol\";\r\ncontract LaunchSettings is ILaunchSettings, Ownable {\r\n    \r\n    uint256 public override maxAuctionLength;\r\n    uint256 public constant maxMaxAuctionLength = 8 weeks;\r\n    uint256 public override minAuctionLength;\r\n    uint256 public constant minMinAuctionLength = 1 days;\r\n    uint256 public override governanceFee;\r\n    uint256 public constant maxGovFee = 100;\r\n    uint256 public override maxCuratorFee;\r\n    uint256 public override minBidIncrease;\r\n    uint256 public constant maxMinBidIncrease = 100;\r\n    uint256 public constant minMinBidIncrease = 10;\r\n    uint256 public override minVotePercentage;\r\n\r\n    uint256 public override maxReserveFactor;\r\n\r\n    uint256 public override minReserveFactor;\r\n    address payable public override feeReceiver;\r\n\r\n    event UpdateMaxAuctionLength(uint256 _old, uint256 _new);\r\n\r\n    event UpdateMinAuctionLength(uint256 _old, uint256 _new);\r\n\r\n    event UpdateGovernanceFee(uint256 _old, uint256 _new);\r\n\r\n    event UpdateCuratorFee(uint256 _old, uint256 _new);\r\n\r\n    event UpdateMinBidIncrease(uint256 _old, uint256 _new);\r\n\r\n    event UpdateMinVotePercentage(uint256 _old, uint256 _new);\r\n\r\n    event UpdateMaxReserveFactor(uint256 _old, uint256 _new);\r\n\r\n    event UpdateMinReserveFactor(uint256 _old, uint256 _new);\r\n\r\n    event UpdateFeeReceiver(address _old, address _new);\r\n\r\n    constructor() {\r\n        maxAuctionLength = 2 weeks;\r\n        minAuctionLength = 3 days;\r\n        feeReceiver = payable(msg.sender);\r\n        minReserveFactor = 200;  // 20%\r\n        maxReserveFactor = 5000; // 500%\r\n        minBidIncrease = 50;     // 5%\r\n        maxCuratorFee = 100;\r\n        minVotePercentage = 500; // 50%\r\n    }\r\n\r\n    function setMaxAuctionLength(uint256 _length) external onlyOwner {\r\n        require(_length <= maxMaxAuctionLength, \"max auction length too high\");\r\n        require(_length > minAuctionLength, \"max auction length too low\");\r\n\r\n        emit UpdateMaxAuctionLength(maxAuctionLength, _length);\r\n\r\n        maxAuctionLength = _length;\r\n    }\r\n\r\n    function setMinAuctionLength(uint256 _length) external onlyOwner {\r\n        require(_length >= minMinAuctionLength, \"min auction length too low\");\r\n        require(_length < maxAuctionLength, \"min auction length too high\");\r\n\r\n        emit UpdateMinAuctionLength(minAuctionLength, _length);\r\n\r\n        minAuctionLength = _length;\r\n    }\r\n\r\n    function setGovernanceFee(uint256 _fee) external onlyOwner {\r\n        require(_fee <= maxGovFee, \"fee too high\");\r\n\r\n        emit UpdateGovernanceFee(governanceFee, _fee);\r\n\r\n        governanceFee = _fee;\r\n    }\r\n\r\n    function setMaxCuratorFee(uint256 _fee) external onlyOwner {\r\n        emit UpdateCuratorFee(governanceFee, _fee);\r\n\r\n        maxCuratorFee = _fee;\r\n    }\r\n\r\n    function setMinBidIncrease(uint256 _min) external onlyOwner {\r\n        require(_min <= maxMinBidIncrease, \"min bid increase too high\");\r\n        require(_min >= minMinBidIncrease, \"min bid increase too low\");\r\n\r\n        emit UpdateMinBidIncrease(minBidIncrease, _min);\r\n\r\n        minBidIncrease = _min;\r\n    }\r\n\r\n    function setMinVotePercentage(uint256 _min) external onlyOwner {\r\n        // 1000 is 100%\r\n        require(_min <= 1000, \"min vote percentage too high\");\r\n\r\n        emit UpdateMinVotePercentage(minVotePercentage, _min);\r\n\r\n        minVotePercentage = _min;\r\n    }\r\n\r\n    function setMaxReserveFactor(uint256 _factor) external onlyOwner {\r\n        require(_factor > minReserveFactor, \"max reserve factor too low\");\r\n\r\n        emit UpdateMaxReserveFactor(maxReserveFactor, _factor);\r\n\r\n        maxReserveFactor = _factor;\r\n    }\r\n\r\n    function setMinReserveFactor(uint256 _factor) external onlyOwner {\r\n        require(_factor < maxReserveFactor, \"min reserve factor too high\");\r\n\r\n        emit UpdateMinReserveFactor(minReserveFactor, _factor);\r\n\r\n        minReserveFactor = _factor;\r\n    }\r\n\r\n    function setFeeReceiver(address payable _receiver) external onlyOwner {\r\n        require(_receiver != address(0), \"fees cannot go to 0 address\");\r\n\r\n        emit UpdateFeeReceiver(feeReceiver, _receiver);\r\n\r\n        feeReceiver = _receiver;\r\n    }\r\n\r\n\r\n}\r\n",
  "sourcePath": "D:/Repo/NFT-Launch/smart-contracts/contracts/LaunchSettings.sol",
  "compiler": {
    "name": "solc",
    "version": "0.8.4+commit.c7e474f2.Emscripten.clang"
  },
  "schemaVersion": "3.4.0",
  "updatedAt": "2022-07-11T10:10:47.757Z",
  "networkType": "ethereum",
  "devdoc": {
    "kind": "dev",
    "methods": {
      "owner()": {
        "details": "Returns the address of the current owner."
      },
      "renounceOwnership()": {
        "details": "Leaves the contract without owner. It will not be possible to call `onlyOwner` functions anymore. Can only be called by the current owner. NOTE: Renouncing ownership will leave the contract without an owner, thereby removing any functionality that is only available to the owner."
      },
      "transferOwnership(address)": {
        "details": "Transfers ownership of the contract to a new account (`newOwner`). Can only be called by the current owner."
      }
    },
    "version": 1
  },
  "userdoc": {
    "kind": "user",
    "methods": {},
    "version": 1
  }
}