{
  "contractName": "LaunchFactory",
  "abi": [
    {
      "inputs": [
        {
          "internalType": "address",
          "name": "_launchSettings",
          "type": "address"
        }
      ],
      "stateMutability": "nonpayable",
      "type": "constructor"
    },
    {
      "anonymous": false,
      "inputs": [
        {
          "indexed": true,
          "internalType": "address",
          "name": "token",
          "type": "address"
        },
        {
          "indexed": false,
          "internalType": "uint256",
          "name": "id",
          "type": "uint256"
        },
        {
          "indexed": false,
          "internalType": "uint256",
          "name": "priceOfToken",
          "type": "uint256"
        },
        {
          "indexed": false,
          "internalType": "address",
          "name": "vault",
          "type": "address"
        },
        {
          "indexed": false,
          "internalType": "uint256",
          "name": "vaultId",
          "type": "uint256"
        }
      ],
      "name": "Mint",
      "type": "event"
    },
    {
      "anonymous": false,
      "inputs": [
        {
          "indexed": true,
          "internalType": "address",
          "name": "previousOwner",
          "type": "address"
        },
        {
          "indexed": true,
          "internalType": "address",
          "name": "newOwner",
          "type": "address"
        }
      ],
      "name": "OwnershipTransferred",
      "type": "event"
    },
    {
      "anonymous": false,
      "inputs": [
        {
          "indexed": false,
          "internalType": "address",
          "name": "account",
          "type": "address"
        }
      ],
      "name": "Paused",
      "type": "event"
    },
    {
      "anonymous": false,
      "inputs": [
        {
          "indexed": false,
          "internalType": "address",
          "name": "account",
          "type": "address"
        }
      ],
      "name": "Unpaused",
      "type": "event"
    },
    {
      "inputs": [],
      "name": "launchLogic",
      "outputs": [
        {
          "internalType": "address",
          "name": "",
          "type": "address"
        }
      ],
      "stateMutability": "view",
      "type": "function"
    },
    {
      "inputs": [],
      "name": "launchSettings",
      "outputs": [
        {
          "internalType": "address",
          "name": "",
          "type": "address"
        }
      ],
      "stateMutability": "view",
      "type": "function"
    },
    {
      "inputs": [],
      "name": "owner",
      "outputs": [
        {
          "internalType": "address",
          "name": "",
          "type": "address"
        }
      ],
      "stateMutability": "view",
      "type": "function"
    },
    {
      "inputs": [],
      "name": "paused",
      "outputs": [
        {
          "internalType": "bool",
          "name": "",
          "type": "bool"
        }
      ],
      "stateMutability": "view",
      "type": "function"
    },
    {
      "inputs": [],
      "name": "renounceOwnership",
      "outputs": [],
      "stateMutability": "nonpayable",
      "type": "function"
    },
    {
      "inputs": [
        {
          "internalType": "address",
          "name": "newOwner",
          "type": "address"
        }
      ],
      "name": "transferOwnership",
      "outputs": [],
      "stateMutability": "nonpayable",
      "type": "function"
    },
    {
      "inputs": [
        {
          "internalType": "string",
          "name": "_name",
          "type": "string"
        },
        {
          "internalType": "string",
          "name": "_symbol",
          "type": "string"
        },
        {
          "internalType": "uint256",
          "name": "_supply",
          "type": "uint256"
        },
        {
          "internalType": "uint256",
          "name": "priceOfNft",
          "type": "uint256"
        },
        {
          "internalType": "address",
          "name": "nft",
          "type": "address"
        },
        {
          "internalType": "uint256",
          "name": "nftId",
          "type": "uint256"
        },
        {
          "internalType": "uint256",
          "name": "platformFee",
          "type": "uint256"
        }
      ],
      "name": "createVault",
      "outputs": [
        {
          "internalType": "uint256",
          "name": "",
          "type": "uint256"
        }
      ],
      "stateMutability": "nonpayable",
      "type": "function"
    },
    {
      "inputs": [],
      "name": "pause",
      "outputs": [],
      "stateMutability": "nonpayable",
      "type": "function"
    },
    {
      "inputs": [],
      "name": "unpause",
      "outputs": [],
      "stateMutability": "nonpayable",
      "type": "function"
    }
  ],
  "bytecode": "0x60c06040523480156200001157600080fd5b5060405162007baf38038062007baf83398181016040528101906200003791906200020f565b620000576200004b6200011e60201b60201c565b6200012660201b60201c565b60008060146101000a81548160ff0219169083151502179055508073ffffffffffffffffffffffffffffffffffffffff1660808173ffffffffffffffffffffffffffffffffffffffff1660601b8152505080604051620000b790620001ea565b620000c391906200024c565b604051809103906000f080158015620000e0573d6000803e3d6000fd5b5073ffffffffffffffffffffffffffffffffffffffff1660a08173ffffffffffffffffffffffffffffffffffffffff1660601b8152505050620002b7565b600033905090565b60008060009054906101000a900473ffffffffffffffffffffffffffffffffffffffff169050816000806101000a81548173ffffffffffffffffffffffffffffffffffffffff021916908373ffffffffffffffffffffffffffffffffffffffff1602179055508173ffffffffffffffffffffffffffffffffffffffff168173ffffffffffffffffffffffffffffffffffffffff167f8be0079c531659141344cd1fd0a4f28419497f9722a3daafe3b4186f6b6457e060405160405180910390a35050565b616270806200193f83390190565b60008151905062000209816200029d565b92915050565b6000602082840312156200022257600080fd5b60006200023284828501620001f8565b91505092915050565b620002468162000269565b82525050565b60006020820190506200026360008301846200023b565b92915050565b600062000276826200027d565b9050919050565b600073ffffffffffffffffffffffffffffffffffffffff82169050919050565b620002a88162000269565b8114620002b457600080fd5b50565b60805160601c60a05160601c611655620002ea600039600081816101d501526103240152600061025001526116556000f3fe60806040523480156200001157600080fd5b5060043610620000a05760003560e01c80638456cb59116200006f5780638456cb5914620001015780638da5cb5b146200010d5780639aac6ff1146200012f578063de25636a1462000151578063f2fde38b146200018757620000a0565b80633f4ba83a14620000a55780635c975abb14620000b157806370ea2a8a14620000d3578063715018a614620000f5575b600080fd5b620000af620001a7565b005b620000bb620001bd565b604051620000ca919062000c87565b60405180910390f35b620000dd620001d3565b604051620000ec919062000b5d565b60405180910390f35b620000ff620001f7565b005b6200010b6200020f565b005b6200011762000225565b60405162000126919062000b5d565b60405180910390f35b620001396200024e565b60405162000148919062000b5d565b60405180910390f35b6200016f60048036038101906200016991906200092d565b62000272565b6040516200017e919062000d2c565b60405180910390f35b620001a560048036038101906200019f919062000901565b620004e5565b005b620001b162000570565b620001bb620005f5565b565b60008060149054906101000a900460ff16905090565b7f000000000000000000000000000000000000000000000000000000000000000081565b6200020162000570565b6200020d60006200065d565b565b6200021962000570565b6200022362000721565b565b60008060009054906101000a900473ffffffffffffffffffffffffffffffffffffffff16905090565b7f000000000000000000000000000000000000000000000000000000000000000081565b60006200027e6200078a565b60003385858989878e8e604051602401620002a198979695949392919062000bb7565b6040516020818303038152906040527f626fb2f0000000000000000000000000000000000000000000000000000000007bffffffffffffffffffffffffffffffffffffffffffffffffffffffff19166020820180517bffffffffffffffffffffffffffffffffffffffffffffffffffffffff8381831617835250505050905060007f000000000000000000000000000000000000000000000000000000000000000082604051620003529062000853565b6200035f92919062000c53565b604051809103906000f0801580156200037c573d6000803e3d6000fd5b5090508573ffffffffffffffffffffffffffffffffffffffff167ff9c32fbc56ff04f32a233ebc26e388564223745e28abd8d0781dd906537f563e868984620003c66001620007d9565b604051620003d8949392919062000d49565b60405180910390a28573ffffffffffffffffffffffffffffffffffffffff166342842e0e3383886040518463ffffffff1660e01b81526004016200041f9392919062000b7a565b600060405180830381600087803b1580156200043a57600080fd5b505af11580156200044f573d6000803e3d6000fd5b505050508060026000620004646001620007d9565b815260200190815260200160002060006101000a81548173ffffffffffffffffffffffffffffffffffffffff021916908373ffffffffffffffffffffffffffffffffffffffff160217905550620004bc6001620007e7565b6001620004ca6001620007d9565b620004d6919062000e2d565b92505050979650505050505050565b620004ef62000570565b600073ffffffffffffffffffffffffffffffffffffffff168173ffffffffffffffffffffffffffffffffffffffff16141562000562576040517f08c379a0000000000000000000000000000000000000000000000000000000008152600401620005599062000cc6565b60405180910390fd5b6200056d816200065d565b50565b6200057a620007fd565b73ffffffffffffffffffffffffffffffffffffffff166200059a62000225565b73ffffffffffffffffffffffffffffffffffffffff1614620005f3576040517f08c379a0000000000000000000000000000000000000000000000000000000008152600401620005ea9062000d0a565b60405180910390fd5b565b620005ff62000805565b60008060146101000a81548160ff0219169083151502179055507f5db9ee0a495bf2e6ff9c91a7834c1ba4fdd244a5e8aa4e537bd38aeae4b073aa62000644620007fd565b60405162000653919062000b5d565b60405180910390a1565b60008060009054906101000a900473ffffffffffffffffffffffffffffffffffffffff169050816000806101000a81548173ffffffffffffffffffffffffffffffffffffffff021916908373ffffffffffffffffffffffffffffffffffffffff1602179055508173ffffffffffffffffffffffffffffffffffffffff168173ffffffffffffffffffffffffffffffffffffffff167f8be0079c531659141344cd1fd0a4f28419497f9722a3daafe3b4186f6b6457e060405160405180910390a35050565b6200072b6200078a565b6001600060146101000a81548160ff0219169083151502179055507f62e78cea01bee320cd4e420270b5ea74000d11b0c9f74754ebdbfc544b05a25862000771620007fd565b60405162000780919062000b5d565b60405180910390a1565b62000794620001bd565b15620007d7576040517f08c379a0000000000000000000000000000000000000000000000000000000008152600401620007ce9062000ce8565b60405180910390fd5b565b600081600001549050919050565b6001816000016000828254019250508190555050565b600033905090565b6200080f620001bd565b62000851576040517f08c379a0000000000000000000000000000000000000000000000000000000008152600401620008489062000ca4565b60405180910390fd5b565b610585806200109b83390190565b600062000878620008728462000dbf565b62000d96565b9050828152602081018484840111156200089157600080fd5b6200089e84828562000eb2565b509392505050565b600081359050620008b78162001066565b92915050565b600082601f830112620008cf57600080fd5b8135620008e184826020860162000861565b91505092915050565b600081359050620008fb8162001080565b92915050565b6000602082840312156200091457600080fd5b60006200092484828501620008a6565b91505092915050565b600080600080600080600060e0888a0312156200094957600080fd5b600088013567ffffffffffffffff8111156200096457600080fd5b620009728a828b01620008bd565b975050602088013567ffffffffffffffff8111156200099057600080fd5b6200099e8a828b01620008bd565b9650506040620009b18a828b01620008ea565b9550506060620009c48a828b01620008ea565b9450506080620009d78a828b01620008a6565b93505060a0620009ea8a828b01620008ea565b92505060c0620009fd8a828b01620008ea565b91505092959891949750929550565b62000a178162000e68565b82525050565b62000a288162000e7c565b82525050565b600062000a3b8262000df5565b62000a47818562000e0b565b935062000a5981856020860162000ec1565b62000a648162000f8b565b840191505092915050565b600062000a7c8262000e00565b62000a88818562000e1c565b935062000a9a81856020860162000ec1565b62000aa58162000f8b565b840191505092915050565b600062000abf60148362000e1c565b915062000acc8262000f9c565b602082019050919050565b600062000ae660268362000e1c565b915062000af38262000fc5565b604082019050919050565b600062000b0d60108362000e1c565b915062000b1a8262001014565b602082019050919050565b600062000b3460208362000e1c565b915062000b41826200103d565b602082019050919050565b62000b578162000ea8565b82525050565b600060208201905062000b74600083018462000a0c565b92915050565b600060608201905062000b91600083018662000a0c565b62000ba0602083018562000a0c565b62000baf604083018462000b4c565b949350505050565b60006101008201905062000bcf600083018b62000a0c565b62000bde602083018a62000a0c565b62000bed604083018962000b4c565b62000bfc606083018862000b4c565b62000c0b608083018762000b4c565b62000c1a60a083018662000b4c565b81810360c083015262000c2e818562000a6f565b905081810360e083015262000c44818462000a6f565b90509998505050505050505050565b600060408201905062000c6a600083018562000a0c565b818103602083015262000c7e818462000a2e565b90509392505050565b600060208201905062000c9e600083018462000a1d565b92915050565b6000602082019050818103600083015262000cbf8162000ab0565b9050919050565b6000602082019050818103600083015262000ce18162000ad7565b9050919050565b6000602082019050818103600083015262000d038162000afe565b9050919050565b6000602082019050818103600083015262000d258162000b25565b9050919050565b600060208201905062000d43600083018462000b4c565b92915050565b600060808201905062000d60600083018762000b4c565b62000d6f602083018662000b4c565b62000d7e604083018562000a0c565b62000d8d606083018462000b4c565b95945050505050565b600062000da262000db5565b905062000db0828262000ef7565b919050565b6000604051905090565b600067ffffffffffffffff82111562000ddd5762000ddc62000f5c565b5b62000de88262000f8b565b9050602081019050919050565b600081519050919050565b600081519050919050565b600082825260208201905092915050565b600082825260208201905092915050565b600062000e3a8262000ea8565b915062000e478362000ea8565b92508282101562000e5d5762000e5c62000f2d565b5b828203905092915050565b600062000e758262000e88565b9050919050565b60008115159050919050565b600073ffffffffffffffffffffffffffffffffffffffff82169050919050565b6000819050919050565b82818337600083830152505050565b60005b8381101562000ee157808201518184015260208101905062000ec4565b8381111562000ef1576000848401525b50505050565b62000f028262000f8b565b810181811067ffffffffffffffff8211171562000f245762000f2362000f5c565b5b80604052505050565b7f4e487b7100000000000000000000000000000000000000000000000000000000600052601160045260246000fd5b7f4e487b7100000000000000000000000000000000000000000000000000000000600052604160045260246000fd5b6000601f19601f8301169050919050565b7f5061757361626c653a206e6f7420706175736564000000000000000000000000600082015250565b7f4f776e61626c653a206e6577206f776e657220697320746865207a65726f206160008201527f6464726573730000000000000000000000000000000000000000000000000000602082015250565b7f5061757361626c653a2070617573656400000000000000000000000000000000600082015250565b7f4f776e61626c653a2063616c6c6572206973206e6f7420746865206f776e6572600082015250565b620010718162000e68565b81146200107d57600080fd5b50565b6200108b8162000ea8565b81146200109757600080fd5b5056fe60a060405234801561001057600080fd5b50604051610585380380610585833981810160405281019061003291906101a0565b8173ffffffffffffffffffffffffffffffffffffffff1660808173ffffffffffffffffffffffffffffffffffffffff1660601b815250506000808373ffffffffffffffffffffffffffffffffffffffff1683604051610091919061025e565b600060405180830381855af49150503d80600081146100cc576040519150601f19603f3d011682016040523d82523d6000602084013e6100d1565b606091505b5091509150818190610119576040517f08c379a00000000000000000000000000000000000000000000000000000000081526004016101109190610275565b60405180910390fd5b505050505061040c565b6000610136610131846102bc565b610297565b90508281526020810184848401111561014e57600080fd5b610159848285610351565b509392505050565b600081519050610170816103f5565b92915050565b600082601f83011261018757600080fd5b8151610197848260208601610123565b91505092915050565b600080604083850312156101b357600080fd5b60006101c185828601610161565b925050602083015167ffffffffffffffff8111156101de57600080fd5b6101ea85828601610176565b9150509250929050565b60006101ff826102ed565b6102098185610303565b9350610219818560208601610351565b80840191505092915050565b6000610230826102f8565b61023a818561030e565b935061024a818560208601610351565b610253816103e4565b840191505092915050565b600061026a82846101f4565b915081905092915050565b6000602082019050818103600083015261028f8184610225565b905092915050565b60006102a16102b2565b90506102ad8282610384565b919050565b6000604051905090565b600067ffffffffffffffff8211156102d7576102d66103b5565b5b6102e0826103e4565b9050602081019050919050565b600081519050919050565b600081519050919050565b600081905092915050565b600082825260208201905092915050565b600061032a82610331565b9050919050565b600073ffffffffffffffffffffffffffffffffffffffff82169050919050565b60005b8381101561036f578082015181840152602081019050610354565b8381111561037e576000848401525b50505050565b61038d826103e4565b810181811067ffffffffffffffff821117156103ac576103ab6103b5565b5b80604052505050565b7f4e487b7100000000000000000000000000000000000000000000000000000000600052604160045260246000fd5b6000601f19601f8301169050919050565b6103fe8161031f565b811461040957600080fd5b50565b60805160601c61015661042f60003960008181602d015260a201526101566000f3fe6080604052600436106100225760003560e01c8063d7dfa0dd1461007557610029565b3661002957005b60007f0000000000000000000000000000000000000000000000000000000000000000905060405136600082376000803683855af43d806000843e8160008114610071578184f35b8184fd5b34801561008157600080fd5b5061008a6100a0565b60405161009791906100d3565b60405180910390f35b7f000000000000000000000000000000000000000000000000000000000000000081565b6100cd816100ee565b82525050565b60006020820190506100e860008301846100c4565b92915050565b60006100f982610100565b9050919050565b600073ffffffffffffffffffffffffffffffffffffffff8216905091905056fea2646970667358221220440a768e0201a39a0ed6084aaaa6e5a4d7ff53f557c3e913f690286e6714124564736f6c63430008040033a2646970667358221220e9362325216b05f82f0436c69db11162635096cd80f00dc8bc0726c527b0204364736f6c6343000804003360a06040523480156200001157600080fd5b50604051620062703803806200627083398181016040528101906200003791906200008c565b8073ffffffffffffffffffffffffffffffffffffffff1660808173ffffffffffffffffffffffffffffffffffffffff1660601b815250505062000106565b6000815190506200008681620000ec565b92915050565b6000602082840312156200009f57600080fd5b6000620000af8482850162000075565b91505092915050565b6000620000c582620000cc565b9050919050565b600073ffffffffffffffffffffffffffffffffffffffff82169050919050565b620000f781620000b8565b81146200010357600080fd5b50565b60805160601c6160f06200018060003960008181610d2b01528181610faf015281816111900152818161123a015281816118710152818161197001528181611b3a01528181611c3901528181611e74015281816122ae015281816129dc01528181612ce4015281816139cc0152613a7001526160f06000f3fe6080604052600436106102725760003560e01c80637fb450991161014f578063be040fb0116100c1578063dd62ed3e1161007a578063dd62ed3e1461092c578063ddca3f4314610969578063e66f53b714610994578063ec25c1ac146109bf578063efbe1c1c146109ea578063f23a6e6114610a0157610272565b8063be040fb014610861578063be9a655514610878578063c6bc518214610882578063c91de649146108ad578063d294f093146108ea578063db2e1eed1461090157610272565b8063961be39111610113578063961be3911461073d5780639a4e6d3414610754578063a457c2d71461077f578063a9059cbb146107bc578063adc1b956146107f9578063bc197c811461082457610272565b80637fb450991461066a57806380436fe014610695578063853a1b90146106be5780639012c4a8146106e957806395d89b411461071257610272565b8063313ce567116101e85780635c9920fc116101ac5780635c9920fc1461055a578063626fb2f0146105855780636a775714146105ae5780636da84e6c146105d757806370a08231146106025780637b5581ed1461063f57610272565b8063313ce56714610471578063325c25a21461049c57806339509351146104c75780633fc8cef31461050457806347ccca021461052f57610272565b806318160ddd1161023a57806318160ddd146103825780631998aeef146103ad57806323b872dd146103b75780632a24f46c146103f45780632a44f1201461041f5780632bf33bd91461044857610272565b806301ffc9a71461027757806306fdde03146102b4578063095ea7b3146102df5780630c6a62dd1461031c578063150b7a0214610345575b600080fd5b34801561028357600080fd5b5061029e6004803603810190610299919061481a565b610a3e565b6040516102ab9190614f0f565b60405180910390f35b3480156102c057600080fd5b506102c9610ab8565b6040516102d69190614f96565b60405180910390f35b3480156102eb57600080fd5b50610306600480360381019061030191906147b5565b610b4a565b6040516103139190614f0f565b60405180910390f35b34801561032857600080fd5b50610343600480360381019061033e9190614404565b610b6d565b005b34801561035157600080fd5b5061036c600480360381019061036791906145c9565b610c43565b6040516103799190614f2a565b60405180910390f35b34801561038e57600080fd5b50610397610c57565b6040516103a491906153f8565b60405180910390f35b6103b5610c61565b005b3480156103c357600080fd5b506103de60048036038101906103d9919061457a565b610f77565b6040516103eb9190614f0f565b60405180910390f35b34801561040057600080fd5b50610409610fa6565b60405161041691906153f8565b60405180910390f35b34801561042b57600080fd5b5061044660048036038101906104419190614404565b610fad565b005b34801561045457600080fd5b5061046f600480360381019061046a9190614843565b6110fd565b005b34801561047d57600080fd5b5061048661135d565b6040516104939190615413565b60405180910390f35b3480156104a857600080fd5b506104b1611366565b6040516104be91906153f8565b60405180910390f35b3480156104d357600080fd5b506104ee60048036038101906104e991906147b5565b61136d565b6040516104fb9190614f0f565b60405180910390f35b34801561051057600080fd5b506105196113a4565b6040516105269190614e42565b60405180910390f35b34801561053b57600080fd5b506105446113bc565b6040516105519190614e42565b60405180910390f35b34801561056657600080fd5b5061056f6113e3565b60405161057c9190614f0f565b60405180910390f35b34801561059157600080fd5b506105ac60048036038101906105a791906146d3565b6113f7565b005b3480156105ba57600080fd5b506105d560048036038101906105d09190614843565b611697565b005b3480156105e357600080fd5b506105ec611e07565b6040516105f991906153f8565b60405180910390f35b34801561060e57600080fd5b5061062960048036038101906106249190614404565b611e0e565b60405161063691906153f8565b60405180910390f35b34801561064b57600080fd5b50610654611e57565b60405161066191906153f8565b60405180910390f35b34801561067657600080fd5b5061067f611e5e565b60405161068c9190614f45565b60405180910390f35b3480156106a157600080fd5b506106bc60048036038101906106b79190614404565b611e72565b005b3480156106ca57600080fd5b506106d36121af565b6040516106e09190614e5d565b60405180910390f35b3480156106f557600080fd5b50610710600480360381019061070b9190614843565b6121d6565b005b34801561071e57600080fd5b506107276123db565b6040516107349190614f96565b60405180910390f35b34801561074957600080fd5b5061075261246d565b005b34801561076057600080fd5b50610769612608565b60405161077691906153f8565b60405180910390f35b34801561078b57600080fd5b506107a660048036038101906107a191906147b5565b61260f565b6040516107b39190614f0f565b60405180910390f35b3480156107c857600080fd5b506107e360048036038101906107de91906147b5565b612686565b6040516107f09190614f0f565b60405180910390f35b34801561080557600080fd5b5061080e6126a9565b60405161081b91906153f8565b60405180910390f35b34801561083057600080fd5b5061084b600480360381019061084691906144bb565b6126b0565b6040516108589190614f2a565b60405180910390f35b34801561086d57600080fd5b506108766126c5565b005b6108806128c5565b005b34801561088e57600080fd5b50610897612bd8565b6040516108a491906153f8565b60405180910390f35b3480156108b957600080fd5b506108d460048036038101906108cf9190614404565b612bdf565b6040516108e191906153f8565b60405180910390f35b3480156108f657600080fd5b506108ff612bf8565b005b34801561090d57600080fd5b50610916612c02565b60405161092391906153f8565b60405180910390f35b34801561093857600080fd5b50610953600480360381019061094e919061447f565b612c2d565b60405161096091906153f8565b60405180910390f35b34801561097557600080fd5b5061097e612cb4565b60405161098b91906153f8565b60405180910390f35b3480156109a057600080fd5b506109a9612cbb565b6040516109b69190614e42565b60405180910390f35b3480156109cb57600080fd5b506109d4612ce2565b6040516109e19190614e42565b60405180910390f35b3480156109f657600080fd5b506109ff612d06565b005b348015610a0d57600080fd5b50610a286004803603810190610a239190614644565b612f97565b604051610a359190614f2a565b60405180910390f35b60007f4e2312e0000000000000000000000000000000000000000000000000000000007bffffffffffffffffffffffffffffffffffffffffffffffffffffffff1916827bffffffffffffffffffffffffffffffffffffffffffffffffffffffff19161480610ab15750610ab082612fac565b5b9050919050565b606060368054610ac790615771565b80601f0160208091040260200160405190810160405280929190818152602001828054610af390615771565b8015610b405780601f10610b1557610100808354040283529160200191610b40565b820191906000526020600020905b815481529060010190602001808311610b2357829003601f168201915b5050505050905090565b600080610b55613016565b9050610b6281858561301e565b600191505092915050565b61013460009054906101000a900473ffffffffffffffffffffffffffffffffffffffff1673ffffffffffffffffffffffffffffffffffffffff163373ffffffffffffffffffffffffffffffffffffffff1614610bfe576040517f08c379a0000000000000000000000000000000000000000000000000000000008152600401610bf590615198565b60405180910390fd5b8061013460006101000a81548173ffffffffffffffffffffffffffffffffffffffff021916908373ffffffffffffffffffffffffffffffffffffffff16021790555050565b600063150b7a0260e01b9050949350505050565b6000603554905090565b60016003811115610c9b577f4e487b7100000000000000000000000000000000000000000000000000000000600052602160045260246000fd5b61013360149054906101000a900460ff166003811115610ce4577f4e487b7100000000000000000000000000000000000000000000000000000000600052602160045260246000fd5b14610d24576040517f08c379a0000000000000000000000000000000000000000000000000000000008152600401610d1b90615058565b60405180910390fd5b60006103e87f000000000000000000000000000000000000000000000000000000000000000073ffffffffffffffffffffffffffffffffffffffff16637c513c0f6040518163ffffffff1660e01b8152600401602060405180830381600087803b158015610d9157600080fd5b505af1158015610da5573d6000803e3d6000fd5b505050506040513d601f19601f82011682018060405250810190610dc9919061486c565b610dd39190615508565b90508061013254610de4919061558f565b6103e834610df2919061558f565b1015610e33576040517f08c379a0000000000000000000000000000000000000000000000000000000008152600401610e2a90615318565b60405180910390fd5b61012f544210610e78576040517f08c379a0000000000000000000000000000000000000000000000000000000008152600401610e6f906151f8565b60405180910390fd5b6103844261012f54610e8a91906155e9565b11610eac5761038461012f6000828254610ea49190615508565b925050819055505b610edc61013360009054906101000a900473ffffffffffffffffffffffffffffffffffffffff16610132546131e9565b34610132819055503361013360006101000a81548173ffffffffffffffffffffffffffffffffffffffff021916908373ffffffffffffffffffffffffffffffffffffffff1602179055503373ffffffffffffffffffffffffffffffffffffffff167fe684a55f31b79eca403df938249029212a5925ec6be8012e099b45bc1019e5d234604051610f6c91906153f8565b60405180910390a250565b600080610f82613016565b9050610f8f858285613313565b610f9a85858561339f565b60019150509392505050565b61012f5481565b7f000000000000000000000000000000000000000000000000000000000000000073ffffffffffffffffffffffffffffffffffffffff16638da5cb5b6040518163ffffffff1660e01b815260040160206040518083038186803b15801561101357600080fd5b505afa158015611027573d6000803e3d6000fd5b505050506040513d601f19601f8201168201806040525081019061104b919061442d565b73ffffffffffffffffffffffffffffffffffffffff163373ffffffffffffffffffffffffffffffffffffffff16146110b8576040517f08c379a00000000000000000000000000000000000000000000000000000000081526004016110af906150d8565b60405180910390fd5b8061013460006101000a81548173ffffffffffffffffffffffffffffffffffffffff021916908373ffffffffffffffffffffffffffffffffffffffff16021790555050565b61013460009054906101000a900473ffffffffffffffffffffffffffffffffffffffff1673ffffffffffffffffffffffffffffffffffffffff163373ffffffffffffffffffffffffffffffffffffffff161461118e576040517f08c379a000000000000000000000000000000000000000000000000000000000815260040161118590615198565b60405180910390fd5b7f000000000000000000000000000000000000000000000000000000000000000073ffffffffffffffffffffffffffffffffffffffff1663a0b335e36040518163ffffffff1660e01b8152600401602060405180830381600087803b1580156111f657600080fd5b505af115801561120a573d6000803e3d6000fd5b505050506040513d601f19601f8201168201806040525081019061122e919061486c565b81101580156112dc57507f000000000000000000000000000000000000000000000000000000000000000073ffffffffffffffffffffffffffffffffffffffff16630e519ef96040518163ffffffff1660e01b8152600401602060405180830381600087803b1580156112a057600080fd5b505af11580156112b4573d6000803e3d6000fd5b505050506040513d601f19601f820116820180604052508101906112d8919061486c565b8111155b61131b576040517f08c379a0000000000000000000000000000000000000000000000000000000008152600401611312906151d8565b60405180910390fd5b80610130819055507f4ab86ae701798277aa378943b9dfd155d3b19703cd57be298908fadd32f7bf468160405161135291906153f8565b60405180910390a150565b60006012905090565b6101305481565b600080611378613016565b905061139981858561138a8589612c2d565b6113949190615508565b61301e565b600191505092915050565b73c02aaa39b223fe8d0a0e5c4f27ead9083c756cc281565b61012d60009054906101000a900473ffffffffffffffffffffffffffffffffffffffff1681565b61013760009054906101000a900460ff1681565b60008060019054906101000a900460ff161590508080156114285750600160008054906101000a900460ff1660ff16105b80611455575061143730613623565b1580156114545750600160008054906101000a900460ff1660ff16145b5b611494576040517f08c379a000000000000000000000000000000000000000000000000000000000815260040161148b906151b8565b60405180910390fd5b60016000806101000a81548160ff021916908360ff16021790555080156114d1576001600060016101000a81548160ff0219169083151502179055505b6114db8383613646565b6114e36136a3565b6114eb6136f4565b8761012d60006101000a81548173ffffffffffffffffffffffffffffffffffffffff021916908373ffffffffffffffffffffffffffffffffffffffff1602179055508661012e819055506203f480610130819055508861013460006101000a81548173ffffffffffffffffffffffffffffffffffffffff021916908373ffffffffffffffffffffffffffffffffffffffff16021790555083610135819055504261013681905550600061013360146101000a81548160ff021916908360038111156115df577f4e487b7100000000000000000000000000000000000000000000000000000000600052602160045260246000fd5b02179055508461013960008b73ffffffffffffffffffffffffffffffffffffffff1673ffffffffffffffffffffffffffffffffffffffff168152602001908152602001600020819055506116338987613745565b801561168c5760008060016101000a81548160ff0219169083151502179055507f7f26b83ff96e1f2b6a682f133852f6798a09c465da95921460cefb384740249860016040516116839190614f7b565b60405180910390a15b505050505050505050565b600060038111156116d1577f4e487b7100000000000000000000000000000000000000000000000000000000600052602160045260246000fd5b61013360149054906101000a900460ff16600381111561171a577f4e487b7100000000000000000000000000000000000000000000000000000000600052602160045260246000fd5b1461175a576040517f08c379a000000000000000000000000000000000000000000000000000000000815260040161175190615358565b60405180910390fd5b600061013960003373ffffffffffffffffffffffffffffffffffffffff1673ffffffffffffffffffffffffffffffffffffffff168152602001908152602001600020549050808214156117e2576040517f08c379a00000000000000000000000000000000000000000000000000000000081526004016117d990615378565b60405180910390fd5b60006117ed33611e0e565b9050600061013854141561181b578061013881905550828161180f919061558f565b61013181905550611d6f565b610138548114801561182e575060008214155b1561184b57828161183f919061558f565b61013181905550611d6e565b6000821415611aaf5760006101385461013154611868919061555e565b905060006103e87f000000000000000000000000000000000000000000000000000000000000000073ffffffffffffffffffffffffffffffffffffffff166309990a966040518163ffffffff1660e01b8152600401602060405180830381600087803b1580156118d757600080fd5b505af11580156118eb573d6000803e3d6000fd5b505050506040513d601f19601f8201168201806040525081019061190f919061486c565b8361191a919061558f565b611924919061555e565b905080851015611969576040517f08c379a000000000000000000000000000000000000000000000000000000000815260040161196090614ff8565b60405180910390fd5b60006103e87f000000000000000000000000000000000000000000000000000000000000000073ffffffffffffffffffffffffffffffffffffffff16635410bfc96040518163ffffffff1660e01b8152600401602060405180830381600087803b1580156119d657600080fd5b505af11580156119ea573d6000803e3d6000fd5b505050506040513d601f19601f82011682018060405250810190611a0e919061486c565b84611a19919061558f565b611a23919061555e565b905080861115611a68576040517f08c379a0000000000000000000000000000000000000000000000000000000008152600401611a5f90615338565b60405180910390fd5b836101386000828254611a7b9190615508565b925050819055508584611a8e919061558f565b6101316000828254611aa09190615508565b92505081905550505050611d6d565b6000831415611afc57806101386000828254611acb91906155e9565b925050819055508181611ade919061558f565b6101316000828254611af091906155e9565b92505081905550611d6c565b60008161013854611b0d91906155e9565b8284611b19919061558f565b61013154611b2791906155e9565b611b31919061555e565b905060006103e87f000000000000000000000000000000000000000000000000000000000000000073ffffffffffffffffffffffffffffffffffffffff166309990a966040518163ffffffff1660e01b8152600401602060405180830381600087803b158015611ba057600080fd5b505af1158015611bb4573d6000803e3d6000fd5b505050506040513d601f19601f82011682018060405250810190611bd8919061486c565b83611be3919061558f565b611bed919061555e565b905080851015611c32576040517f08c379a0000000000000000000000000000000000000000000000000000000008152600401611c2990614ff8565b60405180910390fd5b60006103e87f000000000000000000000000000000000000000000000000000000000000000073ffffffffffffffffffffffffffffffffffffffff16635410bfc96040518163ffffffff1660e01b8152600401602060405180830381600087803b158015611c9f57600080fd5b505af1158015611cb3573d6000803e3d6000fd5b505050506040513d601f19601f82011682018060405250810190611cd7919061486c565b84611ce2919061558f565b611cec919061555e565b905080861115611d31576040517f08c379a0000000000000000000000000000000000000000000000000000000008152600401611d2890615338565b60405180910390fd5b8484611d3d919061558f565b8685611d49919061558f565b61013154611d579190615508565b611d6191906155e9565b610131819055505050505b5b5b5b8261013960003373ffffffffffffffffffffffffffffffffffffffff1673ffffffffffffffffffffffffffffffffffffffff168152602001908152602001600020819055503373ffffffffffffffffffffffffffffffffffffffff167f64e6e7bd72b853c4e62fd6ceaca05a104700c70a4cb567c75c7f2242ba7f037c84604051611dfa91906153f8565b60405180910390a2505050565b6101325481565b6000603360008373ffffffffffffffffffffffffffffffffffffffff1673ffffffffffffffffffffffffffffffffffffffff168152602001908152602001600020549050919050565b6101315481565b61013360149054906101000a900460ff1681565b7f000000000000000000000000000000000000000000000000000000000000000073ffffffffffffffffffffffffffffffffffffffff16638da5cb5b6040518163ffffffff1660e01b815260040160206040518083038186803b158015611ed857600080fd5b505afa158015611eec573d6000803e3d6000fd5b505050506040513d601f19601f82011682018060405250810190611f10919061442d565b73ffffffffffffffffffffffffffffffffffffffff163373ffffffffffffffffffffffffffffffffffffffff1614611f7d576040517f08c379a0000000000000000000000000000000000000000000000000000000008152600401611f7490615278565b60405180910390fd5b60006003811115611fb7577f4e487b7100000000000000000000000000000000000000000000000000000000600052602160045260246000fd5b61013360149054906101000a900460ff166003811115612000577f4e487b7100000000000000000000000000000000000000000000000000000000600052602160045260246000fd5b14612040576040517f08c379a000000000000000000000000000000000000000000000000000000000815260040161203790615358565b60405180910390fd5b600061013960008373ffffffffffffffffffffffffffffffffffffffff1673ffffffffffffffffffffffffffffffffffffffff16815260200190815260200160002054905080600014156120c9576040517f08c379a00000000000000000000000000000000000000000000000000000000081526004016120c090615378565b60405180910390fd5b60006120d483611e0e565b90508061013860008282546120e991906155e9565b9250508190555081816120fc919061558f565b610131600082825461210e91906155e9565b92505081905550600061013960008573ffffffffffffffffffffffffffffffffffffffff1673ffffffffffffffffffffffffffffffffffffffff168152602001908152602001600020819055508273ffffffffffffffffffffffffffffffffffffffff167f64e6e7bd72b853c4e62fd6ceaca05a104700c70a4cb567c75c7f2242ba7f037c60006040516121a29190614f60565b60405180910390a2505050565b61013360009054906101000a900473ffffffffffffffffffffffffffffffffffffffff1681565b61013460009054906101000a900473ffffffffffffffffffffffffffffffffffffffff1673ffffffffffffffffffffffffffffffffffffffff163373ffffffffffffffffffffffffffffffffffffffff1614612267576040517f08c379a000000000000000000000000000000000000000000000000000000000815260040161225e90615198565b60405180910390fd5b6101355481106122ac576040517f08c379a00000000000000000000000000000000000000000000000000000000081526004016122a390615098565b60405180910390fd5b7f000000000000000000000000000000000000000000000000000000000000000073ffffffffffffffffffffffffffffffffffffffff16638a364bc16040518163ffffffff1660e01b8152600401602060405180830381600087803b15801561231457600080fd5b505af1158015612328573d6000803e3d6000fd5b505050506040513d601f19601f8201168201806040525081019061234c919061486c565b81111561238e576040517f08c379a000000000000000000000000000000000000000000000000000000000815260040161238590615218565b60405180910390fd5b6123966138a6565b80610135819055507f2d1dae59a9e9ec0bc2ab19d45b7d10c8c55304fa08b40a7998e9f67f03223d04610135546040516123d091906153f8565b60405180910390a150565b6060603780546123ea90615771565b80601f016020809104026020016040519081016040528092919081815260200182805461241690615771565b80156124635780601f1061243857610100808354040283529160200191612463565b820191906000526020600020905b81548152906001019060200180831161244657829003601f168201915b5050505050905090565b600260038111156124a7577f4e487b7100000000000000000000000000000000000000000000000000000000600052602160045260246000fd5b61013360149054906101000a900460ff1660038111156124f0577f4e487b7100000000000000000000000000000000000000000000000000000000600052602160045260246000fd5b14612530576040517f08c379a0000000000000000000000000000000000000000000000000000000008152600401612527906153d8565b60405180910390fd5b600061253b33611e0e565b905060008111612580576040517f08c379a000000000000000000000000000000000000000000000000000000000815260040161257790615078565b60405180910390fd5b600061258a610c57565b4783612596919061558f565b6125a0919061555e565b90506125ac3383613c97565b6125b633826131e9565b3373ffffffffffffffffffffffffffffffffffffffff167f730831a1e4aa2d187ddd8e03d7beeac760a3927da5f112d645e0f8df7494b367826040516125fc91906153f8565b60405180910390a25050565b6101385481565b60008061261a613016565b905060006126288286612c2d565b90508381101561266d576040517f08c379a000000000000000000000000000000000000000000000000000000000815260040161266490615398565b60405180910390fd5b61267a828686840361301e565b60019250505092915050565b600080612691613016565b905061269e81858561339f565b600191505092915050565b6101365481565b600063bc197c8160e01b905095945050505050565b600060038111156126ff577f4e487b7100000000000000000000000000000000000000000000000000000000600052602160045260246000fd5b61013360149054906101000a900460ff166003811115612748577f4e487b7100000000000000000000000000000000000000000000000000000000600052602160045260246000fd5b14612788576040517f08c379a000000000000000000000000000000000000000000000000000000000815260040161277f906150b8565b60405180910390fd5b61279933612794610c57565b613c97565b61012d60009054906101000a900473ffffffffffffffffffffffffffffffffffffffff1673ffffffffffffffffffffffffffffffffffffffff166323b872dd303361012e546040518463ffffffff1660e01b81526004016127fc93929190614eaf565b600060405180830381600087803b15801561281657600080fd5b505af115801561282a573d6000803e3d6000fd5b50505050600361013360146101000a81548160ff0219169083600381111561287b577f4e487b7100000000000000000000000000000000000000000000000000000000600052602160045260246000fd5b02179055503373ffffffffffffffffffffffffffffffffffffffff167fd1b5ea7fe0f1c2fa09d49c2aa9b2200664ba57a734f1d95481d95b7f99af991c60405160405180910390a2565b600060038111156128ff577f4e487b7100000000000000000000000000000000000000000000000000000000600052602160045260246000fd5b61013360149054906101000a900460ff166003811115612948577f4e487b7100000000000000000000000000000000000000000000000000000000600052602160045260246000fd5b14612988576040517f08c379a000000000000000000000000000000000000000000000000000000000815260040161297f90614fd8565b60405180910390fd5b612990612c02565b3410156129d2576040517f08c379a00000000000000000000000000000000000000000000000000000000081526004016129c990615138565b60405180910390fd5b6129da610c57565b7f000000000000000000000000000000000000000000000000000000000000000073ffffffffffffffffffffffffffffffffffffffff166332977c736040518163ffffffff1660e01b8152600401602060405180830381600087803b158015612a4257600080fd5b505af1158015612a56573d6000803e3d6000fd5b505050506040513d601f19601f82011682018060405250810190612a7a919061486c565b612a84919061558f565b6103e861013854612a95919061558f565b1015612ad6576040517f08c379a0000000000000000000000000000000000000000000000000000000008152600401612acd90615178565b60405180910390fd5b6101305442612ae59190615508565b61012f81905550600161013360146101000a81548160ff02191690836003811115612b39577f4e487b7100000000000000000000000000000000000000000000000000000000600052602160045260246000fd5b021790555034610132819055503361013360006101000a81548173ffffffffffffffffffffffffffffffffffffffff021916908373ffffffffffffffffffffffffffffffffffffffff1602179055503373ffffffffffffffffffffffffffffffffffffffff167fcfb9c5312b25ec7b809d61e638df25f749eae5d5c25399e1c93d1d319bfd582134604051612bce91906153f8565b60405180910390a2565b61012e5481565b6101396020528060005260406000206000915090505481565b612c006138a6565b565b6000806101385414612c25576101385461013154612c20919061555e565b612c28565b60005b905090565b6000603460008473ffffffffffffffffffffffffffffffffffffffff1673ffffffffffffffffffffffffffffffffffffffff16815260200190815260200160002060008373ffffffffffffffffffffffffffffffffffffffff1673ffffffffffffffffffffffffffffffffffffffff16815260200190815260200160002054905092915050565b6101355481565b61013460009054906101000a900473ffffffffffffffffffffffffffffffffffffffff1681565b7f000000000000000000000000000000000000000000000000000000000000000081565b60016003811115612d40577f4e487b7100000000000000000000000000000000000000000000000000000000600052602160045260246000fd5b61013360149054906101000a900460ff166003811115612d89577f4e487b7100000000000000000000000000000000000000000000000000000000600052602160045260246000fd5b14612dc9576040517f08c379a0000000000000000000000000000000000000000000000000000000008152600401612dc0906152b8565b60405180910390fd5b61012f54421015612e0f576040517f08c379a0000000000000000000000000000000000000000000000000000000008152600401612e0690615158565b60405180910390fd5b612e176138a6565b61012d60009054906101000a900473ffffffffffffffffffffffffffffffffffffffff1673ffffffffffffffffffffffffffffffffffffffff166323b872dd3061013360009054906101000a900473ffffffffffffffffffffffffffffffffffffffff1661012e546040518463ffffffff1660e01b8152600401612e9d93929190614e78565b600060405180830381600087803b158015612eb757600080fd5b505af1158015612ecb573d6000803e3d6000fd5b50505050600261013360146101000a81548160ff02191690836003811115612f1c577f4e487b7100000000000000000000000000000000000000000000000000000000600052602160045260246000fd5b021790555061013360009054906101000a900473ffffffffffffffffffffffffffffffffffffffff1673ffffffffffffffffffffffffffffffffffffffff167f8b01f9dd0400d6a1e84369a5fb8f6033934856ffa8ebadd707dca302ab55169561013254604051612f8d91906153f8565b60405180910390a2565b600063f23a6e6160e01b905095945050505050565b60007f01ffc9a7000000000000000000000000000000000000000000000000000000007bffffffffffffffffffffffffffffffffffffffffffffffffffffffff1916827bffffffffffffffffffffffffffffffffffffffffffffffffffffffff1916149050919050565b600033905090565b600073ffffffffffffffffffffffffffffffffffffffff168373ffffffffffffffffffffffffffffffffffffffff16141561308e576040517f08c379a000000000000000000000000000000000000000000000000000000000815260040161308590615298565b60405180910390fd5b600073ffffffffffffffffffffffffffffffffffffffff168273ffffffffffffffffffffffffffffffffffffffff1614156130fe576040517f08c379a00000000000000000000000000000000000000000000000000000000081526004016130f590615038565b60405180910390fd5b80603460008573ffffffffffffffffffffffffffffffffffffffff1673ffffffffffffffffffffffffffffffffffffffff16815260200190815260200160002060008473ffffffffffffffffffffffffffffffffffffffff1673ffffffffffffffffffffffffffffffffffffffff168152602001908152602001600020819055508173ffffffffffffffffffffffffffffffffffffffff168373ffffffffffffffffffffffffffffffffffffffff167f8c5be1e5ebec7d5bd14f71427d1e84f3dd0314c0f7b2291e5b200ac8c7c3b925836040516131dc91906153f8565b60405180910390a3505050565b6131f38282613e70565b61330f5773c02aaa39b223fe8d0a0e5c4f27ead9083c756cc273ffffffffffffffffffffffffffffffffffffffff1663d0e30db0826040518263ffffffff1660e01b81526004016000604051808303818588803b15801561325357600080fd5b505af1158015613267573d6000803e3d6000fd5b505050505073c02aaa39b223fe8d0a0e5c4f27ead9083c756cc273ffffffffffffffffffffffffffffffffffffffff1663a9059cbb83836040518363ffffffff1660e01b81526004016132bb929190614ee6565b602060405180830381600087803b1580156132d557600080fd5b505af11580156132e9573d6000803e3d6000fd5b505050506040513d601f19601f8201168201806040525081019061330d91906147f1565b505b5050565b600061331f8484612c2d565b90507fffffffffffffffffffffffffffffffffffffffffffffffffffffffffffffffff8114613399578181101561338b576040517f08c379a0000000000000000000000000000000000000000000000000000000008152600401613382906150f8565b60405180910390fd5b613398848484840361301e565b5b50505050565b600073ffffffffffffffffffffffffffffffffffffffff168373ffffffffffffffffffffffffffffffffffffffff16141561340f576040517f08c379a000000000000000000000000000000000000000000000000000000000815260040161340690615258565b60405180910390fd5b600073ffffffffffffffffffffffffffffffffffffffff168273ffffffffffffffffffffffffffffffffffffffff16141561347f576040517f08c379a000000000000000000000000000000000000000000000000000000000815260040161347690614fb8565b60405180910390fd5b61348a838383613eec565b6000603360008573ffffffffffffffffffffffffffffffffffffffff1673ffffffffffffffffffffffffffffffffffffffff16815260200190815260200160002054905081811015613511576040517f08c379a000000000000000000000000000000000000000000000000000000000815260040161350890615118565b60405180910390fd5b818103603360008673ffffffffffffffffffffffffffffffffffffffff1673ffffffffffffffffffffffffffffffffffffffff1681526020019081526020016000208190555081603360008573ffffffffffffffffffffffffffffffffffffffff1673ffffffffffffffffffffffffffffffffffffffff16815260200190815260200160002060008282546135a69190615508565b925050819055508273ffffffffffffffffffffffffffffffffffffffff168473ffffffffffffffffffffffffffffffffffffffff167fddf252ad1be2c89b69c2b068fc378daa952ba7f163c4a11628f55a4df523b3ef8460405161360a91906153f8565b60405180910390a361361d8484846140e2565b50505050565b6000808273ffffffffffffffffffffffffffffffffffffffff163b119050919050565b600060019054906101000a900460ff16613695576040517f08c379a000000000000000000000000000000000000000000000000000000000815260040161368c906152f8565b60405180910390fd5b61369f82826140e7565b5050565b600060019054906101000a900460ff166136f2576040517f08c379a00000000000000000000000000000000000000000000000000000000081526004016136e9906152f8565b60405180910390fd5b565b600060019054906101000a900460ff16613743576040517f08c379a000000000000000000000000000000000000000000000000000000000815260040161373a906152f8565b60405180910390fd5b565b600073ffffffffffffffffffffffffffffffffffffffff168273ffffffffffffffffffffffffffffffffffffffff1614156137b5576040517f08c379a00000000000000000000000000000000000000000000000000000000081526004016137ac906153b8565b60405180910390fd5b6137c160008383613eec565b80603560008282546137d39190615508565b9250508190555080603360008473ffffffffffffffffffffffffffffffffffffffff1673ffffffffffffffffffffffffffffffffffffffff16815260200190815260200160002060008282546138299190615508565b925050819055508173ffffffffffffffffffffffffffffffffffffffff16600073ffffffffffffffffffffffffffffffffffffffff167fddf252ad1be2c89b69c2b068fc378daa952ba7f163c4a11628f55a4df523b3ef8360405161388e91906153f8565b60405180910390a36138a2600083836140e2565b5050565b600260038111156138e0577f4e487b7100000000000000000000000000000000000000000000000000000000600052602160045260246000fd5b61013360149054906101000a900460ff166003811115613929577f4e487b7100000000000000000000000000000000000000000000000000000000600052602160045260246000fd5b141561396a576040517f08c379a0000000000000000000000000000000000000000000000000000000008152600401613961906152d8565b60405180910390fd5b60006103e8613977610c57565b61013554613985919061558f565b61398f919061555e565b905060006301e13380826139a3919061555e565b9050600061013654426139b691906155e9565b9050600082826139c6919061558f565b905060007f000000000000000000000000000000000000000000000000000000000000000073ffffffffffffffffffffffffffffffffffffffff1663b3f006746040518163ffffffff1660e01b8152600401602060405180830381600087803b158015613a3257600080fd5b505af1158015613a46573d6000803e3d6000fd5b505050506040513d601f19601f82011682018060405250810190613a6a9190614456565b905060007f000000000000000000000000000000000000000000000000000000000000000073ffffffffffffffffffffffffffffffffffffffff16630ea90a126040518163ffffffff1660e01b8152600401602060405180830381600087803b158015613ad657600080fd5b505af1158015613aea573d6000803e3d6000fd5b505050506040513d601f19601f82011682018060405250810190613b0e919061486c565b90506103e8613b1b610c57565b82613b26919061558f565b613b30919061555e565b95506301e1338086613b42919061555e565b945060008585613b52919061558f565b90504261013681905550600073ffffffffffffffffffffffffffffffffffffffff1661013460009054906101000a900473ffffffffffffffffffffffffffffffffffffffff1673ffffffffffffffffffffffffffffffffffffffff1614613c1857613be061013460009054906101000a900473ffffffffffffffffffffffffffffffffffffffff1685613745565b7f62b10e3ff3d45b5ff546e740b893897facb1680285f989a64ae932d62c5388e184604051613c0f91906153f8565b60405180910390a15b600073ffffffffffffffffffffffffffffffffffffffff168373ffffffffffffffffffffffffffffffffffffffff1614613c8e57613c568382613745565b7f62b10e3ff3d45b5ff546e740b893897facb1680285f989a64ae932d62c5388e181604051613c8591906153f8565b60405180910390a15b50505050505050565b600073ffffffffffffffffffffffffffffffffffffffff168273ffffffffffffffffffffffffffffffffffffffff161415613d07576040517f08c379a0000000000000000000000000000000000000000000000000000000008152600401613cfe90615238565b60405180910390fd5b613d1382600083613eec565b6000603360008473ffffffffffffffffffffffffffffffffffffffff1673ffffffffffffffffffffffffffffffffffffffff16815260200190815260200160002054905081811015613d9a576040517f08c379a0000000000000000000000000000000000000000000000000000000008152600401613d9190615018565b60405180910390fd5b818103603360008573ffffffffffffffffffffffffffffffffffffffff1673ffffffffffffffffffffffffffffffffffffffff168152602001908152602001600020819055508160356000828254613df291906155e9565b92505081905550600073ffffffffffffffffffffffffffffffffffffffff168373ffffffffffffffffffffffffffffffffffffffff167fddf252ad1be2c89b69c2b068fc378daa952ba7f163c4a11628f55a4df523b3ef84604051613e5791906153f8565b60405180910390a3613e6b836000846140e2565b505050565b6000808373ffffffffffffffffffffffffffffffffffffffff168361753090604051613e9b90614e2d565b600060405180830381858888f193505050503d8060008114613ed9576040519150601f19603f3d011682016040523d82523d6000602084013e613ede565b606091505b505090508091505092915050565b60006003811115613f26577f4e487b7100000000000000000000000000000000000000000000000000000000600052602160045260246000fd5b61013360149054906101000a900460ff166003811115613f6f577f4e487b7100000000000000000000000000000000000000000000000000000000600052602160045260246000fd5b14156140dd57600061013960008573ffffffffffffffffffffffffffffffffffffffff1673ffffffffffffffffffffffffffffffffffffffff168152602001908152602001600020549050600061013960008573ffffffffffffffffffffffffffffffffffffffff1673ffffffffffffffffffffffffffffffffffffffff1681526020019081526020016000205490508181146140da5760008114156140535782610138600082825461402291906155e9565b925050819055508183614035919061558f565b610131600082825461404791906155e9565b925050819055506140d9565b60008214156140a05782610138600082825461406f9190615508565b925050819055508083614082919061558f565b61013160008282546140949190615508565b925050819055506140d8565b81836140ac919061558f565b81846140b8919061558f565b610131546140c69190615508565b6140d091906155e9565b610131819055505b5b5b50505b505050565b505050565b600060019054906101000a900460ff16614136576040517f08c379a000000000000000000000000000000000000000000000000000000000815260040161412d906152f8565b60405180910390fd5b816036908051906020019061414c929190614168565b508060379080519060200190614163929190614168565b505050565b82805461417490615771565b90600052602060002090601f01602090048101928261419657600085556141dd565b82601f106141af57805160ff19168380011785556141dd565b828001600101855582156141dd579182015b828111156141dc5782518255916020019190600101906141c1565b5b5090506141ea91906141ee565b5090565b5b808211156142075760008160009055506001016141ef565b5090565b600061421e61421984615453565b61542e565b9050808382526020820190508285602086028201111561423d57600080fd5b60005b8581101561426d578161425388826143da565b845260208401935060208301925050600181019050614240565b5050509392505050565b600061428a6142858461547f565b61542e565b9050828152602081018484840111156142a257600080fd5b6142ad84828561572f565b509392505050565b60006142c86142c3846154b0565b61542e565b9050828152602081018484840111156142e057600080fd5b6142eb84828561572f565b509392505050565b60008135905061430281616047565b92915050565b60008151905061431781616047565b92915050565b60008151905061432c8161605e565b92915050565b600082601f83011261434357600080fd5b813561435384826020860161420b565b91505092915050565b60008151905061436b81616075565b92915050565b6000813590506143808161608c565b92915050565b600082601f83011261439757600080fd5b81356143a7848260208601614277565b91505092915050565b600082601f8301126143c157600080fd5b81356143d18482602086016142b5565b91505092915050565b6000813590506143e9816160a3565b92915050565b6000815190506143fe816160a3565b92915050565b60006020828403121561441657600080fd5b6000614424848285016142f3565b91505092915050565b60006020828403121561443f57600080fd5b600061444d84828501614308565b91505092915050565b60006020828403121561446857600080fd5b60006144768482850161431d565b91505092915050565b6000806040838503121561449257600080fd5b60006144a0858286016142f3565b92505060206144b1858286016142f3565b9150509250929050565b600080600080600060a086880312156144d357600080fd5b60006144e1888289016142f3565b95505060206144f2888289016142f3565b945050604086013567ffffffffffffffff81111561450f57600080fd5b61451b88828901614332565b935050606086013567ffffffffffffffff81111561453857600080fd5b61454488828901614332565b925050608086013567ffffffffffffffff81111561456157600080fd5b61456d88828901614386565b9150509295509295909350565b60008060006060848603121561458f57600080fd5b600061459d868287016142f3565b93505060206145ae868287016142f3565b92505060406145bf868287016143da565b9150509250925092565b600080600080608085870312156145df57600080fd5b60006145ed878288016142f3565b94505060206145fe878288016142f3565b935050604061460f878288016143da565b925050606085013567ffffffffffffffff81111561462c57600080fd5b61463887828801614386565b91505092959194509250565b600080600080600060a0868803121561465c57600080fd5b600061466a888289016142f3565b955050602061467b888289016142f3565b945050604061468c888289016143da565b935050606061469d888289016143da565b925050608086013567ffffffffffffffff8111156146ba57600080fd5b6146c688828901614386565b9150509295509295909350565b600080600080600080600080610100898b0312156146f057600080fd5b60006146fe8b828c016142f3565b985050602061470f8b828c016142f3565b97505060406147208b828c016143da565b96505060606147318b828c016143da565b95505060806147428b828c016143da565b94505060a06147538b828c016143da565b93505060c089013567ffffffffffffffff81111561477057600080fd5b61477c8b828c016143b0565b92505060e089013567ffffffffffffffff81111561479957600080fd5b6147a58b828c016143b0565b9150509295985092959890939650565b600080604083850312156147c857600080fd5b60006147d6858286016142f3565b92505060206147e7858286016143da565b9150509250929050565b60006020828403121561480357600080fd5b60006148118482850161435c565b91505092915050565b60006020828403121561482c57600080fd5b600061483a84828501614371565b91505092915050565b60006020828403121561485557600080fd5b6000614863848285016143da565b91505092915050565b60006020828403121561487e57600080fd5b600061488c848285016143ef565b91505092915050565b61489e816156c3565b82525050565b6148ad8161562f565b82525050565b6148bc8161561d565b82525050565b6148cb81615641565b82525050565b6148da8161564d565b82525050565b6148e9816156d5565b82525050565b6148f8816156e7565b82525050565b614907816156f9565b82525050565b6000614918826154e1565b61492281856154f7565b935061493281856020860161573e565b61493b816158bf565b840191505092915050565b60006149536023836154f7565b915061495e826158d0565b604082019050919050565b60006149766017836154f7565b91506149818261591f565b602082019050919050565b6000614999601c836154f7565b91506149a482615948565b602082019050919050565b60006149bc6022836154f7565b91506149c782615971565b604082019050919050565b60006149df6022836154f7565b91506149ea826159c0565b604082019050919050565b6000614a026017836154f7565b9150614a0d82615a0f565b602082019050919050565b6000614a25601a836154f7565b9150614a3082615a38565b602082019050919050565b6000614a486012836154f7565b9150614a5382615a61565b602082019050919050565b6000614a6b6013836154f7565b9150614a7682615a8a565b602082019050919050565b6000614a8e600c836154f7565b9150614a9982615ab3565b602082019050919050565b6000614ab1601d836154f7565b9150614abc82615adc565b602082019050919050565b6000614ad46026836154f7565b9150614adf82615b05565b604082019050919050565b6000614af76011836154f7565b9150614b0282615b54565b602082019050919050565b6000614b1a6010836154f7565b9150614b2582615b7d565b602082019050919050565b6000614b3d6017836154f7565b9150614b4882615ba6565b602082019050919050565b6000614b606012836154f7565b9150614b6b82615bcf565b602082019050919050565b6000614b83602e836154f7565b9150614b8e82615bf8565b604082019050919050565b6000614ba6601d836154f7565b9150614bb182615c47565b602082019050919050565b6000614bc96011836154f7565b9150614bd482615c70565b602082019050919050565b6000614bec6024836154f7565b9150614bf782615c99565b604082019050919050565b6000614c0f6021836154f7565b9150614c1a82615ce8565b604082019050919050565b6000614c326025836154f7565b9150614c3d82615d37565b604082019050919050565b6000614c55600e836154f7565b9150614c6082615d86565b602082019050919050565b6000614c786000836154ec565b9150614c8382615daf565b600082019050919050565b6000614c9b6024836154f7565b9150614ca682615db2565b604082019050919050565b6000614cbe601c836154f7565b9150614cc982615e01565b602082019050919050565b6000614ce16025836154f7565b9150614cec82615e2a565b604082019050919050565b6000614d04602b836154f7565b9150614d0f82615e79565b604082019050919050565b6000614d27600f836154f7565b9150614d3282615ec8565b602082019050919050565b6000614d4a601d836154f7565b9150614d5582615ef1565b602082019050919050565b6000614d6d6027836154f7565b9150614d7882615f1a565b604082019050919050565b6000614d906014836154f7565b9150614d9b82615f69565b602082019050919050565b6000614db36025836154f7565b9150614dbe82615f92565b604082019050919050565b6000614dd6601f836154f7565b9150614de182615fe1565b602082019050919050565b6000614df96019836154f7565b9150614e048261600a565b602082019050919050565b614e18816156ac565b82525050565b614e27816156b6565b82525050565b6000614e3882614c6b565b9150819050919050565b6000602082019050614e5760008301846148b3565b92915050565b6000602082019050614e7260008301846148a4565b92915050565b6000606082019050614e8d60008301866148b3565b614e9a6020830185614895565b614ea76040830184614e0f565b949350505050565b6000606082019050614ec460008301866148b3565b614ed160208301856148b3565b614ede6040830184614e0f565b949350505050565b6000604082019050614efb60008301856148b3565b614f086020830184614e0f565b9392505050565b6000602082019050614f2460008301846148c2565b92915050565b6000602082019050614f3f60008301846148d1565b92915050565b6000602082019050614f5a60008301846148e0565b92915050565b6000602082019050614f7560008301846148ef565b92915050565b6000602082019050614f9060008301846148fe565b92915050565b60006020820190508181036000830152614fb0818461490d565b905092915050565b60006020820190508181036000830152614fd181614946565b9050919050565b60006020820190508181036000830152614ff181614969565b9050919050565b600060208201905081810360008301526150118161498c565b9050919050565b60006020820190508181036000830152615031816149af565b9050919050565b60006020820190508181036000830152615051816149d2565b9050919050565b60006020820190508181036000830152615071816149f5565b9050919050565b6000602082019050818103600083015261509181614a18565b9050919050565b600060208201905081810360008301526150b181614a3b565b9050919050565b600060208201905081810360008301526150d181614a5e565b9050919050565b600060208201905081810360008301526150f181614a81565b9050919050565b6000602082019050818103600083015261511181614aa4565b9050919050565b6000602082019050818103600083015261513181614ac7565b9050919050565b6000602082019050818103600083015261515181614aea565b9050919050565b6000602082019050818103600083015261517181614b0d565b9050919050565b6000602082019050818103600083015261519181614b30565b9050919050565b600060208201905081810360008301526151b181614b53565b9050919050565b600060208201905081810360008301526151d181614b76565b9050919050565b600060208201905081810360008301526151f181614b99565b9050919050565b6000602082019050818103600083015261521181614bbc565b9050919050565b6000602082019050818103600083015261523181614bdf565b9050919050565b6000602082019050818103600083015261525181614c02565b9050919050565b6000602082019050818103600083015261527181614c25565b9050919050565b6000602082019050818103600083015261529181614c48565b9050919050565b600060208201905081810360008301526152b181614c8e565b9050919050565b600060208201905081810360008301526152d181614cb1565b9050919050565b600060208201905081810360008301526152f181614cd4565b9050919050565b6000602082019050818103600083015261531181614cf7565b9050919050565b6000602082019050818103600083015261533181614d1a565b9050919050565b6000602082019050818103600083015261535181614d3d565b9050919050565b6000602082019050818103600083015261537181614d60565b9050919050565b6000602082019050818103600083015261539181614d83565b9050919050565b600060208201905081810360008301526153b181614da6565b9050919050565b600060208201905081810360008301526153d181614dc9565b9050919050565b600060208201905081810360008301526153f181614dec565b9050919050565b600060208201905061540d6000830184614e0f565b92915050565b60006020820190506154286000830184614e1e565b92915050565b6000615438615449565b905061544482826157a3565b919050565b6000604051905090565b600067ffffffffffffffff82111561546e5761546d615890565b5b602082029050602081019050919050565b600067ffffffffffffffff82111561549a57615499615890565b5b6154a3826158bf565b9050602081019050919050565b600067ffffffffffffffff8211156154cb576154ca615890565b5b6154d4826158bf565b9050602081019050919050565b600081519050919050565b600081905092915050565b600082825260208201905092915050565b6000615513826156ac565b915061551e836156ac565b9250827fffffffffffffffffffffffffffffffffffffffffffffffffffffffffffffffff03821115615553576155526157d4565b5b828201905092915050565b6000615569826156ac565b9150615574836156ac565b92508261558457615583615803565b5b828204905092915050565b600061559a826156ac565b91506155a5836156ac565b9250817fffffffffffffffffffffffffffffffffffffffffffffffffffffffffffffffff04831182151516156155de576155dd6157d4565b5b828202905092915050565b60006155f4826156ac565b91506155ff836156ac565b925082821015615612576156116157d4565b5b828203905092915050565b60006156288261568c565b9050919050565b600061563a8261568c565b9050919050565b60008115159050919050565b60007fffffffff0000000000000000000000000000000000000000000000000000000082169050919050565b600081905061568782616033565b919050565b600073ffffffffffffffffffffffffffffffffffffffff82169050919050565b6000819050919050565b600060ff82169050919050565b60006156ce8261570b565b9050919050565b60006156e082615679565b9050919050565b60006156f2826156ac565b9050919050565b6000615704826156b6565b9050919050565b60006157168261571d565b9050919050565b60006157288261568c565b9050919050565b82818337600083830152505050565b60005b8381101561575c578082015181840152602081019050615741565b8381111561576b576000848401525b50505050565b6000600282049050600182168061578957607f821691505b6020821081141561579d5761579c615861565b5b50919050565b6157ac826158bf565b810181811067ffffffffffffffff821117156157cb576157ca615890565b5b80604052505050565b7f4e487b7100000000000000000000000000000000000000000000000000000000600052601160045260246000fd5b7f4e487b7100000000000000000000000000000000000000000000000000000000600052601260045260246000fd5b7f4e487b7100000000000000000000000000000000000000000000000000000000600052602160045260246000fd5b7f4e487b7100000000000000000000000000000000000000000000000000000000600052602260045260246000fd5b7f4e487b7100000000000000000000000000000000000000000000000000000000600052604160045260246000fd5b6000601f19601f8301169050919050565b7f45524332303a207472616e7366657220746f20746865207a65726f206164647260008201527f6573730000000000000000000000000000000000000000000000000000000000602082015250565b7f73746172743a6e6f2061756374696f6e20737461727473000000000000000000600082015250565b7f7570646174653a7265736572766520707269636520746f6f206c6f7700000000600082015250565b7f45524332303a206275726e20616d6f756e7420657863656564732062616c616e60008201527f6365000000000000000000000000000000000000000000000000000000000000602082015250565b7f45524332303a20617070726f766520746f20746865207a65726f20616464726560008201527f7373000000000000000000000000000000000000000000000000000000000000602082015250565b7f6269643a61756374696f6e206973206e6f74206c697665000000000000000000600082015250565b7f636173683a6e6f20746f6b656e7320746f2063617368206f7574000000000000600082015250565b7f7570646174653a63616e27742072616973650000000000000000000000000000600082015250565b7f72656465656d3a6e6f2072656465656d696e6700000000000000000000000000600082015250565b7f6b69636b3a6e6f7420676f760000000000000000000000000000000000000000600082015250565b7f45524332303a20696e73756666696369656e7420616c6c6f77616e6365000000600082015250565b7f45524332303a207472616e7366657220616d6f756e742065786365656473206260008201527f616c616e63650000000000000000000000000000000000000000000000000000602082015250565b7f73746172743a746f6f206c6f7720626964000000000000000000000000000000600082015250565b7f656e643a61756374696f6e206c69766500000000000000000000000000000000600082015250565b7f73746172743a6e6f7420656e6f75676820766f74657273000000000000000000600082015250565b7f7570646174653a6e6f742063757261746f720000000000000000000000000000600082015250565b7f496e697469616c697a61626c653a20636f6e747261637420697320616c72656160008201527f647920696e697469616c697a6564000000000000000000000000000000000000602082015250565b7f7570646174653a696e76616c69642061756374696f6e206c656e677468000000600082015250565b7f6269643a61756374696f6e20656e646564000000000000000000000000000000600082015250565b7f7570646174653a63616e6e6f7420696e6372656173652066656520746869732060008201527f6869676800000000000000000000000000000000000000000000000000000000602082015250565b7f45524332303a206275726e2066726f6d20746865207a65726f2061646472657360008201527f7300000000000000000000000000000000000000000000000000000000000000602082015250565b7f45524332303a207472616e736665722066726f6d20746865207a65726f20616460008201527f6472657373000000000000000000000000000000000000000000000000000000602082015250565b7f72656d6f76653a6e6f7420676f76000000000000000000000000000000000000600082015250565b50565b7f45524332303a20617070726f76652066726f6d20746865207a65726f2061646460008201527f7265737300000000000000000000000000000000000000000000000000000000602082015250565b7f656e643a7661756c742068617320616c726561647920636c6f73656400000000600082015250565b7f636c61696d3a63616e6e6f7420636c61696d2061667465722061756374696f6e60008201527f20656e6473000000000000000000000000000000000000000000000000000000602082015250565b7f496e697469616c697a61626c653a20636f6e7472616374206973206e6f74206960008201527f6e697469616c697a696e67000000000000000000000000000000000000000000602082015250565b7f6269643a746f6f206c6f77206269640000000000000000000000000000000000600082015250565b7f7570646174653a7265736572766520707269636520746f6f2068696768000000600082015250565b7f7570646174653a61756374696f6e206c6976652063616e6e6f7420757064617460008201527f6520707269636500000000000000000000000000000000000000000000000000602082015250565b7f7570646174653a6e6f7420616e20757064617465000000000000000000000000600082015250565b7f45524332303a2064656372656173656420616c6c6f77616e63652062656c6f7760008201527f207a65726f000000000000000000000000000000000000000000000000000000602082015250565b7f45524332303a206d696e7420746f20746865207a65726f206164647265737300600082015250565b7f636173683a7661756c74206e6f7420636c6f7365642079657400000000000000600082015250565b6004811061604457616043615832565b5b50565b6160508161561d565b811461605b57600080fd5b50565b6160678161562f565b811461607257600080fd5b50565b61607e81615641565b811461608957600080fd5b50565b6160958161564d565b81146160a057600080fd5b50565b6160ac816156ac565b81146160b757600080fd5b5056fea26469706673582212206793d7a2f659720aa116bd2dea95b3e2f4a7b5cee9f2e2b9dcf1fa4f1b753c6664736f6c63430008040033",
  "immutableReferences": {
    "119": [
      {
        "length": 32,
        "start": 592
      }
    ],
    "121": [
      {
        "length": 32,
        "start": 469
      },
      {
        "length": 32,
        "start": 804
      }
    ]
  },
  "source": "// SPDX-License-Identifier: MIT\r\npragma solidity >=0.4.22 <0.9.0;\r\n\r\nimport \"@openzeppelin/contracts/access/Ownable.sol\";\r\nimport \"@openzeppelin/contracts/security/Pausable.sol\";\r\nimport \"@openzeppelin/contracts/utils/Counters.sol\";\r\nimport \"./LaunchInitProxy.sol\";\r\nimport \"@openzeppelin/contracts/interfaces/IERC721.sol\";\r\nimport \"./LaunchToken.sol\";\r\n\r\ncontract LaunchFactory is Ownable, Pausable {\r\n    using Counters for Counters.Counter;\r\n\r\n    Counters.Counter private _vaultTracker;\r\n\r\n    mapping(uint256 => address) vaults;\r\n\r\n    address public immutable launchSettings;\r\n    address public immutable launchLogic;\r\n\r\n    event Mint(\r\n        address indexed token,\r\n        uint256 id,\r\n        uint256 priceOfToken,\r\n        address vault,\r\n        uint256 vaultId\r\n    );\r\n\r\n    constructor(address _launchSettings) {\r\n        launchSettings = _launchSettings;\r\n        launchLogic = address(new LaunchToken(_launchSettings));\r\n    }\r\n\r\n    function createVault(\r\n        string memory _name,\r\n        string memory _symbol,\r\n        uint256 _supply,\r\n        uint256 priceOfNft,\r\n        address nft,\r\n        uint256 nftId,\r\n        uint256 platformFee\r\n    ) external whenNotPaused returns (uint256) {\r\n        bytes memory _initializeData = abi.encodeWithSignature(\r\n            \"initialize(address,address,uint256,uint256,uint256,uint256,string,string)\",\r\n            msg.sender,\r\n            nft,\r\n            nftId,\r\n            _supply,\r\n            priceOfNft,\r\n            platformFee,\r\n            _name,\r\n            _symbol\r\n        );\r\n\r\n        address newVault = address(\r\n            new LaunchInitProxy(launchLogic, _initializeData)\r\n        );\r\n\r\n        emit Mint(nft, nftId, priceOfNft, newVault, _vaultTracker.current());\r\n\r\n        IERC721(nft).safeTransferFrom(msg.sender, newVault, nftId);\r\n\r\n        vaults[_vaultTracker.current()] = newVault;\r\n\r\n        _vaultTracker.increment();\r\n\r\n        return _vaultTracker.current() - 1;\r\n    }\r\n\r\n    function pause() external onlyOwner {\r\n        _pause();\r\n    }\r\n\r\n    function unpause() external onlyOwner {\r\n        _unpause();\r\n    }\r\n}\r\n",
  "sourcePath": "D:/Repo/NFT-Launch/smart-contracts/contracts/LaunchFactory.sol",
  "compiler": {
    "name": "solc",
    "version": "0.8.4+commit.c7e474f2.Emscripten.clang"
  },
  "schemaVersion": "3.4.0",
  "updatedAt": "2022-07-11T10:04:19.675Z",
  "networkType": "ethereum",
  "devdoc": {
    "kind": "dev",
    "methods": {
      "owner()": {
        "details": "Returns the address of the current owner."
      },
      "paused()": {
        "details": "Returns true if the contract is paused, and false otherwise."
      },
      "renounceOwnership()": {
        "details": "Leaves the contract without owner. It will not be possible to call `onlyOwner` functions anymore. Can only be called by the current owner. NOTE: Renouncing ownership will leave the contract without an owner, thereby removing any functionality that is only available to the owner."
      },
      "transferOwnership(address)": {
        "details": "Transfers ownership of the contract to a new account (`newOwner`). Can only be called by the current owner."
      }
    },
    "version": 1
  },
  "userdoc": {
    "kind": "user",
    "methods": {},
    "version": 1
  }
}